{
  "_format": "hh-sol-artifact-1",
  "contractName": "MitchMinter",
  "sourceName": "contracts/MitchMinterSupplyUpgradeable.sol",
  "abi": [
    {
      "inputs": [],
      "stateMutability": "nonpayable",
      "type": "constructor"
    },
    {
      "inputs": [
        {
          "internalType": "uint256",
          "name": "tokenId",
          "type": "uint256"
        }
      ],
      "name": "NoTokenExists",
      "type": "error"
    },
    {
      "anonymous": false,
      "inputs": [
        {
          "indexed": true,
          "internalType": "address",
          "name": "account",
          "type": "address"
        },
        {
          "indexed": true,
          "internalType": "address",
          "name": "operator",
          "type": "address"
        },
        {
          "indexed": false,
          "internalType": "bool",
          "name": "approved",
          "type": "bool"
        }
      ],
      "name": "ApprovalForAll",
      "type": "event"
    },
    {
      "anonymous": false,
      "inputs": [
        {
          "indexed": false,
          "internalType": "uint8",
          "name": "version",
          "type": "uint8"
        }
      ],
      "name": "Initialized",
      "type": "event"
    },
    {
      "anonymous": false,
      "inputs": [
        {
          "indexed": false,
          "internalType": "address",
          "name": "recipient",
          "type": "address"
        },
        {
          "indexed": false,
          "internalType": "uint256",
          "name": "tokenId",
          "type": "uint256"
        },
        {
          "indexed": false,
          "internalType": "uint256",
          "name": "amount",
          "type": "uint256"
        },
        {
          "indexed": false,
          "internalType": "uint256",
          "name": "totalPrice",
          "type": "uint256"
        }
      ],
      "name": "Mint",
      "type": "event"
    },
    {
      "anonymous": false,
      "inputs": [
        {
          "indexed": false,
          "internalType": "address",
          "name": "recipient",
          "type": "address"
        },
        {
          "indexed": false,
          "internalType": "uint256",
          "name": "totalAmounts",
          "type": "uint256"
        },
        {
          "indexed": false,
          "internalType": "uint256",
          "name": "finalPrice",
          "type": "uint256"
        }
      ],
      "name": "MintBatch",
      "type": "event"
    },
    {
      "anonymous": false,
      "inputs": [
        {
          "indexed": true,
          "internalType": "bytes32",
          "name": "role",
          "type": "bytes32"
        },
        {
          "indexed": true,
          "internalType": "bytes32",
          "name": "previousAdminRole",
          "type": "bytes32"
        },
        {
          "indexed": true,
          "internalType": "bytes32",
          "name": "newAdminRole",
          "type": "bytes32"
        }
      ],
      "name": "RoleAdminChanged",
      "type": "event"
    },
    {
      "anonymous": false,
      "inputs": [
        {
          "indexed": true,
          "internalType": "bytes32",
          "name": "role",
          "type": "bytes32"
        },
        {
          "indexed": true,
          "internalType": "address",
          "name": "account",
          "type": "address"
        },
        {
          "indexed": true,
          "internalType": "address",
          "name": "sender",
          "type": "address"
        }
      ],
      "name": "RoleGranted",
      "type": "event"
    },
    {
      "anonymous": false,
      "inputs": [
        {
          "indexed": true,
          "internalType": "bytes32",
          "name": "role",
          "type": "bytes32"
        },
        {
          "indexed": true,
          "internalType": "address",
          "name": "account",
          "type": "address"
        },
        {
          "indexed": true,
          "internalType": "address",
          "name": "sender",
          "type": "address"
        }
      ],
      "name": "RoleRevoked",
      "type": "event"
    },
    {
      "anonymous": false,
      "inputs": [
        {
          "indexed": true,
          "internalType": "address",
          "name": "operator",
          "type": "address"
        },
        {
          "indexed": true,
          "internalType": "address",
          "name": "from",
          "type": "address"
        },
        {
          "indexed": true,
          "internalType": "address",
          "name": "to",
          "type": "address"
        },
        {
          "indexed": false,
          "internalType": "uint256[]",
          "name": "ids",
          "type": "uint256[]"
        },
        {
          "indexed": false,
          "internalType": "uint256[]",
          "name": "values",
          "type": "uint256[]"
        }
      ],
      "name": "TransferBatch",
      "type": "event"
    },
    {
      "anonymous": false,
      "inputs": [
        {
          "indexed": true,
          "internalType": "address",
          "name": "operator",
          "type": "address"
        },
        {
          "indexed": true,
          "internalType": "address",
          "name": "from",
          "type": "address"
        },
        {
          "indexed": true,
          "internalType": "address",
          "name": "to",
          "type": "address"
        },
        {
          "indexed": false,
          "internalType": "uint256",
          "name": "id",
          "type": "uint256"
        },
        {
          "indexed": false,
          "internalType": "uint256",
          "name": "value",
          "type": "uint256"
        }
      ],
      "name": "TransferSingle",
      "type": "event"
    },
    {
      "anonymous": false,
      "inputs": [
        {
          "indexed": false,
          "internalType": "string",
          "name": "value",
          "type": "string"
        },
        {
          "indexed": true,
          "internalType": "uint256",
          "name": "id",
          "type": "uint256"
        }
      ],
      "name": "URI",
      "type": "event"
    },
    {
      "anonymous": false,
      "inputs": [
        {
          "indexed": false,
          "internalType": "address",
          "name": "recipient",
          "type": "address"
        },
        {
          "indexed": false,
          "internalType": "uint256",
          "name": "amount",
          "type": "uint256"
        }
      ],
      "name": "Withdrawal",
      "type": "event"
    },
    {
      "inputs": [],
      "name": "DEFAULT_ADMIN_ROLE",
      "outputs": [
        {
          "internalType": "bytes32",
          "name": "",
          "type": "bytes32"
        }
      ],
      "stateMutability": "view",
      "type": "function"
    },
    {
      "inputs": [],
      "name": "MINTER_ROLE",
      "outputs": [
        {
          "internalType": "bytes32",
          "name": "",
          "type": "bytes32"
        }
      ],
      "stateMutability": "view",
      "type": "function"
    },
    {
      "inputs": [],
      "name": "URI_SETTER_ROLE",
      "outputs": [
        {
          "internalType": "bytes32",
          "name": "",
          "type": "bytes32"
        }
      ],
      "stateMutability": "view",
      "type": "function"
    },
    {
      "inputs": [
        {
          "internalType": "string",
          "name": "tokenURI",
          "type": "string"
        },
        {
          "internalType": "uint256",
          "name": "maxSupply",
          "type": "uint256"
        }
      ],
      "name": "addToken",
      "outputs": [],
      "stateMutability": "nonpayable",
      "type": "function"
    },
    {
      "inputs": [
        {
          "internalType": "address",
          "name": "account",
          "type": "address"
        },
        {
          "internalType": "uint256",
          "name": "id",
          "type": "uint256"
        }
      ],
      "name": "balanceOf",
      "outputs": [
        {
          "internalType": "uint256",
          "name": "",
          "type": "uint256"
        }
      ],
      "stateMutability": "view",
      "type": "function"
    },
    {
      "inputs": [
        {
          "internalType": "address[]",
          "name": "accounts",
          "type": "address[]"
        },
        {
          "internalType": "uint256[]",
          "name": "ids",
          "type": "uint256[]"
        }
      ],
      "name": "balanceOfBatch",
      "outputs": [
        {
          "internalType": "uint256[]",
          "name": "",
          "type": "uint256[]"
        }
      ],
      "stateMutability": "view",
      "type": "function"
    },
    {
      "inputs": [
        {
          "internalType": "address",
          "name": "account",
          "type": "address"
        },
        {
          "internalType": "uint256",
          "name": "id",
          "type": "uint256"
        },
        {
          "internalType": "uint256",
          "name": "value",
          "type": "uint256"
        }
      ],
      "name": "burn",
      "outputs": [],
      "stateMutability": "nonpayable",
      "type": "function"
    },
    {
      "inputs": [
        {
          "internalType": "address",
          "name": "account",
          "type": "address"
        },
        {
          "internalType": "uint256[]",
          "name": "ids",
          "type": "uint256[]"
        },
        {
          "internalType": "uint256[]",
          "name": "values",
          "type": "uint256[]"
        }
      ],
      "name": "burnBatch",
      "outputs": [],
      "stateMutability": "nonpayable",
      "type": "function"
    },
    {
      "inputs": [
        {
          "internalType": "uint256",
          "name": "id",
          "type": "uint256"
        }
      ],
      "name": "exists",
      "outputs": [
        {
          "internalType": "bool",
          "name": "",
          "type": "bool"
        }
      ],
      "stateMutability": "view",
      "type": "function"
    },
    {
      "inputs": [
        {
          "internalType": "bytes32",
          "name": "role",
          "type": "bytes32"
        }
      ],
      "name": "getRoleAdmin",
      "outputs": [
        {
          "internalType": "bytes32",
          "name": "",
          "type": "bytes32"
        }
      ],
      "stateMutability": "view",
      "type": "function"
    },
    {
      "inputs": [
        {
          "internalType": "uint256",
          "name": "tokenId",
          "type": "uint256"
        }
      ],
      "name": "getTokenInfo",
      "outputs": [
        {
          "internalType": "uint256",
          "name": "price",
          "type": "uint256"
        },
        {
          "internalType": "string",
          "name": "tokenURI",
          "type": "string"
        }
      ],
      "stateMutability": "view",
      "type": "function"
    },
    {
      "inputs": [
        {
          "internalType": "bytes32",
          "name": "role",
          "type": "bytes32"
        },
        {
          "internalType": "address",
          "name": "account",
          "type": "address"
        }
      ],
      "name": "grantRole",
      "outputs": [],
      "stateMutability": "nonpayable",
      "type": "function"
    },
    {
      "inputs": [
        {
          "internalType": "bytes32",
          "name": "role",
          "type": "bytes32"
        },
        {
          "internalType": "address",
          "name": "account",
          "type": "address"
        }
      ],
      "name": "hasRole",
      "outputs": [
        {
          "internalType": "bool",
          "name": "",
          "type": "bool"
        }
      ],
      "stateMutability": "view",
      "type": "function"
    },
    {
      "inputs": [
        {
          "internalType": "string",
          "name": "_baseURI",
          "type": "string"
        },
        {
          "internalType": "contract IERC20",
          "name": "_paymentToken",
          "type": "address"
        },
        {
          "internalType": "address",
          "name": "_mitchToken",
          "type": "address"
        },
        {
          "internalType": "uint256",
          "name": "_defaultPrice",
          "type": "uint256"
        }
      ],
      "name": "initialize",
      "outputs": [],
      "stateMutability": "nonpayable",
      "type": "function"
    },
    {
      "inputs": [
        {
          "internalType": "address",
          "name": "account",
          "type": "address"
        },
        {
          "internalType": "address",
          "name": "operator",
          "type": "address"
        }
      ],
      "name": "isApprovedForAll",
      "outputs": [
        {
          "internalType": "bool",
          "name": "",
          "type": "bool"
        }
      ],
      "stateMutability": "view",
      "type": "function"
    },
    {
      "inputs": [
        {
          "internalType": "uint256",
          "name": "",
          "type": "uint256"
        }
      ],
      "name": "maxTokenSupply",
      "outputs": [
        {
          "internalType": "uint256",
          "name": "",
          "type": "uint256"
        }
      ],
      "stateMutability": "view",
      "type": "function"
    },
    {
      "inputs": [
        {
          "internalType": "address",
          "name": "to",
          "type": "address"
        },
        {
          "internalType": "uint256",
          "name": "id",
          "type": "uint256"
        },
        {
          "internalType": "uint256",
          "name": "amount",
          "type": "uint256"
        }
      ],
      "name": "mint",
      "outputs": [],
      "stateMutability": "nonpayable",
      "type": "function"
    },
    {
      "inputs": [
        {
          "internalType": "address",
          "name": "to",
          "type": "address"
        },
        {
          "internalType": "uint256[]",
          "name": "ids",
          "type": "uint256[]"
        },
        {
          "internalType": "uint256[]",
          "name": "amounts",
          "type": "uint256[]"
        }
      ],
      "name": "mintBatch",
      "outputs": [],
      "stateMutability": "nonpayable",
      "type": "function"
    },
    {
      "inputs": [
        {
          "internalType": "address",
          "name": "to",
          "type": "address"
        },
        {
          "internalType": "uint256[]",
          "name": "ids",
          "type": "uint256[]"
        },
        {
          "internalType": "uint256[]",
          "name": "amounts",
          "type": "uint256[]"
        }
      ],
      "name": "mintBatchWithNativeToken",
      "outputs": [],
      "stateMutability": "payable",
      "type": "function"
    },
    {
      "inputs": [
        {
          "internalType": "address",
          "name": "to",
          "type": "address"
        },
        {
          "internalType": "uint256",
          "name": "id",
          "type": "uint256"
        },
        {
          "internalType": "uint256",
          "name": "amount",
          "type": "uint256"
        }
      ],
      "name": "mintWithNativeToken",
      "outputs": [],
      "stateMutability": "payable",
      "type": "function"
    },
    {
      "inputs": [],
      "name": "mitchToken",
      "outputs": [
        {
          "internalType": "contract IMitchToken",
          "name": "",
          "type": "address"
        }
      ],
      "stateMutability": "view",
      "type": "function"
    },
    {
      "inputs": [],
      "name": "nativeMintEnabled",
      "outputs": [
        {
          "internalType": "bool",
          "name": "",
          "type": "bool"
        }
      ],
      "stateMutability": "view",
      "type": "function"
    },
    {
      "inputs": [],
      "name": "owner",
      "outputs": [
        {
          "internalType": "address",
          "name": "",
          "type": "address"
        }
      ],
      "stateMutability": "view",
      "type": "function"
    },
    {
      "inputs": [],
      "name": "paymentToken",
      "outputs": [
        {
          "internalType": "contract IERC20",
          "name": "",
          "type": "address"
        }
      ],
      "stateMutability": "view",
      "type": "function"
    },
    {
      "inputs": [
        {
          "internalType": "bytes32",
          "name": "role",
          "type": "bytes32"
        },
        {
          "internalType": "address",
          "name": "account",
          "type": "address"
        }
      ],
      "name": "renounceRole",
      "outputs": [],
      "stateMutability": "nonpayable",
      "type": "function"
    },
    {
      "inputs": [
        {
          "internalType": "uint256",
          "name": "tokenId",
          "type": "uint256"
        }
      ],
      "name": "resetTokenPrice",
      "outputs": [],
      "stateMutability": "nonpayable",
      "type": "function"
    },
    {
      "inputs": [
        {
          "internalType": "bytes32",
          "name": "role",
          "type": "bytes32"
        },
        {
          "internalType": "address",
          "name": "account",
          "type": "address"
        }
      ],
      "name": "revokeRole",
      "outputs": [],
      "stateMutability": "nonpayable",
      "type": "function"
    },
    {
      "inputs": [
        {
          "internalType": "address",
          "name": "from",
          "type": "address"
        },
        {
          "internalType": "address",
          "name": "to",
          "type": "address"
        },
        {
          "internalType": "uint256[]",
          "name": "ids",
          "type": "uint256[]"
        },
        {
          "internalType": "uint256[]",
          "name": "amounts",
          "type": "uint256[]"
        },
        {
          "internalType": "bytes",
          "name": "data",
          "type": "bytes"
        }
      ],
      "name": "safeBatchTransferFrom",
      "outputs": [],
      "stateMutability": "nonpayable",
      "type": "function"
    },
    {
      "inputs": [
        {
          "internalType": "address",
          "name": "from",
          "type": "address"
        },
        {
          "internalType": "address",
          "name": "to",
          "type": "address"
        },
        {
          "internalType": "uint256",
          "name": "id",
          "type": "uint256"
        },
        {
          "internalType": "uint256",
          "name": "amount",
          "type": "uint256"
        },
        {
          "internalType": "bytes",
          "name": "data",
          "type": "bytes"
        }
      ],
      "name": "safeTransferFrom",
      "outputs": [],
      "stateMutability": "nonpayable",
      "type": "function"
    },
    {
      "inputs": [
        {
          "internalType": "address",
          "name": "operator",
          "type": "address"
        },
        {
          "internalType": "bool",
          "name": "approved",
          "type": "bool"
        }
      ],
      "name": "setApprovalForAll",
      "outputs": [],
      "stateMutability": "nonpayable",
      "type": "function"
    },
    {
      "inputs": [
        {
          "internalType": "string",
          "name": "_baseURI",
          "type": "string"
        }
      ],
      "name": "setBaseURI",
      "outputs": [],
      "stateMutability": "nonpayable",
      "type": "function"
    },
    {
      "inputs": [
        {
          "internalType": "uint256",
          "name": "price",
          "type": "uint256"
        }
      ],
      "name": "setDefaultPrice",
      "outputs": [],
      "stateMutability": "nonpayable",
      "type": "function"
    },
    {
      "inputs": [
        {
          "internalType": "bool",
          "name": "enabled",
          "type": "bool"
        }
      ],
      "name": "setNativeTokenMinting",
      "outputs": [],
      "stateMutability": "nonpayable",
      "type": "function"
    },
    {
      "inputs": [
        {
          "internalType": "contract IERC20",
          "name": "newPaymentToken",
          "type": "address"
        }
      ],
      "name": "setPaymentToken",
      "outputs": [],
      "stateMutability": "nonpayable",
      "type": "function"
    },
    {
      "inputs": [
        {
          "internalType": "uint256",
          "name": "tokenId",
          "type": "uint256"
        },
        {
          "internalType": "uint256",
          "name": "price",
          "type": "uint256"
        }
      ],
      "name": "setTokenPrice",
      "outputs": [],
      "stateMutability": "nonpayable",
      "type": "function"
    },
    {
      "inputs": [
        {
          "internalType": "uint256",
          "name": "tokenId",
          "type": "uint256"
        },
        {
          "internalType": "string",
          "name": "tokenURI",
          "type": "string"
        }
      ],
      "name": "setTokenURI",
      "outputs": [],
      "stateMutability": "nonpayable",
      "type": "function"
    },
    {
      "inputs": [
        {
          "internalType": "bytes4",
          "name": "interfaceId",
          "type": "bytes4"
        }
      ],
      "name": "supportsInterface",
      "outputs": [
        {
          "internalType": "bool",
          "name": "",
          "type": "bool"
        }
      ],
      "stateMutability": "view",
      "type": "function"
    },
    {
      "inputs": [
        {
          "internalType": "uint256",
          "name": "",
          "type": "uint256"
        }
      ],
      "name": "tokenPrice",
      "outputs": [
        {
          "internalType": "uint256",
          "name": "",
          "type": "uint256"
        }
      ],
      "stateMutability": "view",
      "type": "function"
    },
    {
      "inputs": [
        {
          "internalType": "uint256",
          "name": "id",
          "type": "uint256"
        }
      ],
      "name": "totalSupply",
      "outputs": [
        {
          "internalType": "uint256",
          "name": "",
          "type": "uint256"
        }
      ],
      "stateMutability": "view",
      "type": "function"
    },
    {
      "inputs": [],
      "name": "uniqueTokens",
      "outputs": [
        {
          "internalType": "uint96",
          "name": "",
          "type": "uint96"
        }
      ],
      "stateMutability": "view",
      "type": "function"
    },
    {
      "inputs": [
        {
          "internalType": "uint256",
          "name": "tokenId",
          "type": "uint256"
        }
      ],
      "name": "uri",
      "outputs": [
        {
          "internalType": "string",
          "name": "",
          "type": "string"
        }
      ],
      "stateMutability": "view",
      "type": "function"
    },
    {
      "inputs": [],
      "name": "withdrawNativeToken",
      "outputs": [],
      "stateMutability": "payable",
      "type": "function"
    },
    {
      "inputs": [],
      "name": "withdrawTokens",
      "outputs": [],
      "stateMutability": "nonpayable",
      "type": "function"
    }
  ],
  "bytecode": "0x608060405261016080546001600160601b03191690553480156200002257600080fd5b506200002d62000033565b620000f4565b600054610100900460ff1615620000a05760405162461bcd60e51b815260206004820152602760248201527f496e697469616c697a61626c653a20636f6e747261637420697320696e697469604482015266616c697a696e6760c81b606482015260840160405180910390fd5b60005460ff90811614620000f2576000805460ff191660ff9081179091556040519081527f7f26b83ff96e1f2b6a682f133852f6798a09c465da95921460cefb38474024989060200160405180910390a15b565b6144ea80620001046000396000f3fe6080604052600436106102db5760003560e01c80636b20c45411610184578063bd85b039116100d6578063e985e9c51161008a578063f242432a11610064578063f242432a146108eb578063f5298aca1461090b578063fc5abac11461092b57600080fd5b8063e985e9c51461085a578063ea49b1cc146108a3578063eb685c47146108cb57600080fd5b8063d5391393116100bb578063d5391393146107e6578063d547741f1461081a578063d81d0a151461083a57600080fd5b8063bd85b0391461078a578063d4ddce8a146107b857600080fd5b80638ca132f71161013857806391d148541161011257806391d148541461070f578063a217fddf14610755578063a22cb4651461076a57600080fd5b80638ca132f7146106b95780638d8f2adb146106d95780638da5cb5b146106ee57600080fd5b80637f345710116101695780637f345710146106375780637ff7e6161461066b5780638c7a63ae1461068b57600080fd5b80636b20c454146105f75780636d3c7ec51461061757600080fd5b80633013ce291161023d5780634e1273f4116101f15780635a18664c116101cb5780635a18664c146105bc5780635a8f7b86146105c45780636a326ab1146105d757600080fd5b80634e1273f41461053f5780634f558e791461056c57806355f804b31461059c57600080fd5b806336568abe1161022257806336568abe146104d157806336f5cba5146104f157806337210b8f1461051f57600080fd5b80633013ce291461045057806330e8fd651461048e57600080fd5b806315f8a01a11610294578063248a9ca311610279578063248a9ca3146103e05780632eb2c2d6146104105780632f2ff15d1461043057600080fd5b806315f8a01a146103ad578063162094c4146103c057600080fd5b80630b70ede5116102c55780630b70ede5146103435780630e89341c1461035e578063156e29f61461038b57600080fd5b8062fdd58e146102e057806301ffc9a714610313575b600080fd5b3480156102ec57600080fd5b506103006102fb3660046138ae565b61094b565b6040519081526020015b60405180910390f35b34801561031f57600080fd5b5061033361032e3660046138f0565b6109f9565b604051901515815260200161030a565b34801561034f57600080fd5b5061015f546103339060ff1681565b34801561036a57600080fd5b5061037e61037936600461390d565b610a04565b60405161030a9190613976565b34801561039757600080fd5b506103ab6103a6366004613989565b610a0f565b005b6103ab6103bb366004613a96565b610ab6565b3480156103cc57600080fd5b506103ab6103db366004613b80565b610b21565b3480156103ec57600080fd5b506103006103fb36600461390d565b600090815260fb602052604090206001015490565b34801561041c57600080fd5b506103ab61042b366004613bc7565b610b36565b34801561043c57600080fd5b506103ab61044b366004613c75565b610bc9565b34801561045c57600080fd5b5061015f546104769061010090046001600160a01b031681565b6040516001600160a01b03909116815260200161030a565b34801561049a57600080fd5b50610160546104b4906bffffffffffffffffffffffff1681565b6040516bffffffffffffffffffffffff909116815260200161030a565b3480156104dd57600080fd5b506103ab6104ec366004613c75565b610bee565b3480156104fd57600080fd5b5061030061050c36600461390d565b6101656020526000908152604090205481565b34801561052b57600080fd5b506103ab61053a366004613cb3565b610c7a565b34801561054b57600080fd5b5061055f61055a366004613cd0565b610c9a565b60405161030a9190613dce565b34801561057857600080fd5b5061033361058736600461390d565b600090815261012d6020526040902054151590565b3480156105a857600080fd5b506103ab6105b7366004613de1565b610dd8565b6103ab610dec565b6103ab6105d2366004613989565b610e9b565b3480156105e357600080fd5b506103ab6105f2366004613e16565b610f3b565b34801561060357600080fd5b506103ab610612366004613a96565b610f87565b34801561062357600080fd5b506103ab61063236600461390d565b611011565b34801561064357600080fd5b506103007f7804d923f43a17d325d77e781528e0793b2edd9890ab45fc64efd7b4b427744c81565b34801561067757600080fd5b506103ab610686366004613e33565b611023565b34801561069757600080fd5b506106ab6106a636600461390d565b611268565b60405161030a929190613e9d565b3480156106c557600080fd5b506103ab6106d4366004613eb6565b6112b1565b3480156106e557600080fd5b506103ab611336565b3480156106fa57600080fd5b5061016354610476906001600160a01b031681565b34801561071b57600080fd5b5061033361072a366004613c75565b600091825260fb602090815260408084206001600160a01b0393909316845291905290205460ff1690565b34801561076157600080fd5b50610300600081565b34801561077657600080fd5b506103ab610785366004613efb565b6113f9565b34801561079657600080fd5b506103006107a536600461390d565b600090815261012d602052604090205490565b3480156107c457600080fd5b506103006107d336600461390d565b6101646020526000908152604090205481565b3480156107f257600080fd5b506103007f9f2df0fed2c77648de5860a4cc508cd0818c85b8b8a1ab4ceeef8d981c8956a681565b34801561082657600080fd5b506103ab610835366004613c75565b611404565b34801561084657600080fd5b506103ab610855366004613a96565b611429565b34801561086657600080fd5b50610333610875366004613f29565b6001600160a01b03918216600090815260666020908152604080832093909416825291909152205460ff1690565b3480156108af57600080fd5b506101605461047690600160601b90046001600160a01b031681565b3480156108d757600080fd5b506103ab6108e6366004613f57565b611496565b3480156108f757600080fd5b506103ab610906366004613f79565b611505565b34801561091757600080fd5b506103ab610926366004613989565b611591565b34801561093757600080fd5b506103ab61094636600461390d565b61161b565b60006001600160a01b0383166109ce5760405162461bcd60e51b815260206004820152602a60248201527f455243313135353a2061646472657373207a65726f206973206e6f742061207660448201527f616c6964206f776e65720000000000000000000000000000000000000000000060648201526084015b60405180910390fd5b5060008181526065602090815260408083206001600160a01b03861684529091529020545b92915050565b60006109f382611639565b60606109f382611677565b610160546bffffffffffffffffffffffff16821115610a445760405163cfe3beb960e01b8152600481018390526024016109c5565b61015f5460ff1615610a985760405162461bcd60e51b815260206004820152601f60248201527f43616e206f6e6c79206d696e742077697468206e617469766520746f6b656e0060448201526064016109c5565b61015f54610ab19084908490849060009060ff16611757565b505050565b61015f5460ff16610b095760405162461bcd60e51b815260206004820152601e60248201527f43616e206f6e6c79206d696e74207769746820657263323020746f6b656e000060448201526064016109c5565b61015f54610ab190849084908490349060ff166119f0565b6000610b2c81611e10565b610ab18383611e1d565b6001600160a01b038516331480610b525750610b528533610875565b610bb55760405162461bcd60e51b815260206004820152602e60248201527f455243313135353a2063616c6c6572206973206e6f7420746f6b656e206f776e60448201526d195c881bdc88185c1c1c9bdd995960921b60648201526084016109c5565b610bc28585858585611e7a565b5050505050565b600082815260fb6020526040902060010154610be481611e10565b610ab183836120e9565b6001600160a01b0381163314610c6c5760405162461bcd60e51b815260206004820152602f60248201527f416363657373436f6e74726f6c3a2063616e206f6e6c792072656e6f756e636560448201527f20726f6c657320666f722073656c66000000000000000000000000000000000060648201526084016109c5565b610c76828261218b565b5050565b6000610c8581611e10565b5061015f805460ff1916911515919091179055565b60608151835114610d135760405162461bcd60e51b815260206004820152602960248201527f455243313135353a206163636f756e747320616e6420696473206c656e67746860448201527f206d69736d61746368000000000000000000000000000000000000000000000060648201526084016109c5565b6000835167ffffffffffffffff811115610d2f57610d2f6139be565b604051908082528060200260200182016040528015610d58578160200160208202803683370190505b50905060005b8451811015610dd057610da3858281518110610d7c57610d7c613fe2565b6020026020010151858381518110610d9657610d96613fe2565b602002602001015161094b565b828281518110610db557610db5613fe2565b6020908102919091010152610dc98161400e565b9050610d5e565b509392505050565b6000610de381611e10565b610c768261220e565b6000610df781611e10565b610163546040516000916001600160a01b03169047908381818185875af1925050503d8060008114610e45576040519150601f19603f3d011682016040523d82523d6000602084013e610e4a565b606091505b5050905080610c765760405162461bcd60e51b815260206004820152601460248201527f4661696c656420746f2073656e6420457468657200000000000000000000000060448201526064016109c5565b610160546bffffffffffffffffffffffff16821115610ed05760405163cfe3beb960e01b8152600481018390526024016109c5565b61015f5460ff16610f235760405162461bcd60e51b815260206004820152601e60248201527f43616e206f6e6c79206d696e74207769746820657263323020746f6b656e000060448201526064016109c5565b61015f54610ab190849084908490349060ff16611757565b6000610f4681611e10565b5061015f80546001600160a01b03909216610100027fffffffffffffffffffffff0000000000000000000000000000000000000000ff909216919091179055565b6001600160a01b038316331480610fa35750610fa38333610875565b6110065760405162461bcd60e51b815260206004820152602e60248201527f455243313135353a2063616c6c6572206973206e6f7420746f6b656e206f776e60448201526d195c881bdc88185c1c1c9bdd995960921b60648201526084016109c5565b610ab183838361221a565b600061101c81611e10565b5061016255565b600054610100900460ff16158080156110435750600054600160ff909116105b8061105d5750303b15801561105d575060005460ff166001145b6110cf5760405162461bcd60e51b815260206004820152602e60248201527f496e697469616c697a61626c653a20636f6e747261637420697320616c72656160448201527f647920696e697469616c697a656400000000000000000000000000000000000060648201526084016109c5565b6000805460ff1916600117905580156110f2576000805461ff0019166101001790555b6110fb85612474565b6111036124e8565b61110b6124e8565b6111136124e8565b61016161112086826140a7565b5061015f805461016284905561016080546001600160a01b03878116600160601b026bffffffffffffffffffffffff9092169190911790915560ff1990871661010002167fffffffffffffffffffffff00000000000000000000000000000000000000000090911617600117905561016380547fffffffffffffffffffffffff000000000000000000000000000000000000000016339081179091556111c8906000906120e9565b6111f27f7804d923f43a17d325d77e781528e0793b2edd9890ab45fc64efd7b4b427744c336120e9565b61121c7f9f2df0fed2c77648de5860a4cc508cd0818c85b8b8a1ab4ceeef8d981c8956a6336120e9565b8015610bc2576000805461ff0019169055604051600181527f7f26b83ff96e1f2b6a682f133852f6798a09c465da95921460cefb38474024989060200160405180910390a15050505050565b600081815261016460205260408120546060901561129857600083815261016460205260409020549150816112a0565b610162549150815b506112aa83610a04565b9050915091565b60006112bc81611e10565b61016080546bffffffffffffffffffffffff169060006112db83614167565b82546101009290920a6bffffffffffffffffffffffff8181021990931691831602179091556101605461131092501684611e1d565b50610160546bffffffffffffffffffffffff166000908152610165602052604090205550565b600061134181611e10565b61015f546040517f70a0823100000000000000000000000000000000000000000000000000000000815230600482015260009161010090046001600160a01b0316906370a0823190602401602060405180830381865afa1580156113a9573d6000803e3d6000fd5b505050506040513d601f19601f820116820180604052508101906113cd9190614192565b90508015610c76576101635461015f54610c76916001600160a01b036101009092048216911683612555565b610c763383836125e6565b600082815260fb602052604090206001015461141f81611e10565b610ab1838361218b565b61015f5460ff161561147d5760405162461bcd60e51b815260206004820152601f60248201527f43616e206f6e6c79206d696e742077697468206e617469766520746f6b656e0060448201526064016109c5565b61015f54610ab19084908490849060009060ff166119f0565b60006114a181611e10565b816000036114f15760405162461bcd60e51b815260206004820152601560248201527f63616e6e6f742073657420707269636520746f2030000000000000000000000060448201526064016109c5565b506000918252610164602052604090912055565b6001600160a01b03851633148061152157506115218533610875565b6115845760405162461bcd60e51b815260206004820152602e60248201527f455243313135353a2063616c6c6572206973206e6f7420746f6b656e206f776e60448201526d195c881bdc88185c1c1c9bdd995960921b60648201526084016109c5565b610bc285858585856126da565b6001600160a01b0383163314806115ad57506115ad8333610875565b6116105760405162461bcd60e51b815260206004820152602e60248201527f455243313135353a2063616c6c6572206973206e6f7420746f6b656e206f776e60448201526d195c881bdc88185c1c1c9bdd995960921b60648201526084016109c5565b610ab1838383612897565b600061162681611e10565b5060009081526101646020526040812055565b60006001600160e01b031982167f7965db0b0000000000000000000000000000000000000000000000000000000014806109f357506109f382612a2b565b600081815260ca602052604081208054606092919061169590614027565b80601f01602080910402602001604051908101604052809291908181526020018280546116c190614027565b801561170e5780601f106116e35761010080835404028352916020019161170e565b820191906000526020600020905b8154815290600101906020018083116116f157829003601f168201915b50505050509050600081511161172c5761172783612ac6565b611750565b60c9816040516020016117409291906141ab565b6040516020818303038152906040525b9392505050565b600084815261012d60205260408120548190600086116117b95760405162461bcd60e51b815260206004820152601260248201527f416d6f756e742063616e6e6f742062652030000000000000000000000000000060448201526064016109c5565b600087815261016560205260409020546117d38783614232565b11156118215760405162461bcd60e51b815260206004820152601860248201527f43616e6e6f7420657863656564204d617820537570706c79000000000000000060448201526064016109c5565b610163546001600160a01b031633146119415760008781526101646020526040902054156118615760008781526101646020526040902054915081611869565b610162549150815b506118748287612b5a565b925083156118d157828510156118cc5760405162461bcd60e51b815260206004820152601360248201527f496e73756666696369656e742066756e6473210000000000000000000000000060448201526064016109c5565b6118ef565b61015f546118ef9061010090046001600160a01b0316333086612b66565b604080516001600160a01b038a16815260208101899052908101879052606081018490527fb4c03061fb5b7fed76389d5af8f2e0ddb09f8c70d1333abbb62582835e10accb9060800160405180910390a15b61016054600160601b90046001600160a01b03166340c10f198961196d89670de0b6b3a7640000612b5a565b6040516001600160e01b031960e085901b1681526001600160a01b0390921660048301526024820152604401600060405180830381600087803b1580156119b357600080fd5b505af11580156119c7573d6000803e3d6000fd5b505050506119e688888860405180602001604052806000815250612bb7565b5050505050505050565b6101635460009081906001600160a01b03163314611d625760005b8651811015611c9d576000868281518110611a2857611a28613fe2565b602002602001015111611a7d5760405162461bcd60e51b815260206004820152601260248201527f416d6f756e742063616e6e6f742062652030000000000000000000000000000060448201526064016109c5565b6101605487516bffffffffffffffffffffffff90911690889083908110611aa657611aa6613fe2565b60200260200101511115611aea57868181518110611ac657611ac6613fe2565b602002602001015160405163cfe3beb960e01b81526004016109c591815260200190565b6000611b1c888381518110611b0157611b01613fe2565b6020026020010151600090815261012d602052604090205490565b90506101656000898481518110611b3557611b35613fe2565b6020026020010151815260200190815260200160002054878381518110611b5e57611b5e613fe2565b602002602001015182611b719190614232565b1115611bbf5760405162461bcd60e51b815260206004820152601860248201527f43616e6e6f7420657863656564204d617820537570706c79000000000000000060448201526064016109c5565b600061016460008a8581518110611bd857611bd8613fe2565b6020026020010151815260200190815260200160002054600014611c2c5761016460008a8581518110611c0d57611c0d613fe2565b6020026020010151815260200190815260200160002054905080611c33565b5061016254805b50611c60888481518110611c4957611c49613fe2565b602002602001015182612b5a90919063ffffffff16565b611c6a9086614232565b9450878381518110611c7e57611c7e613fe2565b602002602001015184611c919190614232565b93505050600101611a0b565b508215611cf95781841015611cf45760405162461bcd60e51b815260206004820152601360248201527f496e73756666696369656e742066756e6473210000000000000000000000000060448201526064016109c5565b611d17565b61015f54611d179061010090046001600160a01b0316333085612b66565b604080516001600160a01b0389168152602081018390529081018390527f6941bbed9891bfb7a243f6a1aa237a060996652ebf3e8f33bb36a0022e60dfbf9060600160405180910390a15b61016054600160601b90046001600160a01b03166340c10f1988611d8e84670de0b6b3a7640000612b5a565b6040516001600160e01b031960e085901b1681526001600160a01b0390921660048301526024820152604401600060405180830381600087803b158015611dd457600080fd5b505af1158015611de8573d6000803e3d6000fd5b50505050611e0787878760405180602001604052806000815250612cd3565b50505050505050565b611e1a8133612ea9565b50565b600082815260ca60205260409020611e3582826140a7565b50817f6bb7ff708619ba0610cba295a58592e0451dee2622938c8755667688daf3529b611e6184610a04565b604051611e6e9190613976565b60405180910390a25050565b8151835114611edc5760405162461bcd60e51b815260206004820152602860248201527f455243313135353a2069647320616e6420616d6f756e7473206c656e677468206044820152670dad2e6dac2e8c6d60c31b60648201526084016109c5565b6001600160a01b038416611f405760405162461bcd60e51b815260206004820152602560248201527f455243313135353a207472616e7366657220746f20746865207a65726f206164604482015264647265737360d81b60648201526084016109c5565b33611f4f818787878787612f1e565b60005b845181101561207b576000858281518110611f6f57611f6f613fe2565b602002602001015190506000858381518110611f8d57611f8d613fe2565b60209081029190910181015160008481526065835260408082206001600160a01b038e1683529093529190912054909150818110156120215760405162461bcd60e51b815260206004820152602a60248201527f455243313135353a20696e73756666696369656e742062616c616e636520666f60448201526939103a3930b739b332b960b11b60648201526084016109c5565b60008381526065602090815260408083206001600160a01b038e8116855292528083208585039055908b16825281208054849290612060908490614232565b92505081905550505050806120749061400e565b9050611f52565b50846001600160a01b0316866001600160a01b0316826001600160a01b03167f4a39dc06d4c0dbc64b70af90fd698a233a518aa5d07e595d983b8c0526c8f7fb87876040516120cb929190614245565b60405180910390a46120e1818787878787612f2c565b505050505050565b600082815260fb602090815260408083206001600160a01b038516845290915290205460ff16610c7657600082815260fb602090815260408083206001600160a01b03851684529091529020805460ff191660011790556121473390565b6001600160a01b0316816001600160a01b0316837f2f8788117e7eff1d82e926ec794901d17c78024a50270940304540a733656f0d60405160405180910390a45050565b600082815260fb602090815260408083206001600160a01b038516845290915290205460ff1615610c7657600082815260fb602090815260408083206001600160a01b0385168085529252808320805460ff1916905551339285917ff6391f5c32d9c69d2a47ea670b442974b53935d1edc7fd64eb21e047a839171b9190a45050565b60c9610c7682826140a7565b6001600160a01b03831661227c5760405162461bcd60e51b815260206004820152602360248201527f455243313135353a206275726e2066726f6d20746865207a65726f206164647260448201526265737360e81b60648201526084016109c5565b80518251146122de5760405162461bcd60e51b815260206004820152602860248201527f455243313135353a2069647320616e6420616d6f756e7473206c656e677468206044820152670dad2e6dac2e8c6d60c31b60648201526084016109c5565b600033905061230181856000868660405180602001604052806000815250612f1e565b60005b835181101561240557600084828151811061232157612321613fe2565b60200260200101519050600084838151811061233f5761233f613fe2565b60209081029190910181015160008481526065835260408082206001600160a01b038c1683529093529190912054909150818110156123cc5760405162461bcd60e51b8152602060048201526024808201527f455243313135353a206275726e20616d6f756e7420657863656564732062616c604482015263616e636560e01b60648201526084016109c5565b60009283526065602090815260408085206001600160a01b038b16865290915290922091039055806123fd8161400e565b915050612304565b5060006001600160a01b0316846001600160a01b0316826001600160a01b03167f4a39dc06d4c0dbc64b70af90fd698a233a518aa5d07e595d983b8c0526c8f7fb8686604051612456929190614245565b60405180910390a46040805160208101909152600090525b50505050565b600054610100900460ff166124df5760405162461bcd60e51b815260206004820152602b60248201527f496e697469616c697a61626c653a20636f6e7472616374206973206e6f74206960448201526a6e697469616c697a696e6760a81b60648201526084016109c5565b611e1a816130d1565b600054610100900460ff166125535760405162461bcd60e51b815260206004820152602b60248201527f496e697469616c697a61626c653a20636f6e7472616374206973206e6f74206960448201526a6e697469616c697a696e6760a81b60648201526084016109c5565b565b6040516001600160a01b038316602482015260448101829052610ab19084907fa9059cbb00000000000000000000000000000000000000000000000000000000906064015b60408051601f198184030181529190526020810180517bffffffffffffffffffffffffffffffffffffffffffffffffffffffff166001600160e01b031990931692909217909152613145565b816001600160a01b0316836001600160a01b03160361266d5760405162461bcd60e51b815260206004820152602960248201527f455243313135353a2073657474696e6720617070726f76616c2073746174757360448201527f20666f722073656c66000000000000000000000000000000000000000000000060648201526084016109c5565b6001600160a01b03838116600081815260666020908152604080832094871680845294825291829020805460ff191686151590811790915591519182527f17307eab39ab6107e8899845ad3d59bd9653f200f220920489ca2b5937696c31910160405180910390a3505050565b6001600160a01b03841661273e5760405162461bcd60e51b815260206004820152602560248201527f455243313135353a207472616e7366657220746f20746865207a65726f206164604482015264647265737360d81b60648201526084016109c5565b33600061274a8561322a565b905060006127578561322a565b9050612767838989858589612f1e565b60008681526065602090815260408083206001600160a01b038c168452909152902054858110156127ed5760405162461bcd60e51b815260206004820152602a60248201527f455243313135353a20696e73756666696369656e742062616c616e636520666f60448201526939103a3930b739b332b960b11b60648201526084016109c5565b60008781526065602090815260408083206001600160a01b038d8116855292528083208985039055908a1682528120805488929061282c908490614232565b909155505060408051888152602081018890526001600160a01b03808b16928c821692918816917fc3d58168c5ae7397731d063d5bbf3d657854427343f4c083240f7aacaa2d0f62910160405180910390a461288c848a8a8a8a8a613275565b505050505050505050565b6001600160a01b0383166128f95760405162461bcd60e51b815260206004820152602360248201527f455243313135353a206275726e2066726f6d20746865207a65726f206164647260448201526265737360e81b60648201526084016109c5565b3360006129058461322a565b905060006129128461322a565b905061293283876000858560405180602001604052806000815250612f1e565b60008581526065602090815260408083206001600160a01b038a168452909152902054848110156129b15760405162461bcd60e51b8152602060048201526024808201527f455243313135353a206275726e20616d6f756e7420657863656564732062616c604482015263616e636560e01b60648201526084016109c5565b60008681526065602090815260408083206001600160a01b038b81168086529184528285208a8703905582518b81529384018a90529092908816917fc3d58168c5ae7397731d063d5bbf3d657854427343f4c083240f7aacaa2d0f62910160405180910390a4604080516020810190915260009052611e07565b60006001600160e01b031982167fd9b67a26000000000000000000000000000000000000000000000000000000001480612a8e57506001600160e01b031982167f0e89341c00000000000000000000000000000000000000000000000000000000145b806109f357507f01ffc9a7000000000000000000000000000000000000000000000000000000006001600160e01b03198316146109f3565b606060678054612ad590614027565b80601f0160208091040260200160405190810160405280929190818152602001828054612b0190614027565b8015612b4e5780601f10612b2357610100808354040283529160200191612b4e565b820191906000526020600020905b815481529060010190602001808311612b3157829003601f168201915b50505050509050919050565b60006117508284614273565b6040516001600160a01b038085166024830152831660448201526064810182905261246e9085907f23b872dd000000000000000000000000000000000000000000000000000000009060840161259a565b6001600160a01b038416612c175760405162461bcd60e51b815260206004820152602160248201527f455243313135353a206d696e7420746f20746865207a65726f206164647265736044820152607360f81b60648201526084016109c5565b336000612c238561322a565b90506000612c308561322a565b9050612c4183600089858589612f1e565b60008681526065602090815260408083206001600160a01b038b16845290915281208054879290612c73908490614232565b909155505060408051878152602081018790526001600160a01b03808a1692600092918716917fc3d58168c5ae7397731d063d5bbf3d657854427343f4c083240f7aacaa2d0f62910160405180910390a4611e0783600089898989613275565b6001600160a01b038416612d335760405162461bcd60e51b815260206004820152602160248201527f455243313135353a206d696e7420746f20746865207a65726f206164647265736044820152607360f81b60648201526084016109c5565b8151835114612d955760405162461bcd60e51b815260206004820152602860248201527f455243313135353a2069647320616e6420616d6f756e7473206c656e677468206044820152670dad2e6dac2e8c6d60c31b60648201526084016109c5565b33612da581600087878787612f1e565b60005b8451811015612e4157838181518110612dc357612dc3613fe2565b602002602001015160656000878481518110612de157612de1613fe2565b602002602001015181526020019081526020016000206000886001600160a01b03166001600160a01b031681526020019081526020016000206000828254612e299190614232565b90915550819050612e398161400e565b915050612da8565b50846001600160a01b031660006001600160a01b0316826001600160a01b03167f4a39dc06d4c0dbc64b70af90fd698a233a518aa5d07e595d983b8c0526c8f7fb8787604051612e92929190614245565b60405180910390a4610bc281600087878787612f2c565b600082815260fb602090815260408083206001600160a01b038516845290915290205460ff16610c7657612edc81613371565b612ee7836020613383565b604051602001612ef892919061428a565b60408051601f198184030181529082905262461bcd60e51b82526109c591600401613976565b6120e1868686868686613564565b6001600160a01b0384163b156120e15760405163bc197c8160e01b81526001600160a01b0385169063bc197c8190612f70908990899088908890889060040161430b565b6020604051808303816000875af1925050508015612fab575060408051601f3d908101601f19168201909252612fa891810190614369565b60015b61306057612fb7614386565b806308c379a003612ff05750612fcb6143a2565b80612fd65750612ff2565b8060405162461bcd60e51b81526004016109c59190613976565b505b60405162461bcd60e51b815260206004820152603460248201527f455243313135353a207472616e7366657220746f206e6f6e2d4552433131353560448201527f526563656976657220696d706c656d656e74657200000000000000000000000060648201526084016109c5565b6001600160e01b0319811663bc197c8160e01b14611e075760405162461bcd60e51b815260206004820152602860248201527f455243313135353a204552433131353552656365697665722072656a656374656044820152676420746f6b656e7360c01b60648201526084016109c5565b600054610100900460ff1661313c5760405162461bcd60e51b815260206004820152602b60248201527f496e697469616c697a61626c653a20636f6e7472616374206973206e6f74206960448201526a6e697469616c697a696e6760a81b60648201526084016109c5565b611e1a816136f5565b600061319a826040518060400160405280602081526020017f5361666545524332303a206c6f772d6c6576656c2063616c6c206661696c6564815250856001600160a01b03166137019092919063ffffffff16565b805190915015610ab157808060200190518101906131b8919061442c565b610ab15760405162461bcd60e51b815260206004820152602a60248201527f5361666545524332303a204552433230206f7065726174696f6e20646964206e60448201527f6f7420737563636565640000000000000000000000000000000000000000000060648201526084016109c5565b6040805160018082528183019092526060916000919060208083019080368337019050509050828160008151811061326457613264613fe2565b602090810291909101015292915050565b6001600160a01b0384163b156120e15760405163f23a6e6160e01b81526001600160a01b0385169063f23a6e61906132b99089908990889088908890600401614449565b6020604051808303816000875af19250505080156132f4575060408051601f3d908101601f191682019092526132f191810190614369565b60015b61330057612fb7614386565b6001600160e01b0319811663f23a6e6160e01b14611e075760405162461bcd60e51b815260206004820152602860248201527f455243313135353a204552433131353552656365697665722072656a656374656044820152676420746f6b656e7360c01b60648201526084016109c5565b60606109f36001600160a01b03831660145b60606000613392836002614273565b61339d906002614232565b67ffffffffffffffff8111156133b5576133b56139be565b6040519080825280601f01601f1916602001820160405280156133df576020820181803683370190505b5090507f30000000000000000000000000000000000000000000000000000000000000008160008151811061341657613416613fe2565b60200101906001600160f81b031916908160001a9053507f78000000000000000000000000000000000000000000000000000000000000008160018151811061346157613461613fe2565b60200101906001600160f81b031916908160001a9053506000613485846002614273565b613490906001614232565b90505b6001811115613515577f303132333435363738396162636465660000000000000000000000000000000085600f16601081106134d1576134d1613fe2565b1a60f81b8282815181106134e7576134e7613fe2565b60200101906001600160f81b031916908160001a90535060049490941c9361350e81614481565b9050613493565b5083156117505760405162461bcd60e51b815260206004820181905260248201527f537472696e67733a20686578206c656e67746820696e73756666696369656e7460448201526064016109c5565b6001600160a01b0385166135ec5760005b83518110156135ea5782818151811061359057613590613fe2565b602002602001015161012d60008684815181106135af576135af613fe2565b6020026020010151815260200190815260200160002060008282546135d49190614232565b909155506135e390508161400e565b9050613575565b505b6001600160a01b0384166120e15760005b8351811015611e0757600084828151811061361a5761361a613fe2565b60200260200101519050600084838151811061363857613638613fe2565b60200260200101519050600061012d6000848152602001908152602001600020549050818110156136d15760405162461bcd60e51b815260206004820152602860248201527f455243313135353a206275726e20616d6f756e74206578636565647320746f7460448201527f616c537570706c7900000000000000000000000000000000000000000000000060648201526084016109c5565b600092835261012d6020526040909220910390556136ee8161400e565b90506135fd565b6067610c7682826140a7565b60606137108484600085613718565b949350505050565b6060824710156137905760405162461bcd60e51b815260206004820152602660248201527f416464726573733a20696e73756666696369656e742062616c616e636520666f60448201527f722063616c6c000000000000000000000000000000000000000000000000000060648201526084016109c5565b6001600160a01b0385163b6137e75760405162461bcd60e51b815260206004820152601d60248201527f416464726573733a2063616c6c20746f206e6f6e2d636f6e747261637400000060448201526064016109c5565b600080866001600160a01b031685876040516138039190614498565b60006040518083038185875af1925050503d8060008114613840576040519150601f19603f3d011682016040523d82523d6000602084013e613845565b606091505b5091509150613855828286613860565b979650505050505050565b6060831561386f575081611750565b82511561387f5782518084602001fd5b8160405162461bcd60e51b81526004016109c59190613976565b6001600160a01b0381168114611e1a57600080fd5b600080604083850312156138c157600080fd5b82356138cc81613899565b946020939093013593505050565b6001600160e01b031981168114611e1a57600080fd5b60006020828403121561390257600080fd5b8135611750816138da565b60006020828403121561391f57600080fd5b5035919050565b60005b83811015613941578181015183820152602001613929565b50506000910152565b60008151808452613962816020860160208601613926565b601f01601f19169290920160200192915050565b602081526000611750602083018461394a565b60008060006060848603121561399e57600080fd5b83356139a981613899565b95602085013595506040909401359392505050565b634e487b7160e01b600052604160045260246000fd5b601f8201601f1916810167ffffffffffffffff811182821017156139fa576139fa6139be565b6040525050565b600067ffffffffffffffff821115613a1b57613a1b6139be565b5060051b60200190565b600082601f830112613a3657600080fd5b81356020613a4382613a01565b604051613a5082826139d4565b83815260059390931b8501820192828101915086841115613a7057600080fd5b8286015b84811015613a8b5780358352918301918301613a74565b509695505050505050565b600080600060608486031215613aab57600080fd5b8335613ab681613899565b9250602084013567ffffffffffffffff80821115613ad357600080fd5b613adf87838801613a25565b93506040860135915080821115613af557600080fd5b50613b0286828701613a25565b9150509250925092565b600082601f830112613b1d57600080fd5b813567ffffffffffffffff811115613b3757613b376139be565b604051613b4e601f8301601f1916602001826139d4565b818152846020838601011115613b6357600080fd5b816020850160208301376000918101602001919091529392505050565b60008060408385031215613b9357600080fd5b82359150602083013567ffffffffffffffff811115613bb157600080fd5b613bbd85828601613b0c565b9150509250929050565b600080600080600060a08688031215613bdf57600080fd5b8535613bea81613899565b94506020860135613bfa81613899565b9350604086013567ffffffffffffffff80821115613c1757600080fd5b613c2389838a01613a25565b94506060880135915080821115613c3957600080fd5b613c4589838a01613a25565b93506080880135915080821115613c5b57600080fd5b50613c6888828901613b0c565b9150509295509295909350565b60008060408385031215613c8857600080fd5b823591506020830135613c9a81613899565b809150509250929050565b8015158114611e1a57600080fd5b600060208284031215613cc557600080fd5b813561175081613ca5565b60008060408385031215613ce357600080fd5b823567ffffffffffffffff80821115613cfb57600080fd5b818501915085601f830112613d0f57600080fd5b81356020613d1c82613a01565b604051613d2982826139d4565b83815260059390931b8501820192828101915089841115613d4957600080fd5b948201945b83861015613d70578535613d6181613899565b82529482019490820190613d4e565b96505086013592505080821115613d8657600080fd5b50613bbd85828601613a25565b600081518084526020808501945080840160005b83811015613dc357815187529582019590820190600101613da7565b509495945050505050565b6020815260006117506020830184613d93565b600060208284031215613df357600080fd5b813567ffffffffffffffff811115613e0a57600080fd5b61371084828501613b0c565b600060208284031215613e2857600080fd5b813561175081613899565b60008060008060808587031215613e4957600080fd5b843567ffffffffffffffff811115613e6057600080fd5b613e6c87828801613b0c565b9450506020850135613e7d81613899565b92506040850135613e8d81613899565b9396929550929360600135925050565b828152604060208201526000613710604083018461394a565b60008060408385031215613ec957600080fd5b823567ffffffffffffffff811115613ee057600080fd5b613eec85828601613b0c565b95602094909401359450505050565b60008060408385031215613f0e57600080fd5b8235613f1981613899565b91506020830135613c9a81613ca5565b60008060408385031215613f3c57600080fd5b8235613f4781613899565b91506020830135613c9a81613899565b60008060408385031215613f6a57600080fd5b50508035926020909101359150565b600080600080600060a08688031215613f9157600080fd5b8535613f9c81613899565b94506020860135613fac81613899565b93506040860135925060608601359150608086013567ffffffffffffffff811115613fd657600080fd5b613c6888828901613b0c565b634e487b7160e01b600052603260045260246000fd5b634e487b7160e01b600052601160045260246000fd5b60006001820161402057614020613ff8565b5060010190565b600181811c9082168061403b57607f821691505b60208210810361405b57634e487b7160e01b600052602260045260246000fd5b50919050565b601f821115610ab157600081815260208120601f850160051c810160208610156140885750805b601f850160051c820191505b818110156120e157828155600101614094565b815167ffffffffffffffff8111156140c1576140c16139be565b6140d5816140cf8454614027565b84614061565b602080601f83116001811461410a57600084156140f25750858301515b600019600386901b1c1916600185901b1785556120e1565b600085815260208120601f198616915b828110156141395788860151825594840194600190910190840161411a565b50858210156141575787850151600019600388901b60f8161c191681555b5050505050600190811b01905550565b60006bffffffffffffffffffffffff80831681810361418857614188613ff8565b6001019392505050565b6000602082840312156141a457600080fd5b5051919050565b60008084546141b981614027565b600182811680156141d157600181146141e657614215565b60ff1984168752821515830287019450614215565b8860005260208060002060005b8581101561420c5781548a8201529084019082016141f3565b50505082870194505b505050508351614229818360208801613926565b01949350505050565b808201808211156109f3576109f3613ff8565b6040815260006142586040830185613d93565b828103602084015261426a8185613d93565b95945050505050565b80820281158282048414176109f3576109f3613ff8565b7f416363657373436f6e74726f6c3a206163636f756e74200000000000000000008152600083516142c2816017850160208801613926565b7f206973206d697373696e6720726f6c652000000000000000000000000000000060179184019182015283516142ff816028840160208801613926565b01602801949350505050565b60006001600160a01b03808816835280871660208401525060a0604083015261433760a0830186613d93565b82810360608401526143498186613d93565b9050828103608084015261435d818561394a565b98975050505050505050565b60006020828403121561437b57600080fd5b8151611750816138da565b600060033d111561439f5760046000803e5060005160e01c5b90565b600060443d10156143b05790565b6040516003193d81016004833e81513d67ffffffffffffffff81602484011181841117156143e057505050505090565b82850191508151818111156143f85750505050505090565b843d87010160208285010111156144125750505050505090565b614421602082860101876139d4565b509095945050505050565b60006020828403121561443e57600080fd5b815161175081613ca5565b60006001600160a01b03808816835280871660208401525084604083015283606083015260a0608083015261385560a083018461394a565b60008161449057614490613ff8565b506000190190565b600082516144aa818460208701613926565b919091019291505056fea26469706673582212203b60b404f1688dce15775a886e1540069b3ab09468f64a90030fb1edaafcd49464736f6c63430008110033",
  "linkReferences": {},
  "deployedLinkReferences": {}
}