{
  "_format": "hh-sol-artifact-1",
  "contractName": "MitchMinter",
  "sourceName": "contracts/MitchMinterSupplyUpgradeable.sol",
  "abi": [
    {
      "inputs": [],
      "stateMutability": "nonpayable",
      "type": "constructor"
    },
    {
      "inputs": [
        {
          "internalType": "uint256",
          "name": "tokenId",
          "type": "uint256"
        }
      ],
      "name": "NoTokenExists",
      "type": "error"
    },
    {
      "anonymous": false,
      "inputs": [
        {
          "indexed": true,
          "internalType": "address",
          "name": "account",
          "type": "address"
        },
        {
          "indexed": true,
          "internalType": "address",
          "name": "operator",
          "type": "address"
        },
        {
          "indexed": false,
          "internalType": "bool",
          "name": "approved",
          "type": "bool"
        }
      ],
      "name": "ApprovalForAll",
      "type": "event"
    },
    {
      "anonymous": false,
      "inputs": [
        {
          "indexed": false,
          "internalType": "uint8",
          "name": "version",
          "type": "uint8"
        }
      ],
      "name": "Initialized",
      "type": "event"
    },
    {
      "anonymous": false,
      "inputs": [
        {
          "indexed": false,
          "internalType": "address",
          "name": "recipient",
          "type": "address"
        },
        {
          "indexed": false,
          "internalType": "uint256",
          "name": "tokenId",
          "type": "uint256"
        },
        {
          "indexed": false,
          "internalType": "uint256",
          "name": "amount",
          "type": "uint256"
        },
        {
          "indexed": false,
          "internalType": "uint256",
          "name": "totalPrice",
          "type": "uint256"
        }
      ],
      "name": "Mint",
      "type": "event"
    },
    {
      "anonymous": false,
      "inputs": [
        {
          "indexed": false,
          "internalType": "address",
          "name": "recipient",
          "type": "address"
        },
        {
          "indexed": false,
          "internalType": "uint256",
          "name": "totalAmounts",
          "type": "uint256"
        },
        {
          "indexed": false,
          "internalType": "uint256",
          "name": "finalPrice",
          "type": "uint256"
        }
      ],
      "name": "MintBatch",
      "type": "event"
    },
    {
      "anonymous": false,
      "inputs": [
        {
          "indexed": true,
          "internalType": "bytes32",
          "name": "role",
          "type": "bytes32"
        },
        {
          "indexed": true,
          "internalType": "bytes32",
          "name": "previousAdminRole",
          "type": "bytes32"
        },
        {
          "indexed": true,
          "internalType": "bytes32",
          "name": "newAdminRole",
          "type": "bytes32"
        }
      ],
      "name": "RoleAdminChanged",
      "type": "event"
    },
    {
      "anonymous": false,
      "inputs": [
        {
          "indexed": true,
          "internalType": "bytes32",
          "name": "role",
          "type": "bytes32"
        },
        {
          "indexed": true,
          "internalType": "address",
          "name": "account",
          "type": "address"
        },
        {
          "indexed": true,
          "internalType": "address",
          "name": "sender",
          "type": "address"
        }
      ],
      "name": "RoleGranted",
      "type": "event"
    },
    {
      "anonymous": false,
      "inputs": [
        {
          "indexed": true,
          "internalType": "bytes32",
          "name": "role",
          "type": "bytes32"
        },
        {
          "indexed": true,
          "internalType": "address",
          "name": "account",
          "type": "address"
        },
        {
          "indexed": true,
          "internalType": "address",
          "name": "sender",
          "type": "address"
        }
      ],
      "name": "RoleRevoked",
      "type": "event"
    },
    {
      "anonymous": false,
      "inputs": [
        {
          "indexed": true,
          "internalType": "address",
          "name": "operator",
          "type": "address"
        },
        {
          "indexed": true,
          "internalType": "address",
          "name": "from",
          "type": "address"
        },
        {
          "indexed": true,
          "internalType": "address",
          "name": "to",
          "type": "address"
        },
        {
          "indexed": false,
          "internalType": "uint256[]",
          "name": "ids",
          "type": "uint256[]"
        },
        {
          "indexed": false,
          "internalType": "uint256[]",
          "name": "values",
          "type": "uint256[]"
        }
      ],
      "name": "TransferBatch",
      "type": "event"
    },
    {
      "anonymous": false,
      "inputs": [
        {
          "indexed": true,
          "internalType": "address",
          "name": "operator",
          "type": "address"
        },
        {
          "indexed": true,
          "internalType": "address",
          "name": "from",
          "type": "address"
        },
        {
          "indexed": true,
          "internalType": "address",
          "name": "to",
          "type": "address"
        },
        {
          "indexed": false,
          "internalType": "uint256",
          "name": "id",
          "type": "uint256"
        },
        {
          "indexed": false,
          "internalType": "uint256",
          "name": "value",
          "type": "uint256"
        }
      ],
      "name": "TransferSingle",
      "type": "event"
    },
    {
      "anonymous": false,
      "inputs": [
        {
          "indexed": false,
          "internalType": "string",
          "name": "value",
          "type": "string"
        },
        {
          "indexed": true,
          "internalType": "uint256",
          "name": "id",
          "type": "uint256"
        }
      ],
      "name": "URI",
      "type": "event"
    },
    {
      "anonymous": false,
      "inputs": [
        {
          "indexed": false,
          "internalType": "address",
          "name": "recipient",
          "type": "address"
        },
        {
          "indexed": false,
          "internalType": "uint256",
          "name": "amount",
          "type": "uint256"
        }
      ],
      "name": "Withdrawal",
      "type": "event"
    },
    {
      "inputs": [],
      "name": "DEFAULT_ADMIN_ROLE",
      "outputs": [
        {
          "internalType": "bytes32",
          "name": "",
          "type": "bytes32"
        }
      ],
      "stateMutability": "view",
      "type": "function"
    },
    {
      "inputs": [],
      "name": "MINTER_ROLE",
      "outputs": [
        {
          "internalType": "bytes32",
          "name": "",
          "type": "bytes32"
        }
      ],
      "stateMutability": "view",
      "type": "function"
    },
    {
      "inputs": [],
      "name": "URI_SETTER_ROLE",
      "outputs": [
        {
          "internalType": "bytes32",
          "name": "",
          "type": "bytes32"
        }
      ],
      "stateMutability": "view",
      "type": "function"
    },
    {
      "inputs": [
        {
          "internalType": "string",
          "name": "tokenURI",
          "type": "string"
        },
        {
          "internalType": "uint256",
          "name": "maxSupply",
          "type": "uint256"
        }
      ],
      "name": "addToken",
      "outputs": [],
      "stateMutability": "nonpayable",
      "type": "function"
    },
    {
      "inputs": [
        {
          "internalType": "address",
          "name": "account",
          "type": "address"
        },
        {
          "internalType": "uint256",
          "name": "id",
          "type": "uint256"
        }
      ],
      "name": "balanceOf",
      "outputs": [
        {
          "internalType": "uint256",
          "name": "",
          "type": "uint256"
        }
      ],
      "stateMutability": "view",
      "type": "function"
    },
    {
      "inputs": [
        {
          "internalType": "address[]",
          "name": "accounts",
          "type": "address[]"
        },
        {
          "internalType": "uint256[]",
          "name": "ids",
          "type": "uint256[]"
        }
      ],
      "name": "balanceOfBatch",
      "outputs": [
        {
          "internalType": "uint256[]",
          "name": "",
          "type": "uint256[]"
        }
      ],
      "stateMutability": "view",
      "type": "function"
    },
    {
      "inputs": [
        {
          "internalType": "address",
          "name": "account",
          "type": "address"
        },
        {
          "internalType": "uint256",
          "name": "id",
          "type": "uint256"
        },
        {
          "internalType": "uint256",
          "name": "value",
          "type": "uint256"
        }
      ],
      "name": "burn",
      "outputs": [],
      "stateMutability": "nonpayable",
      "type": "function"
    },
    {
      "inputs": [
        {
          "internalType": "address",
          "name": "account",
          "type": "address"
        },
        {
          "internalType": "uint256[]",
          "name": "ids",
          "type": "uint256[]"
        },
        {
          "internalType": "uint256[]",
          "name": "values",
          "type": "uint256[]"
        }
      ],
      "name": "burnBatch",
      "outputs": [],
      "stateMutability": "nonpayable",
      "type": "function"
    },
    {
      "inputs": [
        {
          "internalType": "uint256",
          "name": "id",
          "type": "uint256"
        }
      ],
      "name": "exists",
      "outputs": [
        {
          "internalType": "bool",
          "name": "",
          "type": "bool"
        }
      ],
      "stateMutability": "view",
      "type": "function"
    },
    {
      "inputs": [
        {
          "internalType": "bytes32",
          "name": "role",
          "type": "bytes32"
        }
      ],
      "name": "getRoleAdmin",
      "outputs": [
        {
          "internalType": "bytes32",
          "name": "",
          "type": "bytes32"
        }
      ],
      "stateMutability": "view",
      "type": "function"
    },
    {
      "inputs": [
        {
          "internalType": "uint256",
          "name": "tokenId",
          "type": "uint256"
        }
      ],
      "name": "getTokenInfo",
      "outputs": [
        {
          "internalType": "uint256",
          "name": "price",
          "type": "uint256"
        },
        {
          "internalType": "string",
          "name": "tokenURI",
          "type": "string"
        }
      ],
      "stateMutability": "view",
      "type": "function"
    },
    {
      "inputs": [
        {
          "internalType": "bytes32",
          "name": "role",
          "type": "bytes32"
        },
        {
          "internalType": "address",
          "name": "account",
          "type": "address"
        }
      ],
      "name": "grantRole",
      "outputs": [],
      "stateMutability": "nonpayable",
      "type": "function"
    },
    {
      "inputs": [
        {
          "internalType": "bytes32",
          "name": "role",
          "type": "bytes32"
        },
        {
          "internalType": "address",
          "name": "account",
          "type": "address"
        }
      ],
      "name": "hasRole",
      "outputs": [
        {
          "internalType": "bool",
          "name": "",
          "type": "bool"
        }
      ],
      "stateMutability": "view",
      "type": "function"
    },
    {
      "inputs": [
        {
          "internalType": "string",
          "name": "_baseURI",
          "type": "string"
        },
        {
          "internalType": "contract IERC20",
          "name": "_paymentToken",
          "type": "address"
        },
        {
          "internalType": "address",
          "name": "_mitchToken",
          "type": "address"
        },
        {
          "internalType": "uint256",
          "name": "_defaultPrice",
          "type": "uint256"
        }
      ],
      "name": "initialize",
      "outputs": [],
      "stateMutability": "nonpayable",
      "type": "function"
    },
    {
      "inputs": [
        {
          "internalType": "address",
          "name": "account",
          "type": "address"
        },
        {
          "internalType": "address",
          "name": "operator",
          "type": "address"
        }
      ],
      "name": "isApprovedForAll",
      "outputs": [
        {
          "internalType": "bool",
          "name": "",
          "type": "bool"
        }
      ],
      "stateMutability": "view",
      "type": "function"
    },
    {
      "inputs": [
        {
          "internalType": "uint256",
          "name": "",
          "type": "uint256"
        }
      ],
      "name": "maxTokenSupply",
      "outputs": [
        {
          "internalType": "uint256",
          "name": "",
          "type": "uint256"
        }
      ],
      "stateMutability": "view",
      "type": "function"
    },
    {
      "inputs": [
        {
          "internalType": "address",
          "name": "to",
          "type": "address"
        },
        {
          "internalType": "uint256",
          "name": "id",
          "type": "uint256"
        },
        {
          "internalType": "uint256",
          "name": "amount",
          "type": "uint256"
        }
      ],
      "name": "mint",
      "outputs": [],
      "stateMutability": "nonpayable",
      "type": "function"
    },
    {
      "inputs": [
        {
          "internalType": "address",
          "name": "to",
          "type": "address"
        },
        {
          "internalType": "uint256[]",
          "name": "ids",
          "type": "uint256[]"
        },
        {
          "internalType": "uint256[]",
          "name": "amounts",
          "type": "uint256[]"
        }
      ],
      "name": "mintBatch",
      "outputs": [],
      "stateMutability": "nonpayable",
      "type": "function"
    },
    {
      "inputs": [
        {
          "internalType": "address",
          "name": "to",
          "type": "address"
        },
        {
          "internalType": "uint256[]",
          "name": "ids",
          "type": "uint256[]"
        },
        {
          "internalType": "uint256[]",
          "name": "amounts",
          "type": "uint256[]"
        }
      ],
      "name": "mintBatchWithNativeToken",
      "outputs": [],
      "stateMutability": "payable",
      "type": "function"
    },
    {
      "inputs": [
        {
          "internalType": "address",
          "name": "to",
          "type": "address"
        },
        {
          "internalType": "uint256",
          "name": "id",
          "type": "uint256"
        },
        {
          "internalType": "uint256",
          "name": "amount",
          "type": "uint256"
        }
      ],
      "name": "mintWithNativeToken",
      "outputs": [],
      "stateMutability": "payable",
      "type": "function"
    },
    {
      "inputs": [],
      "name": "mitchToken",
      "outputs": [
        {
          "internalType": "contract IMitchToken",
          "name": "",
          "type": "address"
        }
      ],
      "stateMutability": "view",
      "type": "function"
    },
    {
      "inputs": [],
      "name": "nativeMintEnabled",
      "outputs": [
        {
          "internalType": "bool",
          "name": "",
          "type": "bool"
        }
      ],
      "stateMutability": "view",
      "type": "function"
    },
    {
      "inputs": [],
      "name": "owner",
      "outputs": [
        {
          "internalType": "address",
          "name": "",
          "type": "address"
        }
      ],
      "stateMutability": "view",
      "type": "function"
    },
    {
      "inputs": [],
      "name": "paymentToken",
      "outputs": [
        {
          "internalType": "contract IERC20",
          "name": "",
          "type": "address"
        }
      ],
      "stateMutability": "view",
      "type": "function"
    },
    {
      "inputs": [
        {
          "internalType": "bytes32",
          "name": "role",
          "type": "bytes32"
        },
        {
          "internalType": "address",
          "name": "account",
          "type": "address"
        }
      ],
      "name": "renounceRole",
      "outputs": [],
      "stateMutability": "nonpayable",
      "type": "function"
    },
    {
      "inputs": [
        {
          "internalType": "uint256",
          "name": "tokenId",
          "type": "uint256"
        }
      ],
      "name": "resetTokenPrice",
      "outputs": [],
      "stateMutability": "nonpayable",
      "type": "function"
    },
    {
      "inputs": [
        {
          "internalType": "bytes32",
          "name": "role",
          "type": "bytes32"
        },
        {
          "internalType": "address",
          "name": "account",
          "type": "address"
        }
      ],
      "name": "revokeRole",
      "outputs": [],
      "stateMutability": "nonpayable",
      "type": "function"
    },
    {
      "inputs": [
        {
          "internalType": "address",
          "name": "from",
          "type": "address"
        },
        {
          "internalType": "address",
          "name": "to",
          "type": "address"
        },
        {
          "internalType": "uint256[]",
          "name": "ids",
          "type": "uint256[]"
        },
        {
          "internalType": "uint256[]",
          "name": "amounts",
          "type": "uint256[]"
        },
        {
          "internalType": "bytes",
          "name": "data",
          "type": "bytes"
        }
      ],
      "name": "safeBatchTransferFrom",
      "outputs": [],
      "stateMutability": "nonpayable",
      "type": "function"
    },
    {
      "inputs": [
        {
          "internalType": "address",
          "name": "from",
          "type": "address"
        },
        {
          "internalType": "address",
          "name": "to",
          "type": "address"
        },
        {
          "internalType": "uint256",
          "name": "id",
          "type": "uint256"
        },
        {
          "internalType": "uint256",
          "name": "amount",
          "type": "uint256"
        },
        {
          "internalType": "bytes",
          "name": "data",
          "type": "bytes"
        }
      ],
      "name": "safeTransferFrom",
      "outputs": [],
      "stateMutability": "nonpayable",
      "type": "function"
    },
    {
      "inputs": [
        {
          "internalType": "address",
          "name": "operator",
          "type": "address"
        },
        {
          "internalType": "bool",
          "name": "approved",
          "type": "bool"
        }
      ],
      "name": "setApprovalForAll",
      "outputs": [],
      "stateMutability": "nonpayable",
      "type": "function"
    },
    {
      "inputs": [
        {
          "internalType": "string",
          "name": "_baseURI",
          "type": "string"
        }
      ],
      "name": "setBaseURI",
      "outputs": [],
      "stateMutability": "nonpayable",
      "type": "function"
    },
    {
      "inputs": [
        {
          "internalType": "uint256",
          "name": "price",
          "type": "uint256"
        }
      ],
      "name": "setDefaultPrice",
      "outputs": [],
      "stateMutability": "nonpayable",
      "type": "function"
    },
    {
      "inputs": [
        {
          "internalType": "bool",
          "name": "enabled",
          "type": "bool"
        }
      ],
      "name": "setNativeTokenMinting",
      "outputs": [],
      "stateMutability": "nonpayable",
      "type": "function"
    },
    {
      "inputs": [
        {
          "internalType": "contract IERC20",
          "name": "newPaymentToken",
          "type": "address"
        }
      ],
      "name": "setPaymentToken",
      "outputs": [],
      "stateMutability": "nonpayable",
      "type": "function"
    },
    {
      "inputs": [
        {
          "internalType": "uint256",
          "name": "tokenId",
          "type": "uint256"
        },
        {
          "internalType": "uint256",
          "name": "price",
          "type": "uint256"
        }
      ],
      "name": "setTokenPrice",
      "outputs": [],
      "stateMutability": "nonpayable",
      "type": "function"
    },
    {
      "inputs": [
        {
          "internalType": "uint256",
          "name": "tokenId",
          "type": "uint256"
        },
        {
          "internalType": "string",
          "name": "tokenURI",
          "type": "string"
        }
      ],
      "name": "setTokenURI",
      "outputs": [],
      "stateMutability": "nonpayable",
      "type": "function"
    },
    {
      "inputs": [
        {
          "internalType": "bytes4",
          "name": "interfaceId",
          "type": "bytes4"
        }
      ],
      "name": "supportsInterface",
      "outputs": [
        {
          "internalType": "bool",
          "name": "",
          "type": "bool"
        }
      ],
      "stateMutability": "view",
      "type": "function"
    },
    {
      "inputs": [
        {
          "internalType": "uint256",
          "name": "",
          "type": "uint256"
        }
      ],
      "name": "tokenPrice",
      "outputs": [
        {
          "internalType": "uint256",
          "name": "",
          "type": "uint256"
        }
      ],
      "stateMutability": "view",
      "type": "function"
    },
    {
      "inputs": [
        {
          "internalType": "address",
          "name": "account",
          "type": "address"
        }
      ],
      "name": "tokensOwned",
      "outputs": [
        {
          "internalType": "uint256[]",
          "name": "",
          "type": "uint256[]"
        }
      ],
      "stateMutability": "view",
      "type": "function"
    },
    {
      "inputs": [
        {
          "internalType": "uint256",
          "name": "id",
          "type": "uint256"
        }
      ],
      "name": "totalSupply",
      "outputs": [
        {
          "internalType": "uint256",
          "name": "",
          "type": "uint256"
        }
      ],
      "stateMutability": "view",
      "type": "function"
    },
    {
      "inputs": [],
      "name": "uniqueTokens",
      "outputs": [
        {
          "internalType": "uint96",
          "name": "",
          "type": "uint96"
        }
      ],
      "stateMutability": "view",
      "type": "function"
    },
    {
      "inputs": [
        {
          "internalType": "uint256",
          "name": "tokenId",
          "type": "uint256"
        }
      ],
      "name": "uri",
      "outputs": [
        {
          "internalType": "string",
          "name": "",
          "type": "string"
        }
      ],
      "stateMutability": "view",
      "type": "function"
    },
    {
      "inputs": [],
      "name": "withdrawNativeToken",
      "outputs": [],
      "stateMutability": "payable",
      "type": "function"
    },
    {
      "inputs": [],
      "name": "withdrawTokens",
      "outputs": [],
      "stateMutability": "nonpayable",
      "type": "function"
    }
  ],
  "bytecode": "0x608060405261016080546001600160601b03191690553480156200002257600080fd5b506200002d62000033565b620000f4565b600054610100900460ff1615620000a05760405162461bcd60e51b815260206004820152602760248201527f496e697469616c697a61626c653a20636f6e747261637420697320696e697469604482015266616c697a696e6760c81b606482015260840160405180910390fd5b60005460ff90811614620000f2576000805460ff191660ff9081179091556040519081527f7f26b83ff96e1f2b6a682f133852f6798a09c465da95921460cefb38474024989060200160405180910390a15b565b6145e180620001046000396000f3fe6080604052600436106102e65760003560e01c80636b20c45411610184578063bd85b039116100d6578063e985e9c51161008a578063f242432a11610064578063f242432a14610916578063f5298aca14610936578063fc5abac11461095657600080fd5b8063e985e9c514610885578063ea49b1cc146108ce578063eb685c47146108f657600080fd5b8063d5391393116100bb578063d539139314610811578063d547741f14610845578063d81d0a151461086557600080fd5b8063bd85b039146107b5578063d4ddce8a146107e357600080fd5b80638ca132f71161013857806391d148541161011257806391d148541461073a578063a217fddf14610780578063a22cb4651461079557600080fd5b80638ca132f7146106e45780638d8f2adb146107045780638da5cb5b1461071957600080fd5b80637f345710116101695780637f345710146106625780637ff7e616146106965780638c7a63ae146106b657600080fd5b80636b20c454146106225780636d3c7ec51461064257600080fd5b80633013ce291161023d5780634e1273f4116101f15780635a18664c116101cb5780635a18664c146105e75780635a8f7b86146105ef5780636a326ab11461060257600080fd5b80634e1273f4146105775780634f558e791461059757806355f804b3146105c757600080fd5b806336568abe1161022257806336568abe1461050957806336f5cba51461052957806337210b8f1461055757600080fd5b80633013ce291461048857806330e8fd65146104c657600080fd5b806315f8a01a1161029f578063248a9ca311610279578063248a9ca3146104185780632eb2c2d6146104485780632f2ff15d1461046857600080fd5b806315f8a01a146103b8578063162094c4146103cb57806321cda790146103eb57600080fd5b80630b70ede5116102d05780630b70ede51461034e5780630e89341c14610369578063156e29f61461039657600080fd5b8062fdd58e146102eb57806301ffc9a71461031e575b600080fd5b3480156102f757600080fd5b5061030b6103063660046139a5565b610976565b6040519081526020015b60405180910390f35b34801561032a57600080fd5b5061033e6103393660046139e7565b610a24565b6040519015158152602001610315565b34801561035a57600080fd5b5061015f5461033e9060ff1681565b34801561037557600080fd5b50610389610384366004613a04565b610a2f565b6040516103159190613a6d565b3480156103a257600080fd5b506103b66103b1366004613a80565b610a3a565b005b6103b66103c6366004613b8d565b610ae1565b3480156103d757600080fd5b506103b66103e6366004613c77565b610b4c565b3480156103f757600080fd5b5061040b610406366004613cbe565b610b61565b6040516103159190613d16565b34801561042457600080fd5b5061030b610433366004613a04565b600090815260fb602052604090206001015490565b34801561045457600080fd5b506103b6610463366004613d29565b610c35565b34801561047457600080fd5b506103b6610483366004613dd7565b610cc8565b34801561049457600080fd5b5061015f546104ae9061010090046001600160a01b031681565b6040516001600160a01b039091168152602001610315565b3480156104d257600080fd5b50610160546104ec906bffffffffffffffffffffffff1681565b6040516bffffffffffffffffffffffff9091168152602001610315565b34801561051557600080fd5b506103b6610524366004613dd7565b610ced565b34801561053557600080fd5b5061030b610544366004613a04565b6101656020526000908152604090205481565b34801561056357600080fd5b506103b6610572366004613e15565b610d79565b34801561058357600080fd5b5061040b610592366004613e32565b610d99565b3480156105a357600080fd5b5061033e6105b2366004613a04565b600090815261012d6020526040902054151590565b3480156105d357600080fd5b506103b66105e2366004613ef5565b610ed7565b6103b6610eeb565b6103b66105fd366004613a80565b610f9a565b34801561060e57600080fd5b506103b661061d366004613cbe565b61103a565b34801561062e57600080fd5b506103b661063d366004613b8d565b611086565b34801561064e57600080fd5b506103b661065d366004613a04565b611110565b34801561066e57600080fd5b5061030b7f7804d923f43a17d325d77e781528e0793b2edd9890ab45fc64efd7b4b427744c81565b3480156106a257600080fd5b506103b66106b1366004613f2a565b611122565b3480156106c257600080fd5b506106d66106d1366004613a04565b611367565b604051610315929190613f94565b3480156106f057600080fd5b506103b66106ff366004613fad565b6113b0565b34801561071057600080fd5b506103b6611435565b34801561072557600080fd5b50610163546104ae906001600160a01b031681565b34801561074657600080fd5b5061033e610755366004613dd7565b600091825260fb602090815260408084206001600160a01b0393909316845291905290205460ff1690565b34801561078c57600080fd5b5061030b600081565b3480156107a157600080fd5b506103b66107b0366004613ff2565b6114f8565b3480156107c157600080fd5b5061030b6107d0366004613a04565b600090815261012d602052604090205490565b3480156107ef57600080fd5b5061030b6107fe366004613a04565b6101646020526000908152604090205481565b34801561081d57600080fd5b5061030b7f9f2df0fed2c77648de5860a4cc508cd0818c85b8b8a1ab4ceeef8d981c8956a681565b34801561085157600080fd5b506103b6610860366004613dd7565b611503565b34801561087157600080fd5b506103b6610880366004613b8d565b611528565b34801561089157600080fd5b5061033e6108a0366004614020565b6001600160a01b03918216600090815260666020908152604080832093909416825291909152205460ff1690565b3480156108da57600080fd5b50610160546104ae90600160601b90046001600160a01b031681565b34801561090257600080fd5b506103b661091136600461404e565b611595565b34801561092257600080fd5b506103b6610931366004614070565b611604565b34801561094257600080fd5b506103b6610951366004613a80565b611690565b34801561096257600080fd5b506103b6610971366004613a04565b61171a565b60006001600160a01b0383166109f95760405162461bcd60e51b815260206004820152602a60248201527f455243313135353a2061646472657373207a65726f206973206e6f742061207660448201527f616c6964206f776e65720000000000000000000000000000000000000000000060648201526084015b60405180910390fd5b5060008181526065602090815260408083206001600160a01b03861684529091529020545b92915050565b6000610a1e82611738565b6060610a1e82611776565b610160546bffffffffffffffffffffffff16821115610a6f5760405163cfe3beb960e01b8152600481018390526024016109f0565b61015f5460ff1615610ac35760405162461bcd60e51b815260206004820152601f60248201527f43616e206f6e6c79206d696e742077697468206e617469766520746f6b656e0060448201526064016109f0565b61015f54610adc9084908490849060009060ff16611856565b505050565b61015f5460ff16610b345760405162461bcd60e51b815260206004820152601e60248201527f43616e206f6e6c79206d696e74207769746820657263323020746f6b656e000060448201526064016109f0565b61015f54610adc90849084908490349060ff16611aef565b6000610b5781611f0f565b610adc8383611f1c565b610160546060906000906bffffffffffffffffffffffff1667ffffffffffffffff811115610b9157610b91613ab5565b604051908082528060200260200182016040528015610bba578160200160208202803683370190505b5090506000805b610160546bffffffffffffffffffffffff168111610c2c576000610be58683610976565b90508015610c195781848481518110610c0057610c006140d9565b602090810291909101015282610c1581614105565b9350505b5080610c2481614105565b915050610bc1565b50815292915050565b6001600160a01b038516331480610c515750610c5185336108a0565b610cb45760405162461bcd60e51b815260206004820152602e60248201527f455243313135353a2063616c6c6572206973206e6f7420746f6b656e206f776e60448201526d195c881bdc88185c1c1c9bdd995960921b60648201526084016109f0565b610cc18585858585611f79565b5050505050565b600082815260fb6020526040902060010154610ce381611f0f565b610adc83836121e8565b6001600160a01b0381163314610d6b5760405162461bcd60e51b815260206004820152602f60248201527f416363657373436f6e74726f6c3a2063616e206f6e6c792072656e6f756e636560448201527f20726f6c657320666f722073656c66000000000000000000000000000000000060648201526084016109f0565b610d75828261228a565b5050565b6000610d8481611f0f565b5061015f805460ff1916911515919091179055565b60608151835114610e125760405162461bcd60e51b815260206004820152602960248201527f455243313135353a206163636f756e747320616e6420696473206c656e67746860448201527f206d69736d61746368000000000000000000000000000000000000000000000060648201526084016109f0565b6000835167ffffffffffffffff811115610e2e57610e2e613ab5565b604051908082528060200260200182016040528015610e57578160200160208202803683370190505b50905060005b8451811015610ecf57610ea2858281518110610e7b57610e7b6140d9565b6020026020010151858381518110610e9557610e956140d9565b6020026020010151610976565b828281518110610eb457610eb46140d9565b6020908102919091010152610ec881614105565b9050610e5d565b509392505050565b6000610ee281611f0f565b610d758261230d565b6000610ef681611f0f565b610163546040516000916001600160a01b03169047908381818185875af1925050503d8060008114610f44576040519150601f19603f3d011682016040523d82523d6000602084013e610f49565b606091505b5050905080610d755760405162461bcd60e51b815260206004820152601460248201527f4661696c656420746f2073656e6420457468657200000000000000000000000060448201526064016109f0565b610160546bffffffffffffffffffffffff16821115610fcf5760405163cfe3beb960e01b8152600481018390526024016109f0565b61015f5460ff166110225760405162461bcd60e51b815260206004820152601e60248201527f43616e206f6e6c79206d696e74207769746820657263323020746f6b656e000060448201526064016109f0565b61015f54610adc90849084908490349060ff16611856565b600061104581611f0f565b5061015f80546001600160a01b03909216610100027fffffffffffffffffffffff0000000000000000000000000000000000000000ff909216919091179055565b6001600160a01b0383163314806110a257506110a283336108a0565b6111055760405162461bcd60e51b815260206004820152602e60248201527f455243313135353a2063616c6c6572206973206e6f7420746f6b656e206f776e60448201526d195c881bdc88185c1c1c9bdd995960921b60648201526084016109f0565b610adc838383612319565b600061111b81611f0f565b5061016255565b600054610100900460ff16158080156111425750600054600160ff909116105b8061115c5750303b15801561115c575060005460ff166001145b6111ce5760405162461bcd60e51b815260206004820152602e60248201527f496e697469616c697a61626c653a20636f6e747261637420697320616c72656160448201527f647920696e697469616c697a656400000000000000000000000000000000000060648201526084016109f0565b6000805460ff1916600117905580156111f1576000805461ff0019166101001790555b6111fa85612573565b6112026125e7565b61120a6125e7565b6112126125e7565b61016161121f868261419e565b5061015f805461016284905561016080546001600160a01b03878116600160601b026bffffffffffffffffffffffff9092169190911790915560ff1990871661010002167fffffffffffffffffffffff00000000000000000000000000000000000000000090911617600117905561016380547fffffffffffffffffffffffff000000000000000000000000000000000000000016339081179091556112c7906000906121e8565b6112f17f7804d923f43a17d325d77e781528e0793b2edd9890ab45fc64efd7b4b427744c336121e8565b61131b7f9f2df0fed2c77648de5860a4cc508cd0818c85b8b8a1ab4ceeef8d981c8956a6336121e8565b8015610cc1576000805461ff0019169055604051600181527f7f26b83ff96e1f2b6a682f133852f6798a09c465da95921460cefb38474024989060200160405180910390a15050505050565b6000818152610164602052604081205460609015611397576000838152610164602052604090205491508161139f565b610162549150815b506113a983610a2f565b9050915091565b60006113bb81611f0f565b61016080546bffffffffffffffffffffffff169060006113da8361425e565b82546101009290920a6bffffffffffffffffffffffff8181021990931691831602179091556101605461140f92501684611f1c565b50610160546bffffffffffffffffffffffff166000908152610165602052604090205550565b600061144081611f0f565b61015f546040517f70a0823100000000000000000000000000000000000000000000000000000000815230600482015260009161010090046001600160a01b0316906370a0823190602401602060405180830381865afa1580156114a8573d6000803e3d6000fd5b505050506040513d601f19601f820116820180604052508101906114cc9190614289565b90508015610d75576101635461015f54610d75916001600160a01b036101009092048216911683612654565b610d753383836126e5565b600082815260fb602052604090206001015461151e81611f0f565b610adc838361228a565b61015f5460ff161561157c5760405162461bcd60e51b815260206004820152601f60248201527f43616e206f6e6c79206d696e742077697468206e617469766520746f6b656e0060448201526064016109f0565b61015f54610adc9084908490849060009060ff16611aef565b60006115a081611f0f565b816000036115f05760405162461bcd60e51b815260206004820152601560248201527f63616e6e6f742073657420707269636520746f2030000000000000000000000060448201526064016109f0565b506000918252610164602052604090912055565b6001600160a01b038516331480611620575061162085336108a0565b6116835760405162461bcd60e51b815260206004820152602e60248201527f455243313135353a2063616c6c6572206973206e6f7420746f6b656e206f776e60448201526d195c881bdc88185c1c1c9bdd995960921b60648201526084016109f0565b610cc185858585856127d9565b6001600160a01b0383163314806116ac57506116ac83336108a0565b61170f5760405162461bcd60e51b815260206004820152602e60248201527f455243313135353a2063616c6c6572206973206e6f7420746f6b656e206f776e60448201526d195c881bdc88185c1c1c9bdd995960921b60648201526084016109f0565b610adc838383612996565b600061172581611f0f565b5060009081526101646020526040812055565b60006001600160e01b031982167f7965db0b000000000000000000000000000000000000000000000000000000001480610a1e5750610a1e82612b2a565b600081815260ca60205260408120805460609291906117949061411e565b80601f01602080910402602001604051908101604052809291908181526020018280546117c09061411e565b801561180d5780601f106117e25761010080835404028352916020019161180d565b820191906000526020600020905b8154815290600101906020018083116117f057829003601f168201915b50505050509050600081511161182b5761182683612bc5565b61184f565b60c98160405160200161183f9291906142a2565b6040516020818303038152906040525b9392505050565b600084815261012d60205260408120548190600086116118b85760405162461bcd60e51b815260206004820152601260248201527f416d6f756e742063616e6e6f742062652030000000000000000000000000000060448201526064016109f0565b600087815261016560205260409020546118d28783614329565b11156119205760405162461bcd60e51b815260206004820152601860248201527f43616e6e6f7420657863656564204d617820537570706c79000000000000000060448201526064016109f0565b610163546001600160a01b03163314611a405760008781526101646020526040902054156119605760008781526101646020526040902054915081611968565b610162549150815b506119738287612c59565b925083156119d057828510156119cb5760405162461bcd60e51b815260206004820152601360248201527f496e73756666696369656e742066756e6473210000000000000000000000000060448201526064016109f0565b6119ee565b61015f546119ee9061010090046001600160a01b0316333086612c65565b604080516001600160a01b038a16815260208101899052908101879052606081018490527fb4c03061fb5b7fed76389d5af8f2e0ddb09f8c70d1333abbb62582835e10accb9060800160405180910390a15b61016054600160601b90046001600160a01b03166340c10f1989611a6c89670de0b6b3a7640000612c59565b6040516001600160e01b031960e085901b1681526001600160a01b0390921660048301526024820152604401600060405180830381600087803b158015611ab257600080fd5b505af1158015611ac6573d6000803e3d6000fd5b50505050611ae588888860405180602001604052806000815250612cb6565b5050505050505050565b6101635460009081906001600160a01b03163314611e615760005b8651811015611d9c576000868281518110611b2757611b276140d9565b602002602001015111611b7c5760405162461bcd60e51b815260206004820152601260248201527f416d6f756e742063616e6e6f742062652030000000000000000000000000000060448201526064016109f0565b6101605487516bffffffffffffffffffffffff90911690889083908110611ba557611ba56140d9565b60200260200101511115611be957868181518110611bc557611bc56140d9565b602002602001015160405163cfe3beb960e01b81526004016109f091815260200190565b6000611c1b888381518110611c0057611c006140d9565b6020026020010151600090815261012d602052604090205490565b90506101656000898481518110611c3457611c346140d9565b6020026020010151815260200190815260200160002054878381518110611c5d57611c5d6140d9565b602002602001015182611c709190614329565b1115611cbe5760405162461bcd60e51b815260206004820152601860248201527f43616e6e6f7420657863656564204d617820537570706c79000000000000000060448201526064016109f0565b600061016460008a8581518110611cd757611cd76140d9565b6020026020010151815260200190815260200160002054600014611d2b5761016460008a8581518110611d0c57611d0c6140d9565b6020026020010151815260200190815260200160002054905080611d32565b5061016254805b50611d5f888481518110611d4857611d486140d9565b602002602001015182612c5990919063ffffffff16565b611d699086614329565b9450878381518110611d7d57611d7d6140d9565b602002602001015184611d909190614329565b93505050600101611b0a565b508215611df85781841015611df35760405162461bcd60e51b815260206004820152601360248201527f496e73756666696369656e742066756e6473210000000000000000000000000060448201526064016109f0565b611e16565b61015f54611e169061010090046001600160a01b0316333085612c65565b604080516001600160a01b0389168152602081018390529081018390527f6941bbed9891bfb7a243f6a1aa237a060996652ebf3e8f33bb36a0022e60dfbf9060600160405180910390a15b61016054600160601b90046001600160a01b03166340c10f1988611e8d84670de0b6b3a7640000612c59565b6040516001600160e01b031960e085901b1681526001600160a01b0390921660048301526024820152604401600060405180830381600087803b158015611ed357600080fd5b505af1158015611ee7573d6000803e3d6000fd5b50505050611f0687878760405180602001604052806000815250612dd2565b50505050505050565b611f198133612fa8565b50565b600082815260ca60205260409020611f34828261419e565b50817f6bb7ff708619ba0610cba295a58592e0451dee2622938c8755667688daf3529b611f6084610a2f565b604051611f6d9190613a6d565b60405180910390a25050565b8151835114611fdb5760405162461bcd60e51b815260206004820152602860248201527f455243313135353a2069647320616e6420616d6f756e7473206c656e677468206044820152670dad2e6dac2e8c6d60c31b60648201526084016109f0565b6001600160a01b03841661203f5760405162461bcd60e51b815260206004820152602560248201527f455243313135353a207472616e7366657220746f20746865207a65726f206164604482015264647265737360d81b60648201526084016109f0565b3361204e81878787878761301d565b60005b845181101561217a57600085828151811061206e5761206e6140d9565b60200260200101519050600085838151811061208c5761208c6140d9565b60209081029190910181015160008481526065835260408082206001600160a01b038e1683529093529190912054909150818110156121205760405162461bcd60e51b815260206004820152602a60248201527f455243313135353a20696e73756666696369656e742062616c616e636520666f60448201526939103a3930b739b332b960b11b60648201526084016109f0565b60008381526065602090815260408083206001600160a01b038e8116855292528083208585039055908b1682528120805484929061215f908490614329565b925050819055505050508061217390614105565b9050612051565b50846001600160a01b0316866001600160a01b0316826001600160a01b03167f4a39dc06d4c0dbc64b70af90fd698a233a518aa5d07e595d983b8c0526c8f7fb87876040516121ca92919061433c565b60405180910390a46121e081878787878761302b565b505050505050565b600082815260fb602090815260408083206001600160a01b038516845290915290205460ff16610d7557600082815260fb602090815260408083206001600160a01b03851684529091529020805460ff191660011790556122463390565b6001600160a01b0316816001600160a01b0316837f2f8788117e7eff1d82e926ec794901d17c78024a50270940304540a733656f0d60405160405180910390a45050565b600082815260fb602090815260408083206001600160a01b038516845290915290205460ff1615610d7557600082815260fb602090815260408083206001600160a01b0385168085529252808320805460ff1916905551339285917ff6391f5c32d9c69d2a47ea670b442974b53935d1edc7fd64eb21e047a839171b9190a45050565b60c9610d75828261419e565b6001600160a01b03831661237b5760405162461bcd60e51b815260206004820152602360248201527f455243313135353a206275726e2066726f6d20746865207a65726f206164647260448201526265737360e81b60648201526084016109f0565b80518251146123dd5760405162461bcd60e51b815260206004820152602860248201527f455243313135353a2069647320616e6420616d6f756e7473206c656e677468206044820152670dad2e6dac2e8c6d60c31b60648201526084016109f0565b60003390506124008185600086866040518060200160405280600081525061301d565b60005b8351811015612504576000848281518110612420576124206140d9565b60200260200101519050600084838151811061243e5761243e6140d9565b60209081029190910181015160008481526065835260408082206001600160a01b038c1683529093529190912054909150818110156124cb5760405162461bcd60e51b8152602060048201526024808201527f455243313135353a206275726e20616d6f756e7420657863656564732062616c604482015263616e636560e01b60648201526084016109f0565b60009283526065602090815260408085206001600160a01b038b16865290915290922091039055806124fc81614105565b915050612403565b5060006001600160a01b0316846001600160a01b0316826001600160a01b03167f4a39dc06d4c0dbc64b70af90fd698a233a518aa5d07e595d983b8c0526c8f7fb868660405161255592919061433c565b60405180910390a46040805160208101909152600090525b50505050565b600054610100900460ff166125de5760405162461bcd60e51b815260206004820152602b60248201527f496e697469616c697a61626c653a20636f6e7472616374206973206e6f74206960448201526a6e697469616c697a696e6760a81b60648201526084016109f0565b611f19816131d0565b600054610100900460ff166126525760405162461bcd60e51b815260206004820152602b60248201527f496e697469616c697a61626c653a20636f6e7472616374206973206e6f74206960448201526a6e697469616c697a696e6760a81b60648201526084016109f0565b565b6040516001600160a01b038316602482015260448101829052610adc9084907fa9059cbb00000000000000000000000000000000000000000000000000000000906064015b60408051601f198184030181529190526020810180517bffffffffffffffffffffffffffffffffffffffffffffffffffffffff166001600160e01b031990931692909217909152613244565b816001600160a01b0316836001600160a01b03160361276c5760405162461bcd60e51b815260206004820152602960248201527f455243313135353a2073657474696e6720617070726f76616c2073746174757360448201527f20666f722073656c66000000000000000000000000000000000000000000000060648201526084016109f0565b6001600160a01b03838116600081815260666020908152604080832094871680845294825291829020805460ff191686151590811790915591519182527f17307eab39ab6107e8899845ad3d59bd9653f200f220920489ca2b5937696c31910160405180910390a3505050565b6001600160a01b03841661283d5760405162461bcd60e51b815260206004820152602560248201527f455243313135353a207472616e7366657220746f20746865207a65726f206164604482015264647265737360d81b60648201526084016109f0565b3360006128498561332c565b905060006128568561332c565b905061286683898985858961301d565b60008681526065602090815260408083206001600160a01b038c168452909152902054858110156128ec5760405162461bcd60e51b815260206004820152602a60248201527f455243313135353a20696e73756666696369656e742062616c616e636520666f60448201526939103a3930b739b332b960b11b60648201526084016109f0565b60008781526065602090815260408083206001600160a01b038d8116855292528083208985039055908a1682528120805488929061292b908490614329565b909155505060408051888152602081018890526001600160a01b03808b16928c821692918816917fc3d58168c5ae7397731d063d5bbf3d657854427343f4c083240f7aacaa2d0f62910160405180910390a461298b848a8a8a8a8a613377565b505050505050505050565b6001600160a01b0383166129f85760405162461bcd60e51b815260206004820152602360248201527f455243313135353a206275726e2066726f6d20746865207a65726f206164647260448201526265737360e81b60648201526084016109f0565b336000612a048461332c565b90506000612a118461332c565b9050612a318387600085856040518060200160405280600081525061301d565b60008581526065602090815260408083206001600160a01b038a16845290915290205484811015612ab05760405162461bcd60e51b8152602060048201526024808201527f455243313135353a206275726e20616d6f756e7420657863656564732062616c604482015263616e636560e01b60648201526084016109f0565b60008681526065602090815260408083206001600160a01b038b81168086529184528285208a8703905582518b81529384018a90529092908816917fc3d58168c5ae7397731d063d5bbf3d657854427343f4c083240f7aacaa2d0f62910160405180910390a4604080516020810190915260009052611f06565b60006001600160e01b031982167fd9b67a26000000000000000000000000000000000000000000000000000000001480612b8d57506001600160e01b031982167f0e89341c00000000000000000000000000000000000000000000000000000000145b80610a1e57507f01ffc9a7000000000000000000000000000000000000000000000000000000006001600160e01b0319831614610a1e565b606060678054612bd49061411e565b80601f0160208091040260200160405190810160405280929190818152602001828054612c009061411e565b8015612c4d5780601f10612c2257610100808354040283529160200191612c4d565b820191906000526020600020905b815481529060010190602001808311612c3057829003601f168201915b50505050509050919050565b600061184f828461436a565b6040516001600160a01b038085166024830152831660448201526064810182905261256d9085907f23b872dd0000000000000000000000000000000000000000000000000000000090608401612699565b6001600160a01b038416612d165760405162461bcd60e51b815260206004820152602160248201527f455243313135353a206d696e7420746f20746865207a65726f206164647265736044820152607360f81b60648201526084016109f0565b336000612d228561332c565b90506000612d2f8561332c565b9050612d408360008985858961301d565b60008681526065602090815260408083206001600160a01b038b16845290915281208054879290612d72908490614329565b909155505060408051878152602081018790526001600160a01b03808a1692600092918716917fc3d58168c5ae7397731d063d5bbf3d657854427343f4c083240f7aacaa2d0f62910160405180910390a4611f0683600089898989613377565b6001600160a01b038416612e325760405162461bcd60e51b815260206004820152602160248201527f455243313135353a206d696e7420746f20746865207a65726f206164647265736044820152607360f81b60648201526084016109f0565b8151835114612e945760405162461bcd60e51b815260206004820152602860248201527f455243313135353a2069647320616e6420616d6f756e7473206c656e677468206044820152670dad2e6dac2e8c6d60c31b60648201526084016109f0565b33612ea48160008787878761301d565b60005b8451811015612f4057838181518110612ec257612ec26140d9565b602002602001015160656000878481518110612ee057612ee06140d9565b602002602001015181526020019081526020016000206000886001600160a01b03166001600160a01b031681526020019081526020016000206000828254612f289190614329565b90915550819050612f3881614105565b915050612ea7565b50846001600160a01b031660006001600160a01b0316826001600160a01b03167f4a39dc06d4c0dbc64b70af90fd698a233a518aa5d07e595d983b8c0526c8f7fb8787604051612f9192919061433c565b60405180910390a4610cc18160008787878761302b565b600082815260fb602090815260408083206001600160a01b038516845290915290205460ff16610d7557612fdb81613473565b612fe6836020613485565b604051602001612ff7929190614381565b60408051601f198184030181529082905262461bcd60e51b82526109f091600401613a6d565b6121e0868686868686613666565b6001600160a01b0384163b156121e05760405163bc197c8160e01b81526001600160a01b0385169063bc197c819061306f9089908990889088908890600401614402565b6020604051808303816000875af19250505080156130aa575060408051601f3d908101601f191682019092526130a791810190614460565b60015b61315f576130b661447d565b806308c379a0036130ef57506130ca614499565b806130d557506130f1565b8060405162461bcd60e51b81526004016109f09190613a6d565b505b60405162461bcd60e51b815260206004820152603460248201527f455243313135353a207472616e7366657220746f206e6f6e2d4552433131353560448201527f526563656976657220696d706c656d656e74657200000000000000000000000060648201526084016109f0565b6001600160e01b0319811663bc197c8160e01b14611f065760405162461bcd60e51b815260206004820152602860248201527f455243313135353a204552433131353552656365697665722072656a656374656044820152676420746f6b656e7360c01b60648201526084016109f0565b600054610100900460ff1661323b5760405162461bcd60e51b815260206004820152602b60248201527f496e697469616c697a61626c653a20636f6e7472616374206973206e6f74206960448201526a6e697469616c697a696e6760a81b60648201526084016109f0565b611f19816137f7565b6000613299826040518060400160405280602081526020017f5361666545524332303a206c6f772d6c6576656c2063616c6c206661696c6564815250856001600160a01b03166138039092919063ffffffff16565b90508051600014806132ba5750808060200190518101906132ba9190614523565b610adc5760405162461bcd60e51b815260206004820152602a60248201527f5361666545524332303a204552433230206f7065726174696f6e20646964206e60448201527f6f7420737563636565640000000000000000000000000000000000000000000060648201526084016109f0565b60408051600180825281830190925260609160009190602080830190803683370190505090508281600081518110613366576133666140d9565b602090810291909101015292915050565b6001600160a01b0384163b156121e05760405163f23a6e6160e01b81526001600160a01b0385169063f23a6e61906133bb9089908990889088908890600401614540565b6020604051808303816000875af19250505080156133f6575060408051601f3d908101601f191682019092526133f391810190614460565b60015b613402576130b661447d565b6001600160e01b0319811663f23a6e6160e01b14611f065760405162461bcd60e51b815260206004820152602860248201527f455243313135353a204552433131353552656365697665722072656a656374656044820152676420746f6b656e7360c01b60648201526084016109f0565b6060610a1e6001600160a01b03831660145b6060600061349483600261436a565b61349f906002614329565b67ffffffffffffffff8111156134b7576134b7613ab5565b6040519080825280601f01601f1916602001820160405280156134e1576020820181803683370190505b5090507f300000000000000000000000000000000000000000000000000000000000000081600081518110613518576135186140d9565b60200101906001600160f81b031916908160001a9053507f780000000000000000000000000000000000000000000000000000000000000081600181518110613563576135636140d9565b60200101906001600160f81b031916908160001a905350600061358784600261436a565b613592906001614329565b90505b6001811115613617577f303132333435363738396162636465660000000000000000000000000000000085600f16601081106135d3576135d36140d9565b1a60f81b8282815181106135e9576135e96140d9565b60200101906001600160f81b031916908160001a90535060049490941c9361361081614578565b9050613595565b50831561184f5760405162461bcd60e51b815260206004820181905260248201527f537472696e67733a20686578206c656e67746820696e73756666696369656e7460448201526064016109f0565b6001600160a01b0385166136ee5760005b83518110156136ec57828181518110613692576136926140d9565b602002602001015161012d60008684815181106136b1576136b16140d9565b6020026020010151815260200190815260200160002060008282546136d69190614329565b909155506136e5905081614105565b9050613677565b505b6001600160a01b0384166121e05760005b8351811015611f0657600084828151811061371c5761371c6140d9565b60200260200101519050600084838151811061373a5761373a6140d9565b60200260200101519050600061012d6000848152602001908152602001600020549050818110156137d35760405162461bcd60e51b815260206004820152602860248201527f455243313135353a206275726e20616d6f756e74206578636565647320746f7460448201527f616c537570706c7900000000000000000000000000000000000000000000000060648201526084016109f0565b600092835261012d6020526040909220910390556137f081614105565b90506136ff565b6067610d75828261419e565b6060613812848460008561381a565b949350505050565b6060824710156138925760405162461bcd60e51b815260206004820152602660248201527f416464726573733a20696e73756666696369656e742062616c616e636520666f60448201527f722063616c6c000000000000000000000000000000000000000000000000000060648201526084016109f0565b600080866001600160a01b031685876040516138ae919061458f565b60006040518083038185875af1925050503d80600081146138eb576040519150601f19603f3d011682016040523d82523d6000602084013e6138f0565b606091505b50915091506139018783838761390c565b979650505050505050565b6060831561397b578251600003613974576001600160a01b0385163b6139745760405162461bcd60e51b815260206004820152601d60248201527f416464726573733a2063616c6c20746f206e6f6e2d636f6e747261637400000060448201526064016109f0565b5081613812565b61381283838151156130d55781518083602001fd5b6001600160a01b0381168114611f1957600080fd5b600080604083850312156139b857600080fd5b82356139c381613990565b946020939093013593505050565b6001600160e01b031981168114611f1957600080fd5b6000602082840312156139f957600080fd5b813561184f816139d1565b600060208284031215613a1657600080fd5b5035919050565b60005b83811015613a38578181015183820152602001613a20565b50506000910152565b60008151808452613a59816020860160208601613a1d565b601f01601f19169290920160200192915050565b60208152600061184f6020830184613a41565b600080600060608486031215613a9557600080fd5b8335613aa081613990565b95602085013595506040909401359392505050565b634e487b7160e01b600052604160045260246000fd5b601f8201601f1916810167ffffffffffffffff81118282101715613af157613af1613ab5565b6040525050565b600067ffffffffffffffff821115613b1257613b12613ab5565b5060051b60200190565b600082601f830112613b2d57600080fd5b81356020613b3a82613af8565b604051613b478282613acb565b83815260059390931b8501820192828101915086841115613b6757600080fd5b8286015b84811015613b825780358352918301918301613b6b565b509695505050505050565b600080600060608486031215613ba257600080fd5b8335613bad81613990565b9250602084013567ffffffffffffffff80821115613bca57600080fd5b613bd687838801613b1c565b93506040860135915080821115613bec57600080fd5b50613bf986828701613b1c565b9150509250925092565b600082601f830112613c1457600080fd5b813567ffffffffffffffff811115613c2e57613c2e613ab5565b604051613c45601f8301601f191660200182613acb565b818152846020838601011115613c5a57600080fd5b816020850160208301376000918101602001919091529392505050565b60008060408385031215613c8a57600080fd5b82359150602083013567ffffffffffffffff811115613ca857600080fd5b613cb485828601613c03565b9150509250929050565b600060208284031215613cd057600080fd5b813561184f81613990565b600081518084526020808501945080840160005b83811015613d0b57815187529582019590820190600101613cef565b509495945050505050565b60208152600061184f6020830184613cdb565b600080600080600060a08688031215613d4157600080fd5b8535613d4c81613990565b94506020860135613d5c81613990565b9350604086013567ffffffffffffffff80821115613d7957600080fd5b613d8589838a01613b1c565b94506060880135915080821115613d9b57600080fd5b613da789838a01613b1c565b93506080880135915080821115613dbd57600080fd5b50613dca88828901613c03565b9150509295509295909350565b60008060408385031215613dea57600080fd5b823591506020830135613dfc81613990565b809150509250929050565b8015158114611f1957600080fd5b600060208284031215613e2757600080fd5b813561184f81613e07565b60008060408385031215613e4557600080fd5b823567ffffffffffffffff80821115613e5d57600080fd5b818501915085601f830112613e7157600080fd5b81356020613e7e82613af8565b604051613e8b8282613acb565b83815260059390931b8501820192828101915089841115613eab57600080fd5b948201945b83861015613ed2578535613ec381613990565b82529482019490820190613eb0565b96505086013592505080821115613ee857600080fd5b50613cb485828601613b1c565b600060208284031215613f0757600080fd5b813567ffffffffffffffff811115613f1e57600080fd5b61381284828501613c03565b60008060008060808587031215613f4057600080fd5b843567ffffffffffffffff811115613f5757600080fd5b613f6387828801613c03565b9450506020850135613f7481613990565b92506040850135613f8481613990565b9396929550929360600135925050565b8281526040602082015260006138126040830184613a41565b60008060408385031215613fc057600080fd5b823567ffffffffffffffff811115613fd757600080fd5b613fe385828601613c03565b95602094909401359450505050565b6000806040838503121561400557600080fd5b823561401081613990565b91506020830135613dfc81613e07565b6000806040838503121561403357600080fd5b823561403e81613990565b91506020830135613dfc81613990565b6000806040838503121561406157600080fd5b50508035926020909101359150565b600080600080600060a0868803121561408857600080fd5b853561409381613990565b945060208601356140a381613990565b93506040860135925060608601359150608086013567ffffffffffffffff8111156140cd57600080fd5b613dca88828901613c03565b634e487b7160e01b600052603260045260246000fd5b634e487b7160e01b600052601160045260246000fd5b600060018201614117576141176140ef565b5060010190565b600181811c9082168061413257607f821691505b60208210810361415257634e487b7160e01b600052602260045260246000fd5b50919050565b601f821115610adc57600081815260208120601f850160051c8101602086101561417f5750805b601f850160051c820191505b818110156121e05782815560010161418b565b815167ffffffffffffffff8111156141b8576141b8613ab5565b6141cc816141c6845461411e565b84614158565b602080601f83116001811461420157600084156141e95750858301515b600019600386901b1c1916600185901b1785556121e0565b600085815260208120601f198616915b8281101561423057888601518255948401946001909101908401614211565b508582101561424e5787850151600019600388901b60f8161c191681555b5050505050600190811b01905550565b60006bffffffffffffffffffffffff80831681810361427f5761427f6140ef565b6001019392505050565b60006020828403121561429b57600080fd5b5051919050565b60008084546142b08161411e565b600182811680156142c857600181146142dd5761430c565b60ff198416875282151583028701945061430c565b8860005260208060002060005b858110156143035781548a8201529084019082016142ea565b50505082870194505b505050508351614320818360208801613a1d565b01949350505050565b80820180821115610a1e57610a1e6140ef565b60408152600061434f6040830185613cdb565b82810360208401526143618185613cdb565b95945050505050565b8082028115828204841417610a1e57610a1e6140ef565b7f416363657373436f6e74726f6c3a206163636f756e74200000000000000000008152600083516143b9816017850160208801613a1d565b7f206973206d697373696e6720726f6c652000000000000000000000000000000060179184019182015283516143f6816028840160208801613a1d565b01602801949350505050565b60006001600160a01b03808816835280871660208401525060a0604083015261442e60a0830186613cdb565b82810360608401526144408186613cdb565b905082810360808401526144548185613a41565b98975050505050505050565b60006020828403121561447257600080fd5b815161184f816139d1565b600060033d11156144965760046000803e5060005160e01c5b90565b600060443d10156144a75790565b6040516003193d81016004833e81513d67ffffffffffffffff81602484011181841117156144d757505050505090565b82850191508151818111156144ef5750505050505090565b843d87010160208285010111156145095750505050505090565b61451860208286010187613acb565b509095945050505050565b60006020828403121561453557600080fd5b815161184f81613e07565b60006001600160a01b03808816835280871660208401525084604083015283606083015260a0608083015261390160a0830184613a41565b600081614587576145876140ef565b506000190190565b600082516145a1818460208701613a1d565b919091019291505056fea26469706673582212200f9515d5841466b95d7476753859f121e3facbdfbe5ae8f53938e38917aaf06164736f6c63430008110033",
  "linkReferences": {},
  "deployedLinkReferences": {}
}