{
  "abi": [
    {
      "inputs": [],
      "stateMutability": "nonpayable",
      "type": "constructor"
    },
    {
      "inputs": [
        {
          "internalType": "uint256",
          "name": "tokenId",
          "type": "uint256"
        }
      ],
      "name": "NoTokenExists",
      "type": "error"
    },
    {
      "anonymous": false,
      "inputs": [
        {
          "indexed": true,
          "internalType": "address",
          "name": "account",
          "type": "address"
        },
        {
          "indexed": true,
          "internalType": "address",
          "name": "operator",
          "type": "address"
        },
        {
          "indexed": false,
          "internalType": "bool",
          "name": "approved",
          "type": "bool"
        }
      ],
      "name": "ApprovalForAll",
      "type": "event"
    },
    {
      "anonymous": false,
      "inputs": [
        {
          "indexed": false,
          "internalType": "uint8",
          "name": "version",
          "type": "uint8"
        }
      ],
      "name": "Initialized",
      "type": "event"
    },
    {
      "anonymous": false,
      "inputs": [
        {
          "indexed": false,
          "internalType": "address",
          "name": "recipient",
          "type": "address"
        },
        {
          "indexed": false,
          "internalType": "uint256",
          "name": "tokenId",
          "type": "uint256"
        },
        {
          "indexed": false,
          "internalType": "uint256",
          "name": "amount",
          "type": "uint256"
        },
        {
          "indexed": false,
          "internalType": "uint256",
          "name": "totalPrice",
          "type": "uint256"
        }
      ],
      "name": "Mint",
      "type": "event"
    },
    {
      "anonymous": false,
      "inputs": [
        {
          "indexed": false,
          "internalType": "address",
          "name": "recipient",
          "type": "address"
        },
        {
          "indexed": false,
          "internalType": "uint256",
          "name": "totalAmounts",
          "type": "uint256"
        },
        {
          "indexed": false,
          "internalType": "uint256",
          "name": "finalPrice",
          "type": "uint256"
        }
      ],
      "name": "MintBatch",
      "type": "event"
    },
    {
      "anonymous": false,
      "inputs": [
        {
          "indexed": true,
          "internalType": "bytes32",
          "name": "role",
          "type": "bytes32"
        },
        {
          "indexed": true,
          "internalType": "bytes32",
          "name": "previousAdminRole",
          "type": "bytes32"
        },
        {
          "indexed": true,
          "internalType": "bytes32",
          "name": "newAdminRole",
          "type": "bytes32"
        }
      ],
      "name": "RoleAdminChanged",
      "type": "event"
    },
    {
      "anonymous": false,
      "inputs": [
        {
          "indexed": true,
          "internalType": "bytes32",
          "name": "role",
          "type": "bytes32"
        },
        {
          "indexed": true,
          "internalType": "address",
          "name": "account",
          "type": "address"
        },
        {
          "indexed": true,
          "internalType": "address",
          "name": "sender",
          "type": "address"
        }
      ],
      "name": "RoleGranted",
      "type": "event"
    },
    {
      "anonymous": false,
      "inputs": [
        {
          "indexed": true,
          "internalType": "bytes32",
          "name": "role",
          "type": "bytes32"
        },
        {
          "indexed": true,
          "internalType": "address",
          "name": "account",
          "type": "address"
        },
        {
          "indexed": true,
          "internalType": "address",
          "name": "sender",
          "type": "address"
        }
      ],
      "name": "RoleRevoked",
      "type": "event"
    },
    {
      "anonymous": false,
      "inputs": [
        {
          "indexed": true,
          "internalType": "address",
          "name": "operator",
          "type": "address"
        },
        {
          "indexed": true,
          "internalType": "address",
          "name": "from",
          "type": "address"
        },
        {
          "indexed": true,
          "internalType": "address",
          "name": "to",
          "type": "address"
        },
        {
          "indexed": false,
          "internalType": "uint256[]",
          "name": "ids",
          "type": "uint256[]"
        },
        {
          "indexed": false,
          "internalType": "uint256[]",
          "name": "values",
          "type": "uint256[]"
        }
      ],
      "name": "TransferBatch",
      "type": "event"
    },
    {
      "anonymous": false,
      "inputs": [
        {
          "indexed": true,
          "internalType": "address",
          "name": "operator",
          "type": "address"
        },
        {
          "indexed": true,
          "internalType": "address",
          "name": "from",
          "type": "address"
        },
        {
          "indexed": true,
          "internalType": "address",
          "name": "to",
          "type": "address"
        },
        {
          "indexed": false,
          "internalType": "uint256",
          "name": "id",
          "type": "uint256"
        },
        {
          "indexed": false,
          "internalType": "uint256",
          "name": "value",
          "type": "uint256"
        }
      ],
      "name": "TransferSingle",
      "type": "event"
    },
    {
      "anonymous": false,
      "inputs": [
        {
          "indexed": false,
          "internalType": "string",
          "name": "value",
          "type": "string"
        },
        {
          "indexed": true,
          "internalType": "uint256",
          "name": "id",
          "type": "uint256"
        }
      ],
      "name": "URI",
      "type": "event"
    },
    {
      "anonymous": false,
      "inputs": [
        {
          "indexed": false,
          "internalType": "address",
          "name": "recipient",
          "type": "address"
        },
        {
          "indexed": false,
          "internalType": "uint256",
          "name": "amount",
          "type": "uint256"
        }
      ],
      "name": "Withdrawal",
      "type": "event"
    },
    {
      "inputs": [],
      "name": "DEFAULT_ADMIN_ROLE",
      "outputs": [
        {
          "internalType": "bytes32",
          "name": "",
          "type": "bytes32"
        }
      ],
      "stateMutability": "view",
      "type": "function"
    },
    {
      "inputs": [],
      "name": "MINTER_ROLE",
      "outputs": [
        {
          "internalType": "bytes32",
          "name": "",
          "type": "bytes32"
        }
      ],
      "stateMutability": "view",
      "type": "function"
    },
    {
      "inputs": [],
      "name": "URI_SETTER_ROLE",
      "outputs": [
        {
          "internalType": "bytes32",
          "name": "",
          "type": "bytes32"
        }
      ],
      "stateMutability": "view",
      "type": "function"
    },
    {
      "inputs": [
        {
          "internalType": "string",
          "name": "tokenURI",
          "type": "string"
        },
        {
          "internalType": "uint256",
          "name": "maxSupply",
          "type": "uint256"
        }
      ],
      "name": "addToken",
      "outputs": [],
      "stateMutability": "nonpayable",
      "type": "function"
    },
    {
      "inputs": [
        {
          "internalType": "address",
          "name": "account",
          "type": "address"
        },
        {
          "internalType": "uint256",
          "name": "id",
          "type": "uint256"
        }
      ],
      "name": "balanceOf",
      "outputs": [
        {
          "internalType": "uint256",
          "name": "",
          "type": "uint256"
        }
      ],
      "stateMutability": "view",
      "type": "function"
    },
    {
      "inputs": [
        {
          "internalType": "address[]",
          "name": "accounts",
          "type": "address[]"
        },
        {
          "internalType": "uint256[]",
          "name": "ids",
          "type": "uint256[]"
        }
      ],
      "name": "balanceOfBatch",
      "outputs": [
        {
          "internalType": "uint256[]",
          "name": "",
          "type": "uint256[]"
        }
      ],
      "stateMutability": "view",
      "type": "function"
    },
    {
      "inputs": [
        {
          "internalType": "address",
          "name": "account",
          "type": "address"
        },
        {
          "internalType": "uint256",
          "name": "id",
          "type": "uint256"
        },
        {
          "internalType": "uint256",
          "name": "value",
          "type": "uint256"
        }
      ],
      "name": "burn",
      "outputs": [],
      "stateMutability": "nonpayable",
      "type": "function"
    },
    {
      "inputs": [
        {
          "internalType": "address",
          "name": "account",
          "type": "address"
        },
        {
          "internalType": "uint256[]",
          "name": "ids",
          "type": "uint256[]"
        },
        {
          "internalType": "uint256[]",
          "name": "values",
          "type": "uint256[]"
        }
      ],
      "name": "burnBatch",
      "outputs": [],
      "stateMutability": "nonpayable",
      "type": "function"
    },
    {
      "inputs": [
        {
          "internalType": "uint256",
          "name": "id",
          "type": "uint256"
        }
      ],
      "name": "exists",
      "outputs": [
        {
          "internalType": "bool",
          "name": "",
          "type": "bool"
        }
      ],
      "stateMutability": "view",
      "type": "function"
    },
    {
      "inputs": [
        {
          "internalType": "bytes32",
          "name": "role",
          "type": "bytes32"
        }
      ],
      "name": "getRoleAdmin",
      "outputs": [
        {
          "internalType": "bytes32",
          "name": "",
          "type": "bytes32"
        }
      ],
      "stateMutability": "view",
      "type": "function"
    },
    {
      "inputs": [
        {
          "internalType": "uint256",
          "name": "tokenId",
          "type": "uint256"
        }
      ],
      "name": "getTokenInfo",
      "outputs": [
        {
          "internalType": "uint256",
          "name": "price",
          "type": "uint256"
        },
        {
          "internalType": "string",
          "name": "tokenURI",
          "type": "string"
        }
      ],
      "stateMutability": "view",
      "type": "function"
    },
    {
      "inputs": [
        {
          "internalType": "bytes32",
          "name": "role",
          "type": "bytes32"
        },
        {
          "internalType": "address",
          "name": "account",
          "type": "address"
        }
      ],
      "name": "grantRole",
      "outputs": [],
      "stateMutability": "nonpayable",
      "type": "function"
    },
    {
      "inputs": [
        {
          "internalType": "bytes32",
          "name": "role",
          "type": "bytes32"
        },
        {
          "internalType": "address",
          "name": "account",
          "type": "address"
        }
      ],
      "name": "hasRole",
      "outputs": [
        {
          "internalType": "bool",
          "name": "",
          "type": "bool"
        }
      ],
      "stateMutability": "view",
      "type": "function"
    },
    {
      "inputs": [
        {
          "internalType": "string",
          "name": "_baseURI",
          "type": "string"
        },
        {
          "internalType": "contract IERC20",
          "name": "_paymentToken",
          "type": "address"
        },
        {
          "internalType": "address",
          "name": "_mitchToken",
          "type": "address"
        },
        {
          "internalType": "uint256",
          "name": "_defaultPrice",
          "type": "uint256"
        }
      ],
      "name": "initialize",
      "outputs": [],
      "stateMutability": "nonpayable",
      "type": "function"
    },
    {
      "inputs": [
        {
          "internalType": "address",
          "name": "account",
          "type": "address"
        },
        {
          "internalType": "address",
          "name": "operator",
          "type": "address"
        }
      ],
      "name": "isApprovedForAll",
      "outputs": [
        {
          "internalType": "bool",
          "name": "",
          "type": "bool"
        }
      ],
      "stateMutability": "view",
      "type": "function"
    },
    {
      "inputs": [
        {
          "internalType": "uint256",
          "name": "",
          "type": "uint256"
        }
      ],
      "name": "maxTokenSupply",
      "outputs": [
        {
          "internalType": "uint256",
          "name": "",
          "type": "uint256"
        }
      ],
      "stateMutability": "view",
      "type": "function"
    },
    {
      "inputs": [
        {
          "internalType": "address",
          "name": "to",
          "type": "address"
        },
        {
          "internalType": "uint256",
          "name": "id",
          "type": "uint256"
        },
        {
          "internalType": "uint256",
          "name": "amount",
          "type": "uint256"
        }
      ],
      "name": "mint",
      "outputs": [],
      "stateMutability": "nonpayable",
      "type": "function"
    },
    {
      "inputs": [
        {
          "internalType": "address",
          "name": "to",
          "type": "address"
        },
        {
          "internalType": "uint256[]",
          "name": "ids",
          "type": "uint256[]"
        },
        {
          "internalType": "uint256[]",
          "name": "amounts",
          "type": "uint256[]"
        }
      ],
      "name": "mintBatch",
      "outputs": [],
      "stateMutability": "nonpayable",
      "type": "function"
    },
    {
      "inputs": [
        {
          "internalType": "address",
          "name": "to",
          "type": "address"
        },
        {
          "internalType": "uint256[]",
          "name": "ids",
          "type": "uint256[]"
        },
        {
          "internalType": "uint256[]",
          "name": "amounts",
          "type": "uint256[]"
        }
      ],
      "name": "mintBatchWithNativeToken",
      "outputs": [],
      "stateMutability": "payable",
      "type": "function"
    },
    {
      "inputs": [
        {
          "internalType": "address",
          "name": "to",
          "type": "address"
        },
        {
          "internalType": "uint256",
          "name": "id",
          "type": "uint256"
        },
        {
          "internalType": "uint256",
          "name": "amount",
          "type": "uint256"
        }
      ],
      "name": "mintWithNativeToken",
      "outputs": [],
      "stateMutability": "payable",
      "type": "function"
    },
    {
      "inputs": [],
      "name": "mitchToken",
      "outputs": [
        {
          "internalType": "contract IMitchToken",
          "name": "",
          "type": "address"
        }
      ],
      "stateMutability": "view",
      "type": "function"
    },
    {
      "inputs": [],
      "name": "nativeMintEnabled",
      "outputs": [
        {
          "internalType": "bool",
          "name": "",
          "type": "bool"
        }
      ],
      "stateMutability": "view",
      "type": "function"
    },
    {
      "inputs": [],
      "name": "owner",
      "outputs": [
        {
          "internalType": "address",
          "name": "",
          "type": "address"
        }
      ],
      "stateMutability": "view",
      "type": "function"
    },
    {
      "inputs": [],
      "name": "paymentToken",
      "outputs": [
        {
          "internalType": "contract IERC20",
          "name": "",
          "type": "address"
        }
      ],
      "stateMutability": "view",
      "type": "function"
    },
    {
      "inputs": [
        {
          "internalType": "bytes32",
          "name": "role",
          "type": "bytes32"
        },
        {
          "internalType": "address",
          "name": "account",
          "type": "address"
        }
      ],
      "name": "renounceRole",
      "outputs": [],
      "stateMutability": "nonpayable",
      "type": "function"
    },
    {
      "inputs": [
        {
          "internalType": "uint256",
          "name": "tokenId",
          "type": "uint256"
        }
      ],
      "name": "resetTokenPrice",
      "outputs": [],
      "stateMutability": "nonpayable",
      "type": "function"
    },
    {
      "inputs": [
        {
          "internalType": "bytes32",
          "name": "role",
          "type": "bytes32"
        },
        {
          "internalType": "address",
          "name": "account",
          "type": "address"
        }
      ],
      "name": "revokeRole",
      "outputs": [],
      "stateMutability": "nonpayable",
      "type": "function"
    },
    {
      "inputs": [
        {
          "internalType": "address",
          "name": "from",
          "type": "address"
        },
        {
          "internalType": "address",
          "name": "to",
          "type": "address"
        },
        {
          "internalType": "uint256[]",
          "name": "ids",
          "type": "uint256[]"
        },
        {
          "internalType": "uint256[]",
          "name": "amounts",
          "type": "uint256[]"
        },
        {
          "internalType": "bytes",
          "name": "data",
          "type": "bytes"
        }
      ],
      "name": "safeBatchTransferFrom",
      "outputs": [],
      "stateMutability": "nonpayable",
      "type": "function"
    },
    {
      "inputs": [
        {
          "internalType": "address",
          "name": "from",
          "type": "address"
        },
        {
          "internalType": "address",
          "name": "to",
          "type": "address"
        },
        {
          "internalType": "uint256",
          "name": "id",
          "type": "uint256"
        },
        {
          "internalType": "uint256",
          "name": "amount",
          "type": "uint256"
        },
        {
          "internalType": "bytes",
          "name": "data",
          "type": "bytes"
        }
      ],
      "name": "safeTransferFrom",
      "outputs": [],
      "stateMutability": "nonpayable",
      "type": "function"
    },
    {
      "inputs": [
        {
          "internalType": "address",
          "name": "operator",
          "type": "address"
        },
        {
          "internalType": "bool",
          "name": "approved",
          "type": "bool"
        }
      ],
      "name": "setApprovalForAll",
      "outputs": [],
      "stateMutability": "nonpayable",
      "type": "function"
    },
    {
      "inputs": [
        {
          "internalType": "string",
          "name": "_baseURI",
          "type": "string"
        }
      ],
      "name": "setBaseURI",
      "outputs": [],
      "stateMutability": "nonpayable",
      "type": "function"
    },
    {
      "inputs": [
        {
          "internalType": "uint256",
          "name": "price",
          "type": "uint256"
        }
      ],
      "name": "setDefaultPrice",
      "outputs": [],
      "stateMutability": "nonpayable",
      "type": "function"
    },
    {
      "inputs": [
        {
          "internalType": "bool",
          "name": "enabled",
          "type": "bool"
        }
      ],
      "name": "setNativeTokenMinting",
      "outputs": [],
      "stateMutability": "nonpayable",
      "type": "function"
    },
    {
      "inputs": [
        {
          "internalType": "contract IERC20",
          "name": "newPaymentToken",
          "type": "address"
        }
      ],
      "name": "setPaymentToken",
      "outputs": [],
      "stateMutability": "nonpayable",
      "type": "function"
    },
    {
      "inputs": [
        {
          "internalType": "uint256",
          "name": "tokenId",
          "type": "uint256"
        },
        {
          "internalType": "uint256",
          "name": "price",
          "type": "uint256"
        }
      ],
      "name": "setTokenPrice",
      "outputs": [],
      "stateMutability": "nonpayable",
      "type": "function"
    },
    {
      "inputs": [
        {
          "internalType": "uint256",
          "name": "tokenId",
          "type": "uint256"
        },
        {
          "internalType": "string",
          "name": "tokenURI",
          "type": "string"
        }
      ],
      "name": "setTokenURI",
      "outputs": [],
      "stateMutability": "nonpayable",
      "type": "function"
    },
    {
      "inputs": [
        {
          "internalType": "bytes4",
          "name": "interfaceId",
          "type": "bytes4"
        }
      ],
      "name": "supportsInterface",
      "outputs": [
        {
          "internalType": "bool",
          "name": "",
          "type": "bool"
        }
      ],
      "stateMutability": "view",
      "type": "function"
    },
    {
      "inputs": [
        {
          "internalType": "uint256",
          "name": "",
          "type": "uint256"
        }
      ],
      "name": "tokenPrice",
      "outputs": [
        {
          "internalType": "uint256",
          "name": "",
          "type": "uint256"
        }
      ],
      "stateMutability": "view",
      "type": "function"
    },
    {
      "inputs": [
        {
          "internalType": "uint256",
          "name": "id",
          "type": "uint256"
        }
      ],
      "name": "totalSupply",
      "outputs": [
        {
          "internalType": "uint256",
          "name": "",
          "type": "uint256"
        }
      ],
      "stateMutability": "view",
      "type": "function"
    },
    {
      "inputs": [],
      "name": "uniqueTokens",
      "outputs": [
        {
          "internalType": "uint96",
          "name": "",
          "type": "uint96"
        }
      ],
      "stateMutability": "view",
      "type": "function"
    },
    {
      "inputs": [
        {
          "internalType": "uint256",
          "name": "tokenId",
          "type": "uint256"
        }
      ],
      "name": "uri",
      "outputs": [
        {
          "internalType": "string",
          "name": "",
          "type": "string"
        }
      ],
      "stateMutability": "view",
      "type": "function"
    },
    {
      "inputs": [],
      "name": "withdrawNativeToken",
      "outputs": [],
      "stateMutability": "payable",
      "type": "function"
    },
    {
      "inputs": [],
      "name": "withdrawTokens",
      "outputs": [],
      "stateMutability": "nonpayable",
      "type": "function"
    }
  ],
  "bytecode": {
    "object": "0x608060405261016080546001600160601b03191690553480156200002257600080fd5b506200002d62000033565b620000f4565b600054610100900460ff1615620000a05760405162461bcd60e51b815260206004820152602760248201527f496e697469616c697a61626c653a20636f6e747261637420697320696e697469604482015266616c697a696e6760c81b606482015260840160405180910390fd5b60005460ff90811614620000f2576000805460ff191660ff9081179091556040519081527f7f26b83ff96e1f2b6a682f133852f6798a09c465da95921460cefb38474024989060200160405180910390a15b565b613e7d80620001046000396000f3fe60806040526004361061025b5760003560e01c80636b20c45411610144578063bd85b039116100b6578063e985e9c51161007a578063e985e9c5146107aa578063ea49b1cc146107f3578063eb685c471461081b578063f242432a1461083b578063f5298aca1461085b578063fc5abac11461087b57600080fd5b8063bd85b039146106da578063d4ddce8a14610708578063d539139314610736578063d547741f1461076a578063d81d0a151461078a57600080fd5b80638ca132f7116101085780638ca132f71461062f5780638d8f2adb1461064f5780638da5cb5b1461066457806391d1485414610685578063a217fddf146106a5578063a22cb465146106ba57600080fd5b80636b20c4541461056d5780636d3c7ec51461058d5780637f345710146105ad5780637ff7e616146105e15780638c7a63ae1461060157600080fd5b80633013ce29116101dd5780634e1273f4116101a15780634e1273f4146104b55780634f558e79146104e257806355f804b3146105125780635a18664c146105325780635a8f7b861461053a5780636a326ab11461054d57600080fd5b80633013ce29146103d057806330e8fd651461040e57806336568abe1461044757806336f5cba51461046757806337210b8f1461049557600080fd5b806315f8a01a1161022457806315f8a01a1461032d578063162094c414610340578063248a9ca3146103605780632eb2c2d6146103905780632f2ff15d146103b057600080fd5b8062fdd58e1461026057806301ffc9a7146102935780630b70ede5146102c35780630e89341c146102de578063156e29f61461030b575b600080fd5b34801561026c57600080fd5b5061028061027b366004612fdd565b61089b565b6040519081526020015b60405180910390f35b34801561029f57600080fd5b506102b36102ae36600461301f565b610936565b604051901515815260200161028a565b3480156102cf57600080fd5b5061015f546102b39060ff1681565b3480156102ea57600080fd5b506102fe6102f936600461303c565b610941565b60405161028a91906130a5565b34801561031757600080fd5b5061032b6103263660046130b8565b61094c565b005b61032b61033b3660046131c3565b6109ee565b34801561034c57600080fd5b5061032b61035b3660046132ab565b610a59565b34801561036c57600080fd5b5061028061037b36600461303c565b600090815260fb602052604090206001015490565b34801561039c57600080fd5b5061032b6103ab3660046132f1565b610a6e565b3480156103bc57600080fd5b5061032b6103cb36600461339e565b610aba565b3480156103dc57600080fd5b5061015f546103f69061010090046001600160a01b031681565b6040516001600160a01b03909116815260200161028a565b34801561041a57600080fd5b506101605461042f906001600160601b031681565b6040516001600160601b03909116815260200161028a565b34801561045357600080fd5b5061032b61046236600461339e565b610adf565b34801561047357600080fd5b5061028061048236600461303c565b6101656020526000908152604090205481565b3480156104a157600080fd5b5061032b6104b03660046133dc565b610b5d565b3480156104c157600080fd5b506104d56104d03660046133f9565b610b7d565b60405161028a91906134f6565b3480156104ee57600080fd5b506102b36104fd36600461303c565b600090815261012d6020526040902054151590565b34801561051e57600080fd5b5061032b61052d366004613509565b610ca6565b61032b610cba565b61032b6105483660046130b8565b610d60565b34801561055957600080fd5b5061032b61056836600461353d565b610dfb565b34801561057957600080fd5b5061032b6105883660046131c3565b610e30565b34801561059957600080fd5b5061032b6105a836600461303c565b610e73565b3480156105b957600080fd5b506102807f7804d923f43a17d325d77e781528e0793b2edd9890ab45fc64efd7b4b427744c81565b3480156105ed57600080fd5b5061032b6105fc36600461355a565b610e85565b34801561060d57600080fd5b5061062161061c36600461303c565b611086565b60405161028a9291906135c3565b34801561063b57600080fd5b5061032b61064a3660046135dc565b6110cf565b34801561065b57600080fd5b5061032b611145565b34801561067057600080fd5b50610163546103f6906001600160a01b031681565b34801561069157600080fd5b506102b36106a036600461339e565b6111ef565b3480156106b157600080fd5b50610280600081565b3480156106c657600080fd5b5061032b6106d5366004613620565b61121a565b3480156106e657600080fd5b506102806106f536600461303c565b600090815261012d602052604090205490565b34801561071457600080fd5b5061028061072336600461303c565b6101646020526000908152604090205481565b34801561074257600080fd5b506102807f9f2df0fed2c77648de5860a4cc508cd0818c85b8b8a1ab4ceeef8d981c8956a681565b34801561077657600080fd5b5061032b61078536600461339e565b611225565b34801561079657600080fd5b5061032b6107a53660046131c3565b61124a565b3480156107b657600080fd5b506102b36107c536600461364e565b6001600160a01b03918216600090815260666020908152604080832093909416825291909152205460ff1690565b3480156107ff57600080fd5b50610160546103f690600160601b90046001600160a01b031681565b34801561082757600080fd5b5061032b61083636600461367c565b6112b7565b34801561084757600080fd5b5061032b61085636600461369e565b61131e565b34801561086757600080fd5b5061032b6108763660046130b8565b611363565b34801561088757600080fd5b5061032b61089636600461303c565b6113a6565b60006001600160a01b03831661090b5760405162461bcd60e51b815260206004820152602a60248201527f455243313135353a2061646472657373207a65726f206973206e6f742061207660448201526930b634b21037bbb732b960b11b60648201526084015b60405180910390fd5b5060008181526065602090815260408083206001600160a01b03861684529091529020545b92915050565b6000610930826113c4565b6060610930826113e9565b610160546001600160601b031682111561097c5760405163cfe3beb960e01b815260048101839052602401610902565b61015f5460ff16156109d05760405162461bcd60e51b815260206004820152601f60248201527f43616e206f6e6c79206d696e742077697468206e617469766520746f6b656e006044820152606401610902565b61015f546109e99084908490849060009060ff166114c9565b505050565b61015f5460ff16610a415760405162461bcd60e51b815260206004820152601e60248201527f43616e206f6e6c79206d696e74207769746820657263323020746f6b656e00006044820152606401610902565b61015f546109e990849084908490349060ff16611748565b6000610a6481611b49565b6109e98383611b56565b6001600160a01b038516331480610a8a5750610a8a85336107c5565b610aa65760405162461bcd60e51b815260040161090290613706565b610ab38585858585611bb3565b5050505050565b600082815260fb6020526040902060010154610ad581611b49565b6109e98383611d60565b6001600160a01b0381163314610b4f5760405162461bcd60e51b815260206004820152602f60248201527f416363657373436f6e74726f6c3a2063616e206f6e6c792072656e6f756e636560448201526e103937b632b9903337b91039b2b63360891b6064820152608401610902565b610b598282611de6565b5050565b6000610b6881611b49565b5061015f805460ff1916911515919091179055565b60608151835114610be25760405162461bcd60e51b815260206004820152602960248201527f455243313135353a206163636f756e747320616e6420696473206c656e677468604482015268040dad2e6dac2e8c6d60bb1b6064820152608401610902565b600083516001600160401b03811115610bfd57610bfd6130ed565b604051908082528060200260200182016040528015610c26578160200160208202803683370190505b50905060005b8451811015610c9e57610c71858281518110610c4a57610c4a613754565b6020026020010151858381518110610c6457610c64613754565b602002602001015161089b565b828281518110610c8357610c83613754565b6020908102919091010152610c9781613780565b9050610c2c565b509392505050565b6000610cb181611b49565b610b5982611e4d565b6000610cc581611b49565b610163546040516000916001600160a01b03169047908381818185875af1925050503d8060008114610d13576040519150601f19603f3d011682016040523d82523d6000602084013e610d18565b606091505b5050905080610b595760405162461bcd60e51b81526020600482015260146024820152732330b4b632b2103a379039b2b7321022ba3432b960611b6044820152606401610902565b610160546001600160601b0316821115610d905760405163cfe3beb960e01b815260048101839052602401610902565b61015f5460ff16610de35760405162461bcd60e51b815260206004820152601e60248201527f43616e206f6e6c79206d696e74207769746820657263323020746f6b656e00006044820152606401610902565b61015f546109e990849084908490349060ff166114c9565b6000610e0681611b49565b5061015f80546001600160a01b0390921661010002610100600160a81b0319909216919091179055565b6001600160a01b038316331480610e4c5750610e4c83336107c5565b610e685760405162461bcd60e51b815260040161090290613706565b6109e9838383611e59565b6000610e7e81611b49565b5061016255565b600054610100900460ff1615808015610ea55750600054600160ff909116105b80610ebf5750303b158015610ebf575060005460ff166001145b610f225760405162461bcd60e51b815260206004820152602e60248201527f496e697469616c697a61626c653a20636f6e747261637420697320616c72656160448201526d191e481a5b9a5d1a585b1a5e995960921b6064820152608401610902565b6000805460ff191660011790558015610f45576000805461ff0019166101001790555b610f4e85611ffa565b610f5661202a565b610f5e61202a565b610f6661202a565b610161610f738682613819565b5061015f805461016284905561016080546001600160a01b03878116600160601b026001600160601b039092169190911790915560ff1990871661010002166001600160a81b031990911617600117905561016380546001600160a01b03191633908117909155610fe690600090611d60565b6110107f7804d923f43a17d325d77e781528e0793b2edd9890ab45fc64efd7b4b427744c33611d60565b61103a7f9f2df0fed2c77648de5860a4cc508cd0818c85b8b8a1ab4ceeef8d981c8956a633611d60565b8015610ab3576000805461ff0019169055604051600181527f7f26b83ff96e1f2b6a682f133852f6798a09c465da95921460cefb38474024989060200160405180910390a15050505050565b60008181526101646020526040812054606090156110b657600083815261016460205260409020549150816110be565b610162549150815b506110c883610941565b9050915091565b60006110da81611b49565b61016080546001600160601b03169060006110f4836138d8565b82546101009290920a6001600160601b038181021990931691831602179091556101605461112492501684611b56565b50610160546001600160601b03166000908152610165602052604090205550565b600061115081611b49565b61015f546040516370a0823160e01b815230600482015260009161010090046001600160a01b0316906370a0823190602401602060405180830381865afa15801561119f573d6000803e3d6000fd5b505050506040513d601f19601f820116820180604052508101906111c391906138fe565b90508015610b59576101635461015f54610b59916001600160a01b036101009092048216911683612053565b600091825260fb602090815260408084206001600160a01b0393909316845291905290205460ff1690565b610b593383836120b6565b600082815260fb602052604090206001015461124081611b49565b6109e98383611de6565b61015f5460ff161561129e5760405162461bcd60e51b815260206004820152601f60248201527f43616e206f6e6c79206d696e742077697468206e617469766520746f6b656e006044820152606401610902565b61015f546109e99084908490849060009060ff16611748565b60006112c281611b49565b8160000361130a5760405162461bcd60e51b8152602060048201526015602482015274063616e6e6f742073657420707269636520746f203605c1b6044820152606401610902565b506000918252610164602052604090912055565b6001600160a01b03851633148061133a575061133a85336107c5565b6113565760405162461bcd60e51b815260040161090290613706565b610ab38585858585612196565b6001600160a01b03831633148061137f575061137f83336107c5565b61139b5760405162461bcd60e51b815260040161090290613706565b6109e98383836122d2565b60006113b181611b49565b5060009081526101646020526040812055565b60006001600160e01b03198216637965db0b60e01b14806109305750610930826123ee565b600081815260ca602052604081208054606092919061140790613799565b80601f016020809104026020016040519081016040528092919081815260200182805461143390613799565b80156114805780601f1061145557610100808354040283529160200191611480565b820191906000526020600020905b81548152906001019060200180831161146357829003601f168201915b50505050509050600081511161149e576114998361243e565b6114c2565b60c9816040516020016114b2929190613917565b6040516020818303038152906040525b9392505050565b600084815261012d60205260408120548190600086116115205760405162461bcd60e51b81526020600482015260126024820152710416d6f756e742063616e6e6f7420626520360741b6044820152606401610902565b6000878152610165602052604090205461153a878361399e565b11156115835760405162461bcd60e51b815260206004820152601860248201527743616e6e6f7420657863656564204d617820537570706c7960401b6044820152606401610902565b610163546001600160a01b031633146116995760008781526101646020526040902054156115c357600087815261016460205260409020549150816115cb565b610162549150815b506115d682876124d2565b9250831561162957828510156116245760405162461bcd60e51b8152602060048201526013602482015272496e73756666696369656e742066756e64732160681b6044820152606401610902565b611647565b61015f546116479061010090046001600160a01b03163330866124de565b604080516001600160a01b038a16815260208101899052908101879052606081018490527fb4c03061fb5b7fed76389d5af8f2e0ddb09f8c70d1333abbb62582835e10accb9060800160405180910390a15b61016054600160601b90046001600160a01b03166340c10f19896116c589670de0b6b3a76400006124d2565b6040516001600160e01b031960e085901b1681526001600160a01b0390921660048301526024820152604401600060405180830381600087803b15801561170b57600080fd5b505af115801561171f573d6000803e3d6000fd5b5050505061173e88888860405180602001604052806000815250612516565b5050505050505050565b6101635460009081906001600160a01b03163314611a9b5760005b86518110156119e057600086828151811061178057611780613754565b6020026020010151116117ca5760405162461bcd60e51b81526020600482015260126024820152710416d6f756e742063616e6e6f7420626520360741b6044820152606401610902565b6101605487516001600160601b03909116908890839081106117ee576117ee613754565b602002602001015111156118325786818151811061180e5761180e613754565b602002602001015160405163cfe3beb960e01b815260040161090291815260200190565b600061186488838151811061184957611849613754565b6020026020010151600090815261012d602052604090205490565b9050610165600089848151811061187d5761187d613754565b60200260200101518152602001908152602001600020548783815181106118a6576118a6613754565b6020026020010151826118b9919061399e565b11156119025760405162461bcd60e51b815260206004820152601860248201527743616e6e6f7420657863656564204d617820537570706c7960401b6044820152606401610902565b600061016460008a858151811061191b5761191b613754565b602002602001015181526020019081526020016000205460001461196f5761016460008a858151811061195057611950613754565b6020026020010151815260200190815260200160002054905080611976565b5061016254805b506119a388848151811061198c5761198c613754565b6020026020010151826124d290919063ffffffff16565b6119ad908661399e565b94508783815181106119c1576119c1613754565b6020026020010151846119d4919061399e565b93505050600101611763565b508215611a325781841015611a2d5760405162461bcd60e51b8152602060048201526013602482015272496e73756666696369656e742066756e64732160681b6044820152606401610902565b611a50565b61015f54611a509061010090046001600160a01b03163330856124de565b604080516001600160a01b0389168152602081018390529081018390527f6941bbed9891bfb7a243f6a1aa237a060996652ebf3e8f33bb36a0022e60dfbf9060600160405180910390a15b61016054600160601b90046001600160a01b03166340c10f1988611ac784670de0b6b3a76400006124d2565b6040516001600160e01b031960e085901b1681526001600160a01b0390921660048301526024820152604401600060405180830381600087803b158015611b0d57600080fd5b505af1158015611b21573d6000803e3d6000fd5b50505050611b40878787604051806020016040528060008152506125f8565b50505050505050565b611b538133612753565b50565b600082815260ca60205260409020611b6e8282613819565b50817f6bb7ff708619ba0610cba295a58592e0451dee2622938c8755667688daf3529b611b9a84610941565b604051611ba791906130a5565b60405180910390a25050565b8151835114611bd45760405162461bcd60e51b8152600401610902906139b1565b6001600160a01b038416611bfa5760405162461bcd60e51b8152600401610902906139f9565b33611c098187878787876127ac565b60005b8451811015611cf2576000858281518110611c2957611c29613754565b602002602001015190506000858381518110611c4757611c47613754565b60209081029190910181015160008481526065835260408082206001600160a01b038e168352909352919091205490915081811015611c985760405162461bcd60e51b815260040161090290613a3e565b60008381526065602090815260408083206001600160a01b038e8116855292528083208585039055908b16825281208054849290611cd790849061399e565b9250508190555050505080611ceb90613780565b9050611c0c565b50846001600160a01b0316866001600160a01b0316826001600160a01b03167f4a39dc06d4c0dbc64b70af90fd698a233a518aa5d07e595d983b8c0526c8f7fb8787604051611d42929190613a88565b60405180910390a4611d588187878787876127ba565b505050505050565b611d6a82826111ef565b610b5957600082815260fb602090815260408083206001600160a01b03851684529091529020805460ff19166001179055611da23390565b6001600160a01b0316816001600160a01b0316837f2f8788117e7eff1d82e926ec794901d17c78024a50270940304540a733656f0d60405160405180910390a45050565b611df082826111ef565b15610b5957600082815260fb602090815260408083206001600160a01b0385168085529252808320805460ff1916905551339285917ff6391f5c32d9c69d2a47ea670b442974b53935d1edc7fd64eb21e047a839171b9190a45050565b60c9610b598282613819565b6001600160a01b038316611e7f5760405162461bcd60e51b815260040161090290613ab6565b8051825114611ea05760405162461bcd60e51b8152600401610902906139b1565b6000339050611ec3818560008686604051806020016040528060008152506127ac565b60005b8351811015611f8b576000848281518110611ee357611ee3613754565b602002602001015190506000848381518110611f0157611f01613754565b60209081029190910181015160008481526065835260408082206001600160a01b038c168352909352919091205490915081811015611f525760405162461bcd60e51b815260040161090290613af9565b60009283526065602090815260408085206001600160a01b038b1686529091529092209103905580611f8381613780565b915050611ec6565b5060006001600160a01b0316846001600160a01b0316826001600160a01b03167f4a39dc06d4c0dbc64b70af90fd698a233a518aa5d07e595d983b8c0526c8f7fb8686604051611fdc929190613a88565b60405180910390a46040805160208101909152600090525b50505050565b600054610100900460ff166120215760405162461bcd60e51b815260040161090290613b3d565b611b5381612915565b600054610100900460ff166120515760405162461bcd60e51b815260040161090290613b3d565b565b6040516001600160a01b0383166024820152604481018290526109e990849063a9059cbb60e01b906064015b60408051601f198184030181529190526020810180516001600160e01b03166001600160e01b031990931692909217909152612945565b816001600160a01b0316836001600160a01b0316036121295760405162461bcd60e51b815260206004820152602960248201527f455243313135353a2073657474696e6720617070726f76616c20737461747573604482015268103337b91039b2b63360b91b6064820152608401610902565b6001600160a01b03838116600081815260666020908152604080832094871680845294825291829020805460ff191686151590811790915591519182527f17307eab39ab6107e8899845ad3d59bd9653f200f220920489ca2b5937696c31910160405180910390a3505050565b6001600160a01b0384166121bc5760405162461bcd60e51b8152600401610902906139f9565b3360006121c885612a17565b905060006121d585612a17565b90506121e58389898585896127ac565b60008681526065602090815260408083206001600160a01b038c168452909152902054858110156122285760405162461bcd60e51b815260040161090290613a3e565b60008781526065602090815260408083206001600160a01b038d8116855292528083208985039055908a1682528120805488929061226790849061399e565b909155505060408051888152602081018890526001600160a01b03808b16928c821692918816917fc3d58168c5ae7397731d063d5bbf3d657854427343f4c083240f7aacaa2d0f62910160405180910390a46122c7848a8a8a8a8a612a62565b505050505050505050565b6001600160a01b0383166122f85760405162461bcd60e51b815260040161090290613ab6565b33600061230484612a17565b9050600061231184612a17565b9050612331838760008585604051806020016040528060008152506127ac565b60008581526065602090815260408083206001600160a01b038a168452909152902054848110156123745760405162461bcd60e51b815260040161090290613af9565b60008681526065602090815260408083206001600160a01b038b81168086529184528285208a8703905582518b81529384018a90529092908816917fc3d58168c5ae7397731d063d5bbf3d657854427343f4c083240f7aacaa2d0f62910160405180910390a4604080516020810190915260009052611b40565b60006001600160e01b03198216636cdb3d1360e11b148061241f57506001600160e01b031982166303a24d0760e21b145b8061093057506301ffc9a760e01b6001600160e01b0319831614610930565b60606067805461244d90613799565b80601f016020809104026020016040519081016040528092919081815260200182805461247990613799565b80156124c65780601f1061249b576101008083540402835291602001916124c6565b820191906000526020600020905b8154815290600101906020018083116124a957829003601f168201915b50505050509050919050565b60006114c28284613b88565b6040516001600160a01b0380851660248301528316604482015260648101829052611ff49085906323b872dd60e01b9060840161207f565b6001600160a01b03841661253c5760405162461bcd60e51b815260040161090290613b9f565b33600061254885612a17565b9050600061255585612a17565b9050612566836000898585896127ac565b60008681526065602090815260408083206001600160a01b038b1684529091528120805487929061259890849061399e565b909155505060408051878152602081018790526001600160a01b03808a1692600092918716917fc3d58168c5ae7397731d063d5bbf3d657854427343f4c083240f7aacaa2d0f62910160405180910390a4611b4083600089898989612a62565b6001600160a01b03841661261e5760405162461bcd60e51b815260040161090290613b9f565b815183511461263f5760405162461bcd60e51b8152600401610902906139b1565b3361264f816000878787876127ac565b60005b84518110156126eb5783818151811061266d5761266d613754565b60200260200101516065600087848151811061268b5761268b613754565b602002602001015181526020019081526020016000206000886001600160a01b03166001600160a01b0316815260200190815260200160002060008282546126d3919061399e565b909155508190506126e381613780565b915050612652565b50846001600160a01b031660006001600160a01b0316826001600160a01b03167f4a39dc06d4c0dbc64b70af90fd698a233a518aa5d07e595d983b8c0526c8f7fb878760405161273c929190613a88565b60405180910390a4610ab3816000878787876127ba565b61275d82826111ef565b610b595761276a81612b1d565b612775836020612b2f565b604051602001612786929190613be0565b60408051601f198184030181529082905262461bcd60e51b8252610902916004016130a5565b611d58868686868686612cca565b6001600160a01b0384163b15611d585760405163bc197c8160e01b81526001600160a01b0385169063bc197c81906127fe9089908990889088908890600401613c55565b6020604051808303816000875af1925050508015612839575060408051601f3d908101601f1916820190925261283691810190613cb3565b60015b6128e557612845613cd0565b806308c379a00361287e5750612859613cec565b806128645750612880565b8060405162461bcd60e51b815260040161090291906130a5565b505b60405162461bcd60e51b815260206004820152603460248201527f455243313135353a207472616e7366657220746f206e6f6e2d455243313135356044820152732932b1b2b4bb32b91034b6b83632b6b2b73a32b960611b6064820152608401610902565b6001600160e01b0319811663bc197c8160e01b14611b405760405162461bcd60e51b815260040161090290613d75565b600054610100900460ff1661293c5760405162461bcd60e51b815260040161090290613b3d565b611b5381612e46565b600061299a826040518060400160405280602081526020017f5361666545524332303a206c6f772d6c6576656c2063616c6c206661696c6564815250856001600160a01b0316612e529092919063ffffffff16565b8051909150156109e957808060200190518101906129b89190613dbd565b6109e95760405162461bcd60e51b815260206004820152602a60248201527f5361666545524332303a204552433230206f7065726174696f6e20646964206e6044820152691bdd081cdd58d8d9595960b21b6064820152608401610902565b60408051600180825281830190925260609160009190602080830190803683370190505090508281600081518110612a5157612a51613754565b602090810291909101015292915050565b6001600160a01b0384163b15611d585760405163f23a6e6160e01b81526001600160a01b0385169063f23a6e6190612aa69089908990889088908890600401613dda565b6020604051808303816000875af1925050508015612ae1575060408051601f3d908101601f19168201909252612ade91810190613cb3565b60015b612aed57612845613cd0565b6001600160e01b0319811663f23a6e6160e01b14611b405760405162461bcd60e51b815260040161090290613d75565b60606109306001600160a01b03831660145b60606000612b3e836002613b88565b612b4990600261399e565b6001600160401b03811115612b6057612b606130ed565b6040519080825280601f01601f191660200182016040528015612b8a576020820181803683370190505b509050600360fc1b81600081518110612ba557612ba5613754565b60200101906001600160f81b031916908160001a905350600f60fb1b81600181518110612bd457612bd4613754565b60200101906001600160f81b031916908160001a9053506000612bf8846002613b88565b612c0390600161399e565b90505b6001811115612c7b576f181899199a1a9b1b9c1cb0b131b232b360811b85600f1660108110612c3757612c37613754565b1a60f81b828281518110612c4d57612c4d613754565b60200101906001600160f81b031916908160001a90535060049490941c93612c7481613e14565b9050612c06565b5083156114c25760405162461bcd60e51b815260206004820181905260248201527f537472696e67733a20686578206c656e67746820696e73756666696369656e746044820152606401610902565b6001600160a01b038516612d525760005b8351811015612d5057828181518110612cf657612cf6613754565b602002602001015161012d6000868481518110612d1557612d15613754565b602002602001015181526020019081526020016000206000828254612d3a919061399e565b90915550612d49905081613780565b9050612cdb565b505b6001600160a01b038416611d585760005b8351811015611b40576000848281518110612d8057612d80613754565b602002602001015190506000848381518110612d9e57612d9e613754565b60200260200101519050600061012d600084815260200190815260200160002054905081811015612e225760405162461bcd60e51b815260206004820152602860248201527f455243313135353a206275726e20616d6f756e74206578636565647320746f74604482015267616c537570706c7960c01b6064820152608401610902565b600092835261012d602052604090922091039055612e3f81613780565b9050612d63565b6067610b598282613819565b6060612e618484600085612e69565b949350505050565b606082471015612eca5760405162461bcd60e51b815260206004820152602660248201527f416464726573733a20696e73756666696369656e742062616c616e636520666f6044820152651c8818d85b1b60d21b6064820152608401610902565b600080866001600160a01b03168587604051612ee69190613e2b565b60006040518083038185875af1925050503d8060008114612f23576040519150601f19603f3d011682016040523d82523d6000602084013e612f28565b606091505b5091509150612f3987838387612f44565b979650505050505050565b60608315612fb3578251600003612fac576001600160a01b0385163b612fac5760405162461bcd60e51b815260206004820152601d60248201527f416464726573733a2063616c6c20746f206e6f6e2d636f6e74726163740000006044820152606401610902565b5081612e61565b612e6183838151156128645781518083602001fd5b6001600160a01b0381168114611b5357600080fd5b60008060408385031215612ff057600080fd5b8235612ffb81612fc8565b946020939093013593505050565b6001600160e01b031981168114611b5357600080fd5b60006020828403121561303157600080fd5b81356114c281613009565b60006020828403121561304e57600080fd5b5035919050565b60005b83811015613070578181015183820152602001613058565b50506000910152565b60008151808452613091816020860160208601613055565b601f01601f19169290920160200192915050565b6020815260006114c26020830184613079565b6000806000606084860312156130cd57600080fd5b83356130d881612fc8565b95602085013595506040909401359392505050565b634e487b7160e01b600052604160045260246000fd5b601f8201601f191681016001600160401b0381118282101715613128576131286130ed565b6040525050565b60006001600160401b03821115613148576131486130ed565b5060051b60200190565b600082601f83011261316357600080fd5b813560206131708261312f565b60405161317d8282613103565b83815260059390931b850182019282810191508684111561319d57600080fd5b8286015b848110156131b857803583529183019183016131a1565b509695505050505050565b6000806000606084860312156131d857600080fd5b83356131e381612fc8565b925060208401356001600160401b03808211156131ff57600080fd5b61320b87838801613152565b9350604086013591508082111561322157600080fd5b5061322e86828701613152565b9150509250925092565b600082601f83011261324957600080fd5b81356001600160401b03811115613262576132626130ed565b604051613279601f8301601f191660200182613103565b81815284602083860101111561328e57600080fd5b816020850160208301376000918101602001919091529392505050565b600080604083850312156132be57600080fd5b8235915060208301356001600160401b038111156132db57600080fd5b6132e785828601613238565b9150509250929050565b600080600080600060a0868803121561330957600080fd5b853561331481612fc8565b9450602086013561332481612fc8565b935060408601356001600160401b038082111561334057600080fd5b61334c89838a01613152565b9450606088013591508082111561336257600080fd5b61336e89838a01613152565b9350608088013591508082111561338457600080fd5b5061339188828901613238565b9150509295509295909350565b600080604083850312156133b157600080fd5b8235915060208301356133c381612fc8565b809150509250929050565b8015158114611b5357600080fd5b6000602082840312156133ee57600080fd5b81356114c2816133ce565b6000806040838503121561340c57600080fd5b82356001600160401b038082111561342357600080fd5b818501915085601f83011261343757600080fd5b813560206134448261312f565b6040516134518282613103565b83815260059390931b850182019282810191508984111561347157600080fd5b948201945b8386101561349857853561348981612fc8565b82529482019490820190613476565b965050860135925050808211156134ae57600080fd5b506132e785828601613152565b600081518084526020808501945080840160005b838110156134eb578151875295820195908201906001016134cf565b509495945050505050565b6020815260006114c260208301846134bb565b60006020828403121561351b57600080fd5b81356001600160401b0381111561353157600080fd5b612e6184828501613238565b60006020828403121561354f57600080fd5b81356114c281612fc8565b6000806000806080858703121561357057600080fd5b84356001600160401b0381111561358657600080fd5b61359287828801613238565b94505060208501356135a381612fc8565b925060408501356135b381612fc8565b9396929550929360600135925050565b828152604060208201526000612e616040830184613079565b600080604083850312156135ef57600080fd5b82356001600160401b0381111561360557600080fd5b61361185828601613238565b95602094909401359450505050565b6000806040838503121561363357600080fd5b823561363e81612fc8565b915060208301356133c3816133ce565b6000806040838503121561366157600080fd5b823561366c81612fc8565b915060208301356133c381612fc8565b6000806040838503121561368f57600080fd5b50508035926020909101359150565b600080600080600060a086880312156136b657600080fd5b85356136c181612fc8565b945060208601356136d181612fc8565b9350604086013592506060860135915060808601356001600160401b038111156136fa57600080fd5b61339188828901613238565b6020808252602e908201527f455243313135353a2063616c6c6572206973206e6f7420746f6b656e206f776e60408201526d195c881bdc88185c1c1c9bdd995960921b606082015260800190565b634e487b7160e01b600052603260045260246000fd5b634e487b7160e01b600052601160045260246000fd5b6000600182016137925761379261376a565b5060010190565b600181811c908216806137ad57607f821691505b6020821081036137cd57634e487b7160e01b600052602260045260246000fd5b50919050565b601f8211156109e957600081815260208120601f850160051c810160208610156137fa5750805b601f850160051c820191505b81811015611d5857828155600101613806565b81516001600160401b03811115613832576138326130ed565b613846816138408454613799565b846137d3565b602080601f83116001811461387b57600084156138635750858301515b600019600386901b1c1916600185901b178555611d58565b600085815260208120601f198616915b828110156138aa5788860151825594840194600190910190840161388b565b50858210156138c85787850151600019600388901b60f8161c191681555b5050505050600190811b01905550565b60006001600160601b038083168181036138f4576138f461376a565b6001019392505050565b60006020828403121561391057600080fd5b5051919050565b600080845461392581613799565b6001828116801561393d576001811461395257613981565b60ff1984168752821515830287019450613981565b8860005260208060002060005b858110156139785781548a82015290840190820161395f565b50505082870194505b505050508351613995818360208801613055565b01949350505050565b808201808211156109305761093061376a565b60208082526028908201527f455243313135353a2069647320616e6420616d6f756e7473206c656e677468206040820152670dad2e6dac2e8c6d60c31b606082015260800190565b60208082526025908201527f455243313135353a207472616e7366657220746f20746865207a65726f206164604082015264647265737360d81b606082015260800190565b6020808252602a908201527f455243313135353a20696e73756666696369656e742062616c616e636520666f60408201526939103a3930b739b332b960b11b606082015260800190565b604081526000613a9b60408301856134bb565b8281036020840152613aad81856134bb565b95945050505050565b60208082526023908201527f455243313135353a206275726e2066726f6d20746865207a65726f206164647260408201526265737360e81b606082015260800190565b60208082526024908201527f455243313135353a206275726e20616d6f756e7420657863656564732062616c604082015263616e636560e01b606082015260800190565b6020808252602b908201527f496e697469616c697a61626c653a20636f6e7472616374206973206e6f74206960408201526a6e697469616c697a696e6760a81b606082015260800190565b80820281158282048414176109305761093061376a565b60208082526021908201527f455243313135353a206d696e7420746f20746865207a65726f206164647265736040820152607360f81b606082015260800190565b7f416363657373436f6e74726f6c3a206163636f756e7420000000000000000000815260008351613c18816017850160208801613055565b7001034b99036b4b9b9b4b733903937b6329607d1b6017918401918201528351613c49816028840160208801613055565b01602801949350505050565b6001600160a01b0386811682528516602082015260a060408201819052600090613c81908301866134bb565b8281036060840152613c9381866134bb565b90508281036080840152613ca78185613079565b98975050505050505050565b600060208284031215613cc557600080fd5b81516114c281613009565b600060033d1115613ce95760046000803e5060005160e01c5b90565b600060443d1015613cfa5790565b6040516003193d81016004833e81513d6001600160401b038160248401118184111715613d2957505050505090565b8285019150815181811115613d415750505050505090565b843d8701016020828501011115613d5b5750505050505090565b613d6a60208286010187613103565b509095945050505050565b60208082526028908201527f455243313135353a204552433131353552656365697665722072656a656374656040820152676420746f6b656e7360c01b606082015260800190565b600060208284031215613dcf57600080fd5b81516114c2816133ce565b6001600160a01b03868116825285166020820152604081018490526060810183905260a060808201819052600090612f3990830184613079565b600081613e2357613e2361376a565b506000190190565b60008251613e3d818460208701613055565b919091019291505056fea2646970667358221220a692532013f509afe046e254566f187dcb91f52f2b28fd213eea6d9e83228b3764736f6c63430008110033",
    "linkReferences": {}
  },
  "methodIdentifiers": {
    "DEFAULT_ADMIN_ROLE()": "a217fddf",
    "MINTER_ROLE()": "d5391393",
    "URI_SETTER_ROLE()": "7f345710",
    "addToken(string,uint256)": "8ca132f7",
    "balanceOf(address,uint256)": "00fdd58e",
    "balanceOfBatch(address[],uint256[])": "4e1273f4",
    "burn(address,uint256,uint256)": "f5298aca",
    "burnBatch(address,uint256[],uint256[])": "6b20c454",
    "exists(uint256)": "4f558e79",
    "getRoleAdmin(bytes32)": "248a9ca3",
    "getTokenInfo(uint256)": "8c7a63ae",
    "grantRole(bytes32,address)": "2f2ff15d",
    "hasRole(bytes32,address)": "91d14854",
    "initialize(string,address,address,uint256)": "7ff7e616",
    "isApprovedForAll(address,address)": "e985e9c5",
    "maxTokenSupply(uint256)": "36f5cba5",
    "mint(address,uint256,uint256)": "156e29f6",
    "mintBatch(address,uint256[],uint256[])": "d81d0a15",
    "mintBatchWithNativeToken(address,uint256[],uint256[])": "15f8a01a",
    "mintWithNativeToken(address,uint256,uint256)": "5a8f7b86",
    "mitchToken()": "ea49b1cc",
    "nativeMintEnabled()": "0b70ede5",
    "owner()": "8da5cb5b",
    "paymentToken()": "3013ce29",
    "renounceRole(bytes32,address)": "36568abe",
    "resetTokenPrice(uint256)": "fc5abac1",
    "revokeRole(bytes32,address)": "d547741f",
    "safeBatchTransferFrom(address,address,uint256[],uint256[],bytes)": "2eb2c2d6",
    "safeTransferFrom(address,address,uint256,uint256,bytes)": "f242432a",
    "setApprovalForAll(address,bool)": "a22cb465",
    "setBaseURI(string)": "55f804b3",
    "setDefaultPrice(uint256)": "6d3c7ec5",
    "setNativeTokenMinting(bool)": "37210b8f",
    "setPaymentToken(address)": "6a326ab1",
    "setTokenPrice(uint256,uint256)": "eb685c47",
    "setTokenURI(uint256,string)": "162094c4",
    "supportsInterface(bytes4)": "01ffc9a7",
    "tokenPrice(uint256)": "d4ddce8a",
    "totalSupply(uint256)": "bd85b039",
    "uniqueTokens()": "30e8fd65",
    "uri(uint256)": "0e89341c",
    "withdrawNativeToken()": "5a18664c",
    "withdrawTokens()": "8d8f2adb"
  },
  "id": 0
}