{
  "_format": "hh-sol-artifact-1",
  "contractName": "MitchMinter",
  "sourceName": "contracts/MitchMinter.sol",
  "abi": [
    {
      "inputs": [
        {
          "internalType": "string",
          "name": "_baseURI",
          "type": "string"
        },
        {
          "internalType": "contract IERC20",
          "name": "_paymentToken",
          "type": "address"
        },
        {
          "internalType": "address",
          "name": "_mitchToken",
          "type": "address"
        },
        {
          "internalType": "uint256",
          "name": "_defaultPrice",
          "type": "uint256"
        }
      ],
      "stateMutability": "nonpayable",
      "type": "constructor"
    },
    {
      "inputs": [
        {
          "internalType": "uint256",
          "name": "tokenId",
          "type": "uint256"
        }
      ],
      "name": "NoTokenExists",
      "type": "error"
    },
    {
      "anonymous": false,
      "inputs": [
        {
          "indexed": true,
          "internalType": "address",
          "name": "account",
          "type": "address"
        },
        {
          "indexed": true,
          "internalType": "address",
          "name": "operator",
          "type": "address"
        },
        {
          "indexed": false,
          "internalType": "bool",
          "name": "approved",
          "type": "bool"
        }
      ],
      "name": "ApprovalForAll",
      "type": "event"
    },
    {
      "anonymous": false,
      "inputs": [
        {
          "indexed": false,
          "internalType": "address",
          "name": "recipient",
          "type": "address"
        },
        {
          "indexed": false,
          "internalType": "uint256",
          "name": "tokenId",
          "type": "uint256"
        },
        {
          "indexed": false,
          "internalType": "uint256",
          "name": "amount",
          "type": "uint256"
        },
        {
          "indexed": false,
          "internalType": "uint256",
          "name": "totalPrice",
          "type": "uint256"
        }
      ],
      "name": "Mint",
      "type": "event"
    },
    {
      "anonymous": false,
      "inputs": [
        {
          "indexed": false,
          "internalType": "address",
          "name": "recipient",
          "type": "address"
        },
        {
          "indexed": false,
          "internalType": "uint256",
          "name": "totalAmounts",
          "type": "uint256"
        },
        {
          "indexed": false,
          "internalType": "uint256",
          "name": "finalPrice",
          "type": "uint256"
        }
      ],
      "name": "MintBatch",
      "type": "event"
    },
    {
      "anonymous": false,
      "inputs": [
        {
          "indexed": true,
          "internalType": "address",
          "name": "previousOwner",
          "type": "address"
        },
        {
          "indexed": true,
          "internalType": "address",
          "name": "newOwner",
          "type": "address"
        }
      ],
      "name": "OwnershipTransferred",
      "type": "event"
    },
    {
      "anonymous": false,
      "inputs": [
        {
          "indexed": true,
          "internalType": "address",
          "name": "operator",
          "type": "address"
        },
        {
          "indexed": true,
          "internalType": "address",
          "name": "from",
          "type": "address"
        },
        {
          "indexed": true,
          "internalType": "address",
          "name": "to",
          "type": "address"
        },
        {
          "indexed": false,
          "internalType": "uint256[]",
          "name": "ids",
          "type": "uint256[]"
        },
        {
          "indexed": false,
          "internalType": "uint256[]",
          "name": "values",
          "type": "uint256[]"
        }
      ],
      "name": "TransferBatch",
      "type": "event"
    },
    {
      "anonymous": false,
      "inputs": [
        {
          "indexed": true,
          "internalType": "address",
          "name": "operator",
          "type": "address"
        },
        {
          "indexed": true,
          "internalType": "address",
          "name": "from",
          "type": "address"
        },
        {
          "indexed": true,
          "internalType": "address",
          "name": "to",
          "type": "address"
        },
        {
          "indexed": false,
          "internalType": "uint256",
          "name": "id",
          "type": "uint256"
        },
        {
          "indexed": false,
          "internalType": "uint256",
          "name": "value",
          "type": "uint256"
        }
      ],
      "name": "TransferSingle",
      "type": "event"
    },
    {
      "anonymous": false,
      "inputs": [
        {
          "indexed": false,
          "internalType": "string",
          "name": "value",
          "type": "string"
        },
        {
          "indexed": true,
          "internalType": "uint256",
          "name": "id",
          "type": "uint256"
        }
      ],
      "name": "URI",
      "type": "event"
    },
    {
      "anonymous": false,
      "inputs": [
        {
          "indexed": false,
          "internalType": "address",
          "name": "recipient",
          "type": "address"
        },
        {
          "indexed": false,
          "internalType": "uint256",
          "name": "amount",
          "type": "uint256"
        }
      ],
      "name": "Withdrawal",
      "type": "event"
    },
    {
      "inputs": [
        {
          "internalType": "string",
          "name": "tokenURI",
          "type": "string"
        }
      ],
      "name": "addToken",
      "outputs": [],
      "stateMutability": "nonpayable",
      "type": "function"
    },
    {
      "inputs": [
        {
          "internalType": "address",
          "name": "account",
          "type": "address"
        },
        {
          "internalType": "uint256",
          "name": "id",
          "type": "uint256"
        }
      ],
      "name": "balanceOf",
      "outputs": [
        {
          "internalType": "uint256",
          "name": "",
          "type": "uint256"
        }
      ],
      "stateMutability": "view",
      "type": "function"
    },
    {
      "inputs": [
        {
          "internalType": "address[]",
          "name": "accounts",
          "type": "address[]"
        },
        {
          "internalType": "uint256[]",
          "name": "ids",
          "type": "uint256[]"
        }
      ],
      "name": "balanceOfBatch",
      "outputs": [
        {
          "internalType": "uint256[]",
          "name": "",
          "type": "uint256[]"
        }
      ],
      "stateMutability": "view",
      "type": "function"
    },
    {
      "inputs": [
        {
          "internalType": "address",
          "name": "account",
          "type": "address"
        },
        {
          "internalType": "uint256",
          "name": "id",
          "type": "uint256"
        },
        {
          "internalType": "uint256",
          "name": "value",
          "type": "uint256"
        }
      ],
      "name": "burn",
      "outputs": [],
      "stateMutability": "nonpayable",
      "type": "function"
    },
    {
      "inputs": [
        {
          "internalType": "address",
          "name": "account",
          "type": "address"
        },
        {
          "internalType": "uint256[]",
          "name": "ids",
          "type": "uint256[]"
        },
        {
          "internalType": "uint256[]",
          "name": "values",
          "type": "uint256[]"
        }
      ],
      "name": "burnBatch",
      "outputs": [],
      "stateMutability": "nonpayable",
      "type": "function"
    },
    {
      "inputs": [],
      "name": "getBalance",
      "outputs": [
        {
          "internalType": "uint256",
          "name": "",
          "type": "uint256"
        }
      ],
      "stateMutability": "view",
      "type": "function"
    },
    {
      "inputs": [],
      "name": "getNativeBalance",
      "outputs": [
        {
          "internalType": "uint256",
          "name": "",
          "type": "uint256"
        }
      ],
      "stateMutability": "view",
      "type": "function"
    },
    {
      "inputs": [
        {
          "internalType": "uint256",
          "name": "tokenId",
          "type": "uint256"
        }
      ],
      "name": "getTokenInfo",
      "outputs": [
        {
          "internalType": "uint256",
          "name": "price",
          "type": "uint256"
        },
        {
          "internalType": "string",
          "name": "tokenURI",
          "type": "string"
        }
      ],
      "stateMutability": "view",
      "type": "function"
    },
    {
      "inputs": [],
      "name": "getUniqueTokens",
      "outputs": [
        {
          "internalType": "uint96",
          "name": "",
          "type": "uint96"
        }
      ],
      "stateMutability": "view",
      "type": "function"
    },
    {
      "inputs": [
        {
          "internalType": "address",
          "name": "account",
          "type": "address"
        },
        {
          "internalType": "address",
          "name": "operator",
          "type": "address"
        }
      ],
      "name": "isApprovedForAll",
      "outputs": [
        {
          "internalType": "bool",
          "name": "",
          "type": "bool"
        }
      ],
      "stateMutability": "view",
      "type": "function"
    },
    {
      "inputs": [
        {
          "internalType": "address",
          "name": "to",
          "type": "address"
        },
        {
          "internalType": "uint256",
          "name": "id",
          "type": "uint256"
        },
        {
          "internalType": "uint256",
          "name": "amount",
          "type": "uint256"
        }
      ],
      "name": "mint",
      "outputs": [],
      "stateMutability": "nonpayable",
      "type": "function"
    },
    {
      "inputs": [
        {
          "internalType": "address",
          "name": "to",
          "type": "address"
        },
        {
          "internalType": "uint256[]",
          "name": "ids",
          "type": "uint256[]"
        },
        {
          "internalType": "uint256[]",
          "name": "amounts",
          "type": "uint256[]"
        }
      ],
      "name": "mintBatch",
      "outputs": [],
      "stateMutability": "nonpayable",
      "type": "function"
    },
    {
      "inputs": [
        {
          "internalType": "address",
          "name": "to",
          "type": "address"
        },
        {
          "internalType": "uint256[]",
          "name": "ids",
          "type": "uint256[]"
        },
        {
          "internalType": "uint256[]",
          "name": "amounts",
          "type": "uint256[]"
        }
      ],
      "name": "mintBatchWithNativeToken",
      "outputs": [],
      "stateMutability": "payable",
      "type": "function"
    },
    {
      "inputs": [
        {
          "internalType": "address",
          "name": "to",
          "type": "address"
        },
        {
          "internalType": "uint256",
          "name": "id",
          "type": "uint256"
        },
        {
          "internalType": "uint256",
          "name": "amount",
          "type": "uint256"
        }
      ],
      "name": "mintWithNativeToken",
      "outputs": [],
      "stateMutability": "payable",
      "type": "function"
    },
    {
      "inputs": [],
      "name": "nativeMintEnabled",
      "outputs": [
        {
          "internalType": "bool",
          "name": "",
          "type": "bool"
        }
      ],
      "stateMutability": "view",
      "type": "function"
    },
    {
      "inputs": [],
      "name": "owner",
      "outputs": [
        {
          "internalType": "address",
          "name": "",
          "type": "address"
        }
      ],
      "stateMutability": "view",
      "type": "function"
    },
    {
      "inputs": [],
      "name": "paymentToken",
      "outputs": [
        {
          "internalType": "contract IERC20",
          "name": "",
          "type": "address"
        }
      ],
      "stateMutability": "view",
      "type": "function"
    },
    {
      "inputs": [],
      "name": "renounceOwnership",
      "outputs": [],
      "stateMutability": "nonpayable",
      "type": "function"
    },
    {
      "inputs": [
        {
          "internalType": "uint256",
          "name": "tokenId",
          "type": "uint256"
        }
      ],
      "name": "resetTokenPrice",
      "outputs": [],
      "stateMutability": "nonpayable",
      "type": "function"
    },
    {
      "inputs": [
        {
          "internalType": "address",
          "name": "from",
          "type": "address"
        },
        {
          "internalType": "address",
          "name": "to",
          "type": "address"
        },
        {
          "internalType": "uint256[]",
          "name": "ids",
          "type": "uint256[]"
        },
        {
          "internalType": "uint256[]",
          "name": "amounts",
          "type": "uint256[]"
        },
        {
          "internalType": "bytes",
          "name": "data",
          "type": "bytes"
        }
      ],
      "name": "safeBatchTransferFrom",
      "outputs": [],
      "stateMutability": "nonpayable",
      "type": "function"
    },
    {
      "inputs": [
        {
          "internalType": "address",
          "name": "from",
          "type": "address"
        },
        {
          "internalType": "address",
          "name": "to",
          "type": "address"
        },
        {
          "internalType": "uint256",
          "name": "id",
          "type": "uint256"
        },
        {
          "internalType": "uint256",
          "name": "amount",
          "type": "uint256"
        },
        {
          "internalType": "bytes",
          "name": "data",
          "type": "bytes"
        }
      ],
      "name": "safeTransferFrom",
      "outputs": [],
      "stateMutability": "nonpayable",
      "type": "function"
    },
    {
      "inputs": [
        {
          "internalType": "address",
          "name": "operator",
          "type": "address"
        },
        {
          "internalType": "bool",
          "name": "approved",
          "type": "bool"
        }
      ],
      "name": "setApprovalForAll",
      "outputs": [],
      "stateMutability": "nonpayable",
      "type": "function"
    },
    {
      "inputs": [
        {
          "internalType": "string",
          "name": "_baseURI",
          "type": "string"
        }
      ],
      "name": "setBaseURI",
      "outputs": [],
      "stateMutability": "nonpayable",
      "type": "function"
    },
    {
      "inputs": [
        {
          "internalType": "uint256",
          "name": "price",
          "type": "uint256"
        }
      ],
      "name": "setDefaultPrice",
      "outputs": [],
      "stateMutability": "nonpayable",
      "type": "function"
    },
    {
      "inputs": [
        {
          "internalType": "bool",
          "name": "enabled",
          "type": "bool"
        }
      ],
      "name": "setNativeTokenMinting",
      "outputs": [],
      "stateMutability": "nonpayable",
      "type": "function"
    },
    {
      "inputs": [
        {
          "internalType": "contract IERC20",
          "name": "newPaymentToken",
          "type": "address"
        }
      ],
      "name": "setPaymentToken",
      "outputs": [],
      "stateMutability": "nonpayable",
      "type": "function"
    },
    {
      "inputs": [
        {
          "internalType": "uint256",
          "name": "tokenId",
          "type": "uint256"
        },
        {
          "internalType": "uint256",
          "name": "price",
          "type": "uint256"
        }
      ],
      "name": "setTokenPrice",
      "outputs": [],
      "stateMutability": "nonpayable",
      "type": "function"
    },
    {
      "inputs": [
        {
          "internalType": "uint256",
          "name": "tokenId",
          "type": "uint256"
        },
        {
          "internalType": "string",
          "name": "tokenURI",
          "type": "string"
        }
      ],
      "name": "setTokenURI",
      "outputs": [],
      "stateMutability": "nonpayable",
      "type": "function"
    },
    {
      "inputs": [
        {
          "internalType": "bytes4",
          "name": "interfaceId",
          "type": "bytes4"
        }
      ],
      "name": "supportsInterface",
      "outputs": [
        {
          "internalType": "bool",
          "name": "",
          "type": "bool"
        }
      ],
      "stateMutability": "view",
      "type": "function"
    },
    {
      "inputs": [
        {
          "internalType": "uint256",
          "name": "",
          "type": "uint256"
        }
      ],
      "name": "tokenPrice",
      "outputs": [
        {
          "internalType": "uint256",
          "name": "",
          "type": "uint256"
        }
      ],
      "stateMutability": "view",
      "type": "function"
    },
    {
      "inputs": [
        {
          "internalType": "address",
          "name": "newOwner",
          "type": "address"
        }
      ],
      "name": "transferOwnership",
      "outputs": [],
      "stateMutability": "nonpayable",
      "type": "function"
    },
    {
      "inputs": [
        {
          "internalType": "uint256",
          "name": "tokenId",
          "type": "uint256"
        }
      ],
      "name": "uri",
      "outputs": [
        {
          "internalType": "string",
          "name": "",
          "type": "string"
        }
      ],
      "stateMutability": "view",
      "type": "function"
    },
    {
      "inputs": [],
      "name": "withdrawNativeToken",
      "outputs": [],
      "stateMutability": "payable",
      "type": "function"
    },
    {
      "inputs": [],
      "name": "withdrawTokens",
      "outputs": [],
      "stateMutability": "nonpayable",
      "type": "function"
    }
  ],
  "bytecode": "0x60a0604052600060809081526004906200001a9082620001d9565b50600a80546001600160601b03191690553480156200003857600080fd5b5060405162003c1c38038062003c1c8339810160408190526200005b91620002c2565b836200006781620000d0565b506200007333620000e2565b6008620000818582620001d9565b5060068054600992909255600780546001600160a01b0319166001600160a01b039485161790556001600160a81b0319909116610100939092169290920260ff191617600117905550620003c4565b6002620000de8282620001d9565b5050565b600380546001600160a01b038381166001600160a01b0319831681179093556040519116919082907f8be0079c531659141344cd1fd0a4f28419497f9722a3daafe3b4186f6b6457e090600090a35050565b634e487b7160e01b600052604160045260246000fd5b600181811c908216806200015f57607f821691505b6020821081036200018057634e487b7160e01b600052602260045260246000fd5b50919050565b601f821115620001d457600081815260208120601f850160051c81016020861015620001af5750805b601f850160051c820191505b81811015620001d057828155600101620001bb565b5050505b505050565b81516001600160401b03811115620001f557620001f562000134565b6200020d816200020684546200014a565b8462000186565b602080601f8311600181146200024557600084156200022c5750858301515b600019600386901b1c1916600185901b178555620001d0565b600085815260208120601f198616915b82811015620002765788860151825594840194600190910190840162000255565b5085821015620002955787850151600019600388901b60f8161c191681555b5050505050600190811b01905550565b80516001600160a01b0381168114620002bd57600080fd5b919050565b60008060008060808587031215620002d957600080fd5b84516001600160401b0380821115620002f157600080fd5b818701915087601f8301126200030657600080fd5b8151818111156200031b576200031b62000134565b604051601f8201601f19908116603f0116810190838211818310171562000346576200034662000134565b81604052828152602093508a848487010111156200036357600080fd5b600091505b8282101562000387578482018401518183018501529083019062000368565b6000848483010152809850505050620003a2818801620002a5565b94505050620003b460408601620002a5565b6060959095015193969295505050565b61384880620003d46000396000f3fe6080604052600436106102185760003560e01c80636b20c4541161011d578063a22cb465116100b0578063eb685c471161007f578063f2fde38b11610064578063f2fde38b14610642578063f5298aca14610662578063fc5abac11461068257600080fd5b8063eb685c4714610602578063f242432a1461062257600080fd5b8063a22cb4651461054c578063d4ddce8a1461056c578063d81d0a1514610599578063e985e9c5146105b957600080fd5b80638c7a63ae116100ec5780638c7a63ae146104cb5780638ce26108146104f95780638d8f2adb146105195780638da5cb5b1461052e57600080fd5b80636b20c454146104635780636d3c7ec514610483578063715018a6146104a357806388a9d554146104b857600080fd5b806326a1809b116101b05780634e1273f41161017f5780635a18664c116101645780635a18664c146104285780635a8f7b86146104305780636a326ab11461044357600080fd5b80634e1273f4146103db57806355f804b31461040857600080fd5b806326a1809b146103315780632eb2c2d61461035e5780633013ce291461037e57806337210b8f146103bb57600080fd5b806312065fe0116101ec57806312065fe0146102c7578063156e29f6146102dc57806315f8a01a146102fe578063162094c41461031157600080fd5b8062fdd58e1461021d57806301ffc9a7146102505780630b70ede5146102805780630e89341c1461029a575b600080fd5b34801561022957600080fd5b5061023d610238366004612d78565b6106a2565b6040519081526020015b60405180910390f35b34801561025c57600080fd5b5061027061026b366004612dba565b61074e565b6040519015158152602001610247565b34801561028c57600080fd5b506006546102709060ff1681565b3480156102a657600080fd5b506102ba6102b5366004612dd7565b6107e9565b6040516102479190612e40565b3480156102d357600080fd5b5061023d6107f4565b3480156102e857600080fd5b506102fc6102f7366004612e53565b61086b565b005b6102fc61030c366004612f60565b610a9f565b34801561031d57600080fd5b506102fc61032c36600461304a565b610e07565b34801561033d57600080fd5b50600a546040516bffffffffffffffffffffffff9091168152602001610247565b34801561036a57600080fd5b506102fc610379366004613091565b610e1d565b34801561038a57600080fd5b506006546103a39061010090046001600160a01b031681565b6040516001600160a01b039091168152602001610247565b3480156103c757600080fd5b506102fc6103d636600461314d565b610eaa565b3480156103e757600080fd5b506103fb6103f636600461316a565b610ec5565b6040516102479190613268565b34801561041457600080fd5b506102fc61042336600461327b565b611003565b6102fc611017565b6102fc61043e366004612e53565b6110d3565b34801561044f57600080fd5b506102fc61045e3660046132b0565b611242565b34801561046f57600080fd5b506102fc61047e366004612f60565b611289565b34801561048f57600080fd5b506102fc61049e366004612dd7565b611319565b3480156104af57600080fd5b506102fc611326565b3480156104c457600080fd5b504761023d565b3480156104d757600080fd5b506104eb6104e6366004612dd7565b61133a565b6040516102479291906132cd565b34801561050557600080fd5b506102fc61051436600461327b565b611380565b34801561052557600080fd5b506102fc6113da565b34801561053a57600080fd5b506003546001600160a01b03166103a3565b34801561055857600080fd5b506102fc6105673660046132e6565b611489565b34801561057857600080fd5b5061023d610587366004612dd7565b600b6020526000908152604090205481565b3480156105a557600080fd5b506102fc6105b4366004612f60565b611494565b3480156105c557600080fd5b506102706105d436600461331f565b6001600160a01b03918216600090815260016020908152604080832093909416825291909152205460ff1690565b34801561060e57600080fd5b506102fc61061d36600461334d565b6116a7565b34801561062e57600080fd5b506102fc61063d36600461336f565b611711565b34801561064e57600080fd5b506102fc61065d3660046132b0565b61179e565b34801561066e57600080fd5b506102fc61067d366004612e53565b61182b565b34801561068e57600080fd5b506102fc61069d366004612dd7565b6118b6565b60006001600160a01b0383166107255760405162461bcd60e51b815260206004820152602a60248201527f455243313135353a2061646472657373207a65726f206973206e6f742061207660448201527f616c6964206f776e65720000000000000000000000000000000000000000000060648201526084015b60405180910390fd5b506000818152602081815260408083206001600160a01b03861684529091529020545b92915050565b60006001600160e01b031982167fd9b67a260000000000000000000000000000000000000000000000000000000014806107b157506001600160e01b031982167f0e89341c00000000000000000000000000000000000000000000000000000000145b8061074857507f01ffc9a7000000000000000000000000000000000000000000000000000000006001600160e01b0319831614610748565b6060610748826118cf565b6006546040516370a0823160e01b815230600482015260009161010090046001600160a01b0316906370a0823190602401602060405180830381865afa158015610842573d6000803e3d6000fd5b505050506040513d601f19601f8201168201806040525081019061086691906133d8565b905090565b60065460ff16156108be5760405162461bcd60e51b815260206004820152601e60248201527f43616e206f6e6c79206d696e74207769746820455243323020746f6b656e0000604482015260640161071c565b600081116109035760405162461bcd60e51b81526020600482015260126024820152710416d6f756e742063616e6e6f7420626520360741b604482015260640161071c565b600a5460009081906bffffffffffffffffffffffff1684111561093c5760405163cfe3beb960e01b81526004810185905260240161071c565b6003546001600160a01b031633146109fb576000848152600b60205260409020541561097857506000838152600b60205260409020548061097e565b50600954805b5061098981846119af565b6006549092506109a99061010090046001600160a01b03163330856119bb565b604080516001600160a01b038716815260208101869052908101849052606081018390527fb4c03061fb5b7fed76389d5af8f2e0ddb09f8c70d1333abbb62582835e10accb9060800160405180910390a15b6007546001600160a01b03166340c10f1986610a1f86670de0b6b3a76400006119af565b6040516001600160e01b031960e085901b1681526001600160a01b0390921660048301526024820152604401600060405180830381600087803b158015610a6557600080fd5b505af1158015610a79573d6000803e3d6000fd5b50505050610a9885858560405180602001604052806000815250611a5a565b5050505050565b60065460ff16610af15760405162461bcd60e51b815260206004820152601f60248201527f43616e206f6e6c79206d696e742077697468206e617469766520746f6b656e00604482015260640161071c565b600080610b066003546001600160a01b031690565b6001600160a01b0316336001600160a01b031614610d6a5760005b8451811015610cce576000848281518110610b3e57610b3e6133f1565b602002602001015111610b885760405162461bcd60e51b81526020600482015260126024820152710416d6f756e742063616e6e6f7420626520360741b604482015260640161071c565b600a5485516bffffffffffffffffffffffff90911690869083908110610bb057610bb06133f1565b60200260200101511115610bf457848181518110610bd057610bd06133f1565b602002602001015160405163cfe3beb960e01b815260040161071c91815260200190565b6000600b6000878481518110610c0c57610c0c6133f1565b6020026020010151815260200190815260200160002054600014610c5f57600b6000878481518110610c4057610c406133f1565b6020026020010151815260200190815260200160002054905080610c65565b50600954805b50610c92858381518110610c7b57610c7b6133f1565b6020026020010151826119af90919063ffffffff16565b610c9c908561341d565b9350848281518110610cb057610cb06133f1565b602002602001015183610cc3919061341d565b925050600101610b21565b5081341015610d1f5760405162461bcd60e51b815260206004820152601360248201527f496e73756666696369656e742066756e64732100000000000000000000000000604482015260640161071c565b604080516001600160a01b0387168152602081018390529081018390527f6941bbed9891bfb7a243f6a1aa237a060996652ebf3e8f33bb36a0022e60dfbf9060600160405180910390a15b6007546001600160a01b03166340c10f1986610d8e84670de0b6b3a76400006119af565b6040516001600160e01b031960e085901b1681526001600160a01b0390921660048301526024820152604401600060405180830381600087803b158015610dd457600080fd5b505af1158015610de8573d6000803e3d6000fd5b50505050610a9885858560405180602001604052806000815250611b6e565b610e0f611d34565b610e198282611d8e565b5050565b6001600160a01b038516331480610e395750610e3985336105d4565b610e9d5760405162461bcd60e51b815260206004820152602f60248201527f455243313135353a2063616c6c6572206973206e6f7420746f6b656e206f776e60448201526e195c881b9bdc88185c1c1c9bdd9959608a1b606482015260840161071c565b610a988585858585611deb565b610eb2611d34565b6006805460ff1916911515919091179055565b60608151835114610f3e5760405162461bcd60e51b815260206004820152602960248201527f455243313135353a206163636f756e747320616e6420696473206c656e67746860448201527f206d69736d617463680000000000000000000000000000000000000000000000606482015260840161071c565b6000835167ffffffffffffffff811115610f5a57610f5a612e88565b604051908082528060200260200182016040528015610f83578160200160208202803683370190505b50905060005b8451811015610ffb57610fce858281518110610fa757610fa76133f1565b6020026020010151858381518110610fc157610fc16133f1565b60200260200101516106a2565b828281518110610fe057610fe06133f1565b6020908102919091010152610ff481613430565b9050610f89565b509392505050565b61100b611d34565b61101481612049565b50565b61101f611d34565b60006110336003546001600160a01b031690565b6001600160a01b03164760405160006040518083038185875af1925050503d806000811461107d576040519150601f19603f3d011682016040523d82523d6000602084013e611082565b606091505b50509050806110145760405162461bcd60e51b815260206004820152601460248201527f4661696c656420746f2073656e64204574686572000000000000000000000000604482015260640161071c565b60065460ff166111255760405162461bcd60e51b815260206004820152601f60248201527f43616e206f6e6c79206d696e742077697468206e617469766520746f6b656e00604482015260640161071c565b6000811161116a5760405162461bcd60e51b81526020600482015260126024820152710416d6f756e742063616e6e6f7420626520360741b604482015260640161071c565b600a5460009081906bffffffffffffffffffffffff168411156111a35760405163cfe3beb960e01b81526004810185905260240161071c565b6003546001600160a01b031633146109fb576000848152600b6020526040902054156111df57506000838152600b6020526040902054806111e5565b50600954805b506111f081846119af565b9150813410156109a95760405162461bcd60e51b815260206004820152601360248201527f496e73756666696369656e742066756e64732100000000000000000000000000604482015260640161071c565b61124a611d34565b600680546001600160a01b03909216610100027fffffffffffffffffffffff0000000000000000000000000000000000000000ff909216919091179055565b6001600160a01b0383163314806112a557506112a583336105d4565b6113095760405162461bcd60e51b815260206004820152602f60248201527f455243313135353a2063616c6c6572206973206e6f7420746f6b656e206f776e60448201526e195c881b9bdc88185c1c1c9bdd9959608a1b606482015260840161071c565b611314838383612055565b505050565b611321611d34565b600955565b61132e611d34565b6113386000612298565b565b6000818152600b602052604081205460609015611368576000838152600b602052604090205491508161136f565b6009549150815b50611379836107e9565b9050915091565b611388611d34565b600a80546bffffffffffffffffffffffff169060006113a683613449565b82546101009290920a6bffffffffffffffffffffffff818102199093169183160217909155600a5461101492501682611d8e565b6113e2611d34565b6006546040516370a0823160e01b815230600482015260009161010090046001600160a01b0316906370a0823190602401602060405180830381865afa158015611430573d6000803e3d6000fd5b505050506040513d601f19601f8201168201806040525081019061145491906133d8565b90508015611014576110146114716003546001600160a01b031690565b60065461010090046001600160a01b03169083612302565b610e1933838361234b565b60065460ff16156114e75760405162461bcd60e51b815260206004820152601e60248201527f43616e206f6e6c79206d696e74207769746820455243323020746f6b656e0000604482015260640161071c565b6000806114fc6003546001600160a01b031690565b6001600160a01b0316336001600160a01b031614610d6a5760005b8451811015611689576000848281518110611534576115346133f1565b60200260200101511161157e5760405162461bcd60e51b81526020600482015260126024820152710416d6f756e742063616e6e6f7420626520360741b604482015260640161071c565b600a5485516bffffffffffffffffffffffff909116908690839081106115a6576115a66133f1565b602002602001015111156115c657848181518110610bd057610bd06133f1565b6000600b60008784815181106115de576115de6133f1565b602002602001015181526020019081526020016000205460001461163157600b6000878481518110611612576116126133f1565b6020026020010151815260200190815260200160002054905080611637565b50600954805b5061164d858381518110610c7b57610c7b6133f1565b611657908561341d565b935084828151811061166b5761166b6133f1565b60200260200101518361167e919061341d565b925050600101611517565b50600654610d1f9061010090046001600160a01b03163330856119bb565b6116af611d34565b806000036116ff5760405162461bcd60e51b815260206004820152601560248201527f63616e6e6f742073657420707269636520746f20300000000000000000000000604482015260640161071c565b6000918252600b602052604090912055565b6001600160a01b03851633148061172d575061172d85336105d4565b6117915760405162461bcd60e51b815260206004820152602f60248201527f455243313135353a2063616c6c6572206973206e6f7420746f6b656e206f776e60448201526e195c881b9bdc88185c1c1c9bdd9959608a1b606482015260840161071c565b610a98858585858561243f565b6117a6611d34565b6001600160a01b0381166118225760405162461bcd60e51b815260206004820152602660248201527f4f776e61626c653a206e6577206f776e657220697320746865207a65726f206160448201527f6464726573730000000000000000000000000000000000000000000000000000606482015260840161071c565b61101481612298565b6001600160a01b038316331480611847575061184783336105d4565b6118ab5760405162461bcd60e51b815260206004820152602f60248201527f455243313135353a2063616c6c6572206973206e6f7420746f6b656e206f776e60448201526e195c881b9bdc88185c1c1c9bdd9959608a1b606482015260840161071c565b6113148383836125ea565b6118be611d34565b6000908152600b6020526040812055565b6000818152600560205260408120805460609291906118ed90613474565b80601f016020809104026020016040519081016040528092919081815260200182805461191990613474565b80156119665780601f1061193b57610100808354040283529160200191611966565b820191906000526020600020905b81548152906001019060200180831161194957829003601f168201915b5050505050905060008151116119845761197f83612766565b6119a8565b6004816040516020016119989291906134ae565b6040516020818303038152906040525b9392505050565b60006119a88284613535565b6040516001600160a01b0380851660248301528316604482015260648101829052611a549085907f23b872dd00000000000000000000000000000000000000000000000000000000906084015b60408051601f198184030181529190526020810180517bffffffffffffffffffffffffffffffffffffffffffffffffffffffff166001600160e01b0319909316929092179091526127fa565b50505050565b6001600160a01b038416611aba5760405162461bcd60e51b815260206004820152602160248201527f455243313135353a206d696e7420746f20746865207a65726f206164647265736044820152607360f81b606482015260840161071c565b336000611ac6856128df565b90506000611ad3856128df565b90506000868152602081815260408083206001600160a01b038b16845290915281208054879290611b0590849061341d565b909155505060408051878152602081018790526001600160a01b03808a1692600092918716917fc3d58168c5ae7397731d063d5bbf3d657854427343f4c083240f7aacaa2d0f62910160405180910390a4611b658360008989898961292a565b50505050505050565b6001600160a01b038416611bce5760405162461bcd60e51b815260206004820152602160248201527f455243313135353a206d696e7420746f20746865207a65726f206164647265736044820152607360f81b606482015260840161071c565b8151835114611c305760405162461bcd60e51b815260206004820152602860248201527f455243313135353a2069647320616e6420616d6f756e7473206c656e677468206044820152670dad2e6dac2e8c6d60c31b606482015260840161071c565b3360005b8451811015611ccc57838181518110611c4f57611c4f6133f1565b6020026020010151600080878481518110611c6c57611c6c6133f1565b602002602001015181526020019081526020016000206000886001600160a01b03166001600160a01b031681526020019081526020016000206000828254611cb4919061341d565b90915550819050611cc481613430565b915050611c34565b50846001600160a01b031660006001600160a01b0316826001600160a01b03167f4a39dc06d4c0dbc64b70af90fd698a233a518aa5d07e595d983b8c0526c8f7fb8787604051611d1d92919061354c565b60405180910390a4610a9881600087878787612acf565b6003546001600160a01b031633146113385760405162461bcd60e51b815260206004820181905260248201527f4f776e61626c653a2063616c6c6572206973206e6f7420746865206f776e6572604482015260640161071c565b6000828152600560205260409020611da682826135c0565b50817f6bb7ff708619ba0610cba295a58592e0451dee2622938c8755667688daf3529b611dd2846107e9565b604051611ddf9190612e40565b60405180910390a25050565b8151835114611e4d5760405162461bcd60e51b815260206004820152602860248201527f455243313135353a2069647320616e6420616d6f756e7473206c656e677468206044820152670dad2e6dac2e8c6d60c31b606482015260840161071c565b6001600160a01b038416611eb15760405162461bcd60e51b815260206004820152602560248201527f455243313135353a207472616e7366657220746f20746865207a65726f206164604482015264647265737360d81b606482015260840161071c565b3360005b8451811015611fdb576000858281518110611ed257611ed26133f1565b602002602001015190506000858381518110611ef057611ef06133f1565b602090810291909101810151600084815280835260408082206001600160a01b038e168352909352919091205490915081811015611f835760405162461bcd60e51b815260206004820152602a60248201527f455243313135353a20696e73756666696369656e742062616c616e636520666f60448201526939103a3930b739b332b960b11b606482015260840161071c565b6000838152602081815260408083206001600160a01b038e8116855292528083208585039055908b16825281208054849290611fc090849061341d565b9250508190555050505080611fd490613430565b9050611eb5565b50846001600160a01b0316866001600160a01b0316826001600160a01b03167f4a39dc06d4c0dbc64b70af90fd698a233a518aa5d07e595d983b8c0526c8f7fb878760405161202b92919061354c565b60405180910390a4612041818787878787612acf565b505050505050565b6004610e1982826135c0565b6001600160a01b0383166120b75760405162461bcd60e51b815260206004820152602360248201527f455243313135353a206275726e2066726f6d20746865207a65726f206164647260448201526265737360e81b606482015260840161071c565b80518251146121195760405162461bcd60e51b815260206004820152602860248201527f455243313135353a2069647320616e6420616d6f756e7473206c656e677468206044820152670dad2e6dac2e8c6d60c31b606482015260840161071c565b604080516020810190915260009081905233905b835181101561222b57600084828151811061214a5761214a6133f1565b602002602001015190506000848381518110612168576121686133f1565b602090810291909101810151600084815280835260408082206001600160a01b038c1683529093529190912054909150818110156121f45760405162461bcd60e51b8152602060048201526024808201527f455243313135353a206275726e20616d6f756e7420657863656564732062616c604482015263616e636560e01b606482015260840161071c565b6000928352602083815260408085206001600160a01b038b168652909152909220910390558061222381613430565b91505061212d565b5060006001600160a01b0316846001600160a01b0316826001600160a01b03167f4a39dc06d4c0dbc64b70af90fd698a233a518aa5d07e595d983b8c0526c8f7fb868660405161227c92919061354c565b60405180910390a4604080516020810190915260009052611a54565b600380546001600160a01b038381167fffffffffffffffffffffffff0000000000000000000000000000000000000000831681179093556040519116919082907f8be0079c531659141344cd1fd0a4f28419497f9722a3daafe3b4186f6b6457e090600090a35050565b6040516001600160a01b0383166024820152604481018290526113149084907fa9059cbb0000000000000000000000000000000000000000000000000000000090606401611a08565b816001600160a01b0316836001600160a01b0316036123d25760405162461bcd60e51b815260206004820152602960248201527f455243313135353a2073657474696e6720617070726f76616c2073746174757360448201527f20666f722073656c660000000000000000000000000000000000000000000000606482015260840161071c565b6001600160a01b03838116600081815260016020908152604080832094871680845294825291829020805460ff191686151590811790915591519182527f17307eab39ab6107e8899845ad3d59bd9653f200f220920489ca2b5937696c31910160405180910390a3505050565b6001600160a01b0384166124a35760405162461bcd60e51b815260206004820152602560248201527f455243313135353a207472616e7366657220746f20746865207a65726f206164604482015264647265737360d81b606482015260840161071c565b3360006124af856128df565b905060006124bc856128df565b90506000868152602081815260408083206001600160a01b038c168452909152902054858110156125425760405162461bcd60e51b815260206004820152602a60248201527f455243313135353a20696e73756666696369656e742062616c616e636520666f60448201526939103a3930b739b332b960b11b606482015260840161071c565b6000878152602081815260408083206001600160a01b038d8116855292528083208985039055908a1682528120805488929061257f90849061341d565b909155505060408051888152602081018890526001600160a01b03808b16928c821692918816917fc3d58168c5ae7397731d063d5bbf3d657854427343f4c083240f7aacaa2d0f62910160405180910390a46125df848a8a8a8a8a61292a565b505050505050505050565b6001600160a01b03831661264c5760405162461bcd60e51b815260206004820152602360248201527f455243313135353a206275726e2066726f6d20746865207a65726f206164647260448201526265737360e81b606482015260840161071c565b336000612658846128df565b90506000612665846128df565b60408051602080820183526000918290528882528181528282206001600160a01b038b16835290522054909150848110156126ee5760405162461bcd60e51b8152602060048201526024808201527f455243313135353a206275726e20616d6f756e7420657863656564732062616c604482015263616e636560e01b606482015260840161071c565b6000868152602081815260408083206001600160a01b038b81168086529184528285208a8703905582518b81529384018a90529092908816917fc3d58168c5ae7397731d063d5bbf3d657854427343f4c083240f7aacaa2d0f62910160405180910390a4604080516020810190915260009052611b65565b60606002805461277590613474565b80601f01602080910402602001604051908101604052809291908181526020018280546127a190613474565b80156127ee5780601f106127c3576101008083540402835291602001916127ee565b820191906000526020600020905b8154815290600101906020018083116127d157829003601f168201915b50505050509050919050565b600061284f826040518060400160405280602081526020017f5361666545524332303a206c6f772d6c6576656c2063616c6c206661696c6564815250856001600160a01b0316612bcb9092919063ffffffff16565b805190915015611314578080602001905181019061286d9190613680565b6113145760405162461bcd60e51b815260206004820152602a60248201527f5361666545524332303a204552433230206f7065726174696f6e20646964206e60448201527f6f74207375636365656400000000000000000000000000000000000000000000606482015260840161071c565b60408051600180825281830190925260609160009190602080830190803683370190505090508281600081518110612919576129196133f1565b602090810291909101015292915050565b6001600160a01b0384163b156120415760405163f23a6e6160e01b81526001600160a01b0385169063f23a6e619061296e908990899088908890889060040161369d565b6020604051808303816000875af19250505080156129a9575060408051601f3d908101601f191682019092526129a6918101906136d5565b60015b612a5e576129b56136f2565b806308c379a0036129ee57506129c961370e565b806129d457506129f0565b8060405162461bcd60e51b815260040161071c9190612e40565b505b60405162461bcd60e51b815260206004820152603460248201527f455243313135353a207472616e7366657220746f206e6f6e204552433131353560448201527f526563656976657220696d706c656d656e746572000000000000000000000000606482015260840161071c565b6001600160e01b0319811663f23a6e6160e01b14611b655760405162461bcd60e51b815260206004820152602860248201527f455243313135353a204552433131353552656365697665722072656a656374656044820152676420746f6b656e7360c01b606482015260840161071c565b6001600160a01b0384163b156120415760405163bc197c8160e01b81526001600160a01b0385169063bc197c8190612b139089908990889088908890600401613798565b6020604051808303816000875af1925050508015612b4e575060408051601f3d908101601f19168201909252612b4b918101906136d5565b60015b612b5a576129b56136f2565b6001600160e01b0319811663bc197c8160e01b14611b655760405162461bcd60e51b815260206004820152602860248201527f455243313135353a204552433131353552656365697665722072656a656374656044820152676420746f6b656e7360c01b606482015260840161071c565b6060612bda8484600085612be2565b949350505050565b606082471015612c5a5760405162461bcd60e51b815260206004820152602660248201527f416464726573733a20696e73756666696369656e742062616c616e636520666f60448201527f722063616c6c0000000000000000000000000000000000000000000000000000606482015260840161071c565b6001600160a01b0385163b612cb15760405162461bcd60e51b815260206004820152601d60248201527f416464726573733a2063616c6c20746f206e6f6e2d636f6e7472616374000000604482015260640161071c565b600080866001600160a01b03168587604051612ccd91906137f6565b60006040518083038185875af1925050503d8060008114612d0a576040519150601f19603f3d011682016040523d82523d6000602084013e612d0f565b606091505b5091509150612d1f828286612d2a565b979650505050505050565b60608315612d395750816119a8565b825115612d495782518084602001fd5b8160405162461bcd60e51b815260040161071c9190612e40565b6001600160a01b038116811461101457600080fd5b60008060408385031215612d8b57600080fd5b8235612d9681612d63565b946020939093013593505050565b6001600160e01b03198116811461101457600080fd5b600060208284031215612dcc57600080fd5b81356119a881612da4565b600060208284031215612de957600080fd5b5035919050565b60005b83811015612e0b578181015183820152602001612df3565b50506000910152565b60008151808452612e2c816020860160208601612df0565b601f01601f19169290920160200192915050565b6020815260006119a86020830184612e14565b600080600060608486031215612e6857600080fd5b8335612e7381612d63565b95602085013595506040909401359392505050565b634e487b7160e01b600052604160045260246000fd5b601f8201601f1916810167ffffffffffffffff81118282101715612ec457612ec4612e88565b6040525050565b600067ffffffffffffffff821115612ee557612ee5612e88565b5060051b60200190565b600082601f830112612f0057600080fd5b81356020612f0d82612ecb565b604051612f1a8282612e9e565b83815260059390931b8501820192828101915086841115612f3a57600080fd5b8286015b84811015612f555780358352918301918301612f3e565b509695505050505050565b600080600060608486031215612f7557600080fd5b8335612f8081612d63565b9250602084013567ffffffffffffffff80821115612f9d57600080fd5b612fa987838801612eef565b93506040860135915080821115612fbf57600080fd5b50612fcc86828701612eef565b9150509250925092565b600082601f830112612fe757600080fd5b813567ffffffffffffffff81111561300157613001612e88565b604051613018601f8301601f191660200182612e9e565b81815284602083860101111561302d57600080fd5b816020850160208301376000918101602001919091529392505050565b6000806040838503121561305d57600080fd5b82359150602083013567ffffffffffffffff81111561307b57600080fd5b61308785828601612fd6565b9150509250929050565b600080600080600060a086880312156130a957600080fd5b85356130b481612d63565b945060208601356130c481612d63565b9350604086013567ffffffffffffffff808211156130e157600080fd5b6130ed89838a01612eef565b9450606088013591508082111561310357600080fd5b61310f89838a01612eef565b9350608088013591508082111561312557600080fd5b5061313288828901612fd6565b9150509295509295909350565b801515811461101457600080fd5b60006020828403121561315f57600080fd5b81356119a88161313f565b6000806040838503121561317d57600080fd5b823567ffffffffffffffff8082111561319557600080fd5b818501915085601f8301126131a957600080fd5b813560206131b682612ecb565b6040516131c38282612e9e565b83815260059390931b85018201928281019150898411156131e357600080fd5b948201945b8386101561320a5785356131fb81612d63565b825294820194908201906131e8565b9650508601359250508082111561322057600080fd5b5061308785828601612eef565b600081518084526020808501945080840160005b8381101561325d57815187529582019590820190600101613241565b509495945050505050565b6020815260006119a8602083018461322d565b60006020828403121561328d57600080fd5b813567ffffffffffffffff8111156132a457600080fd5b612bda84828501612fd6565b6000602082840312156132c257600080fd5b81356119a881612d63565b828152604060208201526000612bda6040830184612e14565b600080604083850312156132f957600080fd5b823561330481612d63565b915060208301356133148161313f565b809150509250929050565b6000806040838503121561333257600080fd5b823561333d81612d63565b9150602083013561331481612d63565b6000806040838503121561336057600080fd5b50508035926020909101359150565b600080600080600060a0868803121561338757600080fd5b853561339281612d63565b945060208601356133a281612d63565b93506040860135925060608601359150608086013567ffffffffffffffff8111156133cc57600080fd5b61313288828901612fd6565b6000602082840312156133ea57600080fd5b5051919050565b634e487b7160e01b600052603260045260246000fd5b634e487b7160e01b600052601160045260246000fd5b8082018082111561074857610748613407565b60006001820161344257613442613407565b5060010190565b60006bffffffffffffffffffffffff80831681810361346a5761346a613407565b6001019392505050565b600181811c9082168061348857607f821691505b6020821081036134a857634e487b7160e01b600052602260045260246000fd5b50919050565b60008084546134bc81613474565b600182811680156134d457600181146134e957613518565b60ff1984168752821515830287019450613518565b8860005260208060002060005b8581101561350f5781548a8201529084019082016134f6565b50505082870194505b50505050835161352c818360208801612df0565b01949350505050565b808202811582820484141761074857610748613407565b60408152600061355f604083018561322d565b8281036020840152613571818561322d565b95945050505050565b601f82111561131457600081815260208120601f850160051c810160208610156135a15750805b601f850160051c820191505b81811015612041578281556001016135ad565b815167ffffffffffffffff8111156135da576135da612e88565b6135ee816135e88454613474565b8461357a565b602080601f831160018114613623576000841561360b5750858301515b600019600386901b1c1916600185901b178555612041565b600085815260208120601f198616915b8281101561365257888601518255948401946001909101908401613633565b50858210156136705787850151600019600388901b60f8161c191681555b5050505050600190811b01905550565b60006020828403121561369257600080fd5b81516119a88161313f565b60006001600160a01b03808816835280871660208401525084604083015283606083015260a06080830152612d1f60a0830184612e14565b6000602082840312156136e757600080fd5b81516119a881612da4565b600060033d111561370b5760046000803e5060005160e01c5b90565b600060443d101561371c5790565b6040516003193d81016004833e81513d67ffffffffffffffff816024840111818411171561374c57505050505090565b82850191508151818111156137645750505050505090565b843d870101602082850101111561377e5750505050505090565b61378d60208286010187612e9e565b509095945050505050565b60006001600160a01b03808816835280871660208401525060a060408301526137c460a083018661322d565b82810360608401526137d6818661322d565b905082810360808401526137ea8185612e14565b98975050505050505050565b60008251613808818460208701612df0565b919091019291505056fea2646970667358221220d47bce8cc6917fa945d9726e8923e21ae842eb6c148b307208a267f724525d6164736f6c63430008110033",
  "linkReferences": {},
  "deployedLinkReferences": {}
}