{
  "_format": "hh-sol-artifact-1",
  "contractName": "MitchMinter",
  "sourceName": "contracts/MitchMinter.sol",
  "abi": [
    {
      "inputs": [
        {
          "internalType": "string",
          "name": "_baseURI",
          "type": "string"
        },
        {
          "internalType": "contract IERC20",
          "name": "_paymentToken",
          "type": "address"
        },
        {
          "internalType": "address",
          "name": "_mitchToken",
          "type": "address"
        },
        {
          "internalType": "uint256",
          "name": "_defaultPrice",
          "type": "uint256"
        }
      ],
      "stateMutability": "nonpayable",
      "type": "constructor"
    },
    {
      "inputs": [
        {
          "internalType": "uint256",
          "name": "tokenId",
          "type": "uint256"
        }
      ],
      "name": "NoTokenExists",
      "type": "error"
    },
    {
      "anonymous": false,
      "inputs": [
        {
          "indexed": true,
          "internalType": "address",
          "name": "account",
          "type": "address"
        },
        {
          "indexed": true,
          "internalType": "address",
          "name": "operator",
          "type": "address"
        },
        {
          "indexed": false,
          "internalType": "bool",
          "name": "approved",
          "type": "bool"
        }
      ],
      "name": "ApprovalForAll",
      "type": "event"
    },
    {
      "anonymous": false,
      "inputs": [
        {
          "indexed": false,
          "internalType": "address",
          "name": "recipient",
          "type": "address"
        },
        {
          "indexed": false,
          "internalType": "uint256",
          "name": "tokenId",
          "type": "uint256"
        },
        {
          "indexed": false,
          "internalType": "uint256",
          "name": "amount",
          "type": "uint256"
        },
        {
          "indexed": false,
          "internalType": "uint256",
          "name": "totalPrice",
          "type": "uint256"
        }
      ],
      "name": "Mint",
      "type": "event"
    },
    {
      "anonymous": false,
      "inputs": [
        {
          "indexed": false,
          "internalType": "address",
          "name": "recipient",
          "type": "address"
        },
        {
          "indexed": false,
          "internalType": "uint256",
          "name": "totalAmounts",
          "type": "uint256"
        },
        {
          "indexed": false,
          "internalType": "uint256",
          "name": "finalPrice",
          "type": "uint256"
        }
      ],
      "name": "MintBatch",
      "type": "event"
    },
    {
      "anonymous": false,
      "inputs": [
        {
          "indexed": true,
          "internalType": "address",
          "name": "previousOwner",
          "type": "address"
        },
        {
          "indexed": true,
          "internalType": "address",
          "name": "newOwner",
          "type": "address"
        }
      ],
      "name": "OwnershipTransferred",
      "type": "event"
    },
    {
      "anonymous": false,
      "inputs": [
        {
          "indexed": true,
          "internalType": "address",
          "name": "operator",
          "type": "address"
        },
        {
          "indexed": true,
          "internalType": "address",
          "name": "from",
          "type": "address"
        },
        {
          "indexed": true,
          "internalType": "address",
          "name": "to",
          "type": "address"
        },
        {
          "indexed": false,
          "internalType": "uint256[]",
          "name": "ids",
          "type": "uint256[]"
        },
        {
          "indexed": false,
          "internalType": "uint256[]",
          "name": "values",
          "type": "uint256[]"
        }
      ],
      "name": "TransferBatch",
      "type": "event"
    },
    {
      "anonymous": false,
      "inputs": [
        {
          "indexed": true,
          "internalType": "address",
          "name": "operator",
          "type": "address"
        },
        {
          "indexed": true,
          "internalType": "address",
          "name": "from",
          "type": "address"
        },
        {
          "indexed": true,
          "internalType": "address",
          "name": "to",
          "type": "address"
        },
        {
          "indexed": false,
          "internalType": "uint256",
          "name": "id",
          "type": "uint256"
        },
        {
          "indexed": false,
          "internalType": "uint256",
          "name": "value",
          "type": "uint256"
        }
      ],
      "name": "TransferSingle",
      "type": "event"
    },
    {
      "anonymous": false,
      "inputs": [
        {
          "indexed": false,
          "internalType": "string",
          "name": "value",
          "type": "string"
        },
        {
          "indexed": true,
          "internalType": "uint256",
          "name": "id",
          "type": "uint256"
        }
      ],
      "name": "URI",
      "type": "event"
    },
    {
      "anonymous": false,
      "inputs": [
        {
          "indexed": false,
          "internalType": "address",
          "name": "recipient",
          "type": "address"
        },
        {
          "indexed": false,
          "internalType": "uint256",
          "name": "amount",
          "type": "uint256"
        }
      ],
      "name": "Withdrawal",
      "type": "event"
    },
    {
      "inputs": [
        {
          "internalType": "string",
          "name": "tokenURI",
          "type": "string"
        }
      ],
      "name": "addToken",
      "outputs": [],
      "stateMutability": "nonpayable",
      "type": "function"
    },
    {
      "inputs": [
        {
          "internalType": "address",
          "name": "account",
          "type": "address"
        },
        {
          "internalType": "uint256",
          "name": "id",
          "type": "uint256"
        }
      ],
      "name": "balanceOf",
      "outputs": [
        {
          "internalType": "uint256",
          "name": "",
          "type": "uint256"
        }
      ],
      "stateMutability": "view",
      "type": "function"
    },
    {
      "inputs": [
        {
          "internalType": "address[]",
          "name": "accounts",
          "type": "address[]"
        },
        {
          "internalType": "uint256[]",
          "name": "ids",
          "type": "uint256[]"
        }
      ],
      "name": "balanceOfBatch",
      "outputs": [
        {
          "internalType": "uint256[]",
          "name": "",
          "type": "uint256[]"
        }
      ],
      "stateMutability": "view",
      "type": "function"
    },
    {
      "inputs": [
        {
          "internalType": "address",
          "name": "account",
          "type": "address"
        },
        {
          "internalType": "uint256",
          "name": "id",
          "type": "uint256"
        },
        {
          "internalType": "uint256",
          "name": "value",
          "type": "uint256"
        }
      ],
      "name": "burn",
      "outputs": [],
      "stateMutability": "nonpayable",
      "type": "function"
    },
    {
      "inputs": [
        {
          "internalType": "address",
          "name": "account",
          "type": "address"
        },
        {
          "internalType": "uint256[]",
          "name": "ids",
          "type": "uint256[]"
        },
        {
          "internalType": "uint256[]",
          "name": "values",
          "type": "uint256[]"
        }
      ],
      "name": "burnBatch",
      "outputs": [],
      "stateMutability": "nonpayable",
      "type": "function"
    },
    {
      "inputs": [
        {
          "internalType": "address",
          "name": "newPaymentToken",
          "type": "address"
        }
      ],
      "name": "changePaymentToken",
      "outputs": [],
      "stateMutability": "nonpayable",
      "type": "function"
    },
    {
      "inputs": [],
      "name": "getBalance",
      "outputs": [
        {
          "internalType": "uint256",
          "name": "",
          "type": "uint256"
        }
      ],
      "stateMutability": "view",
      "type": "function"
    },
    {
      "inputs": [],
      "name": "getNativeBalance",
      "outputs": [
        {
          "internalType": "uint256",
          "name": "",
          "type": "uint256"
        }
      ],
      "stateMutability": "view",
      "type": "function"
    },
    {
      "inputs": [
        {
          "internalType": "uint256",
          "name": "tokenId",
          "type": "uint256"
        }
      ],
      "name": "getTokenInfo",
      "outputs": [
        {
          "internalType": "uint256",
          "name": "price",
          "type": "uint256"
        },
        {
          "internalType": "string",
          "name": "tokenURI",
          "type": "string"
        }
      ],
      "stateMutability": "view",
      "type": "function"
    },
    {
      "inputs": [],
      "name": "getUniqueTokens",
      "outputs": [
        {
          "internalType": "uint96",
          "name": "",
          "type": "uint96"
        }
      ],
      "stateMutability": "view",
      "type": "function"
    },
    {
      "inputs": [
        {
          "internalType": "address",
          "name": "account",
          "type": "address"
        },
        {
          "internalType": "address",
          "name": "operator",
          "type": "address"
        }
      ],
      "name": "isApprovedForAll",
      "outputs": [
        {
          "internalType": "bool",
          "name": "",
          "type": "bool"
        }
      ],
      "stateMutability": "view",
      "type": "function"
    },
    {
      "inputs": [
        {
          "internalType": "address",
          "name": "account",
          "type": "address"
        },
        {
          "internalType": "uint256",
          "name": "id",
          "type": "uint256"
        },
        {
          "internalType": "uint256",
          "name": "amount",
          "type": "uint256"
        }
      ],
      "name": "mint",
      "outputs": [],
      "stateMutability": "nonpayable",
      "type": "function"
    },
    {
      "inputs": [
        {
          "internalType": "address",
          "name": "to",
          "type": "address"
        },
        {
          "internalType": "uint256[]",
          "name": "ids",
          "type": "uint256[]"
        },
        {
          "internalType": "uint256[]",
          "name": "amounts",
          "type": "uint256[]"
        }
      ],
      "name": "mintBatch",
      "outputs": [],
      "stateMutability": "nonpayable",
      "type": "function"
    },
    {
      "inputs": [
        {
          "internalType": "address",
          "name": "to",
          "type": "address"
        },
        {
          "internalType": "uint256[]",
          "name": "ids",
          "type": "uint256[]"
        },
        {
          "internalType": "uint256[]",
          "name": "amounts",
          "type": "uint256[]"
        }
      ],
      "name": "mintBatchWithNativeToken",
      "outputs": [],
      "stateMutability": "payable",
      "type": "function"
    },
    {
      "inputs": [
        {
          "internalType": "address",
          "name": "account",
          "type": "address"
        },
        {
          "internalType": "uint256",
          "name": "id",
          "type": "uint256"
        },
        {
          "internalType": "uint256",
          "name": "amount",
          "type": "uint256"
        }
      ],
      "name": "mintWithNativeToken",
      "outputs": [],
      "stateMutability": "payable",
      "type": "function"
    },
    {
      "inputs": [],
      "name": "nativeMintEnabled",
      "outputs": [
        {
          "internalType": "bool",
          "name": "",
          "type": "bool"
        }
      ],
      "stateMutability": "view",
      "type": "function"
    },
    {
      "inputs": [],
      "name": "owner",
      "outputs": [
        {
          "internalType": "address",
          "name": "",
          "type": "address"
        }
      ],
      "stateMutability": "view",
      "type": "function"
    },
    {
      "inputs": [],
      "name": "paymentToken",
      "outputs": [
        {
          "internalType": "contract IERC20",
          "name": "",
          "type": "address"
        }
      ],
      "stateMutability": "view",
      "type": "function"
    },
    {
      "inputs": [],
      "name": "renounceOwnership",
      "outputs": [],
      "stateMutability": "nonpayable",
      "type": "function"
    },
    {
      "inputs": [
        {
          "internalType": "uint256",
          "name": "tokenId",
          "type": "uint256"
        }
      ],
      "name": "resetTokenPrice",
      "outputs": [],
      "stateMutability": "nonpayable",
      "type": "function"
    },
    {
      "inputs": [
        {
          "internalType": "address",
          "name": "from",
          "type": "address"
        },
        {
          "internalType": "address",
          "name": "to",
          "type": "address"
        },
        {
          "internalType": "uint256[]",
          "name": "ids",
          "type": "uint256[]"
        },
        {
          "internalType": "uint256[]",
          "name": "amounts",
          "type": "uint256[]"
        },
        {
          "internalType": "bytes",
          "name": "data",
          "type": "bytes"
        }
      ],
      "name": "safeBatchTransferFrom",
      "outputs": [],
      "stateMutability": "nonpayable",
      "type": "function"
    },
    {
      "inputs": [
        {
          "internalType": "address",
          "name": "from",
          "type": "address"
        },
        {
          "internalType": "address",
          "name": "to",
          "type": "address"
        },
        {
          "internalType": "uint256",
          "name": "id",
          "type": "uint256"
        },
        {
          "internalType": "uint256",
          "name": "amount",
          "type": "uint256"
        },
        {
          "internalType": "bytes",
          "name": "data",
          "type": "bytes"
        }
      ],
      "name": "safeTransferFrom",
      "outputs": [],
      "stateMutability": "nonpayable",
      "type": "function"
    },
    {
      "inputs": [
        {
          "internalType": "address",
          "name": "operator",
          "type": "address"
        },
        {
          "internalType": "bool",
          "name": "approved",
          "type": "bool"
        }
      ],
      "name": "setApprovalForAll",
      "outputs": [],
      "stateMutability": "nonpayable",
      "type": "function"
    },
    {
      "inputs": [
        {
          "internalType": "string",
          "name": "_baseURI",
          "type": "string"
        }
      ],
      "name": "setBaseURI",
      "outputs": [],
      "stateMutability": "nonpayable",
      "type": "function"
    },
    {
      "inputs": [
        {
          "internalType": "uint256",
          "name": "price",
          "type": "uint256"
        }
      ],
      "name": "setDefaultPrice",
      "outputs": [],
      "stateMutability": "nonpayable",
      "type": "function"
    },
    {
      "inputs": [
        {
          "internalType": "bool",
          "name": "enabled",
          "type": "bool"
        }
      ],
      "name": "setNativeTokenMinting",
      "outputs": [],
      "stateMutability": "nonpayable",
      "type": "function"
    },
    {
      "inputs": [
        {
          "internalType": "uint256",
          "name": "tokenId",
          "type": "uint256"
        },
        {
          "internalType": "uint256",
          "name": "price",
          "type": "uint256"
        }
      ],
      "name": "setTokenPrice",
      "outputs": [],
      "stateMutability": "nonpayable",
      "type": "function"
    },
    {
      "inputs": [
        {
          "internalType": "uint256",
          "name": "tokenId",
          "type": "uint256"
        },
        {
          "internalType": "string",
          "name": "tokenURI",
          "type": "string"
        }
      ],
      "name": "setTokenURI",
      "outputs": [],
      "stateMutability": "nonpayable",
      "type": "function"
    },
    {
      "inputs": [
        {
          "internalType": "bytes4",
          "name": "interfaceId",
          "type": "bytes4"
        }
      ],
      "name": "supportsInterface",
      "outputs": [
        {
          "internalType": "bool",
          "name": "",
          "type": "bool"
        }
      ],
      "stateMutability": "view",
      "type": "function"
    },
    {
      "inputs": [
        {
          "internalType": "uint256",
          "name": "",
          "type": "uint256"
        }
      ],
      "name": "tokenPrice",
      "outputs": [
        {
          "internalType": "uint256",
          "name": "",
          "type": "uint256"
        }
      ],
      "stateMutability": "view",
      "type": "function"
    },
    {
      "inputs": [
        {
          "internalType": "address",
          "name": "newOwner",
          "type": "address"
        }
      ],
      "name": "transferOwnership",
      "outputs": [],
      "stateMutability": "nonpayable",
      "type": "function"
    },
    {
      "inputs": [
        {
          "internalType": "uint256",
          "name": "tokenId",
          "type": "uint256"
        }
      ],
      "name": "uri",
      "outputs": [
        {
          "internalType": "string",
          "name": "",
          "type": "string"
        }
      ],
      "stateMutability": "view",
      "type": "function"
    },
    {
      "inputs": [],
      "name": "withdraw",
      "outputs": [],
      "stateMutability": "nonpayable",
      "type": "function"
    },
    {
      "inputs": [],
      "name": "withdrawNativeToken",
      "outputs": [],
      "stateMutability": "payable",
      "type": "function"
    }
  ],
  "bytecode": "0x60a0604052600060809081526004906200001a9082620001d9565b50600a80546001600160601b03191690553480156200003857600080fd5b5060405162003ca438038062003ca48339810160408190526200005b91620002c2565b836200006781620000d0565b506200007333620000e2565b6008620000818582620001d9565b5060068054600992909255600780546001600160a01b0319166001600160a01b039485161790556001600160a81b0319909116610100939092169290920260ff191617600117905550620003c4565b6002620000de8282620001d9565b5050565b600380546001600160a01b038381166001600160a01b0319831681179093556040519116919082907f8be0079c531659141344cd1fd0a4f28419497f9722a3daafe3b4186f6b6457e090600090a35050565b634e487b7160e01b600052604160045260246000fd5b600181811c908216806200015f57607f821691505b6020821081036200018057634e487b7160e01b600052602260045260246000fd5b50919050565b601f821115620001d457600081815260208120601f850160051c81016020861015620001af5750805b601f850160051c820191505b81811015620001d057828155600101620001bb565b5050505b505050565b81516001600160401b03811115620001f557620001f562000134565b6200020d816200020684546200014a565b8462000186565b602080601f8311600181146200024557600084156200022c5750858301515b600019600386901b1c1916600185901b178555620001d0565b600085815260208120601f198616915b82811015620002765788860151825594840194600190910190840162000255565b5085821015620002955787850151600019600388901b60f8161c191681555b5050505050600190811b01905550565b80516001600160a01b0381168114620002bd57600080fd5b919050565b60008060008060808587031215620002d957600080fd5b84516001600160401b0380821115620002f157600080fd5b818701915087601f8301126200030657600080fd5b8151818111156200031b576200031b62000134565b604051601f8201601f19908116603f0116810190838211818310171562000346576200034662000134565b81604052828152602093508a848487010111156200036357600080fd5b600091505b8282101562000387578482018401518183018501529083019062000368565b6000848483010152809850505050620003a2818801620002a5565b94505050620003b460408601620002a5565b6060959095015193969295505050565b6138d080620003d46000396000f3fe6080604052600436106102185760003560e01c80635a8f7b861161011d578063a22cb465116100b0578063eb685c471161007f578063f2fde38b11610064578063f2fde38b14610642578063f5298aca14610662578063fc5abac11461068257600080fd5b8063eb685c4714610602578063f242432a1461062257600080fd5b8063a22cb4651461054c578063d4ddce8a1461056c578063d81d0a1514610599578063e985e9c5146105b957600080fd5b806388a9d554116100ec57806388a9d554146104cd5780638c7a63ae146104e05780638ce261081461050e5780638da5cb5b1461052e57600080fd5b80635a8f7b86146104655780636b20c454146104785780636d3c7ec514610498578063715018a6146104b857600080fd5b806326a1809b116101b05780633ccfd60b1161017f5780634e1273f4116101645780634e1273f41461041057806355f804b31461043d5780635a18664c1461045d57600080fd5b80633ccfd60b146103db5780634558d717146103f057600080fd5b806326a1809b146103315780632eb2c2d61461035e5780633013ce291461037e57806337210b8f146103bb57600080fd5b806312065fe0116101ec57806312065fe0146102c7578063156e29f6146102dc57806315f8a01a146102fe578063162094c41461031157600080fd5b8062fdd58e1461021d57806301ffc9a7146102505780630b70ede5146102805780630e89341c1461029a575b600080fd5b34801561022957600080fd5b5061023d610238366004612e0f565b6106a2565b6040519081526020015b60405180910390f35b34801561025c57600080fd5b5061027061026b366004612e4f565b61074e565b6040519015158152602001610247565b34801561028c57600080fd5b506006546102709060ff1681565b3480156102a657600080fd5b506102ba6102b5366004612e6c565b6107e9565b6040516102479190612ed5565b3480156102d357600080fd5b5061023d6107f4565b3480156102e857600080fd5b506102fc6102f7366004612ee8565b61086b565b005b6102fc61030c366004612ff3565b610a9f565b34801561031d57600080fd5b506102fc61032c3660046130db565b610e07565b34801561033d57600080fd5b50600a546040516bffffffffffffffffffffffff9091168152602001610247565b34801561036a57600080fd5b506102fc610379366004613122565b610e1d565b34801561038a57600080fd5b506006546103a39061010090046001600160a01b031681565b6040516001600160a01b039091168152602001610247565b3480156103c757600080fd5b506102fc6103d63660046131da565b610eaa565b3480156103e757600080fd5b506102fc610ec5565b3480156103fc57600080fd5b506102fc61040b3660046131f7565b610f77565b34801561041c57600080fd5b5061043061042b366004613212565b61104e565b604051610247919061330e565b34801561044957600080fd5b506102fc610458366004613321565b61118c565b6102fc61119d565b6102fc610473366004612ee8565b611259565b34801561048457600080fd5b506102fc610493366004612ff3565b6113c8565b3480156104a457600080fd5b506102fc6104b3366004612e6c565b611458565b3480156104c457600080fd5b506102fc611465565b3480156104d957600080fd5b504761023d565b3480156104ec57600080fd5b506105006104fb366004612e6c565b611479565b604051610247929190613356565b34801561051a57600080fd5b506102fc610529366004613321565b6114bf565b34801561053a57600080fd5b506003546001600160a01b03166103a3565b34801561055857600080fd5b506102fc61056736600461336f565b611519565b34801561057857600080fd5b5061023d610587366004612e6c565b600b6020526000908152604090205481565b3480156105a557600080fd5b506102fc6105b4366004612ff3565b611524565b3480156105c557600080fd5b506102706105d43660046133a6565b6001600160a01b03918216600090815260016020908152604080832093909416825291909152205460ff1690565b34801561060e57600080fd5b506102fc61061d3660046133d9565b611737565b34801561062e57600080fd5b506102fc61063d3660046133fb565b6117a1565b34801561064e57600080fd5b506102fc61065d3660046131f7565b61182e565b34801561066e57600080fd5b506102fc61067d366004612ee8565b6118bb565b34801561068e57600080fd5b506102fc61069d366004612e6c565b611946565b60006001600160a01b0383166107255760405162461bcd60e51b815260206004820152602a60248201527f455243313135353a2061646472657373207a65726f206973206e6f742061207660448201527f616c6964206f776e65720000000000000000000000000000000000000000000060648201526084015b60405180910390fd5b506000818152602081815260408083206001600160a01b03861684529091529020545b92915050565b60006001600160e01b031982167fd9b67a260000000000000000000000000000000000000000000000000000000014806107b157506001600160e01b031982167f0e89341c00000000000000000000000000000000000000000000000000000000145b8061074857507f01ffc9a7000000000000000000000000000000000000000000000000000000006001600160e01b0319831614610748565b60606107488261195f565b6006546040516370a0823160e01b815230600482015260009161010090046001600160a01b0316906370a0823190602401602060405180830381865afa158015610842573d6000803e3d6000fd5b505050506040513d601f19601f820116820180604052508101906108669190613460565b905090565b60065460ff16156108be5760405162461bcd60e51b815260206004820152601f60248201527f43616e206f6e6c79206d696e742077697468206e617469766520746f6b656e00604482015260640161071c565b600081116109035760405162461bcd60e51b81526020600482015260126024820152710416d6f756e742063616e6e6f7420626520360741b604482015260640161071c565b600a5460009081906bffffffffffffffffffffffff1684111561093c5760405163cfe3beb960e01b81526004810185905260240161071c565b6003546001600160a01b031633146109fb576000848152600b60205260409020541561097857506000838152600b60205260409020548061097e565b50600954805b506109898184611a3f565b6006549092506109a99061010090046001600160a01b0316333085611a4b565b604080516001600160a01b038716815260208101869052908101849052606081018390527fb4c03061fb5b7fed76389d5af8f2e0ddb09f8c70d1333abbb62582835e10accb9060800160405180910390a15b6007546001600160a01b03166340c10f1986610a1f86670de0b6b3a7640000611a3f565b6040516001600160e01b031960e085901b1681526001600160a01b0390921660048301526024820152604401600060405180830381600087803b158015610a6557600080fd5b505af1158015610a79573d6000803e3d6000fd5b50505050610a9885858560405180602001604052806000815250611aea565b5050505050565b60065460ff16610af15760405162461bcd60e51b815260206004820152601e60248201527f43616e206f6e6c79206d696e74207769746820455243323020746f6b656e0000604482015260640161071c565b600080610b066003546001600160a01b031690565b6001600160a01b0316336001600160a01b031614610d6a5760005b8451811015610cce576000848281518110610b3e57610b3e613479565b602002602001015111610b885760405162461bcd60e51b81526020600482015260126024820152710416d6f756e742063616e6e6f7420626520360741b604482015260640161071c565b600a5485516bffffffffffffffffffffffff90911690869083908110610bb057610bb0613479565b60200260200101511115610bf457848181518110610bd057610bd0613479565b602002602001015160405163cfe3beb960e01b815260040161071c91815260200190565b6000600b6000878481518110610c0c57610c0c613479565b6020026020010151815260200190815260200160002054600014610c5f57600b6000878481518110610c4057610c40613479565b6020026020010151815260200190815260200160002054905080610c65565b50600954805b50610c92858381518110610c7b57610c7b613479565b602002602001015182611a3f90919063ffffffff16565b610c9c90856134a5565b9350848281518110610cb057610cb0613479565b602002602001015183610cc391906134a5565b925050600101610b21565b5081341015610d1f5760405162461bcd60e51b815260206004820152601360248201527f496e73756666696369656e742066756e64732100000000000000000000000000604482015260640161071c565b604080516001600160a01b0387168152602081018390529081018390527f6941bbed9891bfb7a243f6a1aa237a060996652ebf3e8f33bb36a0022e60dfbf9060600160405180910390a15b6007546001600160a01b03166340c10f1986610d8e84670de0b6b3a7640000611a3f565b6040516001600160e01b031960e085901b1681526001600160a01b0390921660048301526024820152604401600060405180830381600087803b158015610dd457600080fd5b505af1158015610de8573d6000803e3d6000fd5b50505050610a9885858560405180602001604052806000815250611bfe565b610e0f611dc4565b610e198282611e1e565b5050565b6001600160a01b038516331480610e395750610e3985336105d4565b610e9d5760405162461bcd60e51b815260206004820152602f60248201527f455243313135353a2063616c6c6572206973206e6f7420746f6b656e206f776e60448201526e195c881b9bdc88185c1c1c9bdd9959608a1b606482015260840161071c565b610a988585858585611e7b565b610eb2611dc4565b6006805460ff1916911515919091179055565b610ecd611dc4565b6006546040516370a0823160e01b815230600482015260009161010090046001600160a01b0316906370a0823190602401602060405180830381865afa158015610f1b573d6000803e3d6000fd5b505050506040513d601f19601f82011682018060405250810190610f3f9190613460565b90508015610f7457610f74610f5c6003546001600160a01b031690565b60065461010090046001600160a01b031690836120d9565b50565b610f7f611dc4565b6006546040516370a0823160e01b815230600482015260009161010090046001600160a01b0316906370a0823190602401602060405180830381865afa158015610fcd573d6000803e3d6000fd5b505050506040513d601f19601f82011682018060405250810190610ff19190613460565b9050801561100e5761100e610f5c6003546001600160a01b031690565b50600680546001600160a01b03909216610100027fffffffffffffffffffffff0000000000000000000000000000000000000000ff909216919091179055565b606081518351146110c75760405162461bcd60e51b815260206004820152602960248201527f455243313135353a206163636f756e747320616e6420696473206c656e67746860448201527f206d69736d617463680000000000000000000000000000000000000000000000606482015260840161071c565b6000835167ffffffffffffffff8111156110e3576110e3612f1b565b60405190808252806020026020018201604052801561110c578160200160208202803683370190505b50905060005b84518110156111845761115785828151811061113057611130613479565b602002602001015185838151811061114a5761114a613479565b60200260200101516106a2565b82828151811061116957611169613479565b602090810291909101015261117d816134b8565b9050611112565b509392505050565b611194611dc4565b610f7481612122565b6111a5611dc4565b60006111b96003546001600160a01b031690565b6001600160a01b03164760405160006040518083038185875af1925050503d8060008114611203576040519150601f19603f3d011682016040523d82523d6000602084013e611208565b606091505b5050905080610f745760405162461bcd60e51b815260206004820152601460248201527f4661696c656420746f2073656e64204574686572000000000000000000000000604482015260640161071c565b60065460ff166112ab5760405162461bcd60e51b815260206004820152601e60248201527f43616e206f6e6c79206d696e74207769746820455243323020746f6b656e0000604482015260640161071c565b600081116112f05760405162461bcd60e51b81526020600482015260126024820152710416d6f756e742063616e6e6f7420626520360741b604482015260640161071c565b600a5460009081906bffffffffffffffffffffffff168411156113295760405163cfe3beb960e01b81526004810185905260240161071c565b6003546001600160a01b031633146109fb576000848152600b60205260409020541561136557506000838152600b60205260409020548061136b565b50600954805b506113768184611a3f565b9150813410156109a95760405162461bcd60e51b815260206004820152601360248201527f496e73756666696369656e742066756e64732100000000000000000000000000604482015260640161071c565b6001600160a01b0383163314806113e457506113e483336105d4565b6114485760405162461bcd60e51b815260206004820152602f60248201527f455243313135353a2063616c6c6572206973206e6f7420746f6b656e206f776e60448201526e195c881b9bdc88185c1c1c9bdd9959608a1b606482015260840161071c565b61145383838361212e565b505050565b611460611dc4565b600955565b61146d611dc4565b6114776000612371565b565b6000818152600b6020526040812054606090156114a7576000838152600b60205260409020549150816114ae565b6009549150815b506114b8836107e9565b9050915091565b6114c7611dc4565b600a80546bffffffffffffffffffffffff169060006114e5836134d1565b82546101009290920a6bffffffffffffffffffffffff818102199093169183160217909155600a54610f7492501682611e1e565b610e193383836123db565b60065460ff16156115775760405162461bcd60e51b815260206004820152601f60248201527f43616e206f6e6c79206d696e742077697468206e617469766520746f6b656e00604482015260640161071c565b60008061158c6003546001600160a01b031690565b6001600160a01b0316336001600160a01b031614610d6a5760005b845181101561171957600a5485516bffffffffffffffffffffffff909116908690839081106115d8576115d8613479565b602002602001015111156116565760008482815181106115fa576115fa613479565b6020026020010151116116445760405162461bcd60e51b81526020600482015260126024820152710416d6f756e742063616e6e6f7420626520360741b604482015260640161071c565b848181518110610bd057610bd0613479565b6000600b600087848151811061166e5761166e613479565b60200260200101518152602001908152602001600020546000146116c157600b60008784815181106116a2576116a2613479565b60200260200101518152602001908152602001600020549050806116c7565b50600954805b506116dd858381518110610c7b57610c7b613479565b6116e790856134a5565b93508482815181106116fb576116fb613479565b60200260200101518361170e91906134a5565b9250506001016115a7565b50600654610d1f9061010090046001600160a01b0316333085611a4b565b61173f611dc4565b8060000361178f5760405162461bcd60e51b815260206004820152601560248201527f63616e6e6f742073657420707269636520746f20300000000000000000000000604482015260640161071c565b6000918252600b602052604090912055565b6001600160a01b0385163314806117bd57506117bd85336105d4565b6118215760405162461bcd60e51b815260206004820152602f60248201527f455243313135353a2063616c6c6572206973206e6f7420746f6b656e206f776e60448201526e195c881b9bdc88185c1c1c9bdd9959608a1b606482015260840161071c565b610a9885858585856124cf565b611836611dc4565b6001600160a01b0381166118b25760405162461bcd60e51b815260206004820152602660248201527f4f776e61626c653a206e6577206f776e657220697320746865207a65726f206160448201527f6464726573730000000000000000000000000000000000000000000000000000606482015260840161071c565b610f7481612371565b6001600160a01b0383163314806118d757506118d783336105d4565b61193b5760405162461bcd60e51b815260206004820152602f60248201527f455243313135353a2063616c6c6572206973206e6f7420746f6b656e206f776e60448201526e195c881b9bdc88185c1c1c9bdd9959608a1b606482015260840161071c565b61145383838361267a565b61194e611dc4565b6000908152600b6020526040812055565b60008181526005602052604081208054606092919061197d906134fc565b80601f01602080910402602001604051908101604052809291908181526020018280546119a9906134fc565b80156119f65780601f106119cb576101008083540402835291602001916119f6565b820191906000526020600020905b8154815290600101906020018083116119d957829003601f168201915b505050505090506000815111611a1457611a0f836127f6565b611a38565b600481604051602001611a28929190613536565b6040516020818303038152906040525b9392505050565b6000611a3882846135bd565b6040516001600160a01b0380851660248301528316604482015260648101829052611ae49085907f23b872dd00000000000000000000000000000000000000000000000000000000906084015b60408051601f198184030181529190526020810180517bffffffffffffffffffffffffffffffffffffffffffffffffffffffff166001600160e01b03199093169290921790915261288a565b50505050565b6001600160a01b038416611b4a5760405162461bcd60e51b815260206004820152602160248201527f455243313135353a206d696e7420746f20746865207a65726f206164647265736044820152607360f81b606482015260840161071c565b336000611b568561296f565b90506000611b638561296f565b90506000868152602081815260408083206001600160a01b038b16845290915281208054879290611b959084906134a5565b909155505060408051878152602081018790526001600160a01b03808a1692600092918716917fc3d58168c5ae7397731d063d5bbf3d657854427343f4c083240f7aacaa2d0f62910160405180910390a4611bf5836000898989896129ba565b50505050505050565b6001600160a01b038416611c5e5760405162461bcd60e51b815260206004820152602160248201527f455243313135353a206d696e7420746f20746865207a65726f206164647265736044820152607360f81b606482015260840161071c565b8151835114611cc05760405162461bcd60e51b815260206004820152602860248201527f455243313135353a2069647320616e6420616d6f756e7473206c656e677468206044820152670dad2e6dac2e8c6d60c31b606482015260840161071c565b3360005b8451811015611d5c57838181518110611cdf57611cdf613479565b6020026020010151600080878481518110611cfc57611cfc613479565b602002602001015181526020019081526020016000206000886001600160a01b03166001600160a01b031681526020019081526020016000206000828254611d4491906134a5565b90915550819050611d54816134b8565b915050611cc4565b50846001600160a01b031660006001600160a01b0316826001600160a01b03167f4a39dc06d4c0dbc64b70af90fd698a233a518aa5d07e595d983b8c0526c8f7fb8787604051611dad9291906135d4565b60405180910390a4610a9881600087878787612b5f565b6003546001600160a01b031633146114775760405162461bcd60e51b815260206004820181905260248201527f4f776e61626c653a2063616c6c6572206973206e6f7420746865206f776e6572604482015260640161071c565b6000828152600560205260409020611e368282613648565b50817f6bb7ff708619ba0610cba295a58592e0451dee2622938c8755667688daf3529b611e62846107e9565b604051611e6f9190612ed5565b60405180910390a25050565b8151835114611edd5760405162461bcd60e51b815260206004820152602860248201527f455243313135353a2069647320616e6420616d6f756e7473206c656e677468206044820152670dad2e6dac2e8c6d60c31b606482015260840161071c565b6001600160a01b038416611f415760405162461bcd60e51b815260206004820152602560248201527f455243313135353a207472616e7366657220746f20746865207a65726f206164604482015264647265737360d81b606482015260840161071c565b3360005b845181101561206b576000858281518110611f6257611f62613479565b602002602001015190506000858381518110611f8057611f80613479565b602090810291909101810151600084815280835260408082206001600160a01b038e1683529093529190912054909150818110156120135760405162461bcd60e51b815260206004820152602a60248201527f455243313135353a20696e73756666696369656e742062616c616e636520666f60448201526939103a3930b739b332b960b11b606482015260840161071c565b6000838152602081815260408083206001600160a01b038e8116855292528083208585039055908b168252812080548492906120509084906134a5565b9250508190555050505080612064906134b8565b9050611f45565b50846001600160a01b0316866001600160a01b0316826001600160a01b03167f4a39dc06d4c0dbc64b70af90fd698a233a518aa5d07e595d983b8c0526c8f7fb87876040516120bb9291906135d4565b60405180910390a46120d1818787878787612b5f565b505050505050565b6040516001600160a01b0383166024820152604481018290526114539084907fa9059cbb0000000000000000000000000000000000000000000000000000000090606401611a98565b6004610e198282613648565b6001600160a01b0383166121905760405162461bcd60e51b815260206004820152602360248201527f455243313135353a206275726e2066726f6d20746865207a65726f206164647260448201526265737360e81b606482015260840161071c565b80518251146121f25760405162461bcd60e51b815260206004820152602860248201527f455243313135353a2069647320616e6420616d6f756e7473206c656e677468206044820152670dad2e6dac2e8c6d60c31b606482015260840161071c565b604080516020810190915260009081905233905b835181101561230457600084828151811061222357612223613479565b60200260200101519050600084838151811061224157612241613479565b602090810291909101810151600084815280835260408082206001600160a01b038c1683529093529190912054909150818110156122cd5760405162461bcd60e51b8152602060048201526024808201527f455243313135353a206275726e20616d6f756e7420657863656564732062616c604482015263616e636560e01b606482015260840161071c565b6000928352602083815260408085206001600160a01b038b16865290915290922091039055806122fc816134b8565b915050612206565b5060006001600160a01b0316846001600160a01b0316826001600160a01b03167f4a39dc06d4c0dbc64b70af90fd698a233a518aa5d07e595d983b8c0526c8f7fb86866040516123559291906135d4565b60405180910390a4604080516020810190915260009052611ae4565b600380546001600160a01b038381167fffffffffffffffffffffffff0000000000000000000000000000000000000000831681179093556040519116919082907f8be0079c531659141344cd1fd0a4f28419497f9722a3daafe3b4186f6b6457e090600090a35050565b816001600160a01b0316836001600160a01b0316036124625760405162461bcd60e51b815260206004820152602960248201527f455243313135353a2073657474696e6720617070726f76616c2073746174757360448201527f20666f722073656c660000000000000000000000000000000000000000000000606482015260840161071c565b6001600160a01b03838116600081815260016020908152604080832094871680845294825291829020805460ff191686151590811790915591519182527f17307eab39ab6107e8899845ad3d59bd9653f200f220920489ca2b5937696c31910160405180910390a3505050565b6001600160a01b0384166125335760405162461bcd60e51b815260206004820152602560248201527f455243313135353a207472616e7366657220746f20746865207a65726f206164604482015264647265737360d81b606482015260840161071c565b33600061253f8561296f565b9050600061254c8561296f565b90506000868152602081815260408083206001600160a01b038c168452909152902054858110156125d25760405162461bcd60e51b815260206004820152602a60248201527f455243313135353a20696e73756666696369656e742062616c616e636520666f60448201526939103a3930b739b332b960b11b606482015260840161071c565b6000878152602081815260408083206001600160a01b038d8116855292528083208985039055908a1682528120805488929061260f9084906134a5565b909155505060408051888152602081018890526001600160a01b03808b16928c821692918816917fc3d58168c5ae7397731d063d5bbf3d657854427343f4c083240f7aacaa2d0f62910160405180910390a461266f848a8a8a8a8a6129ba565b505050505050505050565b6001600160a01b0383166126dc5760405162461bcd60e51b815260206004820152602360248201527f455243313135353a206275726e2066726f6d20746865207a65726f206164647260448201526265737360e81b606482015260840161071c565b3360006126e88461296f565b905060006126f58461296f565b60408051602080820183526000918290528882528181528282206001600160a01b038b168352905220549091508481101561277e5760405162461bcd60e51b8152602060048201526024808201527f455243313135353a206275726e20616d6f756e7420657863656564732062616c604482015263616e636560e01b606482015260840161071c565b6000868152602081815260408083206001600160a01b038b81168086529184528285208a8703905582518b81529384018a90529092908816917fc3d58168c5ae7397731d063d5bbf3d657854427343f4c083240f7aacaa2d0f62910160405180910390a4604080516020810190915260009052611bf5565b606060028054612805906134fc565b80601f0160208091040260200160405190810160405280929190818152602001828054612831906134fc565b801561287e5780601f106128535761010080835404028352916020019161287e565b820191906000526020600020905b81548152906001019060200180831161286157829003601f168201915b50505050509050919050565b60006128df826040518060400160405280602081526020017f5361666545524332303a206c6f772d6c6576656c2063616c6c206661696c6564815250856001600160a01b0316612c5b9092919063ffffffff16565b80519091501561145357808060200190518101906128fd9190613708565b6114535760405162461bcd60e51b815260206004820152602a60248201527f5361666545524332303a204552433230206f7065726174696f6e20646964206e60448201527f6f74207375636365656400000000000000000000000000000000000000000000606482015260840161071c565b604080516001808252818301909252606091600091906020808301908036833701905050905082816000815181106129a9576129a9613479565b602090810291909101015292915050565b6001600160a01b0384163b156120d15760405163f23a6e6160e01b81526001600160a01b0385169063f23a6e61906129fe9089908990889088908890600401613725565b6020604051808303816000875af1925050508015612a39575060408051601f3d908101601f19168201909252612a369181019061375d565b60015b612aee57612a4561377a565b806308c379a003612a7e5750612a59613796565b80612a645750612a80565b8060405162461bcd60e51b815260040161071c9190612ed5565b505b60405162461bcd60e51b815260206004820152603460248201527f455243313135353a207472616e7366657220746f206e6f6e204552433131353560448201527f526563656976657220696d706c656d656e746572000000000000000000000000606482015260840161071c565b6001600160e01b0319811663f23a6e6160e01b14611bf55760405162461bcd60e51b815260206004820152602860248201527f455243313135353a204552433131353552656365697665722072656a656374656044820152676420746f6b656e7360c01b606482015260840161071c565b6001600160a01b0384163b156120d15760405163bc197c8160e01b81526001600160a01b0385169063bc197c8190612ba39089908990889088908890600401613820565b6020604051808303816000875af1925050508015612bde575060408051601f3d908101601f19168201909252612bdb9181019061375d565b60015b612bea57612a4561377a565b6001600160e01b0319811663bc197c8160e01b14611bf55760405162461bcd60e51b815260206004820152602860248201527f455243313135353a204552433131353552656365697665722072656a656374656044820152676420746f6b656e7360c01b606482015260840161071c565b6060612c6a8484600085612c72565b949350505050565b606082471015612cea5760405162461bcd60e51b815260206004820152602660248201527f416464726573733a20696e73756666696369656e742062616c616e636520666f60448201527f722063616c6c0000000000000000000000000000000000000000000000000000606482015260840161071c565b6001600160a01b0385163b612d415760405162461bcd60e51b815260206004820152601d60248201527f416464726573733a2063616c6c20746f206e6f6e2d636f6e7472616374000000604482015260640161071c565b600080866001600160a01b03168587604051612d5d919061387e565b60006040518083038185875af1925050503d8060008114612d9a576040519150601f19603f3d011682016040523d82523d6000602084013e612d9f565b606091505b5091509150612daf828286612dba565b979650505050505050565b60608315612dc9575081611a38565b825115612dd95782518084602001fd5b8160405162461bcd60e51b815260040161071c9190612ed5565b80356001600160a01b0381168114612e0a57600080fd5b919050565b60008060408385031215612e2257600080fd5b612e2b83612df3565b946020939093013593505050565b6001600160e01b031981168114610f7457600080fd5b600060208284031215612e6157600080fd5b8135611a3881612e39565b600060208284031215612e7e57600080fd5b5035919050565b60005b83811015612ea0578181015183820152602001612e88565b50506000910152565b60008151808452612ec1816020860160208601612e85565b601f01601f19169290920160200192915050565b602081526000611a386020830184612ea9565b600080600060608486031215612efd57600080fd5b612f0684612df3565b95602085013595506040909401359392505050565b634e487b7160e01b600052604160045260246000fd5b601f8201601f1916810167ffffffffffffffff81118282101715612f5757612f57612f1b565b6040525050565b600067ffffffffffffffff821115612f7857612f78612f1b565b5060051b60200190565b600082601f830112612f9357600080fd5b81356020612fa082612f5e565b604051612fad8282612f31565b83815260059390931b8501820192828101915086841115612fcd57600080fd5b8286015b84811015612fe85780358352918301918301612fd1565b509695505050505050565b60008060006060848603121561300857600080fd5b61301184612df3565b9250602084013567ffffffffffffffff8082111561302e57600080fd5b61303a87838801612f82565b9350604086013591508082111561305057600080fd5b5061305d86828701612f82565b9150509250925092565b600082601f83011261307857600080fd5b813567ffffffffffffffff81111561309257613092612f1b565b6040516130a9601f8301601f191660200182612f31565b8181528460208386010111156130be57600080fd5b816020850160208301376000918101602001919091529392505050565b600080604083850312156130ee57600080fd5b82359150602083013567ffffffffffffffff81111561310c57600080fd5b61311885828601613067565b9150509250929050565b600080600080600060a0868803121561313a57600080fd5b61314386612df3565b945061315160208701612df3565b9350604086013567ffffffffffffffff8082111561316e57600080fd5b61317a89838a01612f82565b9450606088013591508082111561319057600080fd5b61319c89838a01612f82565b935060808801359150808211156131b257600080fd5b506131bf88828901613067565b9150509295509295909350565b8015158114610f7457600080fd5b6000602082840312156131ec57600080fd5b8135611a38816131cc565b60006020828403121561320957600080fd5b611a3882612df3565b6000806040838503121561322557600080fd5b823567ffffffffffffffff8082111561323d57600080fd5b818501915085601f83011261325157600080fd5b8135602061325e82612f5e565b60405161326b8282612f31565b83815260059390931b850182019282810191508984111561328b57600080fd5b948201945b838610156132b0576132a186612df3565b82529482019490820190613290565b965050860135925050808211156132c657600080fd5b5061311885828601612f82565b600081518084526020808501945080840160005b83811015613303578151875295820195908201906001016132e7565b509495945050505050565b602081526000611a3860208301846132d3565b60006020828403121561333357600080fd5b813567ffffffffffffffff81111561334a57600080fd5b612c6a84828501613067565b828152604060208201526000612c6a6040830184612ea9565b6000806040838503121561338257600080fd5b61338b83612df3565b9150602083013561339b816131cc565b809150509250929050565b600080604083850312156133b957600080fd5b6133c283612df3565b91506133d060208401612df3565b90509250929050565b600080604083850312156133ec57600080fd5b50508035926020909101359150565b600080600080600060a0868803121561341357600080fd5b61341c86612df3565b945061342a60208701612df3565b93506040860135925060608601359150608086013567ffffffffffffffff81111561345457600080fd5b6131bf88828901613067565b60006020828403121561347257600080fd5b5051919050565b634e487b7160e01b600052603260045260246000fd5b634e487b7160e01b600052601160045260246000fd5b808201808211156107485761074861348f565b6000600182016134ca576134ca61348f565b5060010190565b60006bffffffffffffffffffffffff8083168181036134f2576134f261348f565b6001019392505050565b600181811c9082168061351057607f821691505b60208210810361353057634e487b7160e01b600052602260045260246000fd5b50919050565b6000808454613544816134fc565b6001828116801561355c5760018114613571576135a0565b60ff19841687528215158302870194506135a0565b8860005260208060002060005b858110156135975781548a82015290840190820161357e565b50505082870194505b5050505083516135b4818360208801612e85565b01949350505050565b80820281158282048414176107485761074861348f565b6040815260006135e760408301856132d3565b82810360208401526135f981856132d3565b95945050505050565b601f82111561145357600081815260208120601f850160051c810160208610156136295750805b601f850160051c820191505b818110156120d157828155600101613635565b815167ffffffffffffffff81111561366257613662612f1b565b6136768161367084546134fc565b84613602565b602080601f8311600181146136ab57600084156136935750858301515b600019600386901b1c1916600185901b1785556120d1565b600085815260208120601f198616915b828110156136da578886015182559484019460019091019084016136bb565b50858210156136f85787850151600019600388901b60f8161c191681555b5050505050600190811b01905550565b60006020828403121561371a57600080fd5b8151611a38816131cc565b60006001600160a01b03808816835280871660208401525084604083015283606083015260a06080830152612daf60a0830184612ea9565b60006020828403121561376f57600080fd5b8151611a3881612e39565b600060033d11156137935760046000803e5060005160e01c5b90565b600060443d10156137a45790565b6040516003193d81016004833e81513d67ffffffffffffffff81602484011181841117156137d457505050505090565b82850191508151818111156137ec5750505050505090565b843d87010160208285010111156138065750505050505090565b61381560208286010187612f31565b509095945050505050565b60006001600160a01b03808816835280871660208401525060a0604083015261384c60a08301866132d3565b828103606084015261385e81866132d3565b905082810360808401526138728185612ea9565b98975050505050505050565b60008251613890818460208701612e85565b919091019291505056fea2646970667358221220d42214faf549957cab0649a2696bd8f1af23867ed3fcef22c6de83d8e1f0e04764736f6c63430008110033",
  "linkReferences": {},
  "deployedLinkReferences": {}
}