{
  "_format": "hh-sol-artifact-1",
  "contractName": "MitchMinter",
  "sourceName": "contracts/MitchMinter.sol",
  "abi": [
    {
      "inputs": [
        {
          "internalType": "string",
          "name": "_baseURI",
          "type": "string"
        },
        {
          "internalType": "contract IERC20",
          "name": "_paymentToken",
          "type": "address"
        },
        {
          "internalType": "address",
          "name": "_mitchToken",
          "type": "address"
        },
        {
          "internalType": "uint256",
          "name": "_defaultPrice",
          "type": "uint256"
        }
      ],
      "stateMutability": "nonpayable",
      "type": "constructor"
    },
    {
      "inputs": [
        {
          "internalType": "uint256",
          "name": "tokenId",
          "type": "uint256"
        }
      ],
      "name": "NoTokenExists",
      "type": "error"
    },
    {
      "anonymous": false,
      "inputs": [
        {
          "indexed": true,
          "internalType": "address",
          "name": "account",
          "type": "address"
        },
        {
          "indexed": true,
          "internalType": "address",
          "name": "operator",
          "type": "address"
        },
        {
          "indexed": false,
          "internalType": "bool",
          "name": "approved",
          "type": "bool"
        }
      ],
      "name": "ApprovalForAll",
      "type": "event"
    },
    {
      "anonymous": false,
      "inputs": [
        {
          "indexed": false,
          "internalType": "address",
          "name": "recipient",
          "type": "address"
        },
        {
          "indexed": false,
          "internalType": "uint256",
          "name": "tokenId",
          "type": "uint256"
        },
        {
          "indexed": false,
          "internalType": "uint256",
          "name": "amount",
          "type": "uint256"
        },
        {
          "indexed": false,
          "internalType": "uint256",
          "name": "totalPrice",
          "type": "uint256"
        }
      ],
      "name": "Mint",
      "type": "event"
    },
    {
      "anonymous": false,
      "inputs": [
        {
          "indexed": false,
          "internalType": "address",
          "name": "recipient",
          "type": "address"
        },
        {
          "indexed": false,
          "internalType": "uint256",
          "name": "totalAmounts",
          "type": "uint256"
        },
        {
          "indexed": false,
          "internalType": "uint256",
          "name": "finalPrice",
          "type": "uint256"
        }
      ],
      "name": "MintBatch",
      "type": "event"
    },
    {
      "anonymous": false,
      "inputs": [
        {
          "indexed": true,
          "internalType": "address",
          "name": "previousOwner",
          "type": "address"
        },
        {
          "indexed": true,
          "internalType": "address",
          "name": "newOwner",
          "type": "address"
        }
      ],
      "name": "OwnershipTransferred",
      "type": "event"
    },
    {
      "anonymous": false,
      "inputs": [
        {
          "indexed": true,
          "internalType": "address",
          "name": "operator",
          "type": "address"
        },
        {
          "indexed": true,
          "internalType": "address",
          "name": "from",
          "type": "address"
        },
        {
          "indexed": true,
          "internalType": "address",
          "name": "to",
          "type": "address"
        },
        {
          "indexed": false,
          "internalType": "uint256[]",
          "name": "ids",
          "type": "uint256[]"
        },
        {
          "indexed": false,
          "internalType": "uint256[]",
          "name": "values",
          "type": "uint256[]"
        }
      ],
      "name": "TransferBatch",
      "type": "event"
    },
    {
      "anonymous": false,
      "inputs": [
        {
          "indexed": true,
          "internalType": "address",
          "name": "operator",
          "type": "address"
        },
        {
          "indexed": true,
          "internalType": "address",
          "name": "from",
          "type": "address"
        },
        {
          "indexed": true,
          "internalType": "address",
          "name": "to",
          "type": "address"
        },
        {
          "indexed": false,
          "internalType": "uint256",
          "name": "id",
          "type": "uint256"
        },
        {
          "indexed": false,
          "internalType": "uint256",
          "name": "value",
          "type": "uint256"
        }
      ],
      "name": "TransferSingle",
      "type": "event"
    },
    {
      "anonymous": false,
      "inputs": [
        {
          "indexed": false,
          "internalType": "string",
          "name": "value",
          "type": "string"
        },
        {
          "indexed": true,
          "internalType": "uint256",
          "name": "id",
          "type": "uint256"
        }
      ],
      "name": "URI",
      "type": "event"
    },
    {
      "anonymous": false,
      "inputs": [
        {
          "indexed": false,
          "internalType": "address",
          "name": "recipient",
          "type": "address"
        },
        {
          "indexed": false,
          "internalType": "uint256",
          "name": "amount",
          "type": "uint256"
        }
      ],
      "name": "Withdrawal",
      "type": "event"
    },
    {
      "inputs": [
        {
          "internalType": "string",
          "name": "tokenURI",
          "type": "string"
        }
      ],
      "name": "addToken",
      "outputs": [],
      "stateMutability": "nonpayable",
      "type": "function"
    },
    {
      "inputs": [
        {
          "internalType": "address",
          "name": "account",
          "type": "address"
        },
        {
          "internalType": "uint256",
          "name": "id",
          "type": "uint256"
        }
      ],
      "name": "balanceOf",
      "outputs": [
        {
          "internalType": "uint256",
          "name": "",
          "type": "uint256"
        }
      ],
      "stateMutability": "view",
      "type": "function"
    },
    {
      "inputs": [
        {
          "internalType": "address[]",
          "name": "accounts",
          "type": "address[]"
        },
        {
          "internalType": "uint256[]",
          "name": "ids",
          "type": "uint256[]"
        }
      ],
      "name": "balanceOfBatch",
      "outputs": [
        {
          "internalType": "uint256[]",
          "name": "",
          "type": "uint256[]"
        }
      ],
      "stateMutability": "view",
      "type": "function"
    },
    {
      "inputs": [
        {
          "internalType": "address",
          "name": "account",
          "type": "address"
        },
        {
          "internalType": "uint256",
          "name": "id",
          "type": "uint256"
        },
        {
          "internalType": "uint256",
          "name": "value",
          "type": "uint256"
        }
      ],
      "name": "burn",
      "outputs": [],
      "stateMutability": "nonpayable",
      "type": "function"
    },
    {
      "inputs": [
        {
          "internalType": "address",
          "name": "account",
          "type": "address"
        },
        {
          "internalType": "uint256[]",
          "name": "ids",
          "type": "uint256[]"
        },
        {
          "internalType": "uint256[]",
          "name": "values",
          "type": "uint256[]"
        }
      ],
      "name": "burnBatch",
      "outputs": [],
      "stateMutability": "nonpayable",
      "type": "function"
    },
    {
      "inputs": [],
      "name": "getBalance",
      "outputs": [
        {
          "internalType": "uint256",
          "name": "",
          "type": "uint256"
        }
      ],
      "stateMutability": "view",
      "type": "function"
    },
    {
      "inputs": [],
      "name": "getNativeBalance",
      "outputs": [
        {
          "internalType": "uint256",
          "name": "",
          "type": "uint256"
        }
      ],
      "stateMutability": "view",
      "type": "function"
    },
    {
      "inputs": [
        {
          "internalType": "uint256",
          "name": "tokenId",
          "type": "uint256"
        }
      ],
      "name": "getTokenInfo",
      "outputs": [
        {
          "internalType": "uint256",
          "name": "price",
          "type": "uint256"
        },
        {
          "internalType": "string",
          "name": "tokenURI",
          "type": "string"
        }
      ],
      "stateMutability": "view",
      "type": "function"
    },
    {
      "inputs": [],
      "name": "getUniqueTokens",
      "outputs": [
        {
          "internalType": "uint96",
          "name": "",
          "type": "uint96"
        }
      ],
      "stateMutability": "view",
      "type": "function"
    },
    {
      "inputs": [
        {
          "internalType": "address",
          "name": "account",
          "type": "address"
        },
        {
          "internalType": "address",
          "name": "operator",
          "type": "address"
        }
      ],
      "name": "isApprovedForAll",
      "outputs": [
        {
          "internalType": "bool",
          "name": "",
          "type": "bool"
        }
      ],
      "stateMutability": "view",
      "type": "function"
    },
    {
      "inputs": [
        {
          "internalType": "address",
          "name": "to",
          "type": "address"
        },
        {
          "internalType": "uint256",
          "name": "id",
          "type": "uint256"
        },
        {
          "internalType": "uint256",
          "name": "amount",
          "type": "uint256"
        }
      ],
      "name": "mint",
      "outputs": [],
      "stateMutability": "nonpayable",
      "type": "function"
    },
    {
      "inputs": [
        {
          "internalType": "address",
          "name": "to",
          "type": "address"
        },
        {
          "internalType": "uint256[]",
          "name": "ids",
          "type": "uint256[]"
        },
        {
          "internalType": "uint256[]",
          "name": "amounts",
          "type": "uint256[]"
        }
      ],
      "name": "mintBatch",
      "outputs": [],
      "stateMutability": "nonpayable",
      "type": "function"
    },
    {
      "inputs": [
        {
          "internalType": "address",
          "name": "to",
          "type": "address"
        },
        {
          "internalType": "uint256[]",
          "name": "ids",
          "type": "uint256[]"
        },
        {
          "internalType": "uint256[]",
          "name": "amounts",
          "type": "uint256[]"
        }
      ],
      "name": "mintBatchWithNativeToken",
      "outputs": [],
      "stateMutability": "payable",
      "type": "function"
    },
    {
      "inputs": [
        {
          "internalType": "address",
          "name": "to",
          "type": "address"
        },
        {
          "internalType": "uint256",
          "name": "id",
          "type": "uint256"
        },
        {
          "internalType": "uint256",
          "name": "amount",
          "type": "uint256"
        }
      ],
      "name": "mintWithNativeToken",
      "outputs": [],
      "stateMutability": "payable",
      "type": "function"
    },
    {
      "inputs": [],
      "name": "nativeMintEnabled",
      "outputs": [
        {
          "internalType": "bool",
          "name": "",
          "type": "bool"
        }
      ],
      "stateMutability": "view",
      "type": "function"
    },
    {
      "inputs": [],
      "name": "owner",
      "outputs": [
        {
          "internalType": "address",
          "name": "",
          "type": "address"
        }
      ],
      "stateMutability": "view",
      "type": "function"
    },
    {
      "inputs": [],
      "name": "paymentToken",
      "outputs": [
        {
          "internalType": "contract IERC20",
          "name": "",
          "type": "address"
        }
      ],
      "stateMutability": "view",
      "type": "function"
    },
    {
      "inputs": [],
      "name": "renounceOwnership",
      "outputs": [],
      "stateMutability": "nonpayable",
      "type": "function"
    },
    {
      "inputs": [
        {
          "internalType": "uint256",
          "name": "tokenId",
          "type": "uint256"
        }
      ],
      "name": "resetTokenPrice",
      "outputs": [],
      "stateMutability": "nonpayable",
      "type": "function"
    },
    {
      "inputs": [
        {
          "internalType": "address",
          "name": "from",
          "type": "address"
        },
        {
          "internalType": "address",
          "name": "to",
          "type": "address"
        },
        {
          "internalType": "uint256[]",
          "name": "ids",
          "type": "uint256[]"
        },
        {
          "internalType": "uint256[]",
          "name": "amounts",
          "type": "uint256[]"
        },
        {
          "internalType": "bytes",
          "name": "data",
          "type": "bytes"
        }
      ],
      "name": "safeBatchTransferFrom",
      "outputs": [],
      "stateMutability": "nonpayable",
      "type": "function"
    },
    {
      "inputs": [
        {
          "internalType": "address",
          "name": "from",
          "type": "address"
        },
        {
          "internalType": "address",
          "name": "to",
          "type": "address"
        },
        {
          "internalType": "uint256",
          "name": "id",
          "type": "uint256"
        },
        {
          "internalType": "uint256",
          "name": "amount",
          "type": "uint256"
        },
        {
          "internalType": "bytes",
          "name": "data",
          "type": "bytes"
        }
      ],
      "name": "safeTransferFrom",
      "outputs": [],
      "stateMutability": "nonpayable",
      "type": "function"
    },
    {
      "inputs": [
        {
          "internalType": "address",
          "name": "operator",
          "type": "address"
        },
        {
          "internalType": "bool",
          "name": "approved",
          "type": "bool"
        }
      ],
      "name": "setApprovalForAll",
      "outputs": [],
      "stateMutability": "nonpayable",
      "type": "function"
    },
    {
      "inputs": [
        {
          "internalType": "string",
          "name": "_baseURI",
          "type": "string"
        }
      ],
      "name": "setBaseURI",
      "outputs": [],
      "stateMutability": "nonpayable",
      "type": "function"
    },
    {
      "inputs": [
        {
          "internalType": "uint256",
          "name": "price",
          "type": "uint256"
        }
      ],
      "name": "setDefaultPrice",
      "outputs": [],
      "stateMutability": "nonpayable",
      "type": "function"
    },
    {
      "inputs": [
        {
          "internalType": "bool",
          "name": "enabled",
          "type": "bool"
        }
      ],
      "name": "setNativeTokenMinting",
      "outputs": [],
      "stateMutability": "nonpayable",
      "type": "function"
    },
    {
      "inputs": [
        {
          "internalType": "contract IERC20",
          "name": "newPaymentToken",
          "type": "address"
        }
      ],
      "name": "setPaymentToken",
      "outputs": [],
      "stateMutability": "nonpayable",
      "type": "function"
    },
    {
      "inputs": [
        {
          "internalType": "uint256",
          "name": "tokenId",
          "type": "uint256"
        },
        {
          "internalType": "uint256",
          "name": "price",
          "type": "uint256"
        }
      ],
      "name": "setTokenPrice",
      "outputs": [],
      "stateMutability": "nonpayable",
      "type": "function"
    },
    {
      "inputs": [
        {
          "internalType": "uint256",
          "name": "tokenId",
          "type": "uint256"
        },
        {
          "internalType": "string",
          "name": "tokenURI",
          "type": "string"
        }
      ],
      "name": "setTokenURI",
      "outputs": [],
      "stateMutability": "nonpayable",
      "type": "function"
    },
    {
      "inputs": [
        {
          "internalType": "bytes4",
          "name": "interfaceId",
          "type": "bytes4"
        }
      ],
      "name": "supportsInterface",
      "outputs": [
        {
          "internalType": "bool",
          "name": "",
          "type": "bool"
        }
      ],
      "stateMutability": "view",
      "type": "function"
    },
    {
      "inputs": [
        {
          "internalType": "uint256",
          "name": "",
          "type": "uint256"
        }
      ],
      "name": "tokenPrice",
      "outputs": [
        {
          "internalType": "uint256",
          "name": "",
          "type": "uint256"
        }
      ],
      "stateMutability": "view",
      "type": "function"
    },
    {
      "inputs": [
        {
          "internalType": "address",
          "name": "newOwner",
          "type": "address"
        }
      ],
      "name": "transferOwnership",
      "outputs": [],
      "stateMutability": "nonpayable",
      "type": "function"
    },
    {
      "inputs": [
        {
          "internalType": "uint256",
          "name": "tokenId",
          "type": "uint256"
        }
      ],
      "name": "uri",
      "outputs": [
        {
          "internalType": "string",
          "name": "",
          "type": "string"
        }
      ],
      "stateMutability": "view",
      "type": "function"
    },
    {
      "inputs": [],
      "name": "withdrawNativeToken",
      "outputs": [],
      "stateMutability": "payable",
      "type": "function"
    },
    {
      "inputs": [],
      "name": "withdrawTokens",
      "outputs": [],
      "stateMutability": "nonpayable",
      "type": "function"
    }
  ],
  "bytecode": "0x60a0604052600060809081526004906200001a9082620001d9565b50600a80546001600160601b03191690553480156200003857600080fd5b5060405162003c1038038062003c108339810160408190526200005b91620002c2565b836200006781620000d0565b506200007333620000e2565b6008620000818582620001d9565b5060068054600992909255600780546001600160a01b0319166001600160a01b039485161790556001600160a81b0319909116610100939092169290920260ff191617600117905550620003c4565b6002620000de8282620001d9565b5050565b600380546001600160a01b038381166001600160a01b0319831681179093556040519116919082907f8be0079c531659141344cd1fd0a4f28419497f9722a3daafe3b4186f6b6457e090600090a35050565b634e487b7160e01b600052604160045260246000fd5b600181811c908216806200015f57607f821691505b6020821081036200018057634e487b7160e01b600052602260045260246000fd5b50919050565b601f821115620001d457600081815260208120601f850160051c81016020861015620001af5750805b601f850160051c820191505b81811015620001d057828155600101620001bb565b5050505b505050565b81516001600160401b03811115620001f557620001f562000134565b6200020d816200020684546200014a565b8462000186565b602080601f8311600181146200024557600084156200022c5750858301515b600019600386901b1c1916600185901b178555620001d0565b600085815260208120601f198616915b82811015620002765788860151825594840194600190910190840162000255565b5085821015620002955787850151600019600388901b60f8161c191681555b5050505050600190811b01905550565b80516001600160a01b0381168114620002bd57600080fd5b919050565b60008060008060808587031215620002d957600080fd5b84516001600160401b0380821115620002f157600080fd5b818701915087601f8301126200030657600080fd5b8151818111156200031b576200031b62000134565b604051601f8201601f19908116603f0116810190838211818310171562000346576200034662000134565b81604052828152602093508a848487010111156200036357600080fd5b600091505b8282101562000387578482018401518183018501529083019062000368565b6000848483010152809850505050620003a2818801620002a5565b94505050620003b460408601620002a5565b6060959095015193969295505050565b61383c80620003d46000396000f3fe6080604052600436106102185760003560e01c80636b20c4541161011d578063a22cb465116100b0578063eb685c471161007f578063f2fde38b11610064578063f2fde38b14610642578063f5298aca14610662578063fc5abac11461068257600080fd5b8063eb685c4714610602578063f242432a1461062257600080fd5b8063a22cb4651461054c578063d4ddce8a1461056c578063d81d0a1514610599578063e985e9c5146105b957600080fd5b80638c7a63ae116100ec5780638c7a63ae146104cb5780638ce26108146104f95780638d8f2adb146105195780638da5cb5b1461052e57600080fd5b80636b20c454146104635780636d3c7ec514610483578063715018a6146104a357806388a9d554146104b857600080fd5b806326a1809b116101b05780634e1273f41161017f5780635a18664c116101645780635a18664c146104285780635a8f7b86146104305780636a326ab11461044357600080fd5b80634e1273f4146103db57806355f804b31461040857600080fd5b806326a1809b146103315780632eb2c2d61461035e5780633013ce291461037e57806337210b8f146103bb57600080fd5b806312065fe0116101ec57806312065fe0146102c7578063156e29f6146102dc57806315f8a01a146102fe578063162094c41461031157600080fd5b8062fdd58e1461021d57806301ffc9a7146102505780630b70ede5146102805780630e89341c1461029a575b600080fd5b34801561022957600080fd5b5061023d610238366004612d6c565b6106a2565b6040519081526020015b60405180910390f35b34801561025c57600080fd5b5061027061026b366004612dae565b61074e565b6040519015158152602001610247565b34801561028c57600080fd5b506006546102709060ff1681565b3480156102a657600080fd5b506102ba6102b5366004612dcb565b6107e9565b6040516102479190612e34565b3480156102d357600080fd5b5061023d6107f4565b3480156102e857600080fd5b506102fc6102f7366004612e47565b61086b565b005b6102fc61030c366004612f54565b610a9f565b34801561031d57600080fd5b506102fc61032c36600461303e565b610e07565b34801561033d57600080fd5b50600a546040516bffffffffffffffffffffffff9091168152602001610247565b34801561036a57600080fd5b506102fc610379366004613085565b610e1d565b34801561038a57600080fd5b506006546103a39061010090046001600160a01b031681565b6040516001600160a01b039091168152602001610247565b3480156103c757600080fd5b506102fc6103d6366004613141565b610ea9565b3480156103e757600080fd5b506103fb6103f636600461315e565b610ec4565b604051610247919061325c565b34801561041457600080fd5b506102fc61042336600461326f565b611002565b6102fc611016565b6102fc61043e366004612e47565b6110d2565b34801561044f57600080fd5b506102fc61045e3660046132a4565b611241565b34801561046f57600080fd5b506102fc61047e366004612f54565b611288565b34801561048f57600080fd5b506102fc61049e366004612dcb565b611317565b3480156104af57600080fd5b506102fc611324565b3480156104c457600080fd5b504761023d565b3480156104d757600080fd5b506104eb6104e6366004612dcb565b611338565b6040516102479291906132c1565b34801561050557600080fd5b506102fc61051436600461326f565b61137e565b34801561052557600080fd5b506102fc6113d8565b34801561053a57600080fd5b506003546001600160a01b03166103a3565b34801561055857600080fd5b506102fc6105673660046132da565b611487565b34801561057857600080fd5b5061023d610587366004612dcb565b600b6020526000908152604090205481565b3480156105a557600080fd5b506102fc6105b4366004612f54565b611492565b3480156105c557600080fd5b506102706105d4366004613313565b6001600160a01b03918216600090815260016020908152604080832093909416825291909152205460ff1690565b34801561060e57600080fd5b506102fc61061d366004613341565b6116a5565b34801561062e57600080fd5b506102fc61063d366004613363565b61170f565b34801561064e57600080fd5b506102fc61065d3660046132a4565b61179b565b34801561066e57600080fd5b506102fc61067d366004612e47565b611828565b34801561068e57600080fd5b506102fc61069d366004612dcb565b6118b2565b60006001600160a01b0383166107255760405162461bcd60e51b815260206004820152602a60248201527f455243313135353a2061646472657373207a65726f206973206e6f742061207660448201527f616c6964206f776e65720000000000000000000000000000000000000000000060648201526084015b60405180910390fd5b506000818152602081815260408083206001600160a01b03861684529091529020545b92915050565b60006001600160e01b031982167fd9b67a260000000000000000000000000000000000000000000000000000000014806107b157506001600160e01b031982167f0e89341c00000000000000000000000000000000000000000000000000000000145b8061074857507f01ffc9a7000000000000000000000000000000000000000000000000000000006001600160e01b0319831614610748565b6060610748826118cb565b6006546040516370a0823160e01b815230600482015260009161010090046001600160a01b0316906370a0823190602401602060405180830381865afa158015610842573d6000803e3d6000fd5b505050506040513d601f19601f8201168201806040525081019061086691906133cc565b905090565b60065460ff16156108be5760405162461bcd60e51b815260206004820152601e60248201527f43616e206f6e6c79206d696e74207769746820455243323020746f6b656e0000604482015260640161071c565b600081116109035760405162461bcd60e51b81526020600482015260126024820152710416d6f756e742063616e6e6f7420626520360741b604482015260640161071c565b600a5460009081906bffffffffffffffffffffffff1684111561093c5760405163cfe3beb960e01b81526004810185905260240161071c565b6003546001600160a01b031633146109fb576000848152600b60205260409020541561097857506000838152600b60205260409020548061097e565b50600954805b5061098981846119ab565b6006549092506109a99061010090046001600160a01b03163330856119b7565b604080516001600160a01b038716815260208101869052908101849052606081018390527fb4c03061fb5b7fed76389d5af8f2e0ddb09f8c70d1333abbb62582835e10accb9060800160405180910390a15b6007546001600160a01b03166340c10f1986610a1f86670de0b6b3a76400006119ab565b6040516001600160e01b031960e085901b1681526001600160a01b0390921660048301526024820152604401600060405180830381600087803b158015610a6557600080fd5b505af1158015610a79573d6000803e3d6000fd5b50505050610a9885858560405180602001604052806000815250611a56565b5050505050565b60065460ff16610af15760405162461bcd60e51b815260206004820152601f60248201527f43616e206f6e6c79206d696e742077697468206e617469766520746f6b656e00604482015260640161071c565b600080610b066003546001600160a01b031690565b6001600160a01b0316336001600160a01b031614610d6a5760005b8451811015610cce576000848281518110610b3e57610b3e6133e5565b602002602001015111610b885760405162461bcd60e51b81526020600482015260126024820152710416d6f756e742063616e6e6f7420626520360741b604482015260640161071c565b600a5485516bffffffffffffffffffffffff90911690869083908110610bb057610bb06133e5565b60200260200101511115610bf457848181518110610bd057610bd06133e5565b602002602001015160405163cfe3beb960e01b815260040161071c91815260200190565b6000600b6000878481518110610c0c57610c0c6133e5565b6020026020010151815260200190815260200160002054600014610c5f57600b6000878481518110610c4057610c406133e5565b6020026020010151815260200190815260200160002054905080610c65565b50600954805b50610c92858381518110610c7b57610c7b6133e5565b6020026020010151826119ab90919063ffffffff16565b610c9c9085613411565b9350848281518110610cb057610cb06133e5565b602002602001015183610cc39190613411565b925050600101610b21565b5081341015610d1f5760405162461bcd60e51b815260206004820152601360248201527f496e73756666696369656e742066756e64732100000000000000000000000000604482015260640161071c565b604080516001600160a01b0387168152602081018390529081018390527f6941bbed9891bfb7a243f6a1aa237a060996652ebf3e8f33bb36a0022e60dfbf9060600160405180910390a15b6007546001600160a01b03166340c10f1986610d8e84670de0b6b3a76400006119ab565b6040516001600160e01b031960e085901b1681526001600160a01b0390921660048301526024820152604401600060405180830381600087803b158015610dd457600080fd5b505af1158015610de8573d6000803e3d6000fd5b50505050610a9885858560405180602001604052806000815250611b6a565b610e0f611d30565b610e198282611d8a565b5050565b6001600160a01b038516331480610e395750610e3985336105d4565b610e9c5760405162461bcd60e51b815260206004820152602e60248201527f455243313135353a2063616c6c6572206973206e6f7420746f6b656e206f776e60448201526d195c881bdc88185c1c1c9bdd995960921b606482015260840161071c565b610a988585858585611de7565b610eb1611d30565b6006805460ff1916911515919091179055565b60608151835114610f3d5760405162461bcd60e51b815260206004820152602960248201527f455243313135353a206163636f756e747320616e6420696473206c656e67746860448201527f206d69736d617463680000000000000000000000000000000000000000000000606482015260840161071c565b6000835167ffffffffffffffff811115610f5957610f59612e7c565b604051908082528060200260200182016040528015610f82578160200160208202803683370190505b50905060005b8451811015610ffa57610fcd858281518110610fa657610fa66133e5565b6020026020010151858381518110610fc057610fc06133e5565b60200260200101516106a2565b828281518110610fdf57610fdf6133e5565b6020908102919091010152610ff381613424565b9050610f88565b509392505050565b61100a611d30565b61101381612045565b50565b61101e611d30565b60006110326003546001600160a01b031690565b6001600160a01b03164760405160006040518083038185875af1925050503d806000811461107c576040519150601f19603f3d011682016040523d82523d6000602084013e611081565b606091505b50509050806110135760405162461bcd60e51b815260206004820152601460248201527f4661696c656420746f2073656e64204574686572000000000000000000000000604482015260640161071c565b60065460ff166111245760405162461bcd60e51b815260206004820152601f60248201527f43616e206f6e6c79206d696e742077697468206e617469766520746f6b656e00604482015260640161071c565b600081116111695760405162461bcd60e51b81526020600482015260126024820152710416d6f756e742063616e6e6f7420626520360741b604482015260640161071c565b600a5460009081906bffffffffffffffffffffffff168411156111a25760405163cfe3beb960e01b81526004810185905260240161071c565b6003546001600160a01b031633146109fb576000848152600b6020526040902054156111de57506000838152600b6020526040902054806111e4565b50600954805b506111ef81846119ab565b9150813410156109a95760405162461bcd60e51b815260206004820152601360248201527f496e73756666696369656e742066756e64732100000000000000000000000000604482015260640161071c565b611249611d30565b600680546001600160a01b03909216610100027fffffffffffffffffffffff0000000000000000000000000000000000000000ff909216919091179055565b6001600160a01b0383163314806112a457506112a483336105d4565b6113075760405162461bcd60e51b815260206004820152602e60248201527f455243313135353a2063616c6c6572206973206e6f7420746f6b656e206f776e60448201526d195c881bdc88185c1c1c9bdd995960921b606482015260840161071c565b611312838383612051565b505050565b61131f611d30565b600955565b61132c611d30565b6113366000612294565b565b6000818152600b602052604081205460609015611366576000838152600b602052604090205491508161136d565b6009549150815b50611377836107e9565b9050915091565b611386611d30565b600a80546bffffffffffffffffffffffff169060006113a48361343d565b82546101009290920a6bffffffffffffffffffffffff818102199093169183160217909155600a5461101392501682611d8a565b6113e0611d30565b6006546040516370a0823160e01b815230600482015260009161010090046001600160a01b0316906370a0823190602401602060405180830381865afa15801561142e573d6000803e3d6000fd5b505050506040513d601f19601f8201168201806040525081019061145291906133cc565b905080156110135761101361146f6003546001600160a01b031690565b60065461010090046001600160a01b031690836122fe565b610e19338383612347565b60065460ff16156114e55760405162461bcd60e51b815260206004820152601e60248201527f43616e206f6e6c79206d696e74207769746820455243323020746f6b656e0000604482015260640161071c565b6000806114fa6003546001600160a01b031690565b6001600160a01b0316336001600160a01b031614610d6a5760005b8451811015611687576000848281518110611532576115326133e5565b60200260200101511161157c5760405162461bcd60e51b81526020600482015260126024820152710416d6f756e742063616e6e6f7420626520360741b604482015260640161071c565b600a5485516bffffffffffffffffffffffff909116908690839081106115a4576115a46133e5565b602002602001015111156115c457848181518110610bd057610bd06133e5565b6000600b60008784815181106115dc576115dc6133e5565b602002602001015181526020019081526020016000205460001461162f57600b6000878481518110611610576116106133e5565b6020026020010151815260200190815260200160002054905080611635565b50600954805b5061164b858381518110610c7b57610c7b6133e5565b6116559085613411565b9350848281518110611669576116696133e5565b60200260200101518361167c9190613411565b925050600101611515565b50600654610d1f9061010090046001600160a01b03163330856119b7565b6116ad611d30565b806000036116fd5760405162461bcd60e51b815260206004820152601560248201527f63616e6e6f742073657420707269636520746f20300000000000000000000000604482015260640161071c565b6000918252600b602052604090912055565b6001600160a01b03851633148061172b575061172b85336105d4565b61178e5760405162461bcd60e51b815260206004820152602e60248201527f455243313135353a2063616c6c6572206973206e6f7420746f6b656e206f776e60448201526d195c881bdc88185c1c1c9bdd995960921b606482015260840161071c565b610a98858585858561243b565b6117a3611d30565b6001600160a01b03811661181f5760405162461bcd60e51b815260206004820152602660248201527f4f776e61626c653a206e6577206f776e657220697320746865207a65726f206160448201527f6464726573730000000000000000000000000000000000000000000000000000606482015260840161071c565b61101381612294565b6001600160a01b038316331480611844575061184483336105d4565b6118a75760405162461bcd60e51b815260206004820152602e60248201527f455243313135353a2063616c6c6572206973206e6f7420746f6b656e206f776e60448201526d195c881bdc88185c1c1c9bdd995960921b606482015260840161071c565b6113128383836125e6565b6118ba611d30565b6000908152600b6020526040812055565b6000818152600560205260408120805460609291906118e990613468565b80601f016020809104026020016040519081016040528092919081815260200182805461191590613468565b80156119625780601f1061193757610100808354040283529160200191611962565b820191906000526020600020905b81548152906001019060200180831161194557829003601f168201915b5050505050905060008151116119805761197b83612762565b6119a4565b6004816040516020016119949291906134a2565b6040516020818303038152906040525b9392505050565b60006119a48284613529565b6040516001600160a01b0380851660248301528316604482015260648101829052611a509085907f23b872dd00000000000000000000000000000000000000000000000000000000906084015b60408051601f198184030181529190526020810180517bffffffffffffffffffffffffffffffffffffffffffffffffffffffff166001600160e01b0319909316929092179091526127f6565b50505050565b6001600160a01b038416611ab65760405162461bcd60e51b815260206004820152602160248201527f455243313135353a206d696e7420746f20746865207a65726f206164647265736044820152607360f81b606482015260840161071c565b336000611ac2856128de565b90506000611acf856128de565b90506000868152602081815260408083206001600160a01b038b16845290915281208054879290611b01908490613411565b909155505060408051878152602081018790526001600160a01b03808a1692600092918716917fc3d58168c5ae7397731d063d5bbf3d657854427343f4c083240f7aacaa2d0f62910160405180910390a4611b6183600089898989612929565b50505050505050565b6001600160a01b038416611bca5760405162461bcd60e51b815260206004820152602160248201527f455243313135353a206d696e7420746f20746865207a65726f206164647265736044820152607360f81b606482015260840161071c565b8151835114611c2c5760405162461bcd60e51b815260206004820152602860248201527f455243313135353a2069647320616e6420616d6f756e7473206c656e677468206044820152670dad2e6dac2e8c6d60c31b606482015260840161071c565b3360005b8451811015611cc857838181518110611c4b57611c4b6133e5565b6020026020010151600080878481518110611c6857611c686133e5565b602002602001015181526020019081526020016000206000886001600160a01b03166001600160a01b031681526020019081526020016000206000828254611cb09190613411565b90915550819050611cc081613424565b915050611c30565b50846001600160a01b031660006001600160a01b0316826001600160a01b03167f4a39dc06d4c0dbc64b70af90fd698a233a518aa5d07e595d983b8c0526c8f7fb8787604051611d19929190613540565b60405180910390a4610a9881600087878787612ace565b6003546001600160a01b031633146113365760405162461bcd60e51b815260206004820181905260248201527f4f776e61626c653a2063616c6c6572206973206e6f7420746865206f776e6572604482015260640161071c565b6000828152600560205260409020611da282826135b4565b50817f6bb7ff708619ba0610cba295a58592e0451dee2622938c8755667688daf3529b611dce846107e9565b604051611ddb9190612e34565b60405180910390a25050565b8151835114611e495760405162461bcd60e51b815260206004820152602860248201527f455243313135353a2069647320616e6420616d6f756e7473206c656e677468206044820152670dad2e6dac2e8c6d60c31b606482015260840161071c565b6001600160a01b038416611ead5760405162461bcd60e51b815260206004820152602560248201527f455243313135353a207472616e7366657220746f20746865207a65726f206164604482015264647265737360d81b606482015260840161071c565b3360005b8451811015611fd7576000858281518110611ece57611ece6133e5565b602002602001015190506000858381518110611eec57611eec6133e5565b602090810291909101810151600084815280835260408082206001600160a01b038e168352909352919091205490915081811015611f7f5760405162461bcd60e51b815260206004820152602a60248201527f455243313135353a20696e73756666696369656e742062616c616e636520666f60448201526939103a3930b739b332b960b11b606482015260840161071c565b6000838152602081815260408083206001600160a01b038e8116855292528083208585039055908b16825281208054849290611fbc908490613411565b9250508190555050505080611fd090613424565b9050611eb1565b50846001600160a01b0316866001600160a01b0316826001600160a01b03167f4a39dc06d4c0dbc64b70af90fd698a233a518aa5d07e595d983b8c0526c8f7fb8787604051612027929190613540565b60405180910390a461203d818787878787612ace565b505050505050565b6004610e1982826135b4565b6001600160a01b0383166120b35760405162461bcd60e51b815260206004820152602360248201527f455243313135353a206275726e2066726f6d20746865207a65726f206164647260448201526265737360e81b606482015260840161071c565b80518251146121155760405162461bcd60e51b815260206004820152602860248201527f455243313135353a2069647320616e6420616d6f756e7473206c656e677468206044820152670dad2e6dac2e8c6d60c31b606482015260840161071c565b604080516020810190915260009081905233905b8351811015612227576000848281518110612146576121466133e5565b602002602001015190506000848381518110612164576121646133e5565b602090810291909101810151600084815280835260408082206001600160a01b038c1683529093529190912054909150818110156121f05760405162461bcd60e51b8152602060048201526024808201527f455243313135353a206275726e20616d6f756e7420657863656564732062616c604482015263616e636560e01b606482015260840161071c565b6000928352602083815260408085206001600160a01b038b168652909152909220910390558061221f81613424565b915050612129565b5060006001600160a01b0316846001600160a01b0316826001600160a01b03167f4a39dc06d4c0dbc64b70af90fd698a233a518aa5d07e595d983b8c0526c8f7fb8686604051612278929190613540565b60405180910390a4604080516020810190915260009052611a50565b600380546001600160a01b038381167fffffffffffffffffffffffff0000000000000000000000000000000000000000831681179093556040519116919082907f8be0079c531659141344cd1fd0a4f28419497f9722a3daafe3b4186f6b6457e090600090a35050565b6040516001600160a01b0383166024820152604481018290526113129084907fa9059cbb0000000000000000000000000000000000000000000000000000000090606401611a04565b816001600160a01b0316836001600160a01b0316036123ce5760405162461bcd60e51b815260206004820152602960248201527f455243313135353a2073657474696e6720617070726f76616c2073746174757360448201527f20666f722073656c660000000000000000000000000000000000000000000000606482015260840161071c565b6001600160a01b03838116600081815260016020908152604080832094871680845294825291829020805460ff191686151590811790915591519182527f17307eab39ab6107e8899845ad3d59bd9653f200f220920489ca2b5937696c31910160405180910390a3505050565b6001600160a01b03841661249f5760405162461bcd60e51b815260206004820152602560248201527f455243313135353a207472616e7366657220746f20746865207a65726f206164604482015264647265737360d81b606482015260840161071c565b3360006124ab856128de565b905060006124b8856128de565b90506000868152602081815260408083206001600160a01b038c1684529091529020548581101561253e5760405162461bcd60e51b815260206004820152602a60248201527f455243313135353a20696e73756666696369656e742062616c616e636520666f60448201526939103a3930b739b332b960b11b606482015260840161071c565b6000878152602081815260408083206001600160a01b038d8116855292528083208985039055908a1682528120805488929061257b908490613411565b909155505060408051888152602081018890526001600160a01b03808b16928c821692918816917fc3d58168c5ae7397731d063d5bbf3d657854427343f4c083240f7aacaa2d0f62910160405180910390a46125db848a8a8a8a8a612929565b505050505050505050565b6001600160a01b0383166126485760405162461bcd60e51b815260206004820152602360248201527f455243313135353a206275726e2066726f6d20746865207a65726f206164647260448201526265737360e81b606482015260840161071c565b336000612654846128de565b90506000612661846128de565b60408051602080820183526000918290528882528181528282206001600160a01b038b16835290522054909150848110156126ea5760405162461bcd60e51b8152602060048201526024808201527f455243313135353a206275726e20616d6f756e7420657863656564732062616c604482015263616e636560e01b606482015260840161071c565b6000868152602081815260408083206001600160a01b038b81168086529184528285208a8703905582518b81529384018a90529092908816917fc3d58168c5ae7397731d063d5bbf3d657854427343f4c083240f7aacaa2d0f62910160405180910390a4604080516020810190915260009052611b61565b60606002805461277190613468565b80601f016020809104026020016040519081016040528092919081815260200182805461279d90613468565b80156127ea5780601f106127bf576101008083540402835291602001916127ea565b820191906000526020600020905b8154815290600101906020018083116127cd57829003601f168201915b50505050509050919050565b600061284b826040518060400160405280602081526020017f5361666545524332303a206c6f772d6c6576656c2063616c6c206661696c6564815250856001600160a01b0316612bca9092919063ffffffff16565b905080516000148061286c57508080602001905181019061286c9190613674565b6113125760405162461bcd60e51b815260206004820152602a60248201527f5361666545524332303a204552433230206f7065726174696f6e20646964206e60448201527f6f74207375636365656400000000000000000000000000000000000000000000606482015260840161071c565b60408051600180825281830190925260609160009190602080830190803683370190505090508281600081518110612918576129186133e5565b602090810291909101015292915050565b6001600160a01b0384163b1561203d5760405163f23a6e6160e01b81526001600160a01b0385169063f23a6e619061296d9089908990889088908890600401613691565b6020604051808303816000875af19250505080156129a8575060408051601f3d908101601f191682019092526129a5918101906136c9565b60015b612a5d576129b46136e6565b806308c379a0036129ed57506129c8613702565b806129d357506129ef565b8060405162461bcd60e51b815260040161071c9190612e34565b505b60405162461bcd60e51b815260206004820152603460248201527f455243313135353a207472616e7366657220746f206e6f6e2d4552433131353560448201527f526563656976657220696d706c656d656e746572000000000000000000000000606482015260840161071c565b6001600160e01b0319811663f23a6e6160e01b14611b615760405162461bcd60e51b815260206004820152602860248201527f455243313135353a204552433131353552656365697665722072656a656374656044820152676420746f6b656e7360c01b606482015260840161071c565b6001600160a01b0384163b1561203d5760405163bc197c8160e01b81526001600160a01b0385169063bc197c8190612b12908990899088908890889060040161378c565b6020604051808303816000875af1925050508015612b4d575060408051601f3d908101601f19168201909252612b4a918101906136c9565b60015b612b59576129b46136e6565b6001600160e01b0319811663bc197c8160e01b14611b615760405162461bcd60e51b815260206004820152602860248201527f455243313135353a204552433131353552656365697665722072656a656374656044820152676420746f6b656e7360c01b606482015260840161071c565b6060612bd98484600085612be1565b949350505050565b606082471015612c595760405162461bcd60e51b815260206004820152602660248201527f416464726573733a20696e73756666696369656e742062616c616e636520666f60448201527f722063616c6c0000000000000000000000000000000000000000000000000000606482015260840161071c565b600080866001600160a01b03168587604051612c7591906137ea565b60006040518083038185875af1925050503d8060008114612cb2576040519150601f19603f3d011682016040523d82523d6000602084013e612cb7565b606091505b5091509150612cc887838387612cd3565b979650505050505050565b60608315612d42578251600003612d3b576001600160a01b0385163b612d3b5760405162461bcd60e51b815260206004820152601d60248201527f416464726573733a2063616c6c20746f206e6f6e2d636f6e7472616374000000604482015260640161071c565b5081612bd9565b612bd983838151156129d35781518083602001fd5b6001600160a01b038116811461101357600080fd5b60008060408385031215612d7f57600080fd5b8235612d8a81612d57565b946020939093013593505050565b6001600160e01b03198116811461101357600080fd5b600060208284031215612dc057600080fd5b81356119a481612d98565b600060208284031215612ddd57600080fd5b5035919050565b60005b83811015612dff578181015183820152602001612de7565b50506000910152565b60008151808452612e20816020860160208601612de4565b601f01601f19169290920160200192915050565b6020815260006119a46020830184612e08565b600080600060608486031215612e5c57600080fd5b8335612e6781612d57565b95602085013595506040909401359392505050565b634e487b7160e01b600052604160045260246000fd5b601f8201601f1916810167ffffffffffffffff81118282101715612eb857612eb8612e7c565b6040525050565b600067ffffffffffffffff821115612ed957612ed9612e7c565b5060051b60200190565b600082601f830112612ef457600080fd5b81356020612f0182612ebf565b604051612f0e8282612e92565b83815260059390931b8501820192828101915086841115612f2e57600080fd5b8286015b84811015612f495780358352918301918301612f32565b509695505050505050565b600080600060608486031215612f6957600080fd5b8335612f7481612d57565b9250602084013567ffffffffffffffff80821115612f9157600080fd5b612f9d87838801612ee3565b93506040860135915080821115612fb357600080fd5b50612fc086828701612ee3565b9150509250925092565b600082601f830112612fdb57600080fd5b813567ffffffffffffffff811115612ff557612ff5612e7c565b60405161300c601f8301601f191660200182612e92565b81815284602083860101111561302157600080fd5b816020850160208301376000918101602001919091529392505050565b6000806040838503121561305157600080fd5b82359150602083013567ffffffffffffffff81111561306f57600080fd5b61307b85828601612fca565b9150509250929050565b600080600080600060a0868803121561309d57600080fd5b85356130a881612d57565b945060208601356130b881612d57565b9350604086013567ffffffffffffffff808211156130d557600080fd5b6130e189838a01612ee3565b945060608801359150808211156130f757600080fd5b61310389838a01612ee3565b9350608088013591508082111561311957600080fd5b5061312688828901612fca565b9150509295509295909350565b801515811461101357600080fd5b60006020828403121561315357600080fd5b81356119a481613133565b6000806040838503121561317157600080fd5b823567ffffffffffffffff8082111561318957600080fd5b818501915085601f83011261319d57600080fd5b813560206131aa82612ebf565b6040516131b78282612e92565b83815260059390931b85018201928281019150898411156131d757600080fd5b948201945b838610156131fe5785356131ef81612d57565b825294820194908201906131dc565b9650508601359250508082111561321457600080fd5b5061307b85828601612ee3565b600081518084526020808501945080840160005b8381101561325157815187529582019590820190600101613235565b509495945050505050565b6020815260006119a46020830184613221565b60006020828403121561328157600080fd5b813567ffffffffffffffff81111561329857600080fd5b612bd984828501612fca565b6000602082840312156132b657600080fd5b81356119a481612d57565b828152604060208201526000612bd96040830184612e08565b600080604083850312156132ed57600080fd5b82356132f881612d57565b9150602083013561330881613133565b809150509250929050565b6000806040838503121561332657600080fd5b823561333181612d57565b9150602083013561330881612d57565b6000806040838503121561335457600080fd5b50508035926020909101359150565b600080600080600060a0868803121561337b57600080fd5b853561338681612d57565b9450602086013561339681612d57565b93506040860135925060608601359150608086013567ffffffffffffffff8111156133c057600080fd5b61312688828901612fca565b6000602082840312156133de57600080fd5b5051919050565b634e487b7160e01b600052603260045260246000fd5b634e487b7160e01b600052601160045260246000fd5b80820180821115610748576107486133fb565b600060018201613436576134366133fb565b5060010190565b60006bffffffffffffffffffffffff80831681810361345e5761345e6133fb565b6001019392505050565b600181811c9082168061347c57607f821691505b60208210810361349c57634e487b7160e01b600052602260045260246000fd5b50919050565b60008084546134b081613468565b600182811680156134c857600181146134dd5761350c565b60ff198416875282151583028701945061350c565b8860005260208060002060005b858110156135035781548a8201529084019082016134ea565b50505082870194505b505050508351613520818360208801612de4565b01949350505050565b8082028115828204841417610748576107486133fb565b6040815260006135536040830185613221565b82810360208401526135658185613221565b95945050505050565b601f82111561131257600081815260208120601f850160051c810160208610156135955750805b601f850160051c820191505b8181101561203d578281556001016135a1565b815167ffffffffffffffff8111156135ce576135ce612e7c565b6135e2816135dc8454613468565b8461356e565b602080601f83116001811461361757600084156135ff5750858301515b600019600386901b1c1916600185901b17855561203d565b600085815260208120601f198616915b8281101561364657888601518255948401946001909101908401613627565b50858210156136645787850151600019600388901b60f8161c191681555b5050505050600190811b01905550565b60006020828403121561368657600080fd5b81516119a481613133565b60006001600160a01b03808816835280871660208401525084604083015283606083015260a06080830152612cc860a0830184612e08565b6000602082840312156136db57600080fd5b81516119a481612d98565b600060033d11156136ff5760046000803e5060005160e01c5b90565b600060443d10156137105790565b6040516003193d81016004833e81513d67ffffffffffffffff816024840111818411171561374057505050505090565b82850191508151818111156137585750505050505090565b843d87010160208285010111156137725750505050505090565b61378160208286010187612e92565b509095945050505050565b60006001600160a01b03808816835280871660208401525060a060408301526137b860a0830186613221565b82810360608401526137ca8186613221565b905082810360808401526137de8185612e08565b98975050505050505050565b600082516137fc818460208701612de4565b919091019291505056fea264697066735822122076232004534210b2fd6d24f02db30bb5d3bb5fc43a9ef0ac8b5dcf5305ff0ef964736f6c63430008110033",
  "linkReferences": {},
  "deployedLinkReferences": {}
}