{
  "_format": "hh-sol-artifact-1",
  "contractName": "MitchMinter",
  "sourceName": "contracts/MitchMinterSupply.sol",
  "abi": [
    {
      "inputs": [
        {
          "internalType": "string",
          "name": "_baseURI",
          "type": "string"
        },
        {
          "internalType": "contract IERC20",
          "name": "_paymentToken",
          "type": "address"
        },
        {
          "internalType": "address",
          "name": "_mitchToken",
          "type": "address"
        },
        {
          "internalType": "uint256",
          "name": "_defaultPrice",
          "type": "uint256"
        }
      ],
      "stateMutability": "nonpayable",
      "type": "constructor"
    },
    {
      "inputs": [
        {
          "internalType": "uint256",
          "name": "tokenId",
          "type": "uint256"
        }
      ],
      "name": "NoTokenExists",
      "type": "error"
    },
    {
      "anonymous": false,
      "inputs": [
        {
          "indexed": true,
          "internalType": "address",
          "name": "account",
          "type": "address"
        },
        {
          "indexed": true,
          "internalType": "address",
          "name": "operator",
          "type": "address"
        },
        {
          "indexed": false,
          "internalType": "bool",
          "name": "approved",
          "type": "bool"
        }
      ],
      "name": "ApprovalForAll",
      "type": "event"
    },
    {
      "anonymous": false,
      "inputs": [
        {
          "indexed": false,
          "internalType": "address",
          "name": "recipient",
          "type": "address"
        },
        {
          "indexed": false,
          "internalType": "uint256",
          "name": "tokenId",
          "type": "uint256"
        },
        {
          "indexed": false,
          "internalType": "uint256",
          "name": "amount",
          "type": "uint256"
        },
        {
          "indexed": false,
          "internalType": "uint256",
          "name": "totalPrice",
          "type": "uint256"
        }
      ],
      "name": "Mint",
      "type": "event"
    },
    {
      "anonymous": false,
      "inputs": [
        {
          "indexed": false,
          "internalType": "address",
          "name": "recipient",
          "type": "address"
        },
        {
          "indexed": false,
          "internalType": "uint256",
          "name": "totalAmounts",
          "type": "uint256"
        },
        {
          "indexed": false,
          "internalType": "uint256",
          "name": "finalPrice",
          "type": "uint256"
        }
      ],
      "name": "MintBatch",
      "type": "event"
    },
    {
      "anonymous": false,
      "inputs": [
        {
          "indexed": true,
          "internalType": "address",
          "name": "previousOwner",
          "type": "address"
        },
        {
          "indexed": true,
          "internalType": "address",
          "name": "newOwner",
          "type": "address"
        }
      ],
      "name": "OwnershipTransferred",
      "type": "event"
    },
    {
      "anonymous": false,
      "inputs": [
        {
          "indexed": true,
          "internalType": "address",
          "name": "operator",
          "type": "address"
        },
        {
          "indexed": true,
          "internalType": "address",
          "name": "from",
          "type": "address"
        },
        {
          "indexed": true,
          "internalType": "address",
          "name": "to",
          "type": "address"
        },
        {
          "indexed": false,
          "internalType": "uint256[]",
          "name": "ids",
          "type": "uint256[]"
        },
        {
          "indexed": false,
          "internalType": "uint256[]",
          "name": "values",
          "type": "uint256[]"
        }
      ],
      "name": "TransferBatch",
      "type": "event"
    },
    {
      "anonymous": false,
      "inputs": [
        {
          "indexed": true,
          "internalType": "address",
          "name": "operator",
          "type": "address"
        },
        {
          "indexed": true,
          "internalType": "address",
          "name": "from",
          "type": "address"
        },
        {
          "indexed": true,
          "internalType": "address",
          "name": "to",
          "type": "address"
        },
        {
          "indexed": false,
          "internalType": "uint256",
          "name": "id",
          "type": "uint256"
        },
        {
          "indexed": false,
          "internalType": "uint256",
          "name": "value",
          "type": "uint256"
        }
      ],
      "name": "TransferSingle",
      "type": "event"
    },
    {
      "anonymous": false,
      "inputs": [
        {
          "indexed": false,
          "internalType": "string",
          "name": "value",
          "type": "string"
        },
        {
          "indexed": true,
          "internalType": "uint256",
          "name": "id",
          "type": "uint256"
        }
      ],
      "name": "URI",
      "type": "event"
    },
    {
      "anonymous": false,
      "inputs": [
        {
          "indexed": false,
          "internalType": "address",
          "name": "recipient",
          "type": "address"
        },
        {
          "indexed": false,
          "internalType": "uint256",
          "name": "amount",
          "type": "uint256"
        }
      ],
      "name": "Withdrawal",
      "type": "event"
    },
    {
      "inputs": [
        {
          "internalType": "string",
          "name": "tokenURI",
          "type": "string"
        },
        {
          "internalType": "uint256",
          "name": "maxSupply",
          "type": "uint256"
        }
      ],
      "name": "addToken",
      "outputs": [],
      "stateMutability": "nonpayable",
      "type": "function"
    },
    {
      "inputs": [
        {
          "internalType": "address",
          "name": "account",
          "type": "address"
        },
        {
          "internalType": "uint256",
          "name": "id",
          "type": "uint256"
        }
      ],
      "name": "balanceOf",
      "outputs": [
        {
          "internalType": "uint256",
          "name": "",
          "type": "uint256"
        }
      ],
      "stateMutability": "view",
      "type": "function"
    },
    {
      "inputs": [
        {
          "internalType": "address[]",
          "name": "accounts",
          "type": "address[]"
        },
        {
          "internalType": "uint256[]",
          "name": "ids",
          "type": "uint256[]"
        }
      ],
      "name": "balanceOfBatch",
      "outputs": [
        {
          "internalType": "uint256[]",
          "name": "",
          "type": "uint256[]"
        }
      ],
      "stateMutability": "view",
      "type": "function"
    },
    {
      "inputs": [
        {
          "internalType": "address",
          "name": "account",
          "type": "address"
        },
        {
          "internalType": "uint256",
          "name": "id",
          "type": "uint256"
        },
        {
          "internalType": "uint256",
          "name": "value",
          "type": "uint256"
        }
      ],
      "name": "burn",
      "outputs": [],
      "stateMutability": "nonpayable",
      "type": "function"
    },
    {
      "inputs": [
        {
          "internalType": "address",
          "name": "account",
          "type": "address"
        },
        {
          "internalType": "uint256[]",
          "name": "ids",
          "type": "uint256[]"
        },
        {
          "internalType": "uint256[]",
          "name": "values",
          "type": "uint256[]"
        }
      ],
      "name": "burnBatch",
      "outputs": [],
      "stateMutability": "nonpayable",
      "type": "function"
    },
    {
      "inputs": [
        {
          "internalType": "uint256",
          "name": "id",
          "type": "uint256"
        }
      ],
      "name": "exists",
      "outputs": [
        {
          "internalType": "bool",
          "name": "",
          "type": "bool"
        }
      ],
      "stateMutability": "view",
      "type": "function"
    },
    {
      "inputs": [
        {
          "internalType": "uint256",
          "name": "tokenId",
          "type": "uint256"
        }
      ],
      "name": "getTokenInfo",
      "outputs": [
        {
          "internalType": "uint256",
          "name": "price",
          "type": "uint256"
        },
        {
          "internalType": "string",
          "name": "tokenURI",
          "type": "string"
        }
      ],
      "stateMutability": "view",
      "type": "function"
    },
    {
      "inputs": [
        {
          "internalType": "address",
          "name": "account",
          "type": "address"
        },
        {
          "internalType": "address",
          "name": "operator",
          "type": "address"
        }
      ],
      "name": "isApprovedForAll",
      "outputs": [
        {
          "internalType": "bool",
          "name": "",
          "type": "bool"
        }
      ],
      "stateMutability": "view",
      "type": "function"
    },
    {
      "inputs": [
        {
          "internalType": "uint256",
          "name": "",
          "type": "uint256"
        }
      ],
      "name": "maxTokenSupply",
      "outputs": [
        {
          "internalType": "uint256",
          "name": "",
          "type": "uint256"
        }
      ],
      "stateMutability": "view",
      "type": "function"
    },
    {
      "inputs": [
        {
          "internalType": "address",
          "name": "to",
          "type": "address"
        },
        {
          "internalType": "uint256",
          "name": "id",
          "type": "uint256"
        },
        {
          "internalType": "uint256",
          "name": "amount",
          "type": "uint256"
        }
      ],
      "name": "mint",
      "outputs": [],
      "stateMutability": "nonpayable",
      "type": "function"
    },
    {
      "inputs": [
        {
          "internalType": "address",
          "name": "to",
          "type": "address"
        },
        {
          "internalType": "uint256[]",
          "name": "ids",
          "type": "uint256[]"
        },
        {
          "internalType": "uint256[]",
          "name": "amounts",
          "type": "uint256[]"
        }
      ],
      "name": "mintBatch",
      "outputs": [],
      "stateMutability": "nonpayable",
      "type": "function"
    },
    {
      "inputs": [
        {
          "internalType": "address",
          "name": "to",
          "type": "address"
        },
        {
          "internalType": "uint256[]",
          "name": "ids",
          "type": "uint256[]"
        },
        {
          "internalType": "uint256[]",
          "name": "amounts",
          "type": "uint256[]"
        }
      ],
      "name": "mintBatchWithNativeToken",
      "outputs": [],
      "stateMutability": "payable",
      "type": "function"
    },
    {
      "inputs": [
        {
          "internalType": "address",
          "name": "to",
          "type": "address"
        },
        {
          "internalType": "uint256",
          "name": "id",
          "type": "uint256"
        },
        {
          "internalType": "uint256",
          "name": "amount",
          "type": "uint256"
        }
      ],
      "name": "mintWithNativeToken",
      "outputs": [],
      "stateMutability": "payable",
      "type": "function"
    },
    {
      "inputs": [],
      "name": "mitchToken",
      "outputs": [
        {
          "internalType": "contract IMitchToken",
          "name": "",
          "type": "address"
        }
      ],
      "stateMutability": "view",
      "type": "function"
    },
    {
      "inputs": [],
      "name": "nativeMintEnabled",
      "outputs": [
        {
          "internalType": "bool",
          "name": "",
          "type": "bool"
        }
      ],
      "stateMutability": "view",
      "type": "function"
    },
    {
      "inputs": [],
      "name": "owner",
      "outputs": [
        {
          "internalType": "address",
          "name": "",
          "type": "address"
        }
      ],
      "stateMutability": "view",
      "type": "function"
    },
    {
      "inputs": [],
      "name": "paymentToken",
      "outputs": [
        {
          "internalType": "contract IERC20",
          "name": "",
          "type": "address"
        }
      ],
      "stateMutability": "view",
      "type": "function"
    },
    {
      "inputs": [],
      "name": "renounceOwnership",
      "outputs": [],
      "stateMutability": "nonpayable",
      "type": "function"
    },
    {
      "inputs": [
        {
          "internalType": "uint256",
          "name": "tokenId",
          "type": "uint256"
        }
      ],
      "name": "resetTokenPrice",
      "outputs": [],
      "stateMutability": "nonpayable",
      "type": "function"
    },
    {
      "inputs": [
        {
          "internalType": "address",
          "name": "from",
          "type": "address"
        },
        {
          "internalType": "address",
          "name": "to",
          "type": "address"
        },
        {
          "internalType": "uint256[]",
          "name": "ids",
          "type": "uint256[]"
        },
        {
          "internalType": "uint256[]",
          "name": "amounts",
          "type": "uint256[]"
        },
        {
          "internalType": "bytes",
          "name": "data",
          "type": "bytes"
        }
      ],
      "name": "safeBatchTransferFrom",
      "outputs": [],
      "stateMutability": "nonpayable",
      "type": "function"
    },
    {
      "inputs": [
        {
          "internalType": "address",
          "name": "from",
          "type": "address"
        },
        {
          "internalType": "address",
          "name": "to",
          "type": "address"
        },
        {
          "internalType": "uint256",
          "name": "id",
          "type": "uint256"
        },
        {
          "internalType": "uint256",
          "name": "amount",
          "type": "uint256"
        },
        {
          "internalType": "bytes",
          "name": "data",
          "type": "bytes"
        }
      ],
      "name": "safeTransferFrom",
      "outputs": [],
      "stateMutability": "nonpayable",
      "type": "function"
    },
    {
      "inputs": [
        {
          "internalType": "address",
          "name": "operator",
          "type": "address"
        },
        {
          "internalType": "bool",
          "name": "approved",
          "type": "bool"
        }
      ],
      "name": "setApprovalForAll",
      "outputs": [],
      "stateMutability": "nonpayable",
      "type": "function"
    },
    {
      "inputs": [
        {
          "internalType": "string",
          "name": "_baseURI",
          "type": "string"
        }
      ],
      "name": "setBaseURI",
      "outputs": [],
      "stateMutability": "nonpayable",
      "type": "function"
    },
    {
      "inputs": [
        {
          "internalType": "uint256",
          "name": "price",
          "type": "uint256"
        }
      ],
      "name": "setDefaultPrice",
      "outputs": [],
      "stateMutability": "nonpayable",
      "type": "function"
    },
    {
      "inputs": [
        {
          "internalType": "bool",
          "name": "enabled",
          "type": "bool"
        }
      ],
      "name": "setNativeTokenMinting",
      "outputs": [],
      "stateMutability": "nonpayable",
      "type": "function"
    },
    {
      "inputs": [
        {
          "internalType": "contract IERC20",
          "name": "newPaymentToken",
          "type": "address"
        }
      ],
      "name": "setPaymentToken",
      "outputs": [],
      "stateMutability": "nonpayable",
      "type": "function"
    },
    {
      "inputs": [
        {
          "internalType": "uint256",
          "name": "tokenId",
          "type": "uint256"
        },
        {
          "internalType": "uint256",
          "name": "price",
          "type": "uint256"
        }
      ],
      "name": "setTokenPrice",
      "outputs": [],
      "stateMutability": "nonpayable",
      "type": "function"
    },
    {
      "inputs": [
        {
          "internalType": "uint256",
          "name": "tokenId",
          "type": "uint256"
        },
        {
          "internalType": "string",
          "name": "tokenURI",
          "type": "string"
        }
      ],
      "name": "setTokenURI",
      "outputs": [],
      "stateMutability": "nonpayable",
      "type": "function"
    },
    {
      "inputs": [
        {
          "internalType": "bytes4",
          "name": "interfaceId",
          "type": "bytes4"
        }
      ],
      "name": "supportsInterface",
      "outputs": [
        {
          "internalType": "bool",
          "name": "",
          "type": "bool"
        }
      ],
      "stateMutability": "view",
      "type": "function"
    },
    {
      "inputs": [
        {
          "internalType": "uint256",
          "name": "",
          "type": "uint256"
        }
      ],
      "name": "tokenPrice",
      "outputs": [
        {
          "internalType": "uint256",
          "name": "",
          "type": "uint256"
        }
      ],
      "stateMutability": "view",
      "type": "function"
    },
    {
      "inputs": [
        {
          "internalType": "uint256",
          "name": "id",
          "type": "uint256"
        }
      ],
      "name": "totalSupply",
      "outputs": [
        {
          "internalType": "uint256",
          "name": "",
          "type": "uint256"
        }
      ],
      "stateMutability": "view",
      "type": "function"
    },
    {
      "inputs": [
        {
          "internalType": "address",
          "name": "newOwner",
          "type": "address"
        }
      ],
      "name": "transferOwnership",
      "outputs": [],
      "stateMutability": "nonpayable",
      "type": "function"
    },
    {
      "inputs": [],
      "name": "uniqueTokens",
      "outputs": [
        {
          "internalType": "uint96",
          "name": "",
          "type": "uint96"
        }
      ],
      "stateMutability": "view",
      "type": "function"
    },
    {
      "inputs": [
        {
          "internalType": "uint256",
          "name": "tokenId",
          "type": "uint256"
        }
      ],
      "name": "uri",
      "outputs": [
        {
          "internalType": "string",
          "name": "",
          "type": "string"
        }
      ],
      "stateMutability": "view",
      "type": "function"
    },
    {
      "inputs": [],
      "name": "withdrawNativeToken",
      "outputs": [],
      "stateMutability": "payable",
      "type": "function"
    },
    {
      "inputs": [],
      "name": "withdrawTokens",
      "outputs": [],
      "stateMutability": "nonpayable",
      "type": "function"
    }
  ],
  "bytecode": "0x60a0604052600060809081526004906200001a9082620001e7565b50600880546001600160601b03191690553480156200003857600080fd5b50604051620041f8380380620041f88339810160408190526200005b91620002d0565b836200006781620000de565b506200007333620000f0565b6009620000818582620001e7565b5060078054600a92909255600880546001600160601b03166c010000000000000000000000006001600160a01b03958616021790556001600160a81b0319909116610100939092169290920260ff191617600117905550620003d2565b6002620000ec8282620001e7565b5050565b600380546001600160a01b038381166001600160a01b0319831681179093556040519116919082907f8be0079c531659141344cd1fd0a4f28419497f9722a3daafe3b4186f6b6457e090600090a35050565b634e487b7160e01b600052604160045260246000fd5b600181811c908216806200016d57607f821691505b6020821081036200018e57634e487b7160e01b600052602260045260246000fd5b50919050565b601f821115620001e257600081815260208120601f850160051c81016020861015620001bd5750805b601f850160051c820191505b81811015620001de57828155600101620001c9565b5050505b505050565b81516001600160401b0381111562000203576200020362000142565b6200021b8162000214845462000158565b8462000194565b602080601f8311600181146200025357600084156200023a5750858301515b600019600386901b1c1916600185901b178555620001de565b600085815260208120601f198616915b82811015620002845788860151825594840194600190910190840162000263565b5085821015620002a35787850151600019600388901b60f8161c191681555b5050505050600190811b01905550565b80516001600160a01b0381168114620002cb57600080fd5b919050565b60008060008060808587031215620002e757600080fd5b84516001600160401b0380821115620002ff57600080fd5b818701915087601f8301126200031457600080fd5b81518181111562000329576200032962000142565b604051601f8201601f19908116603f0116810190838211818310171562000354576200035462000142565b81604052828152602093508a848487010111156200037157600080fd5b600091505b8282101562000395578482018401518183018501529083019062000376565b6000848483010152809850505050620003b0818801620002b3565b94505050620003c260408601620002b3565b6060959095015193969295505050565b613e1680620003e26000396000f3fe60806040526004361061024e5760003560e01c80636b20c45411610138578063d4ddce8a116100b0578063eb685c471161007f578063f2fde38b11610064578063f2fde38b1461071e578063f5298aca1461073e578063fc5abac11461075e57600080fd5b8063eb685c47146106de578063f242432a146106fe57600080fd5b8063d4ddce8a14610618578063d81d0a1514610645578063e985e9c514610665578063ea49b1cc146106ae57600080fd5b80638ca132f7116101075780638da5cb5b116100ec5780638da5cb5b146105ad578063a22cb465146105cb578063bd85b039146105eb57600080fd5b80638ca132f7146105785780638d8f2adb1461059857600080fd5b80636b20c454146104f55780636d3c7ec514610515578063715018a6146105355780638c7a63ae1461054a57600080fd5b806330e8fd65116101cb5780634f558e791161019a5780635a18664c1161017f5780635a18664c146104ba5780635a8f7b86146104c25780636a326ab1146104d557600080fd5b80634f558e791461046b57806355f804b31461049a57600080fd5b806330e8fd65146103af57806336f5cba5146103f157806337210b8f1461041e5780634e1273f41461043e57600080fd5b8063156e29f611610222578063162094c411610207578063162094c4146103325780632eb2c2d6146103525780633013ce291461037257600080fd5b8063156e29f6146102fd57806315f8a01a1461031f57600080fd5b8062fdd58e1461025357806301ffc9a7146102865780630b70ede5146102b65780630e89341c146102d0575b600080fd5b34801561025f57600080fd5b5061027361026e366004613301565b61077e565b6040519081526020015b60405180910390f35b34801561029257600080fd5b506102a66102a1366004613343565b61082a565b604051901515815260200161027d565b3480156102c257600080fd5b506007546102a69060ff1681565b3480156102dc57600080fd5b506102f06102eb366004613360565b6108c5565b60405161027d91906133c9565b34801561030957600080fd5b5061031d6103183660046133dc565b6108d0565b005b61031d61032d3660046134e9565b610b9f565b34801561033e57600080fd5b5061031d61034d3660046135d3565b610ff2565b34801561035e57600080fd5b5061031d61036d36600461361a565b611008565b34801561037e57600080fd5b506007546103979061010090046001600160a01b031681565b6040516001600160a01b03909116815260200161027d565b3480156103bb57600080fd5b506008546103d4906bffffffffffffffffffffffff1681565b6040516bffffffffffffffffffffffff909116815260200161027d565b3480156103fd57600080fd5b5061027361040c366004613360565b600c6020526000908152604090205481565b34801561042a57600080fd5b5061031d6104393660046136d6565b611094565b34801561044a57600080fd5b5061045e6104593660046136f3565b6110af565b60405161027d91906137f1565b34801561047757600080fd5b506102a6610486366004613360565b600090815260066020526040902054151590565b3480156104a657600080fd5b5061031d6104b5366004613804565b6111ed565b61031d611201565b61031d6104d03660046133dc565b6112bd565b3480156104e157600080fd5b5061031d6104f0366004613839565b6114ec565b34801561050157600080fd5b5061031d6105103660046134e9565b611533565b34801561052157600080fd5b5061031d610530366004613360565b6115c2565b34801561054157600080fd5b5061031d6115cf565b34801561055657600080fd5b5061056a610565366004613360565b6115e3565b60405161027d929190613856565b34801561058457600080fd5b5061031d61059336600461386f565b611629565b3480156105a457600080fd5b5061031d6116a6565b3480156105b957600080fd5b506003546001600160a01b0316610397565b3480156105d757600080fd5b5061031d6105e63660046138b4565b61176e565b3480156105f757600080fd5b50610273610606366004613360565b60009081526006602052604090205490565b34801561062457600080fd5b50610273610633366004613360565b600b6020526000908152604090205481565b34801561065157600080fd5b5061031d6106603660046134e9565b611779565b34801561067157600080fd5b506102a66106803660046138ed565b6001600160a01b03918216600090815260016020908152604080832093909416825291909152205460ff1690565b3480156106ba57600080fd5b50600854610397906c0100000000000000000000000090046001600160a01b031681565b3480156106ea57600080fd5b5061031d6106f936600461391b565b611a46565b34801561070a57600080fd5b5061031d61071936600461393d565b611ab0565b34801561072a57600080fd5b5061031d610739366004613839565b611b3c565b34801561074a57600080fd5b5061031d6107593660046133dc565b611bc9565b34801561076a57600080fd5b5061031d610779366004613360565b611c53565b60006001600160a01b0383166108015760405162461bcd60e51b815260206004820152602a60248201527f455243313135353a2061646472657373207a65726f206973206e6f742061207660448201527f616c6964206f776e65720000000000000000000000000000000000000000000060648201526084015b60405180910390fd5b506000818152602081815260408083206001600160a01b03861684529091529020545b92915050565b60006001600160e01b031982167fd9b67a2600000000000000000000000000000000000000000000000000000000148061088d57506001600160e01b031982167f0e89341c00000000000000000000000000000000000000000000000000000000145b8061082457507f01ffc9a7000000000000000000000000000000000000000000000000000000006001600160e01b0319831614610824565b606061082482611c6c565b6008546bffffffffffffffffffffffff168211156109045760405163cfe3beb960e01b8152600481018390526024016107f8565b600082815260066020908152604080832054600c9092529091205461092983836139bc565b11156109775760405162461bcd60e51b815260206004820152601860248201527f43616e6e6f7420657863656564204d617820537570706c79000000000000000060448201526064016107f8565b60075460ff16156109ca5760405162461bcd60e51b815260206004820152601e60248201527f43616e206f6e6c79206d696e74207769746820455243323020746f6b656e000060448201526064016107f8565b60008211610a0f5760405162461bcd60e51b81526020600482015260126024820152710416d6f756e742063616e6e6f7420626520360741b60448201526064016107f8565b600080610a246003546001600160a01b031690565b6001600160a01b0316336001600160a01b031614610aea576000858152600b602052604090205415610a6657506000848152600b602052604090205480610a6c565b50600a54805b50610a778185611d4c565b600754909250610a979061010090046001600160a01b0316333085611d58565b604080516001600160a01b038816815260208101879052908101859052606081018390527fb4c03061fb5b7fed76389d5af8f2e0ddb09f8c70d1333abbb62582835e10accb906080015b60405180910390a15b6008546c0100000000000000000000000090046001600160a01b03166340c10f1987610b1e87670de0b6b3a7640000611d4c565b6040516001600160e01b031960e085901b1681526001600160a01b0390921660048301526024820152604401600060405180830381600087803b158015610b6457600080fd5b505af1158015610b78573d6000803e3d6000fd5b50505050610b9786868660405180602001604052806000815250611df7565b505050505050565b60075460ff16610bf15760405162461bcd60e51b815260206004820152601f60248201527f43616e206f6e6c79206d696e742077697468206e617469766520746f6b656e0060448201526064016107f8565b600080610c066003546001600160a01b031690565b6001600160a01b0316336001600160a01b031614610f3e5760005b8451811015610ea2576000848281518110610c3e57610c3e6139cf565b602002602001015111610c885760405162461bcd60e51b81526020600482015260126024820152710416d6f756e742063616e6e6f7420626520360741b60448201526064016107f8565b60085485516bffffffffffffffffffffffff90911690869083908110610cb057610cb06139cf565b60200260200101511115610cf457848181518110610cd057610cd06139cf565b602002602001015160405163cfe3beb960e01b81526004016107f891815260200190565b6000610d25868381518110610d0b57610d0b6139cf565b602002602001015160009081526006602052604090205490565b9050600c6000878481518110610d3d57610d3d6139cf565b6020026020010151815260200190815260200160002054858381518110610d6657610d666139cf565b602002602001015182610d7991906139bc565b1115610dc75760405162461bcd60e51b815260206004820152601860248201527f43616e6e6f7420657863656564204d617820537570706c79000000000000000060448201526064016107f8565b6000600b6000888581518110610ddf57610ddf6139cf565b6020026020010151815260200190815260200160002054600014610e3257600b6000888581518110610e1357610e136139cf565b6020026020010151815260200190815260200160002054905080610e38565b50600a54805b50610e65868481518110610e4e57610e4e6139cf565b602002602001015182611d4c90919063ffffffff16565b610e6f90866139bc565b9450858381518110610e8357610e836139cf565b602002602001015184610e9691906139bc565b93505050600101610c21565b5081341015610ef35760405162461bcd60e51b815260206004820152601360248201527f496e73756666696369656e742066756e6473210000000000000000000000000060448201526064016107f8565b604080516001600160a01b0387168152602081018390529081018390527f6941bbed9891bfb7a243f6a1aa237a060996652ebf3e8f33bb36a0022e60dfbf9060600160405180910390a15b6008546c0100000000000000000000000090046001600160a01b03166340c10f1986610f7284670de0b6b3a7640000611d4c565b6040516001600160e01b031960e085901b1681526001600160a01b0390921660048301526024820152604401600060405180830381600087803b158015610fb857600080fd5b505af1158015610fcc573d6000803e3d6000fd5b50505050610feb85858560405180602001604052806000815250611f1a565b5050505050565b610ffa6120ef565b6110048282612149565b5050565b6001600160a01b03851633148061102457506110248533610680565b6110875760405162461bcd60e51b815260206004820152602e60248201527f455243313135353a2063616c6c6572206973206e6f7420746f6b656e206f776e60448201526d195c881bdc88185c1c1c9bdd995960921b60648201526084016107f8565b610feb85858585856121a6565b61109c6120ef565b6007805460ff1916911515919091179055565b606081518351146111285760405162461bcd60e51b815260206004820152602960248201527f455243313135353a206163636f756e747320616e6420696473206c656e67746860448201527f206d69736d61746368000000000000000000000000000000000000000000000060648201526084016107f8565b6000835167ffffffffffffffff81111561114457611144613411565b60405190808252806020026020018201604052801561116d578160200160208202803683370190505b50905060005b84518110156111e5576111b8858281518110611191576111916139cf565b60200260200101518583815181106111ab576111ab6139cf565b602002602001015161077e565b8282815181106111ca576111ca6139cf565b60209081029190910101526111de816139e5565b9050611173565b509392505050565b6111f56120ef565b6111fe8161240a565b50565b6112096120ef565b600061121d6003546001600160a01b031690565b6001600160a01b03164760405160006040518083038185875af1925050503d8060008114611267576040519150601f19603f3d011682016040523d82523d6000602084013e61126c565b606091505b50509050806111fe5760405162461bcd60e51b815260206004820152601460248201527f4661696c656420746f2073656e6420457468657200000000000000000000000060448201526064016107f8565b6008546bffffffffffffffffffffffff168211156112f15760405163cfe3beb960e01b8152600481018390526024016107f8565b60075460ff166113435760405162461bcd60e51b815260206004820152601f60248201527f43616e206f6e6c79206d696e742077697468206e617469766520746f6b656e0060448201526064016107f8565b600081116113885760405162461bcd60e51b81526020600482015260126024820152710416d6f756e742063616e6e6f7420626520360741b60448201526064016107f8565b600082815260066020908152604080832054600c9092528220548291906113af85836139bc565b11156113fd5760405162461bcd60e51b815260206004820152601860248201527f43616e6e6f7420657863656564204d617820537570706c79000000000000000060448201526064016107f8565b6003546001600160a01b03163314610aea576000858152600b60205260409020541561143a576000858152600b6020526040902054915081611441565b600a549150815b5061144c8285611d4c565b92508234101561149e5760405162461bcd60e51b815260206004820152601360248201527f496e73756666696369656e742066756e6473210000000000000000000000000060448201526064016107f8565b604080516001600160a01b038816815260208101879052908101859052606081018490527fb4c03061fb5b7fed76389d5af8f2e0ddb09f8c70d1333abbb62582835e10accb90608001610ae1565b6114f46120ef565b600780546001600160a01b03909216610100027fffffffffffffffffffffff0000000000000000000000000000000000000000ff909216919091179055565b6001600160a01b03831633148061154f575061154f8333610680565b6115b25760405162461bcd60e51b815260206004820152602e60248201527f455243313135353a2063616c6c6572206973206e6f7420746f6b656e206f776e60448201526d195c881bdc88185c1c1c9bdd995960921b60648201526084016107f8565b6115bd838383612416565b505050565b6115ca6120ef565b600a55565b6115d76120ef565b6115e1600061266b565b565b6000818152600b602052604081205460609015611611576000838152600b6020526040902054915081611618565b600a549150815b50611622836108c5565b9050915091565b6116316120ef565b600880546bffffffffffffffffffffffff1690600061164f836139fe565b82546101009290920a6bffffffffffffffffffffffff81810219909316918316021790915560085461168392501683612149565b6008546bffffffffffffffffffffffff166000908152600c602052604090205550565b6116ae6120ef565b6007546040517f70a0823100000000000000000000000000000000000000000000000000000000815230600482015260009161010090046001600160a01b0316906370a0823190602401602060405180830381865afa158015611715573d6000803e3d6000fd5b505050506040513d601f19601f820116820180604052508101906117399190613a29565b905080156111fe576111fe6117566003546001600160a01b031690565b60075461010090046001600160a01b031690836126d5565b61100433838361271e565b60075460ff16156117cc5760405162461bcd60e51b815260206004820152601e60248201527f43616e206f6e6c79206d696e74207769746820455243323020746f6b656e000060448201526064016107f8565b6000806117e16003546001600160a01b031690565b6001600160a01b0316336001600160a01b031614610f3e5760005b8451811015611a28576000848281518110611819576118196139cf565b6020026020010151116118635760405162461bcd60e51b81526020600482015260126024820152710416d6f756e742063616e6e6f7420626520360741b60448201526064016107f8565b60085485516bffffffffffffffffffffffff9091169086908390811061188b5761188b6139cf565b602002602001015111156118ab57848181518110610cd057610cd06139cf565b60006118c2868381518110610d0b57610d0b6139cf565b9050600c60008784815181106118da576118da6139cf565b6020026020010151815260200190815260200160002054858381518110611903576119036139cf565b60200260200101518261191691906139bc565b11156119645760405162461bcd60e51b815260206004820152601860248201527f43616e6e6f7420657863656564204d617820537570706c79000000000000000060448201526064016107f8565b6000600b600088858151811061197c5761197c6139cf565b60200260200101518152602001908152602001600020546000146119cf57600b60008885815181106119b0576119b06139cf565b60200260200101518152602001908152602001600020549050806119d5565b50600a54805b506119eb868481518110610e4e57610e4e6139cf565b6119f590866139bc565b9450858381518110611a0957611a096139cf565b602002602001015184611a1c91906139bc565b935050506001016117fc565b50600754610ef39061010090046001600160a01b0316333085611d58565b611a4e6120ef565b80600003611a9e5760405162461bcd60e51b815260206004820152601560248201527f63616e6e6f742073657420707269636520746f2030000000000000000000000060448201526064016107f8565b6000918252600b602052604090912055565b6001600160a01b038516331480611acc5750611acc8533610680565b611b2f5760405162461bcd60e51b815260206004820152602e60248201527f455243313135353a2063616c6c6572206973206e6f7420746f6b656e206f776e60448201526d195c881bdc88185c1c1c9bdd995960921b60648201526084016107f8565b610feb8585858585612812565b611b446120ef565b6001600160a01b038116611bc05760405162461bcd60e51b815260206004820152602660248201527f4f776e61626c653a206e6577206f776e657220697320746865207a65726f206160448201527f646472657373000000000000000000000000000000000000000000000000000060648201526084016107f8565b6111fe8161266b565b6001600160a01b038316331480611be55750611be58333610680565b611c485760405162461bcd60e51b815260206004820152602e60248201527f455243313135353a2063616c6c6572206973206e6f7420746f6b656e206f776e60448201526d195c881bdc88185c1c1c9bdd995960921b60648201526084016107f8565b6115bd8383836129cb565b611c5b6120ef565b6000908152600b6020526040812055565b600081815260056020526040812080546060929190611c8a90613a42565b80601f0160208091040260200160405190810160405280929190818152602001828054611cb690613a42565b8015611d035780601f10611cd857610100808354040283529160200191611d03565b820191906000526020600020905b815481529060010190602001808311611ce657829003601f168201915b505050505090506000815111611d2157611d1c83612b5b565b611d45565b600481604051602001611d35929190613a7c565b6040516020818303038152906040525b9392505050565b6000611d458284613b03565b6040516001600160a01b0380851660248301528316604482015260648101829052611df19085907f23b872dd00000000000000000000000000000000000000000000000000000000906084015b60408051601f198184030181529190526020810180517bffffffffffffffffffffffffffffffffffffffffffffffffffffffff166001600160e01b031990931692909217909152612bef565b50505050565b6001600160a01b038416611e575760405162461bcd60e51b815260206004820152602160248201527f455243313135353a206d696e7420746f20746865207a65726f206164647265736044820152607360f81b60648201526084016107f8565b336000611e6385612cd7565b90506000611e7085612cd7565b9050611e8183600089858589612d22565b6000868152602081815260408083206001600160a01b038b16845290915281208054879290611eb19084906139bc565b909155505060408051878152602081018790526001600160a01b03808a1692600092918716917fc3d58168c5ae7397731d063d5bbf3d657854427343f4c083240f7aacaa2d0f62910160405180910390a4611f1183600089898989612d30565b50505050505050565b6001600160a01b038416611f7a5760405162461bcd60e51b815260206004820152602160248201527f455243313135353a206d696e7420746f20746865207a65726f206164647265736044820152607360f81b60648201526084016107f8565b8151835114611fdc5760405162461bcd60e51b815260206004820152602860248201527f455243313135353a2069647320616e6420616d6f756e7473206c656e677468206044820152670dad2e6dac2e8c6d60c31b60648201526084016107f8565b33611fec81600087878787612d22565b60005b84518110156120875783818151811061200a5761200a6139cf565b6020026020010151600080878481518110612027576120276139cf565b602002602001015181526020019081526020016000206000886001600160a01b03166001600160a01b03168152602001908152602001600020600082825461206f91906139bc565b9091555081905061207f816139e5565b915050611fef565b50846001600160a01b031660006001600160a01b0316826001600160a01b03167f4a39dc06d4c0dbc64b70af90fd698a233a518aa5d07e595d983b8c0526c8f7fb87876040516120d8929190613b1a565b60405180910390a4610feb81600087878787612ed5565b6003546001600160a01b031633146115e15760405162461bcd60e51b815260206004820181905260248201527f4f776e61626c653a2063616c6c6572206973206e6f7420746865206f776e657260448201526064016107f8565b60008281526005602052604090206121618282613b8e565b50817f6bb7ff708619ba0610cba295a58592e0451dee2622938c8755667688daf3529b61218d846108c5565b60405161219a91906133c9565b60405180910390a25050565b81518351146122085760405162461bcd60e51b815260206004820152602860248201527f455243313135353a2069647320616e6420616d6f756e7473206c656e677468206044820152670dad2e6dac2e8c6d60c31b60648201526084016107f8565b6001600160a01b03841661226c5760405162461bcd60e51b815260206004820152602560248201527f455243313135353a207472616e7366657220746f20746865207a65726f206164604482015264647265737360d81b60648201526084016107f8565b3361227b818787878787612d22565b60005b84518110156123a457600085828151811061229b5761229b6139cf565b6020026020010151905060008583815181106122b9576122b96139cf565b602090810291909101810151600084815280835260408082206001600160a01b038e16835290935291909120549091508181101561234c5760405162461bcd60e51b815260206004820152602a60248201527f455243313135353a20696e73756666696369656e742062616c616e636520666f60448201526939103a3930b739b332b960b11b60648201526084016107f8565b6000838152602081815260408083206001600160a01b038e8116855292528083208585039055908b168252812080548492906123899084906139bc565b925050819055505050508061239d906139e5565b905061227e565b50846001600160a01b0316866001600160a01b0316826001600160a01b03167f4a39dc06d4c0dbc64b70af90fd698a233a518aa5d07e595d983b8c0526c8f7fb87876040516123f4929190613b1a565b60405180910390a4610b97818787878787612ed5565b60046110048282613b8e565b6001600160a01b0383166124785760405162461bcd60e51b815260206004820152602360248201527f455243313135353a206275726e2066726f6d20746865207a65726f206164647260448201526265737360e81b60648201526084016107f8565b80518251146124da5760405162461bcd60e51b815260206004820152602860248201527f455243313135353a2069647320616e6420616d6f756e7473206c656e677468206044820152670dad2e6dac2e8c6d60c31b60648201526084016107f8565b60003390506124fd81856000868660405180602001604052806000815250612d22565b60005b83518110156125fe57600084828151811061251d5761251d6139cf565b60200260200101519050600084838151811061253b5761253b6139cf565b602090810291909101810151600084815280835260408082206001600160a01b038c1683529093529190912054909150818110156125c75760405162461bcd60e51b8152602060048201526024808201527f455243313135353a206275726e20616d6f756e7420657863656564732062616c604482015263616e636560e01b60648201526084016107f8565b6000928352602083815260408085206001600160a01b038b16865290915290922091039055806125f6816139e5565b915050612500565b5060006001600160a01b0316846001600160a01b0316826001600160a01b03167f4a39dc06d4c0dbc64b70af90fd698a233a518aa5d07e595d983b8c0526c8f7fb868660405161264f929190613b1a565b60405180910390a4604080516020810190915260009052611df1565b600380546001600160a01b038381167fffffffffffffffffffffffff0000000000000000000000000000000000000000831681179093556040519116919082907f8be0079c531659141344cd1fd0a4f28419497f9722a3daafe3b4186f6b6457e090600090a35050565b6040516001600160a01b0383166024820152604481018290526115bd9084907fa9059cbb0000000000000000000000000000000000000000000000000000000090606401611da5565b816001600160a01b0316836001600160a01b0316036127a55760405162461bcd60e51b815260206004820152602960248201527f455243313135353a2073657474696e6720617070726f76616c2073746174757360448201527f20666f722073656c66000000000000000000000000000000000000000000000060648201526084016107f8565b6001600160a01b03838116600081815260016020908152604080832094871680845294825291829020805460ff191686151590811790915591519182527f17307eab39ab6107e8899845ad3d59bd9653f200f220920489ca2b5937696c31910160405180910390a3505050565b6001600160a01b0384166128765760405162461bcd60e51b815260206004820152602560248201527f455243313135353a207472616e7366657220746f20746865207a65726f206164604482015264647265737360d81b60648201526084016107f8565b33600061288285612cd7565b9050600061288f85612cd7565b905061289f838989858589612d22565b6000868152602081815260408083206001600160a01b038c168452909152902054858110156129235760405162461bcd60e51b815260206004820152602a60248201527f455243313135353a20696e73756666696369656e742062616c616e636520666f60448201526939103a3930b739b332b960b11b60648201526084016107f8565b6000878152602081815260408083206001600160a01b038d8116855292528083208985039055908a168252812080548892906129609084906139bc565b909155505060408051888152602081018890526001600160a01b03808b16928c821692918816917fc3d58168c5ae7397731d063d5bbf3d657854427343f4c083240f7aacaa2d0f62910160405180910390a46129c0848a8a8a8a8a612d30565b505050505050505050565b6001600160a01b038316612a2d5760405162461bcd60e51b815260206004820152602360248201527f455243313135353a206275726e2066726f6d20746865207a65726f206164647260448201526265737360e81b60648201526084016107f8565b336000612a3984612cd7565b90506000612a4684612cd7565b9050612a6683876000858560405180602001604052806000815250612d22565b6000858152602081815260408083206001600160a01b038a16845290915290205484811015612ae35760405162461bcd60e51b8152602060048201526024808201527f455243313135353a206275726e20616d6f756e7420657863656564732062616c604482015263616e636560e01b60648201526084016107f8565b6000868152602081815260408083206001600160a01b038b81168086529184528285208a8703905582518b81529384018a90529092908816917fc3d58168c5ae7397731d063d5bbf3d657854427343f4c083240f7aacaa2d0f62910160405180910390a4604080516020810190915260009052611f11565b606060028054612b6a90613a42565b80601f0160208091040260200160405190810160405280929190818152602001828054612b9690613a42565b8015612be35780601f10612bb857610100808354040283529160200191612be3565b820191906000526020600020905b815481529060010190602001808311612bc657829003601f168201915b50505050509050919050565b6000612c44826040518060400160405280602081526020017f5361666545524332303a206c6f772d6c6576656c2063616c6c206661696c6564815250856001600160a01b0316612fd19092919063ffffffff16565b9050805160001480612c65575080806020019051810190612c659190613c4e565b6115bd5760405162461bcd60e51b815260206004820152602a60248201527f5361666545524332303a204552433230206f7065726174696f6e20646964206e60448201527f6f7420737563636565640000000000000000000000000000000000000000000060648201526084016107f8565b60408051600180825281830190925260609160009190602080830190803683370190505090508281600081518110612d1157612d116139cf565b602090810291909101015292915050565b610b97868686868686612fe8565b6001600160a01b0384163b15610b975760405163f23a6e6160e01b81526001600160a01b0385169063f23a6e6190612d749089908990889088908890600401613c6b565b6020604051808303816000875af1925050508015612daf575060408051601f3d908101601f19168201909252612dac91810190613ca3565b60015b612e6457612dbb613cc0565b806308c379a003612df45750612dcf613cdc565b80612dda5750612df6565b8060405162461bcd60e51b81526004016107f891906133c9565b505b60405162461bcd60e51b815260206004820152603460248201527f455243313135353a207472616e7366657220746f206e6f6e2d4552433131353560448201527f526563656976657220696d706c656d656e74657200000000000000000000000060648201526084016107f8565b6001600160e01b0319811663f23a6e6160e01b14611f115760405162461bcd60e51b815260206004820152602860248201527f455243313135353a204552433131353552656365697665722072656a656374656044820152676420746f6b656e7360c01b60648201526084016107f8565b6001600160a01b0384163b15610b975760405163bc197c8160e01b81526001600160a01b0385169063bc197c8190612f199089908990889088908890600401613d66565b6020604051808303816000875af1925050508015612f54575060408051601f3d908101601f19168201909252612f5191810190613ca3565b60015b612f6057612dbb613cc0565b6001600160e01b0319811663bc197c8160e01b14611f115760405162461bcd60e51b815260206004820152602860248201527f455243313135353a204552433131353552656365697665722072656a656374656044820152676420746f6b656e7360c01b60648201526084016107f8565b6060612fe08484600085613176565b949350505050565b6001600160a01b03851661306f5760005b835181101561306d57828181518110613014576130146139cf565b602002602001015160066000868481518110613032576130326139cf565b60200260200101518152602001908152602001600020600082825461305791906139bc565b909155506130669050816139e5565b9050612ff9565b505b6001600160a01b038416610b975760005b8351811015611f1157600084828151811061309d5761309d6139cf565b6020026020010151905060008483815181106130bb576130bb6139cf565b60200260200101519050600060066000848152602001908152602001600020549050818110156131535760405162461bcd60e51b815260206004820152602860248201527f455243313135353a206275726e20616d6f756e74206578636565647320746f7460448201527f616c537570706c7900000000000000000000000000000000000000000000000060648201526084016107f8565b6000928352600660205260409092209103905561316f816139e5565b9050613080565b6060824710156131ee5760405162461bcd60e51b815260206004820152602660248201527f416464726573733a20696e73756666696369656e742062616c616e636520666f60448201527f722063616c6c000000000000000000000000000000000000000000000000000060648201526084016107f8565b600080866001600160a01b0316858760405161320a9190613dc4565b60006040518083038185875af1925050503d8060008114613247576040519150601f19603f3d011682016040523d82523d6000602084013e61324c565b606091505b509150915061325d87838387613268565b979650505050505050565b606083156132d75782516000036132d0576001600160a01b0385163b6132d05760405162461bcd60e51b815260206004820152601d60248201527f416464726573733a2063616c6c20746f206e6f6e2d636f6e747261637400000060448201526064016107f8565b5081612fe0565b612fe08383815115612dda5781518083602001fd5b6001600160a01b03811681146111fe57600080fd5b6000806040838503121561331457600080fd5b823561331f816132ec565b946020939093013593505050565b6001600160e01b0319811681146111fe57600080fd5b60006020828403121561335557600080fd5b8135611d458161332d565b60006020828403121561337257600080fd5b5035919050565b60005b8381101561339457818101518382015260200161337c565b50506000910152565b600081518084526133b5816020860160208601613379565b601f01601f19169290920160200192915050565b602081526000611d45602083018461339d565b6000806000606084860312156133f157600080fd5b83356133fc816132ec565b95602085013595506040909401359392505050565b634e487b7160e01b600052604160045260246000fd5b601f8201601f1916810167ffffffffffffffff8111828210171561344d5761344d613411565b6040525050565b600067ffffffffffffffff82111561346e5761346e613411565b5060051b60200190565b600082601f83011261348957600080fd5b8135602061349682613454565b6040516134a38282613427565b83815260059390931b85018201928281019150868411156134c357600080fd5b8286015b848110156134de57803583529183019183016134c7565b509695505050505050565b6000806000606084860312156134fe57600080fd5b8335613509816132ec565b9250602084013567ffffffffffffffff8082111561352657600080fd5b61353287838801613478565b9350604086013591508082111561354857600080fd5b5061355586828701613478565b9150509250925092565b600082601f83011261357057600080fd5b813567ffffffffffffffff81111561358a5761358a613411565b6040516135a1601f8301601f191660200182613427565b8181528460208386010111156135b657600080fd5b816020850160208301376000918101602001919091529392505050565b600080604083850312156135e657600080fd5b82359150602083013567ffffffffffffffff81111561360457600080fd5b6136108582860161355f565b9150509250929050565b600080600080600060a0868803121561363257600080fd5b853561363d816132ec565b9450602086013561364d816132ec565b9350604086013567ffffffffffffffff8082111561366a57600080fd5b61367689838a01613478565b9450606088013591508082111561368c57600080fd5b61369889838a01613478565b935060808801359150808211156136ae57600080fd5b506136bb8882890161355f565b9150509295509295909350565b80151581146111fe57600080fd5b6000602082840312156136e857600080fd5b8135611d45816136c8565b6000806040838503121561370657600080fd5b823567ffffffffffffffff8082111561371e57600080fd5b818501915085601f83011261373257600080fd5b8135602061373f82613454565b60405161374c8282613427565b83815260059390931b850182019282810191508984111561376c57600080fd5b948201945b83861015613793578535613784816132ec565b82529482019490820190613771565b965050860135925050808211156137a957600080fd5b5061361085828601613478565b600081518084526020808501945080840160005b838110156137e6578151875295820195908201906001016137ca565b509495945050505050565b602081526000611d4560208301846137b6565b60006020828403121561381657600080fd5b813567ffffffffffffffff81111561382d57600080fd5b612fe08482850161355f565b60006020828403121561384b57600080fd5b8135611d45816132ec565b828152604060208201526000612fe0604083018461339d565b6000806040838503121561388257600080fd5b823567ffffffffffffffff81111561389957600080fd5b6138a58582860161355f565b95602094909401359450505050565b600080604083850312156138c757600080fd5b82356138d2816132ec565b915060208301356138e2816136c8565b809150509250929050565b6000806040838503121561390057600080fd5b823561390b816132ec565b915060208301356138e2816132ec565b6000806040838503121561392e57600080fd5b50508035926020909101359150565b600080600080600060a0868803121561395557600080fd5b8535613960816132ec565b94506020860135613970816132ec565b93506040860135925060608601359150608086013567ffffffffffffffff81111561399a57600080fd5b6136bb8882890161355f565b634e487b7160e01b600052601160045260246000fd5b80820180821115610824576108246139a6565b634e487b7160e01b600052603260045260246000fd5b6000600182016139f7576139f76139a6565b5060010190565b60006bffffffffffffffffffffffff808316818103613a1f57613a1f6139a6565b6001019392505050565b600060208284031215613a3b57600080fd5b5051919050565b600181811c90821680613a5657607f821691505b602082108103613a7657634e487b7160e01b600052602260045260246000fd5b50919050565b6000808454613a8a81613a42565b60018281168015613aa25760018114613ab757613ae6565b60ff1984168752821515830287019450613ae6565b8860005260208060002060005b85811015613add5781548a820152908401908201613ac4565b50505082870194505b505050508351613afa818360208801613379565b01949350505050565b8082028115828204841417610824576108246139a6565b604081526000613b2d60408301856137b6565b8281036020840152613b3f81856137b6565b95945050505050565b601f8211156115bd57600081815260208120601f850160051c81016020861015613b6f5750805b601f850160051c820191505b81811015610b9757828155600101613b7b565b815167ffffffffffffffff811115613ba857613ba8613411565b613bbc81613bb68454613a42565b84613b48565b602080601f831160018114613bf15760008415613bd95750858301515b600019600386901b1c1916600185901b178555610b97565b600085815260208120601f198616915b82811015613c2057888601518255948401946001909101908401613c01565b5085821015613c3e5787850151600019600388901b60f8161c191681555b5050505050600190811b01905550565b600060208284031215613c6057600080fd5b8151611d45816136c8565b60006001600160a01b03808816835280871660208401525084604083015283606083015260a0608083015261325d60a083018461339d565b600060208284031215613cb557600080fd5b8151611d458161332d565b600060033d1115613cd95760046000803e5060005160e01c5b90565b600060443d1015613cea5790565b6040516003193d81016004833e81513d67ffffffffffffffff8160248401118184111715613d1a57505050505090565b8285019150815181811115613d325750505050505090565b843d8701016020828501011115613d4c5750505050505090565b613d5b60208286010187613427565b509095945050505050565b60006001600160a01b03808816835280871660208401525060a06040830152613d9260a08301866137b6565b8281036060840152613da481866137b6565b90508281036080840152613db8818561339d565b98975050505050505050565b60008251613dd6818460208701613379565b919091019291505056fea2646970667358221220c3df649d9523face54a0329826e801e4d5593df0df31dd79bfc98a29c648c16f64736f6c63430008110033",
  "linkReferences": {},
  "deployedLinkReferences": {}
}