{
  "_format": "hh-sol-artifact-1",
  "contractName": "MitchToken",
  "sourceName": "contracts/MitchToken.sol",
  "abi": [
    {
      "inputs": [],
      "stateMutability": "nonpayable",
      "type": "constructor"
    },
    {
      "inputs": [],
      "name": "InvalidShortString",
      "type": "error"
    },
    {
      "inputs": [
        {
          "internalType": "string",
          "name": "str",
          "type": "string"
        }
      ],
      "name": "StringTooLong",
      "type": "error"
    },
    {
      "anonymous": false,
      "inputs": [
        {
          "indexed": true,
          "internalType": "address",
          "name": "owner",
          "type": "address"
        },
        {
          "indexed": true,
          "internalType": "address",
          "name": "spender",
          "type": "address"
        },
        {
          "indexed": false,
          "internalType": "uint256",
          "name": "value",
          "type": "uint256"
        }
      ],
      "name": "Approval",
      "type": "event"
    },
    {
      "anonymous": false,
      "inputs": [
        {
          "indexed": true,
          "internalType": "address",
          "name": "delegator",
          "type": "address"
        },
        {
          "indexed": true,
          "internalType": "address",
          "name": "fromDelegate",
          "type": "address"
        },
        {
          "indexed": true,
          "internalType": "address",
          "name": "toDelegate",
          "type": "address"
        }
      ],
      "name": "DelegateChanged",
      "type": "event"
    },
    {
      "anonymous": false,
      "inputs": [
        {
          "indexed": true,
          "internalType": "address",
          "name": "delegate",
          "type": "address"
        },
        {
          "indexed": false,
          "internalType": "uint256",
          "name": "previousBalance",
          "type": "uint256"
        },
        {
          "indexed": false,
          "internalType": "uint256",
          "name": "newBalance",
          "type": "uint256"
        }
      ],
      "name": "DelegateVotesChanged",
      "type": "event"
    },
    {
      "anonymous": false,
      "inputs": [],
      "name": "EIP712DomainChanged",
      "type": "event"
    },
    {
      "anonymous": false,
      "inputs": [
        {
          "indexed": true,
          "internalType": "bytes32",
          "name": "role",
          "type": "bytes32"
        },
        {
          "indexed": true,
          "internalType": "bytes32",
          "name": "previousAdminRole",
          "type": "bytes32"
        },
        {
          "indexed": true,
          "internalType": "bytes32",
          "name": "newAdminRole",
          "type": "bytes32"
        }
      ],
      "name": "RoleAdminChanged",
      "type": "event"
    },
    {
      "anonymous": false,
      "inputs": [
        {
          "indexed": true,
          "internalType": "bytes32",
          "name": "role",
          "type": "bytes32"
        },
        {
          "indexed": true,
          "internalType": "address",
          "name": "account",
          "type": "address"
        },
        {
          "indexed": true,
          "internalType": "address",
          "name": "sender",
          "type": "address"
        }
      ],
      "name": "RoleGranted",
      "type": "event"
    },
    {
      "anonymous": false,
      "inputs": [
        {
          "indexed": true,
          "internalType": "bytes32",
          "name": "role",
          "type": "bytes32"
        },
        {
          "indexed": true,
          "internalType": "address",
          "name": "account",
          "type": "address"
        },
        {
          "indexed": true,
          "internalType": "address",
          "name": "sender",
          "type": "address"
        }
      ],
      "name": "RoleRevoked",
      "type": "event"
    },
    {
      "anonymous": false,
      "inputs": [
        {
          "indexed": true,
          "internalType": "address",
          "name": "from",
          "type": "address"
        },
        {
          "indexed": true,
          "internalType": "address",
          "name": "to",
          "type": "address"
        },
        {
          "indexed": false,
          "internalType": "uint256",
          "name": "value",
          "type": "uint256"
        }
      ],
      "name": "Transfer",
      "type": "event"
    },
    {
      "inputs": [],
      "name": "CLOCK_MODE",
      "outputs": [
        {
          "internalType": "string",
          "name": "",
          "type": "string"
        }
      ],
      "stateMutability": "view",
      "type": "function"
    },
    {
      "inputs": [],
      "name": "DEFAULT_ADMIN_ROLE",
      "outputs": [
        {
          "internalType": "bytes32",
          "name": "",
          "type": "bytes32"
        }
      ],
      "stateMutability": "view",
      "type": "function"
    },
    {
      "inputs": [],
      "name": "DOMAIN_SEPARATOR",
      "outputs": [
        {
          "internalType": "bytes32",
          "name": "",
          "type": "bytes32"
        }
      ],
      "stateMutability": "view",
      "type": "function"
    },
    {
      "inputs": [],
      "name": "MINTER_ROLE",
      "outputs": [
        {
          "internalType": "bytes32",
          "name": "",
          "type": "bytes32"
        }
      ],
      "stateMutability": "view",
      "type": "function"
    },
    {
      "inputs": [
        {
          "internalType": "address",
          "name": "owner",
          "type": "address"
        },
        {
          "internalType": "address",
          "name": "spender",
          "type": "address"
        }
      ],
      "name": "allowance",
      "outputs": [
        {
          "internalType": "uint256",
          "name": "",
          "type": "uint256"
        }
      ],
      "stateMutability": "view",
      "type": "function"
    },
    {
      "inputs": [
        {
          "internalType": "address",
          "name": "spender",
          "type": "address"
        },
        {
          "internalType": "uint256",
          "name": "amount",
          "type": "uint256"
        }
      ],
      "name": "approve",
      "outputs": [
        {
          "internalType": "bool",
          "name": "",
          "type": "bool"
        }
      ],
      "stateMutability": "nonpayable",
      "type": "function"
    },
    {
      "inputs": [
        {
          "internalType": "address",
          "name": "account",
          "type": "address"
        }
      ],
      "name": "balanceOf",
      "outputs": [
        {
          "internalType": "uint256",
          "name": "",
          "type": "uint256"
        }
      ],
      "stateMutability": "view",
      "type": "function"
    },
    {
      "inputs": [
        {
          "internalType": "uint256",
          "name": "amount",
          "type": "uint256"
        }
      ],
      "name": "burn",
      "outputs": [],
      "stateMutability": "nonpayable",
      "type": "function"
    },
    {
      "inputs": [
        {
          "internalType": "address",
          "name": "account",
          "type": "address"
        },
        {
          "internalType": "uint256",
          "name": "amount",
          "type": "uint256"
        }
      ],
      "name": "burnFrom",
      "outputs": [],
      "stateMutability": "nonpayable",
      "type": "function"
    },
    {
      "inputs": [
        {
          "internalType": "address",
          "name": "account",
          "type": "address"
        },
        {
          "internalType": "uint32",
          "name": "pos",
          "type": "uint32"
        }
      ],
      "name": "checkpoints",
      "outputs": [
        {
          "components": [
            {
              "internalType": "uint32",
              "name": "fromBlock",
              "type": "uint32"
            },
            {
              "internalType": "uint224",
              "name": "votes",
              "type": "uint224"
            }
          ],
          "internalType": "struct ERC20Votes.Checkpoint",
          "name": "",
          "type": "tuple"
        }
      ],
      "stateMutability": "view",
      "type": "function"
    },
    {
      "inputs": [],
      "name": "clock",
      "outputs": [
        {
          "internalType": "uint48",
          "name": "",
          "type": "uint48"
        }
      ],
      "stateMutability": "view",
      "type": "function"
    },
    {
      "inputs": [],
      "name": "decimals",
      "outputs": [
        {
          "internalType": "uint8",
          "name": "",
          "type": "uint8"
        }
      ],
      "stateMutability": "view",
      "type": "function"
    },
    {
      "inputs": [
        {
          "internalType": "address",
          "name": "spender",
          "type": "address"
        },
        {
          "internalType": "uint256",
          "name": "subtractedValue",
          "type": "uint256"
        }
      ],
      "name": "decreaseAllowance",
      "outputs": [
        {
          "internalType": "bool",
          "name": "",
          "type": "bool"
        }
      ],
      "stateMutability": "nonpayable",
      "type": "function"
    },
    {
      "inputs": [
        {
          "internalType": "address",
          "name": "delegatee",
          "type": "address"
        }
      ],
      "name": "delegate",
      "outputs": [],
      "stateMutability": "nonpayable",
      "type": "function"
    },
    {
      "inputs": [
        {
          "internalType": "address",
          "name": "delegatee",
          "type": "address"
        },
        {
          "internalType": "uint256",
          "name": "nonce",
          "type": "uint256"
        },
        {
          "internalType": "uint256",
          "name": "expiry",
          "type": "uint256"
        },
        {
          "internalType": "uint8",
          "name": "v",
          "type": "uint8"
        },
        {
          "internalType": "bytes32",
          "name": "r",
          "type": "bytes32"
        },
        {
          "internalType": "bytes32",
          "name": "s",
          "type": "bytes32"
        }
      ],
      "name": "delegateBySig",
      "outputs": [],
      "stateMutability": "nonpayable",
      "type": "function"
    },
    {
      "inputs": [
        {
          "internalType": "address",
          "name": "account",
          "type": "address"
        }
      ],
      "name": "delegates",
      "outputs": [
        {
          "internalType": "address",
          "name": "",
          "type": "address"
        }
      ],
      "stateMutability": "view",
      "type": "function"
    },
    {
      "inputs": [],
      "name": "eip712Domain",
      "outputs": [
        {
          "internalType": "bytes1",
          "name": "fields",
          "type": "bytes1"
        },
        {
          "internalType": "string",
          "name": "name",
          "type": "string"
        },
        {
          "internalType": "string",
          "name": "version",
          "type": "string"
        },
        {
          "internalType": "uint256",
          "name": "chainId",
          "type": "uint256"
        },
        {
          "internalType": "address",
          "name": "verifyingContract",
          "type": "address"
        },
        {
          "internalType": "bytes32",
          "name": "salt",
          "type": "bytes32"
        },
        {
          "internalType": "uint256[]",
          "name": "extensions",
          "type": "uint256[]"
        }
      ],
      "stateMutability": "view",
      "type": "function"
    },
    {
      "inputs": [
        {
          "internalType": "uint256",
          "name": "timepoint",
          "type": "uint256"
        }
      ],
      "name": "getPastTotalSupply",
      "outputs": [
        {
          "internalType": "uint256",
          "name": "",
          "type": "uint256"
        }
      ],
      "stateMutability": "view",
      "type": "function"
    },
    {
      "inputs": [
        {
          "internalType": "address",
          "name": "account",
          "type": "address"
        },
        {
          "internalType": "uint256",
          "name": "timepoint",
          "type": "uint256"
        }
      ],
      "name": "getPastVotes",
      "outputs": [
        {
          "internalType": "uint256",
          "name": "",
          "type": "uint256"
        }
      ],
      "stateMutability": "view",
      "type": "function"
    },
    {
      "inputs": [
        {
          "internalType": "bytes32",
          "name": "role",
          "type": "bytes32"
        }
      ],
      "name": "getRoleAdmin",
      "outputs": [
        {
          "internalType": "bytes32",
          "name": "",
          "type": "bytes32"
        }
      ],
      "stateMutability": "view",
      "type": "function"
    },
    {
      "inputs": [
        {
          "internalType": "address",
          "name": "account",
          "type": "address"
        }
      ],
      "name": "getVotes",
      "outputs": [
        {
          "internalType": "uint256",
          "name": "",
          "type": "uint256"
        }
      ],
      "stateMutability": "view",
      "type": "function"
    },
    {
      "inputs": [
        {
          "internalType": "bytes32",
          "name": "role",
          "type": "bytes32"
        },
        {
          "internalType": "address",
          "name": "account",
          "type": "address"
        }
      ],
      "name": "grantRole",
      "outputs": [],
      "stateMutability": "nonpayable",
      "type": "function"
    },
    {
      "inputs": [
        {
          "internalType": "bytes32",
          "name": "role",
          "type": "bytes32"
        },
        {
          "internalType": "address",
          "name": "account",
          "type": "address"
        }
      ],
      "name": "hasRole",
      "outputs": [
        {
          "internalType": "bool",
          "name": "",
          "type": "bool"
        }
      ],
      "stateMutability": "view",
      "type": "function"
    },
    {
      "inputs": [
        {
          "internalType": "address",
          "name": "spender",
          "type": "address"
        },
        {
          "internalType": "uint256",
          "name": "addedValue",
          "type": "uint256"
        }
      ],
      "name": "increaseAllowance",
      "outputs": [
        {
          "internalType": "bool",
          "name": "",
          "type": "bool"
        }
      ],
      "stateMutability": "nonpayable",
      "type": "function"
    },
    {
      "inputs": [
        {
          "internalType": "address",
          "name": "to",
          "type": "address"
        },
        {
          "internalType": "uint256",
          "name": "amount",
          "type": "uint256"
        }
      ],
      "name": "mint",
      "outputs": [],
      "stateMutability": "nonpayable",
      "type": "function"
    },
    {
      "inputs": [],
      "name": "name",
      "outputs": [
        {
          "internalType": "string",
          "name": "",
          "type": "string"
        }
      ],
      "stateMutability": "view",
      "type": "function"
    },
    {
      "inputs": [
        {
          "internalType": "address",
          "name": "owner",
          "type": "address"
        }
      ],
      "name": "nonces",
      "outputs": [
        {
          "internalType": "uint256",
          "name": "",
          "type": "uint256"
        }
      ],
      "stateMutability": "view",
      "type": "function"
    },
    {
      "inputs": [
        {
          "internalType": "address",
          "name": "account",
          "type": "address"
        }
      ],
      "name": "numCheckpoints",
      "outputs": [
        {
          "internalType": "uint32",
          "name": "",
          "type": "uint32"
        }
      ],
      "stateMutability": "view",
      "type": "function"
    },
    {
      "inputs": [
        {
          "internalType": "address",
          "name": "owner",
          "type": "address"
        },
        {
          "internalType": "address",
          "name": "spender",
          "type": "address"
        },
        {
          "internalType": "uint256",
          "name": "value",
          "type": "uint256"
        },
        {
          "internalType": "uint256",
          "name": "deadline",
          "type": "uint256"
        },
        {
          "internalType": "uint8",
          "name": "v",
          "type": "uint8"
        },
        {
          "internalType": "bytes32",
          "name": "r",
          "type": "bytes32"
        },
        {
          "internalType": "bytes32",
          "name": "s",
          "type": "bytes32"
        }
      ],
      "name": "permit",
      "outputs": [],
      "stateMutability": "nonpayable",
      "type": "function"
    },
    {
      "inputs": [
        {
          "internalType": "bytes32",
          "name": "role",
          "type": "bytes32"
        },
        {
          "internalType": "address",
          "name": "account",
          "type": "address"
        }
      ],
      "name": "renounceRole",
      "outputs": [],
      "stateMutability": "nonpayable",
      "type": "function"
    },
    {
      "inputs": [
        {
          "internalType": "bytes32",
          "name": "role",
          "type": "bytes32"
        },
        {
          "internalType": "address",
          "name": "account",
          "type": "address"
        }
      ],
      "name": "revokeRole",
      "outputs": [],
      "stateMutability": "nonpayable",
      "type": "function"
    },
    {
      "inputs": [
        {
          "internalType": "bytes4",
          "name": "interfaceId",
          "type": "bytes4"
        }
      ],
      "name": "supportsInterface",
      "outputs": [
        {
          "internalType": "bool",
          "name": "",
          "type": "bool"
        }
      ],
      "stateMutability": "view",
      "type": "function"
    },
    {
      "inputs": [],
      "name": "symbol",
      "outputs": [
        {
          "internalType": "string",
          "name": "",
          "type": "string"
        }
      ],
      "stateMutability": "view",
      "type": "function"
    },
    {
      "inputs": [],
      "name": "totalSupply",
      "outputs": [
        {
          "internalType": "uint256",
          "name": "",
          "type": "uint256"
        }
      ],
      "stateMutability": "view",
      "type": "function"
    },
    {
      "inputs": [
        {
          "internalType": "address",
          "name": "to",
          "type": "address"
        },
        {
          "internalType": "uint256",
          "name": "amount",
          "type": "uint256"
        }
      ],
      "name": "transfer",
      "outputs": [
        {
          "internalType": "bool",
          "name": "",
          "type": "bool"
        }
      ],
      "stateMutability": "nonpayable",
      "type": "function"
    },
    {
      "inputs": [
        {
          "internalType": "address",
          "name": "from",
          "type": "address"
        },
        {
          "internalType": "address",
          "name": "to",
          "type": "address"
        },
        {
          "internalType": "uint256",
          "name": "amount",
          "type": "uint256"
        }
      ],
      "name": "transferFrom",
      "outputs": [
        {
          "internalType": "bool",
          "name": "",
          "type": "bool"
        }
      ],
      "stateMutability": "nonpayable",
      "type": "function"
    }
  ],
  "bytecode": "0x6101606040523480156200001257600080fd5b506040518060400160405280600b81526020016a26b4ba31b4102a37b5b2b760a91b81525080604051806040016040528060018152602001603160f81b8152506040518060400160405280600b81526020016a26b4ba31b4102a37b5b2b760a91b8152506040518060400160405280600581526020016409a92a886960db1b8152508160039081620000a59190620003af565b506004620000b48282620003af565b505050620000d2600683620001c660201b62000fd71790919060201c565b61012052620000ef816007620001c6602090811b62000fd717901c565b61014052815160208084019190912060e052815190820120610100524660a0526200017d60e05161010051604080517f8b73c3c69bb8fe3d512ecc4cf759cc79239f7b179b0ffacaa9a75d522b39400f60208201529081019290925260608201524660808201523060a082015260009060c00160405160208183030381529060405280519060200120905090565b60805250503060c052506200019460003362000216565b620001c07f9f2df0fed2c77648de5860a4cc508cd0818c85b8b8a1ab4ceeef8d981c8956a63362000216565b620004f0565b6000602083511015620001e657620001de83620002bb565b905062000210565b82620001fd836200030760201b620010081760201c565b906200020a9082620003af565b5060ff90505b92915050565b60008281526005602090815260408083206001600160a01b038516845290915290205460ff16620002b75760008281526005602090815260408083206001600160a01b03851684529091529020805460ff19166001179055620002763390565b6001600160a01b0316816001600160a01b0316837f2f8788117e7eff1d82e926ec794901d17c78024a50270940304540a733656f0d60405160405180910390a45b5050565b600080829050601f81511115620002f2578260405163305a27a960e01b8152600401620002e991906200047b565b60405180910390fd5b8051620002ff82620004cb565b179392505050565b90565b634e487b7160e01b600052604160045260246000fd5b600181811c908216806200033557607f821691505b6020821081036200035657634e487b7160e01b600052602260045260246000fd5b50919050565b601f821115620003aa57600081815260208120601f850160051c81016020861015620003855750805b601f850160051c820191505b81811015620003a65782815560010162000391565b5050505b505050565b81516001600160401b03811115620003cb57620003cb6200030a565b620003e381620003dc845462000320565b846200035c565b602080601f8311600181146200041b5760008415620004025750858301515b600019600386901b1c1916600185901b178555620003a6565b600085815260208120601f198616915b828110156200044c578886015182559484019460019091019084016200042b565b50858210156200046b5787850151600019600388901b60f8161c191681555b5050505050600190811b01905550565b600060208083528351808285015260005b81811015620004aa578581018301518582016040015282016200048c565b506000604082860101526040601f19601f8301168501019250505092915050565b80516020808301519190811015620003565760001960209190910360031b1b16919050565b60805160a05160c05160e051610100516101205161014051612e026200054b6000396000610a6901526000610a3e0152600061156e01526000611546015260006114a1015260006114cb015260006114f50152612e026000f3fe608060405234801561001057600080fd5b506004361061025c5760003560e01c806370a0823111610145578063a217fddf116100bd578063d505accf1161008c578063d547741f11610071578063d547741f14610576578063dd62ed3e14610589578063f1127ed8146105c257600080fd5b8063d505accf1461053c578063d53913931461054f57600080fd5b8063a217fddf146104fb578063a457c2d714610503578063a9059cbb14610516578063c3cda5201461052957600080fd5b80638e539e8c1161011457806391ddadf4116100f957806391ddadf4146104c157806395d89b41146104e05780639ab24eb0146104e857600080fd5b80638e539e8c1461047557806391d148541461048857600080fd5b806370a082311461040b57806379cc6790146104345780637ecebe001461044757806384b0196e1461045a57600080fd5b806336568abe116101d857806342966c68116101a7578063587cde1e1161018c578063587cde1e1461038c5780635c19a95c146103d05780636fcfff45146103e357600080fd5b806342966c68146103715780634bf5d7e91461038457600080fd5b806336568abe1461032557806339509351146103385780633a46b1a81461034b57806340c10f191461035e57600080fd5b806323b872dd1161022f5780632f2ff15d116102145780632f2ff15d146102f9578063313ce5671461030e5780633644e5151461031d57600080fd5b806323b872dd146102c3578063248a9ca3146102d657600080fd5b806301ffc9a71461026157806306fdde0314610289578063095ea7b31461029e57806318160ddd146102b1575b600080fd5b61027461026f36600461278b565b6105ff565b60405190151581526020015b60405180910390f35b610291610698565b604051610280919061281d565b6102746102ac36600461284c565b61072a565b6002545b604051908152602001610280565b6102746102d1366004612876565b610742565b6102b56102e43660046128b2565b60009081526005602052604090206001015490565b61030c6103073660046128cb565b610766565b005b60405160128152602001610280565b6102b5610790565b61030c6103333660046128cb565b61079f565b61027461034636600461284c565b610830565b6102b561035936600461284c565b61086f565b61030c61036c36600461284c565b6108f8565b61030c61037f3660046128b2565b61092c565b610291610939565b6103b861039a3660046128f7565b6001600160a01b039081166000908152600a60205260409020541690565b6040516001600160a01b039091168152602001610280565b61030c6103de3660046128f7565b6109d1565b6103f66103f13660046128f7565b6109db565b60405163ffffffff9091168152602001610280565b6102b56104193660046128f7565b6001600160a01b031660009081526020819052604090205490565b61030c61044236600461284c565b6109fd565b6102b56104553660046128f7565b610a12565b610462610a30565b6040516102809796959493929190612912565b6102b56104833660046128b2565b610ad5565b6102746104963660046128cb565b60009182526005602090815260408084206001600160a01b0393909316845291905290205460ff1690565b6104c9610b40565b60405165ffffffffffff9091168152602001610280565b610291610b4b565b6102b56104f63660046128f7565b610b5a565b6102b5600081565b61027461051136600461284c565b610bdc565b61027461052436600461284c565b610c86565b61030c6105373660046129d5565b610c94565b61030c61054a366004612a2d565b610dca565b6102b57f9f2df0fed2c77648de5860a4cc508cd0818c85b8b8a1ab4ceeef8d981c8956a681565b61030c6105843660046128cb565b610f2e565b6102b5610597366004612a97565b6001600160a01b03918216600090815260016020908152604080832093909416825291909152205490565b6105d56105d0366004612ac1565b610f53565b60408051825163ffffffff1681526020928301516001600160e01b03169281019290925201610280565b60007fffffffff0000000000000000000000000000000000000000000000000000000082167f7965db0b00000000000000000000000000000000000000000000000000000000148061069257507f01ffc9a7000000000000000000000000000000000000000000000000000000007fffffffff000000000000000000000000000000000000000000000000000000008316145b92915050565b6060600380546106a790612b01565b80601f01602080910402602001604051908101604052809291908181526020018280546106d390612b01565b80156107205780601f106106f557610100808354040283529160200191610720565b820191906000526020600020905b81548152906001019060200180831161070357829003601f168201915b5050505050905090565b60003361073881858561100b565b5060019392505050565b600033610750858285611163565b61075b8585856111f5565b506001949350505050565b600082815260056020526040902060010154610781816113e8565b61078b83836113f2565b505050565b600061079a611494565b905090565b6001600160a01b03811633146108225760405162461bcd60e51b815260206004820152602f60248201527f416363657373436f6e74726f6c3a2063616e206f6e6c792072656e6f756e636560448201527f20726f6c657320666f722073656c66000000000000000000000000000000000060648201526084015b60405180910390fd5b61082c82826115bf565b5050565b3360008181526001602090815260408083206001600160a01b0387168452909152812054909190610738908290869061086a908790612b4b565b61100b565b6000610879610b40565b65ffffffffffff1682106108cf5760405162461bcd60e51b815260206004820152601960248201527f4552433230566f7465733a20667574757265206c6f6f6b7570000000000000006044820152606401610819565b6001600160a01b0383166000908152600b602052604090206108f19083611642565b9392505050565b7f9f2df0fed2c77648de5860a4cc508cd0818c85b8b8a1ab4ceeef8d981c8956a6610922816113e8565b61078b838361172b565b6109363382611735565b50565b606043610944610b40565b65ffffffffffff16146109995760405162461bcd60e51b815260206004820152601d60248201527f4552433230566f7465733a2062726f6b656e20636c6f636b206d6f64650000006044820152606401610819565b5060408051808201909152601d81527f6d6f64653d626c6f636b6e756d6265722666726f6d3d64656661756c74000000602082015290565b610936338261173f565b6001600160a01b0381166000908152600b6020526040812054610692906117d0565b610a08823383611163565b61082c8282611735565b6001600160a01b038116600090815260086020526040812054610692565b600060608082808083610a647f00000000000000000000000000000000000000000000000000000000000000006006611850565b610a8f7f00000000000000000000000000000000000000000000000000000000000000006007611850565b604080516000808252602082019092527f0f000000000000000000000000000000000000000000000000000000000000009b939a50919850469750309650945092509050565b6000610adf610b40565b65ffffffffffff168210610b355760405162461bcd60e51b815260206004820152601960248201527f4552433230566f7465733a20667574757265206c6f6f6b7570000000000000006044820152606401610819565b610692600c83611642565b600061079a436118f4565b6060600480546106a790612b01565b6001600160a01b0381166000908152600b60205260408120548015610bc9576001600160a01b0383166000908152600b6020526040902080546000198301908110610ba757610ba7612b74565b60009182526020909120015464010000000090046001600160e01b0316610bcc565b60005b6001600160e01b03169392505050565b3360008181526001602090815260408083206001600160a01b038716845290915281205490919083811015610c795760405162461bcd60e51b815260206004820152602560248201527f45524332303a2064656372656173656420616c6c6f77616e63652062656c6f7760448201527f207a65726f0000000000000000000000000000000000000000000000000000006064820152608401610819565b61075b828686840361100b565b6000336107388185856111f5565b83421115610ce45760405162461bcd60e51b815260206004820152601d60248201527f4552433230566f7465733a207369676e617475726520657870697265640000006044820152606401610819565b604080517fe48329057bfd03d55e49b547132e39cffd9c1820ad7b9d4c5307691425d15adf60208201526001600160a01b038816918101919091526060810186905260808101859052600090610d5e90610d569060a00160405160208183030381529060405280519060200120611972565b8585856119ba565b9050610d69816119e2565b8614610db75760405162461bcd60e51b815260206004820152601960248201527f4552433230566f7465733a20696e76616c6964206e6f6e6365000000000000006044820152606401610819565b610dc1818861173f565b50505050505050565b83421115610e1a5760405162461bcd60e51b815260206004820152601d60248201527f45524332305065726d69743a206578706972656420646561646c696e650000006044820152606401610819565b60007f6e71edae12b1b97f4d1f60370fef10105fa2faae0126114a169c64845d6126c9888888610e498c6119e2565b6040805160208101969096526001600160a01b0394851690860152929091166060840152608083015260a082015260c0810186905260e0016040516020818303038152906040528051906020012090506000610ea482611972565b90506000610eb4828787876119ba565b9050896001600160a01b0316816001600160a01b031614610f175760405162461bcd60e51b815260206004820152601e60248201527f45524332305065726d69743a20696e76616c6964207369676e617475726500006044820152606401610819565b610f228a8a8a61100b565b50505050505050505050565b600082815260056020526040902060010154610f49816113e8565b61078b83836115bf565b60408051808201909152600080825260208201526001600160a01b0383166000908152600b60205260409020805463ffffffff8416908110610f9757610f97612b74565b60009182526020918290206040805180820190915291015463ffffffff8116825264010000000090046001600160e01b0316918101919091529392505050565b6000602083511015610ff357610fec83611a0a565b9050610692565b81610ffe8482612bd8565b5060ff9050610692565b90565b6001600160a01b0383166110865760405162461bcd60e51b8152602060048201526024808201527f45524332303a20617070726f76652066726f6d20746865207a65726f2061646460448201527f72657373000000000000000000000000000000000000000000000000000000006064820152608401610819565b6001600160a01b0382166111025760405162461bcd60e51b815260206004820152602260248201527f45524332303a20617070726f766520746f20746865207a65726f20616464726560448201527f73730000000000000000000000000000000000000000000000000000000000006064820152608401610819565b6001600160a01b0383811660008181526001602090815260408083209487168084529482529182902085905590518481527f8c5be1e5ebec7d5bd14f71427d1e84f3dd0314c0f7b2291e5b200ac8c7c3b925910160405180910390a3505050565b6001600160a01b0383811660009081526001602090815260408083209386168352929052205460001981146111ef57818110156111e25760405162461bcd60e51b815260206004820152601d60248201527f45524332303a20696e73756666696369656e7420616c6c6f77616e63650000006044820152606401610819565b6111ef848484840361100b565b50505050565b6001600160a01b0383166112715760405162461bcd60e51b815260206004820152602560248201527f45524332303a207472616e736665722066726f6d20746865207a65726f20616460448201527f64726573730000000000000000000000000000000000000000000000000000006064820152608401610819565b6001600160a01b0382166112ed5760405162461bcd60e51b815260206004820152602360248201527f45524332303a207472616e7366657220746f20746865207a65726f206164647260448201527f65737300000000000000000000000000000000000000000000000000000000006064820152608401610819565b6001600160a01b0383166000908152602081905260409020548181101561137c5760405162461bcd60e51b815260206004820152602660248201527f45524332303a207472616e7366657220616d6f756e742065786365656473206260448201527f616c616e636500000000000000000000000000000000000000000000000000006064820152608401610819565b6001600160a01b03848116600081815260208181526040808320878703905593871680835291849020805487019055925185815290927fddf252ad1be2c89b69c2b068fc378daa952ba7f163c4a11628f55a4df523b3ef910160405180910390a36111ef848484611a61565b6109368133611a6c565b60008281526005602090815260408083206001600160a01b038516845290915290205460ff1661082c5760008281526005602090815260408083206001600160a01b03851684529091529020805460ff191660011790556114503390565b6001600160a01b0316816001600160a01b0316837f2f8788117e7eff1d82e926ec794901d17c78024a50270940304540a733656f0d60405160405180910390a45050565b6000306001600160a01b037f0000000000000000000000000000000000000000000000000000000000000000161480156114ed57507f000000000000000000000000000000000000000000000000000000000000000046145b1561151757507f000000000000000000000000000000000000000000000000000000000000000090565b61079a604080517f8b73c3c69bb8fe3d512ecc4cf759cc79239f7b179b0ffacaa9a75d522b39400f60208201527f0000000000000000000000000000000000000000000000000000000000000000918101919091527f000000000000000000000000000000000000000000000000000000000000000060608201524660808201523060a082015260009060c00160405160208183030381529060405280519060200120905090565b60008281526005602090815260408083206001600160a01b038516845290915290205460ff161561082c5760008281526005602090815260408083206001600160a01b0385168085529252808320805460ff1916905551339285917ff6391f5c32d9c69d2a47ea670b442974b53935d1edc7fd64eb21e047a839171b9190a45050565b81546000908181600581111561169c57600061165d84611ae1565b6116679085612c98565b600088815260209020909150869082015463ffffffff16111561168c5780915061169a565b611697816001612b4b565b92505b505b808210156116e95760006116b08383611bc9565b600088815260209020909150869082015463ffffffff1611156116d5578091506116e3565b6116e0816001612b4b565b92505b5061169c565b8015611715576000868152602090208101600019015464010000000090046001600160e01b0316611718565b60005b6001600160e01b03169695505050505050565b61082c8282611be4565b61082c8282611c7b565b6001600160a01b038281166000818152600a60208181526040808420805485845282862054949093528787167fffffffffffffffffffffffff00000000000000000000000000000000000000008416811790915590519190951694919391928592917f3134e8a2e6d97e929a7e54011ea5485d7d196dd5f0ba4d4ef95803e8e3fc257f9190a46111ef828483611c93565b600063ffffffff82111561184c5760405162461bcd60e51b815260206004820152602660248201527f53616665436173743a2076616c756520646f65736e27742066697420696e203360448201527f32206269747300000000000000000000000000000000000000000000000000006064820152608401610819565b5090565b606060ff831461186357610fec83611dd0565b81805461186f90612b01565b80601f016020809104026020016040519081016040528092919081815260200182805461189b90612b01565b80156118e85780601f106118bd576101008083540402835291602001916118e8565b820191906000526020600020905b8154815290600101906020018083116118cb57829003601f168201915b50505050509050610692565b600065ffffffffffff82111561184c5760405162461bcd60e51b815260206004820152602660248201527f53616665436173743a2076616c756520646f65736e27742066697420696e203460448201527f38206269747300000000000000000000000000000000000000000000000000006064820152608401610819565b600061069261197f611494565b836040517f19010000000000000000000000000000000000000000000000000000000000008152600281019290925260228201526042902090565b60008060006119cb87878787611e0f565b915091506119d881611ed3565b5095945050505050565b6001600160a01b03811660009081526008602052604090208054600181018255905b50919050565b600080829050601f81511115611a4e57826040517f305a27a9000000000000000000000000000000000000000000000000000000008152600401610819919061281d565b8051611a5982612cab565b179392505050565b61078b838383612038565b60008281526005602090815260408083206001600160a01b038516845290915290205460ff1661082c57611a9f8161206a565b611aaa83602061207c565b604051602001611abb929190612ccf565b60408051601f198184030181529082905262461bcd60e51b82526108199160040161281d565b600081600003611af357506000919050565b60006001611b008461225d565b901c6001901b90506001818481611b1957611b19612d50565b048201901c90506001818481611b3157611b31612d50565b048201901c90506001818481611b4957611b49612d50565b048201901c90506001818481611b6157611b61612d50565b048201901c90506001818481611b7957611b79612d50565b048201901c90506001818481611b9157611b91612d50565b048201901c90506001818481611ba957611ba9612d50565b048201901c90506108f181828581611bc357611bc3612d50565b046122f1565b6000611bd86002848418612d66565b6108f190848416612b4b565b611bee8282612307565b6002546001600160e01b031015611c6d5760405162461bcd60e51b815260206004820152603060248201527f4552433230566f7465733a20746f74616c20737570706c79207269736b73206f60448201527f766572666c6f77696e6720766f746573000000000000000000000000000000006064820152608401610819565b6111ef600c6123ce836123da565b611c85828261254f565b6111ef600c6126bf836123da565b816001600160a01b0316836001600160a01b031614158015611cb55750600081115b1561078b576001600160a01b03831615611d43576001600160a01b0383166000908152600b602052604081208190611cf0906126bf856123da565b91509150846001600160a01b03167fdec2bacdd2f05b59de34da9b523dff8be42e5e38e818c82fdb0bae774387a7248383604051611d38929190918252602082015260400190565b60405180910390a250505b6001600160a01b0382161561078b576001600160a01b0382166000908152600b602052604081208190611d79906123ce856123da565b91509150836001600160a01b03167fdec2bacdd2f05b59de34da9b523dff8be42e5e38e818c82fdb0bae774387a7248383604051611dc1929190918252602082015260400190565b60405180910390a25050505050565b60606000611ddd836126cb565b604080516020808252818301909252919250600091906020820181803683375050509182525060208101929092525090565b6000807f7fffffffffffffffffffffffffffffff5d576e7357a4501ddfe92f46681b20a0831115611e465750600090506003611eca565b6040805160008082526020820180845289905260ff881692820192909252606081018690526080810185905260019060a0016020604051602081039080840390855afa158015611e9a573d6000803e3d6000fd5b5050604051601f1901519150506001600160a01b038116611ec357600060019250925050611eca565b9150600090505b94509492505050565b6000816004811115611ee757611ee7612d88565b03611eef5750565b6001816004811115611f0357611f03612d88565b03611f505760405162461bcd60e51b815260206004820152601860248201527f45434453413a20696e76616c6964207369676e617475726500000000000000006044820152606401610819565b6002816004811115611f6457611f64612d88565b03611fb15760405162461bcd60e51b815260206004820152601f60248201527f45434453413a20696e76616c6964207369676e6174757265206c656e677468006044820152606401610819565b6003816004811115611fc557611fc5612d88565b036109365760405162461bcd60e51b815260206004820152602260248201527f45434453413a20696e76616c6964207369676e6174757265202773272076616c60448201527f75650000000000000000000000000000000000000000000000000000000000006064820152608401610819565b6001600160a01b038381166000908152600a602052604080822054858416835291205461078b92918216911683611c93565b60606106926001600160a01b03831660145b6060600061208b836002612d9e565b612096906002612b4b565b67ffffffffffffffff8111156120ae576120ae612b5e565b6040519080825280601f01601f1916602001820160405280156120d8576020820181803683370190505b5090507f30000000000000000000000000000000000000000000000000000000000000008160008151811061210f5761210f612b74565b60200101906001600160f81b031916908160001a9053507f78000000000000000000000000000000000000000000000000000000000000008160018151811061215a5761215a612b74565b60200101906001600160f81b031916908160001a905350600061217e846002612d9e565b612189906001612b4b565b90505b600181111561220e577f303132333435363738396162636465660000000000000000000000000000000085600f16601081106121ca576121ca612b74565b1a60f81b8282815181106121e0576121e0612b74565b60200101906001600160f81b031916908160001a90535060049490941c9361220781612db5565b905061218c565b5083156108f15760405162461bcd60e51b815260206004820181905260248201527f537472696e67733a20686578206c656e67746820696e73756666696369656e746044820152606401610819565b600080608083901c1561227257608092831c92015b604083901c1561228457604092831c92015b602083901c1561229657602092831c92015b601083901c156122a857601092831c92015b600883901c156122ba57600892831c92015b600483901c156122cc57600492831c92015b600283901c156122de57600292831c92015b600183901c156106925760010192915050565b600081831061230057816108f1565b5090919050565b6001600160a01b03821661235d5760405162461bcd60e51b815260206004820152601f60248201527f45524332303a206d696e7420746f20746865207a65726f2061646472657373006044820152606401610819565b806002600082825461236f9190612b4b565b90915550506001600160a01b038216600081815260208181526040808320805486019055518481527fddf252ad1be2c89b69c2b068fc378daa952ba7f163c4a11628f55a4df523b3ef910160405180910390a361082c60008383611a61565b60006108f18284612b4b565b825460009081908181156124275760008781526020902082016000190160408051808201909152905463ffffffff8116825264010000000090046001600160e01b0316602082015261243c565b60408051808201909152600080825260208201525b905080602001516001600160e01b0316935061245c84868863ffffffff16565b92506000821180156124865750612471610b40565b65ffffffffffff16816000015163ffffffff16145b156124cb576124948361270c565b60008881526020902083016000190180546001600160e01b03929092166401000000000263ffffffff909216919091179055612545565b8660405180604001604052806124ef6124e2610b40565b65ffffffffffff166117d0565b63ffffffff1681526020016125038661270c565b6001600160e01b0390811690915282546001810184556000938452602093849020835194909301519091166401000000000263ffffffff909316929092179101555b5050935093915050565b6001600160a01b0382166125cb5760405162461bcd60e51b815260206004820152602160248201527f45524332303a206275726e2066726f6d20746865207a65726f2061646472657360448201527f73000000000000000000000000000000000000000000000000000000000000006064820152608401610819565b6001600160a01b0382166000908152602081905260409020548181101561265a5760405162461bcd60e51b815260206004820152602260248201527f45524332303a206275726e20616d6f756e7420657863656564732062616c616e60448201527f63650000000000000000000000000000000000000000000000000000000000006064820152608401610819565b6001600160a01b0383166000818152602081815260408083208686039055600280548790039055518581529192917fddf252ad1be2c89b69c2b068fc378daa952ba7f163c4a11628f55a4df523b3ef910160405180910390a361078b83600084611a61565b60006108f18284612c98565b600060ff8216601f811115610692576040517fb3512b0c00000000000000000000000000000000000000000000000000000000815260040160405180910390fd5b60006001600160e01b0382111561184c5760405162461bcd60e51b815260206004820152602760248201527f53616665436173743a2076616c756520646f65736e27742066697420696e203260448201527f32342062697473000000000000000000000000000000000000000000000000006064820152608401610819565b60006020828403121561279d57600080fd5b81357fffffffff00000000000000000000000000000000000000000000000000000000811681146108f157600080fd5b60005b838110156127e85781810151838201526020016127d0565b50506000910152565b600081518084526128098160208601602086016127cd565b601f01601f19169290920160200192915050565b6020815260006108f160208301846127f1565b80356001600160a01b038116811461284757600080fd5b919050565b6000806040838503121561285f57600080fd5b61286883612830565b946020939093013593505050565b60008060006060848603121561288b57600080fd5b61289484612830565b92506128a260208501612830565b9150604084013590509250925092565b6000602082840312156128c457600080fd5b5035919050565b600080604083850312156128de57600080fd5b823591506128ee60208401612830565b90509250929050565b60006020828403121561290957600080fd5b6108f182612830565b7fff00000000000000000000000000000000000000000000000000000000000000881681526000602060e08184015261294e60e084018a6127f1565b8381036040850152612960818a6127f1565b606085018990526001600160a01b038816608086015260a0850187905284810360c0860152855180825283870192509083019060005b818110156129b257835183529284019291840191600101612996565b50909c9b505050505050505050505050565b803560ff8116811461284757600080fd5b60008060008060008060c087890312156129ee57600080fd5b6129f787612830565b95506020870135945060408701359350612a13606088016129c4565b92506080870135915060a087013590509295509295509295565b600080600080600080600060e0888a031215612a4857600080fd5b612a5188612830565b9650612a5f60208901612830565b95506040880135945060608801359350612a7b608089016129c4565b925060a0880135915060c0880135905092959891949750929550565b60008060408385031215612aaa57600080fd5b612ab383612830565b91506128ee60208401612830565b60008060408385031215612ad457600080fd5b612add83612830565b9150602083013563ffffffff81168114612af657600080fd5b809150509250929050565b600181811c90821680612b1557607f821691505b602082108103611a0457634e487b7160e01b600052602260045260246000fd5b634e487b7160e01b600052601160045260246000fd5b8082018082111561069257610692612b35565b634e487b7160e01b600052604160045260246000fd5b634e487b7160e01b600052603260045260246000fd5b601f82111561078b57600081815260208120601f850160051c81016020861015612bb15750805b601f850160051c820191505b81811015612bd057828155600101612bbd565b505050505050565b815167ffffffffffffffff811115612bf257612bf2612b5e565b612c0681612c008454612b01565b84612b8a565b602080601f831160018114612c3b5760008415612c235750858301515b600019600386901b1c1916600185901b178555612bd0565b600085815260208120601f198616915b82811015612c6a57888601518255948401946001909101908401612c4b565b5085821015612c885787850151600019600388901b60f8161c191681555b5050505050600190811b01905550565b8181038181111561069257610692612b35565b80516020808301519190811015611a045760001960209190910360031b1b16919050565b7f416363657373436f6e74726f6c3a206163636f756e7420000000000000000000815260008351612d078160178501602088016127cd565b7f206973206d697373696e6720726f6c65200000000000000000000000000000006017918401918201528351612d448160288401602088016127cd565b01602801949350505050565b634e487b7160e01b600052601260045260246000fd5b600082612d8357634e487b7160e01b600052601260045260246000fd5b500490565b634e487b7160e01b600052602160045260246000fd5b808202811582820484141761069257610692612b35565b600081612dc457612dc4612b35565b50600019019056fea2646970667358221220c4f6a51b5c7219ea1f86a7b17dc6b4873559104e8cd76b8969fbec6640ee104a64736f6c63430008110033",
  "linkReferences": {},
  "deployedLinkReferences": {}
}