{
  "_format": "hh-sol-artifact-1",
  "contractName": "MitchToken",
  "sourceName": "contracts/MitchToken.sol",
  "abi": [
    {
      "inputs": [],
      "stateMutability": "nonpayable",
      "type": "constructor"
    },
    {
      "anonymous": false,
      "inputs": [
        {
          "indexed": true,
          "internalType": "address",
          "name": "owner",
          "type": "address"
        },
        {
          "indexed": true,
          "internalType": "address",
          "name": "spender",
          "type": "address"
        },
        {
          "indexed": false,
          "internalType": "uint256",
          "name": "value",
          "type": "uint256"
        }
      ],
      "name": "Approval",
      "type": "event"
    },
    {
      "anonymous": false,
      "inputs": [
        {
          "indexed": true,
          "internalType": "address",
          "name": "delegator",
          "type": "address"
        },
        {
          "indexed": true,
          "internalType": "address",
          "name": "fromDelegate",
          "type": "address"
        },
        {
          "indexed": true,
          "internalType": "address",
          "name": "toDelegate",
          "type": "address"
        }
      ],
      "name": "DelegateChanged",
      "type": "event"
    },
    {
      "anonymous": false,
      "inputs": [
        {
          "indexed": true,
          "internalType": "address",
          "name": "delegate",
          "type": "address"
        },
        {
          "indexed": false,
          "internalType": "uint256",
          "name": "previousBalance",
          "type": "uint256"
        },
        {
          "indexed": false,
          "internalType": "uint256",
          "name": "newBalance",
          "type": "uint256"
        }
      ],
      "name": "DelegateVotesChanged",
      "type": "event"
    },
    {
      "anonymous": false,
      "inputs": [
        {
          "indexed": true,
          "internalType": "bytes32",
          "name": "role",
          "type": "bytes32"
        },
        {
          "indexed": true,
          "internalType": "bytes32",
          "name": "previousAdminRole",
          "type": "bytes32"
        },
        {
          "indexed": true,
          "internalType": "bytes32",
          "name": "newAdminRole",
          "type": "bytes32"
        }
      ],
      "name": "RoleAdminChanged",
      "type": "event"
    },
    {
      "anonymous": false,
      "inputs": [
        {
          "indexed": true,
          "internalType": "bytes32",
          "name": "role",
          "type": "bytes32"
        },
        {
          "indexed": true,
          "internalType": "address",
          "name": "account",
          "type": "address"
        },
        {
          "indexed": true,
          "internalType": "address",
          "name": "sender",
          "type": "address"
        }
      ],
      "name": "RoleGranted",
      "type": "event"
    },
    {
      "anonymous": false,
      "inputs": [
        {
          "indexed": true,
          "internalType": "bytes32",
          "name": "role",
          "type": "bytes32"
        },
        {
          "indexed": true,
          "internalType": "address",
          "name": "account",
          "type": "address"
        },
        {
          "indexed": true,
          "internalType": "address",
          "name": "sender",
          "type": "address"
        }
      ],
      "name": "RoleRevoked",
      "type": "event"
    },
    {
      "anonymous": false,
      "inputs": [
        {
          "indexed": true,
          "internalType": "address",
          "name": "from",
          "type": "address"
        },
        {
          "indexed": true,
          "internalType": "address",
          "name": "to",
          "type": "address"
        },
        {
          "indexed": false,
          "internalType": "uint256",
          "name": "value",
          "type": "uint256"
        }
      ],
      "name": "Transfer",
      "type": "event"
    },
    {
      "inputs": [],
      "name": "DEFAULT_ADMIN_ROLE",
      "outputs": [
        {
          "internalType": "bytes32",
          "name": "",
          "type": "bytes32"
        }
      ],
      "stateMutability": "view",
      "type": "function"
    },
    {
      "inputs": [],
      "name": "DOMAIN_SEPARATOR",
      "outputs": [
        {
          "internalType": "bytes32",
          "name": "",
          "type": "bytes32"
        }
      ],
      "stateMutability": "view",
      "type": "function"
    },
    {
      "inputs": [],
      "name": "MINTER_ROLE",
      "outputs": [
        {
          "internalType": "bytes32",
          "name": "",
          "type": "bytes32"
        }
      ],
      "stateMutability": "view",
      "type": "function"
    },
    {
      "inputs": [
        {
          "internalType": "address",
          "name": "owner",
          "type": "address"
        },
        {
          "internalType": "address",
          "name": "spender",
          "type": "address"
        }
      ],
      "name": "allowance",
      "outputs": [
        {
          "internalType": "uint256",
          "name": "",
          "type": "uint256"
        }
      ],
      "stateMutability": "view",
      "type": "function"
    },
    {
      "inputs": [
        {
          "internalType": "address",
          "name": "spender",
          "type": "address"
        },
        {
          "internalType": "uint256",
          "name": "amount",
          "type": "uint256"
        }
      ],
      "name": "approve",
      "outputs": [
        {
          "internalType": "bool",
          "name": "",
          "type": "bool"
        }
      ],
      "stateMutability": "nonpayable",
      "type": "function"
    },
    {
      "inputs": [
        {
          "internalType": "address",
          "name": "account",
          "type": "address"
        }
      ],
      "name": "balanceOf",
      "outputs": [
        {
          "internalType": "uint256",
          "name": "",
          "type": "uint256"
        }
      ],
      "stateMutability": "view",
      "type": "function"
    },
    {
      "inputs": [
        {
          "internalType": "uint256",
          "name": "amount",
          "type": "uint256"
        }
      ],
      "name": "burn",
      "outputs": [],
      "stateMutability": "nonpayable",
      "type": "function"
    },
    {
      "inputs": [
        {
          "internalType": "address",
          "name": "account",
          "type": "address"
        },
        {
          "internalType": "uint256",
          "name": "amount",
          "type": "uint256"
        }
      ],
      "name": "burnFrom",
      "outputs": [],
      "stateMutability": "nonpayable",
      "type": "function"
    },
    {
      "inputs": [
        {
          "internalType": "address",
          "name": "account",
          "type": "address"
        },
        {
          "internalType": "uint32",
          "name": "pos",
          "type": "uint32"
        }
      ],
      "name": "checkpoints",
      "outputs": [
        {
          "components": [
            {
              "internalType": "uint32",
              "name": "fromBlock",
              "type": "uint32"
            },
            {
              "internalType": "uint224",
              "name": "votes",
              "type": "uint224"
            }
          ],
          "internalType": "struct ERC20Votes.Checkpoint",
          "name": "",
          "type": "tuple"
        }
      ],
      "stateMutability": "view",
      "type": "function"
    },
    {
      "inputs": [],
      "name": "decimals",
      "outputs": [
        {
          "internalType": "uint8",
          "name": "",
          "type": "uint8"
        }
      ],
      "stateMutability": "view",
      "type": "function"
    },
    {
      "inputs": [
        {
          "internalType": "address",
          "name": "spender",
          "type": "address"
        },
        {
          "internalType": "uint256",
          "name": "subtractedValue",
          "type": "uint256"
        }
      ],
      "name": "decreaseAllowance",
      "outputs": [
        {
          "internalType": "bool",
          "name": "",
          "type": "bool"
        }
      ],
      "stateMutability": "nonpayable",
      "type": "function"
    },
    {
      "inputs": [
        {
          "internalType": "address",
          "name": "delegatee",
          "type": "address"
        }
      ],
      "name": "delegate",
      "outputs": [],
      "stateMutability": "nonpayable",
      "type": "function"
    },
    {
      "inputs": [
        {
          "internalType": "address",
          "name": "delegatee",
          "type": "address"
        },
        {
          "internalType": "uint256",
          "name": "nonce",
          "type": "uint256"
        },
        {
          "internalType": "uint256",
          "name": "expiry",
          "type": "uint256"
        },
        {
          "internalType": "uint8",
          "name": "v",
          "type": "uint8"
        },
        {
          "internalType": "bytes32",
          "name": "r",
          "type": "bytes32"
        },
        {
          "internalType": "bytes32",
          "name": "s",
          "type": "bytes32"
        }
      ],
      "name": "delegateBySig",
      "outputs": [],
      "stateMutability": "nonpayable",
      "type": "function"
    },
    {
      "inputs": [
        {
          "internalType": "address",
          "name": "account",
          "type": "address"
        }
      ],
      "name": "delegates",
      "outputs": [
        {
          "internalType": "address",
          "name": "",
          "type": "address"
        }
      ],
      "stateMutability": "view",
      "type": "function"
    },
    {
      "inputs": [
        {
          "internalType": "uint256",
          "name": "blockNumber",
          "type": "uint256"
        }
      ],
      "name": "getPastTotalSupply",
      "outputs": [
        {
          "internalType": "uint256",
          "name": "",
          "type": "uint256"
        }
      ],
      "stateMutability": "view",
      "type": "function"
    },
    {
      "inputs": [
        {
          "internalType": "address",
          "name": "account",
          "type": "address"
        },
        {
          "internalType": "uint256",
          "name": "blockNumber",
          "type": "uint256"
        }
      ],
      "name": "getPastVotes",
      "outputs": [
        {
          "internalType": "uint256",
          "name": "",
          "type": "uint256"
        }
      ],
      "stateMutability": "view",
      "type": "function"
    },
    {
      "inputs": [
        {
          "internalType": "bytes32",
          "name": "role",
          "type": "bytes32"
        }
      ],
      "name": "getRoleAdmin",
      "outputs": [
        {
          "internalType": "bytes32",
          "name": "",
          "type": "bytes32"
        }
      ],
      "stateMutability": "view",
      "type": "function"
    },
    {
      "inputs": [
        {
          "internalType": "address",
          "name": "account",
          "type": "address"
        }
      ],
      "name": "getVotes",
      "outputs": [
        {
          "internalType": "uint256",
          "name": "",
          "type": "uint256"
        }
      ],
      "stateMutability": "view",
      "type": "function"
    },
    {
      "inputs": [
        {
          "internalType": "bytes32",
          "name": "role",
          "type": "bytes32"
        },
        {
          "internalType": "address",
          "name": "account",
          "type": "address"
        }
      ],
      "name": "grantRole",
      "outputs": [],
      "stateMutability": "nonpayable",
      "type": "function"
    },
    {
      "inputs": [
        {
          "internalType": "bytes32",
          "name": "role",
          "type": "bytes32"
        },
        {
          "internalType": "address",
          "name": "account",
          "type": "address"
        }
      ],
      "name": "hasRole",
      "outputs": [
        {
          "internalType": "bool",
          "name": "",
          "type": "bool"
        }
      ],
      "stateMutability": "view",
      "type": "function"
    },
    {
      "inputs": [
        {
          "internalType": "address",
          "name": "spender",
          "type": "address"
        },
        {
          "internalType": "uint256",
          "name": "addedValue",
          "type": "uint256"
        }
      ],
      "name": "increaseAllowance",
      "outputs": [
        {
          "internalType": "bool",
          "name": "",
          "type": "bool"
        }
      ],
      "stateMutability": "nonpayable",
      "type": "function"
    },
    {
      "inputs": [
        {
          "internalType": "address",
          "name": "to",
          "type": "address"
        },
        {
          "internalType": "uint256",
          "name": "amount",
          "type": "uint256"
        }
      ],
      "name": "mint",
      "outputs": [],
      "stateMutability": "nonpayable",
      "type": "function"
    },
    {
      "inputs": [],
      "name": "name",
      "outputs": [
        {
          "internalType": "string",
          "name": "",
          "type": "string"
        }
      ],
      "stateMutability": "view",
      "type": "function"
    },
    {
      "inputs": [
        {
          "internalType": "address",
          "name": "owner",
          "type": "address"
        }
      ],
      "name": "nonces",
      "outputs": [
        {
          "internalType": "uint256",
          "name": "",
          "type": "uint256"
        }
      ],
      "stateMutability": "view",
      "type": "function"
    },
    {
      "inputs": [
        {
          "internalType": "address",
          "name": "account",
          "type": "address"
        }
      ],
      "name": "numCheckpoints",
      "outputs": [
        {
          "internalType": "uint32",
          "name": "",
          "type": "uint32"
        }
      ],
      "stateMutability": "view",
      "type": "function"
    },
    {
      "inputs": [
        {
          "internalType": "address",
          "name": "owner",
          "type": "address"
        },
        {
          "internalType": "address",
          "name": "spender",
          "type": "address"
        },
        {
          "internalType": "uint256",
          "name": "value",
          "type": "uint256"
        },
        {
          "internalType": "uint256",
          "name": "deadline",
          "type": "uint256"
        },
        {
          "internalType": "uint8",
          "name": "v",
          "type": "uint8"
        },
        {
          "internalType": "bytes32",
          "name": "r",
          "type": "bytes32"
        },
        {
          "internalType": "bytes32",
          "name": "s",
          "type": "bytes32"
        }
      ],
      "name": "permit",
      "outputs": [],
      "stateMutability": "nonpayable",
      "type": "function"
    },
    {
      "inputs": [
        {
          "internalType": "bytes32",
          "name": "role",
          "type": "bytes32"
        },
        {
          "internalType": "address",
          "name": "account",
          "type": "address"
        }
      ],
      "name": "renounceRole",
      "outputs": [],
      "stateMutability": "nonpayable",
      "type": "function"
    },
    {
      "inputs": [
        {
          "internalType": "bytes32",
          "name": "role",
          "type": "bytes32"
        },
        {
          "internalType": "address",
          "name": "account",
          "type": "address"
        }
      ],
      "name": "revokeRole",
      "outputs": [],
      "stateMutability": "nonpayable",
      "type": "function"
    },
    {
      "inputs": [
        {
          "internalType": "bytes4",
          "name": "interfaceId",
          "type": "bytes4"
        }
      ],
      "name": "supportsInterface",
      "outputs": [
        {
          "internalType": "bool",
          "name": "",
          "type": "bool"
        }
      ],
      "stateMutability": "view",
      "type": "function"
    },
    {
      "inputs": [],
      "name": "symbol",
      "outputs": [
        {
          "internalType": "string",
          "name": "",
          "type": "string"
        }
      ],
      "stateMutability": "view",
      "type": "function"
    },
    {
      "inputs": [],
      "name": "totalSupply",
      "outputs": [
        {
          "internalType": "uint256",
          "name": "",
          "type": "uint256"
        }
      ],
      "stateMutability": "view",
      "type": "function"
    },
    {
      "inputs": [
        {
          "internalType": "address",
          "name": "to",
          "type": "address"
        },
        {
          "internalType": "uint256",
          "name": "amount",
          "type": "uint256"
        }
      ],
      "name": "transfer",
      "outputs": [
        {
          "internalType": "bool",
          "name": "",
          "type": "bool"
        }
      ],
      "stateMutability": "nonpayable",
      "type": "function"
    },
    {
      "inputs": [
        {
          "internalType": "address",
          "name": "from",
          "type": "address"
        },
        {
          "internalType": "address",
          "name": "to",
          "type": "address"
        },
        {
          "internalType": "uint256",
          "name": "amount",
          "type": "uint256"
        }
      ],
      "name": "transferFrom",
      "outputs": [
        {
          "internalType": "bool",
          "name": "",
          "type": "bool"
        }
      ],
      "stateMutability": "nonpayable",
      "type": "function"
    }
  ],
  "bytecode": "0x6101406040523480156200001257600080fd5b506040518060400160405280600b81526020016a26b4ba31b4102a37b5b2b760a91b81525080604051806040016040528060018152602001603160f81b8152506040518060400160405280600b81526020016a26b4ba31b4102a37b5b2b760a91b8152506040518060400160405280600581526020016409a92a886960db1b8152508160039081620000a59190620002d1565b506004620000b48282620002d1565b5050825160209384012082519284019290922060e08390526101008190524660a0818152604080517f8b73c3c69bb8fe3d512ecc4cf759cc79239f7b179b0ffacaa9a75d522b39400f818901819052818301979097526060810194909452608080850193909352308483018190528151808603909301835260c094850190915281519190960120905292909252610120525062000155905060003362000187565b620001817f9f2df0fed2c77648de5860a4cc508cd0818c85b8b8a1ab4ceeef8d981c8956a63362000187565b6200039d565b60008281526005602090815260408083206001600160a01b038516845290915290205460ff16620002285760008281526005602090815260408083206001600160a01b03851684529091529020805460ff19166001179055620001e73390565b6001600160a01b0316816001600160a01b0316837f2f8788117e7eff1d82e926ec794901d17c78024a50270940304540a733656f0d60405160405180910390a45b5050565b634e487b7160e01b600052604160045260246000fd5b600181811c908216806200025757607f821691505b6020821081036200027857634e487b7160e01b600052602260045260246000fd5b50919050565b601f821115620002cc57600081815260208120601f850160051c81016020861015620002a75750805b601f850160051c820191505b81811015620002c857828155600101620002b3565b5050505b505050565b81516001600160401b03811115620002ed57620002ed6200022c565b6200030581620002fe845462000242565b846200027e565b602080601f8311600181146200033d5760008415620003245750858301515b600019600386901b1c1916600185901b178555620002c8565b600085815260208120601f198616915b828110156200036e578886015182559484019460019091019084016200034d565b50858210156200038d5787850151600019600388901b60f8161c191681555b5050505050600190811b01905550565b60805160a05160c05160e0516101005161012051612717620003ed60003960006113200152600061136f0152600061134a015260006112a3015260006112cd015260006112f701526127176000f3fe608060405234801561001057600080fd5b506004361061020b5760003560e01c80636fcfff451161012a578063a217fddf116100bd578063d505accf1161008c578063d547741f11610071578063d547741f146104e3578063dd62ed3e146104f6578063f1127ed81461052f57600080fd5b8063d505accf146104a9578063d5391393146104bc57600080fd5b8063a217fddf14610468578063a457c2d714610470578063a9059cbb14610483578063c3cda5201461049657600080fd5b80638e539e8c116100f95780638e539e8c1461040157806391d148541461041457806395d89b411461044d5780639ab24eb01461045557600080fd5b80636fcfff451461038a57806370a08231146103b257806379cc6790146103db5780637ecebe00146103ee57600080fd5b80633644e515116101a257806340c10f191161017157806340c10f191461030d57806342966c6814610320578063587cde1e146103335780635c19a95c1461037757600080fd5b80633644e515146102cc57806336568abe146102d457806339509351146102e75780633a46b1a8146102fa57600080fd5b806323b872dd116101de57806323b872dd14610272578063248a9ca3146102855780632f2ff15d146102a8578063313ce567146102bd57600080fd5b806301ffc9a71461021057806306fdde0314610238578063095ea7b31461024d57806318160ddd14610260575b600080fd5b61022361021e3660046122a6565b61056c565b60405190151581526020015b60405180910390f35b610240610605565b60405161022f919061230c565b61022361025b36600461235b565b610697565b6002545b60405190815260200161022f565b610223610280366004612385565b6106af565b6102646102933660046123c1565b60009081526005602052604090206001015490565b6102bb6102b63660046123da565b6106d3565b005b6040516012815260200161022f565b6102646106fd565b6102bb6102e23660046123da565b61070c565b6102236102f536600461235b565b61079d565b61026461030836600461235b565b6107dc565b6102bb61031b36600461235b565b610856565b6102bb61032e3660046123c1565b61088a565b61035f610341366004612406565b6001600160a01b039081166000908152600860205260409020541690565b6040516001600160a01b03909116815260200161022f565b6102bb610385366004612406565b610897565b61039d610398366004612406565b6108a1565b60405163ffffffff909116815260200161022f565b6102646103c0366004612406565b6001600160a01b031660009081526020819052604090205490565b6102bb6103e936600461235b565b6108c3565b6102646103fc366004612406565b6108d8565b61026461040f3660046123c1565b6108f6565b6102236104223660046123da565b60009182526005602090815260408084206001600160a01b0393909316845291905290205460ff1690565b610240610952565b610264610463366004612406565b610961565b610264600081565b61022361047e36600461235b565b6109e8565b61022361049136600461235b565b610a92565b6102bb6104a4366004612432565b610aa0565b6102bb6104b736600461248a565b610bd6565b6102647f9f2df0fed2c77648de5860a4cc508cd0818c85b8b8a1ab4ceeef8d981c8956a681565b6102bb6104f13660046123da565b610d3a565b6102646105043660046124f4565b6001600160a01b03918216600090815260016020908152604080832093909416825291909152205490565b61054261053d36600461251e565b610d5f565b60408051825163ffffffff1681526020928301516001600160e01b0316928101929092520161022f565b60007fffffffff0000000000000000000000000000000000000000000000000000000082167f7965db0b0000000000000000000000000000000000000000000000000000000014806105ff57507f01ffc9a7000000000000000000000000000000000000000000000000000000007fffffffff000000000000000000000000000000000000000000000000000000008316145b92915050565b6060600380546106149061255e565b80601f01602080910402602001604051908101604052809291908181526020018280546106409061255e565b801561068d5780601f106106625761010080835404028352916020019161068d565b820191906000526020600020905b81548152906001019060200180831161067057829003601f168201915b5050505050905090565b6000336106a5818585610de3565b5060019392505050565b6000336106bd858285610f3b565b6106c8858585610fcd565b506001949350505050565b6000828152600560205260409020600101546106ee816111ea565b6106f883836111f4565b505050565b6000610707611296565b905090565b6001600160a01b038116331461078f5760405162461bcd60e51b815260206004820152602f60248201527f416363657373436f6e74726f6c3a2063616e206f6e6c792072656e6f756e636560448201527f20726f6c657320666f722073656c66000000000000000000000000000000000060648201526084015b60405180910390fd5b61079982826113bd565b5050565b3360008181526001602090815260408083206001600160a01b03871684529091528120549091906106a590829086906107d79087906125a8565b610de3565b600043821061082d5760405162461bcd60e51b815260206004820152601f60248201527f4552433230566f7465733a20626c6f636b206e6f7420796574206d696e6564006044820152606401610786565b6001600160a01b038316600090815260096020526040902061084f9083611440565b9392505050565b7f9f2df0fed2c77648de5860a4cc508cd0818c85b8b8a1ab4ceeef8d981c8956a6610880816111ea565b6106f883836114fd565b6108943382611507565b50565b6108943382611511565b6001600160a01b0381166000908152600960205260408120546105ff906115a2565b6108ce823383610f3b565b6107998282611507565b6001600160a01b0381166000908152600660205260408120546105ff565b60004382106109475760405162461bcd60e51b815260206004820152601f60248201527f4552433230566f7465733a20626c6f636b206e6f7420796574206d696e6564006044820152606401610786565b6105ff600a83611440565b6060600480546106149061255e565b6001600160a01b03811660009081526009602052604081205480156109d5576001600160a01b03831660009081526009602052604090206109a36001836125bb565b815481106109b3576109b36125ce565b60009182526020909120015464010000000090046001600160e01b03166109d8565b60005b6001600160e01b03169392505050565b3360008181526001602090815260408083206001600160a01b038716845290915281205490919083811015610a855760405162461bcd60e51b815260206004820152602560248201527f45524332303a2064656372656173656420616c6c6f77616e63652062656c6f7760448201527f207a65726f0000000000000000000000000000000000000000000000000000006064820152608401610786565b6106c88286868403610de3565b6000336106a5818585610fcd565b83421115610af05760405162461bcd60e51b815260206004820152601d60248201527f4552433230566f7465733a207369676e617475726520657870697265640000006044820152606401610786565b604080517fe48329057bfd03d55e49b547132e39cffd9c1820ad7b9d4c5307691425d15adf60208201526001600160a01b038816918101919091526060810186905260808101859052600090610b6a90610b629060a00160405160208183030381529060405280519060200120611622565b85858561168b565b9050610b75816116b3565b8614610bc35760405162461bcd60e51b815260206004820152601960248201527f4552433230566f7465733a20696e76616c6964206e6f6e6365000000000000006044820152606401610786565b610bcd8188611511565b50505050505050565b83421115610c265760405162461bcd60e51b815260206004820152601d60248201527f45524332305065726d69743a206578706972656420646561646c696e650000006044820152606401610786565b60007f6e71edae12b1b97f4d1f60370fef10105fa2faae0126114a169c64845d6126c9888888610c558c6116b3565b6040805160208101969096526001600160a01b0394851690860152929091166060840152608083015260a082015260c0810186905260e0016040516020818303038152906040528051906020012090506000610cb082611622565b90506000610cc08287878761168b565b9050896001600160a01b0316816001600160a01b031614610d235760405162461bcd60e51b815260206004820152601e60248201527f45524332305065726d69743a20696e76616c6964207369676e617475726500006044820152606401610786565b610d2e8a8a8a610de3565b50505050505050505050565b600082815260056020526040902060010154610d55816111ea565b6106f883836113bd565b60408051808201909152600080825260208201526001600160a01b0383166000908152600960205260409020805463ffffffff8416908110610da357610da36125ce565b60009182526020918290206040805180820190915291015463ffffffff8116825264010000000090046001600160e01b0316918101919091529392505050565b6001600160a01b038316610e5e5760405162461bcd60e51b8152602060048201526024808201527f45524332303a20617070726f76652066726f6d20746865207a65726f2061646460448201527f72657373000000000000000000000000000000000000000000000000000000006064820152608401610786565b6001600160a01b038216610eda5760405162461bcd60e51b815260206004820152602260248201527f45524332303a20617070726f766520746f20746865207a65726f20616464726560448201527f73730000000000000000000000000000000000000000000000000000000000006064820152608401610786565b6001600160a01b0383811660008181526001602090815260408083209487168084529482529182902085905590518481527f8c5be1e5ebec7d5bd14f71427d1e84f3dd0314c0f7b2291e5b200ac8c7c3b925910160405180910390a3505050565b6001600160a01b038381166000908152600160209081526040808320938616835292905220546000198114610fc75781811015610fba5760405162461bcd60e51b815260206004820152601d60248201527f45524332303a20696e73756666696369656e7420616c6c6f77616e63650000006044820152606401610786565b610fc78484848403610de3565b50505050565b6001600160a01b0383166110495760405162461bcd60e51b815260206004820152602560248201527f45524332303a207472616e736665722066726f6d20746865207a65726f20616460448201527f64726573730000000000000000000000000000000000000000000000000000006064820152608401610786565b6001600160a01b0382166110c55760405162461bcd60e51b815260206004820152602360248201527f45524332303a207472616e7366657220746f20746865207a65726f206164647260448201527f65737300000000000000000000000000000000000000000000000000000000006064820152608401610786565b6001600160a01b038316600090815260208190526040902054818110156111545760405162461bcd60e51b815260206004820152602660248201527f45524332303a207472616e7366657220616d6f756e742065786365656473206260448201527f616c616e636500000000000000000000000000000000000000000000000000006064820152608401610786565b6001600160a01b0380851660009081526020819052604080822085850390559185168152908120805484929061118b9084906125a8565b92505081905550826001600160a01b0316846001600160a01b03167fddf252ad1be2c89b69c2b068fc378daa952ba7f163c4a11628f55a4df523b3ef846040516111d791815260200190565b60405180910390a3610fc78484846116db565b61089481336116e6565b60008281526005602090815260408083206001600160a01b038516845290915290205460ff166107995760008281526005602090815260408083206001600160a01b03851684529091529020805460ff191660011790556112523390565b6001600160a01b0316816001600160a01b0316837f2f8788117e7eff1d82e926ec794901d17c78024a50270940304540a733656f0d60405160405180910390a45050565b6000306001600160a01b037f0000000000000000000000000000000000000000000000000000000000000000161480156112ef57507f000000000000000000000000000000000000000000000000000000000000000046145b1561131957507f000000000000000000000000000000000000000000000000000000000000000090565b50604080517f00000000000000000000000000000000000000000000000000000000000000006020808301919091527f0000000000000000000000000000000000000000000000000000000000000000828401527f000000000000000000000000000000000000000000000000000000000000000060608301524660808301523060a0808401919091528351808403909101815260c0909201909252805191012090565b60008281526005602090815260408083206001600160a01b038516845290915290205460ff16156107995760008281526005602090815260408083206001600160a01b0385168085529252808320805460ff1916905551339285917ff6391f5c32d9c69d2a47ea670b442974b53935d1edc7fd64eb21e047a839171b9190a45050565b8154600090815b818110156114a457600061145b8284611766565b905084868281548110611470576114706125ce565b60009182526020909120015463ffffffff1611156114905780925061149e565b61149b8160016125a8565b91505b50611447565b81156114e857846114b66001846125bb565b815481106114c6576114c66125ce565b60009182526020909120015464010000000090046001600160e01b03166114eb565b60005b6001600160e01b031695945050505050565b6107998282611781565b6107998282611818565b6001600160a01b038281166000818152600860208181526040808420805485845282862054949093528787167fffffffffffffffffffffffff00000000000000000000000000000000000000008416811790915590519190951694919391928592917f3134e8a2e6d97e929a7e54011ea5485d7d196dd5f0ba4d4ef95803e8e3fc257f9190a4610fc7828483611830565b600063ffffffff82111561161e5760405162461bcd60e51b815260206004820152602660248201527f53616665436173743a2076616c756520646f65736e27742066697420696e203360448201527f32206269747300000000000000000000000000000000000000000000000000006064820152608401610786565b5090565b60006105ff61162f611296565b836040517f19010000000000000000000000000000000000000000000000000000000000006020820152602281018390526042810182905260009060620160405160208183030381529060405280519060200120905092915050565b600080600061169c8787878761196d565b915091506116a981611a5a565b5095945050505050565b6001600160a01b03811660009081526006602052604090208054600181018255905b50919050565b6106f8838383611c10565b60008281526005602090815260408083206001600160a01b038516845290915290205460ff1661079957611724816001600160a01b03166014611c42565b61172f836020611c42565b6040516020016117409291906125e4565b60408051601f198184030181529082905262461bcd60e51b82526107869160040161230c565b60006117756002848418612665565b61084f908484166125a8565b61178b8282611e23565b6002546001600160e01b03101561180a5760405162461bcd60e51b815260206004820152603060248201527f4552433230566f7465733a20746f74616c20737570706c79207269736b73206f60448201527f766572666c6f77696e6720766f746573000000000000000000000000000000006064820152608401610786565b610fc7600a611f0a83611f16565b611822828261208f565b610fc7600a61221b83611f16565b816001600160a01b0316836001600160a01b0316141580156118525750600081115b156106f8576001600160a01b038316156118e0576001600160a01b0383166000908152600960205260408120819061188d9061221b85611f16565b91509150846001600160a01b03167fdec2bacdd2f05b59de34da9b523dff8be42e5e38e818c82fdb0bae774387a72483836040516118d5929190918252602082015260400190565b60405180910390a250505b6001600160a01b038216156106f8576001600160a01b0382166000908152600960205260408120819061191690611f0a85611f16565b91509150836001600160a01b03167fdec2bacdd2f05b59de34da9b523dff8be42e5e38e818c82fdb0bae774387a724838360405161195e929190918252602082015260400190565b60405180910390a25050505050565b6000807f7fffffffffffffffffffffffffffffff5d576e7357a4501ddfe92f46681b20a08311156119a45750600090506003611a51565b8460ff16601b141580156119bc57508460ff16601c14155b156119cd5750600090506004611a51565b6040805160008082526020820180845289905260ff881692820192909252606081018690526080810185905260019060a0016020604051602081039080840390855afa158015611a21573d6000803e3d6000fd5b5050604051601f1901519150506001600160a01b038116611a4a57600060019250925050611a51565b9150600090505b94509492505050565b6000816004811115611a6e57611a6e612687565b03611a765750565b6001816004811115611a8a57611a8a612687565b03611ad75760405162461bcd60e51b815260206004820152601860248201527f45434453413a20696e76616c6964207369676e617475726500000000000000006044820152606401610786565b6002816004811115611aeb57611aeb612687565b03611b385760405162461bcd60e51b815260206004820152601f60248201527f45434453413a20696e76616c6964207369676e6174757265206c656e677468006044820152606401610786565b6003816004811115611b4c57611b4c612687565b03611ba45760405162461bcd60e51b815260206004820152602260248201527f45434453413a20696e76616c6964207369676e6174757265202773272076616c604482015261756560f01b6064820152608401610786565b6004816004811115611bb857611bb8612687565b036108945760405162461bcd60e51b815260206004820152602260248201527f45434453413a20696e76616c6964207369676e6174757265202776272076616c604482015261756560f01b6064820152608401610786565b6001600160a01b038381166000908152600860205260408082205485841683529120546106f892918216911683611830565b60606000611c5183600261269d565b611c5c9060026125a8565b67ffffffffffffffff811115611c7457611c746126b4565b6040519080825280601f01601f191660200182016040528015611c9e576020820181803683370190505b5090507f300000000000000000000000000000000000000000000000000000000000000081600081518110611cd557611cd56125ce565b60200101906001600160f81b031916908160001a9053507f780000000000000000000000000000000000000000000000000000000000000081600181518110611d2057611d206125ce565b60200101906001600160f81b031916908160001a9053506000611d4484600261269d565b611d4f9060016125a8565b90505b6001811115611dd4577f303132333435363738396162636465660000000000000000000000000000000085600f1660108110611d9057611d906125ce565b1a60f81b828281518110611da657611da66125ce565b60200101906001600160f81b031916908160001a90535060049490941c93611dcd816126ca565b9050611d52565b50831561084f5760405162461bcd60e51b815260206004820181905260248201527f537472696e67733a20686578206c656e67746820696e73756666696369656e746044820152606401610786565b6001600160a01b038216611e795760405162461bcd60e51b815260206004820152601f60248201527f45524332303a206d696e7420746f20746865207a65726f2061646472657373006044820152606401610786565b8060026000828254611e8b91906125a8565b90915550506001600160a01b03821660009081526020819052604081208054839290611eb89084906125a8565b90915550506040518181526001600160a01b038316906000907fddf252ad1be2c89b69c2b068fc378daa952ba7f163c4a11628f55a4df523b3ef9060200160405180910390a3610799600083836116db565b600061084f82846125a8565b825460009081908015611f615785611f2f6001836125bb565b81548110611f3f57611f3f6125ce565b60009182526020909120015464010000000090046001600160e01b0316611f64565b60005b6001600160e01b03169250611f7d83858763ffffffff16565b9150600081118015611fbb57504386611f976001846125bb565b81548110611fa757611fa76125ce565b60009182526020909120015463ffffffff16145b1561201b57611fc982612227565b86611fd56001846125bb565b81548110611fe557611fe56125ce565b9060005260206000200160000160046101000a8154816001600160e01b0302191690836001600160e01b03160217905550612086565b856040518060400160405280612030436115a2565b63ffffffff16815260200161204485612227565b6001600160e01b0390811690915282546001810184556000938452602093849020835194909301519091166401000000000263ffffffff909316929092179101555b50935093915050565b6001600160a01b03821661210b5760405162461bcd60e51b815260206004820152602160248201527f45524332303a206275726e2066726f6d20746865207a65726f2061646472657360448201527f73000000000000000000000000000000000000000000000000000000000000006064820152608401610786565b6001600160a01b0382166000908152602081905260409020548181101561219a5760405162461bcd60e51b815260206004820152602260248201527f45524332303a206275726e20616d6f756e7420657863656564732062616c616e60448201527f63650000000000000000000000000000000000000000000000000000000000006064820152608401610786565b6001600160a01b03831660009081526020819052604081208383039055600280548492906121c99084906125bb565b90915550506040518281526000906001600160a01b038516907fddf252ad1be2c89b69c2b068fc378daa952ba7f163c4a11628f55a4df523b3ef9060200160405180910390a36106f8836000846116db565b600061084f82846125bb565b60006001600160e01b0382111561161e5760405162461bcd60e51b815260206004820152602760248201527f53616665436173743a2076616c756520646f65736e27742066697420696e203260448201527f32342062697473000000000000000000000000000000000000000000000000006064820152608401610786565b6000602082840312156122b857600080fd5b81357fffffffff000000000000000000000000000000000000000000000000000000008116811461084f57600080fd5b60005b838110156123035781810151838201526020016122eb565b50506000910152565b602081526000825180602084015261232b8160408501602087016122e8565b601f01601f19169190910160400192915050565b80356001600160a01b038116811461235657600080fd5b919050565b6000806040838503121561236e57600080fd5b6123778361233f565b946020939093013593505050565b60008060006060848603121561239a57600080fd5b6123a38461233f565b92506123b16020850161233f565b9150604084013590509250925092565b6000602082840312156123d357600080fd5b5035919050565b600080604083850312156123ed57600080fd5b823591506123fd6020840161233f565b90509250929050565b60006020828403121561241857600080fd5b61084f8261233f565b803560ff8116811461235657600080fd5b60008060008060008060c0878903121561244b57600080fd5b6124548761233f565b9550602087013594506040870135935061247060608801612421565b92506080870135915060a087013590509295509295509295565b600080600080600080600060e0888a0312156124a557600080fd5b6124ae8861233f565b96506124bc6020890161233f565b955060408801359450606088013593506124d860808901612421565b925060a0880135915060c0880135905092959891949750929550565b6000806040838503121561250757600080fd5b6125108361233f565b91506123fd6020840161233f565b6000806040838503121561253157600080fd5b61253a8361233f565b9150602083013563ffffffff8116811461255357600080fd5b809150509250929050565b600181811c9082168061257257607f821691505b6020821081036116d557634e487b7160e01b600052602260045260246000fd5b634e487b7160e01b600052601160045260246000fd5b808201808211156105ff576105ff612592565b818103818111156105ff576105ff612592565b634e487b7160e01b600052603260045260246000fd5b7f416363657373436f6e74726f6c3a206163636f756e742000000000000000000081526000835161261c8160178501602088016122e8565b7f206973206d697373696e6720726f6c652000000000000000000000000000000060179184019182015283516126598160288401602088016122e8565b01602801949350505050565b60008261268257634e487b7160e01b600052601260045260246000fd5b500490565b634e487b7160e01b600052602160045260246000fd5b80820281158282048414176105ff576105ff612592565b634e487b7160e01b600052604160045260246000fd5b6000816126d9576126d9612592565b50600019019056fea2646970667358221220cf095a042cf3dfdcc3b9bd85302fd85167f7fd3dee5e7783651bb85ef0c3e33f64736f6c63430008110033",
  "linkReferences": {},
  "deployedLinkReferences": {}
}